:100000000C94B6040C94C21C0C94EF1C0C94DE04EB
:100010000C94DE040C94DE040C94DE040C94DE04D8
:100020000C94DE040C94DE040C94DE040C94DE04C8
:100030000C94DE040C94DE040C94DE040C94DE04B8
:100040000C942E1D0C94DE040C948A180C94D11878
:100050000C94DE040C94DE040C94DE040C94DE0498
:100060000C94DF130C94DE04084AD73B3BCE016EA0
:1000700084BCBFFDC12F3D6C74319ABD56833DDAFF
:100080003D00C77F11BED9E4BB4C3E916BAAAABE0E
:10009000000000803FFB00003E000B003600010026
:1000A000020003000000650054FFEF0000FA80002A
:1000B0000B1282000100020000000000000000009E
:1000C000000000000000280000FFFF4581FFFFFA4C
:1000D0007200000000000003E80000000100017F42
:1000E000FFFFFE8001001B00000000000000000078
:1000F0000000000000003E03304000000002CAE3A0
:10010000093E8000002000000000000000400000C8
:10011000006000000041FF000000000B2A000016F4
:100120005500002182FD872650FD800000001F0041
:100130000000058000000000000001000000020037
:100140000000030000400000000000046F00026592
:100150003200005EC040000000000000000000000F
:100160000000000000FB8C6F5DFD5D08D9007C7312
:100170003B006C12CC3200139D3200D0D632000806
:1001800000400001F4FFE68079020000000000D08A
:10019000D600002710FB0000004000000000000017
:1001A000000000000000000001000000000000014D
:1001B00000010000000000FA36FFBC308E0005FB95
:1001C000F0FFD95BC8FFD09ABE000010A9FFF41E53
:1001D000B200CEBBF70000000100000004000200E6
:1001E000020200000CFFC280000001800000CF80EE
:1001F00000400000000000000100000000000006B8
:1002000000000000140000000000000000000000DA
:1002100000000000000000000000000000000000DE
:1002200000000000000000000000000000000000CE
:10023000000000000000000000033F68B679352888
:10024000BCC67ED16C80000000400000000000B2FF
:100250006A00000000000000000000000000003FF5
:10026000F00000003000000000000000000000006E
:10027000000000000000000000000000000000007E
:1002800000000000000000254D002F706D000005EB
:10029000AE000C02D00000000000650054FFEF002B
:1002A0000000000000000001000044000000000CFD
:1002B0000000000100000000000065000000540084
:1002C00000FFEF0000000000000000000000000040
:1002D00000000000004000000000000000000000DE
:1002E00000000000004000000000000000000000CE
:1002F00000000000000000000100000002000000FB
:1003000000000000000000000000000000000000ED
:1003100000000000000000000000000000000000DD
:100320000000000000001B000000000000000000B2
:1003300000000000000000000000000000000000BD
:1003400000000000000000000000000000000000AD
:100350000040000000001B00000000000000000042
:10036000000000000000000000000000000000008D
:10037000000000000000000000000000000000007D
:10038000000000000000000000000000000000006D
:100390000000000000D8DCBAA2F1DEB2B8B4A88137
:1003A00091F74A907F916AF3F9DBA8F9B0BAA0807F
:1003B000F2CE81F3C2F1C1F2C3F3CCA2B280F1C696
:1003C000D880BAA7DFDFDFF2A7C3CBC5B6F087A21C
:1003D000942448703C95406834589B78A2F18392ED
:1003E0002D557DD8B1B4B8A1D09180F270F370F2E0
:1003F0007C80A8F101B09887D943D886C988BAA172
:10040000F20EB89780F1A9DFDFDFAADFDFDFF2AA03
:10041000C5CDC7A90CC92C97979797F1A9892646EE
:1004200066B0B4BA80ACDEF2CAF1B28C02A9B6985A
:1004300000890E161EB8A9B4992C547CB08AA896CF
:10044000365676F1B9AFB4B083C0B8A89711B18F62
:1004500098B9AFF0240844106418F1A329557DAF72
:1004600083B593AFF0002850F1A3869F61A6DADE32
:10047000DFD9FAA38696DB31A6D9F8DFBAA68FC2F8
:10048000C5C7B28CC1B8A2DFDFDFA3DFDFDFD8D8FA
:10049000F1B8A8B286B4980D355DB8AA98B0872D8A
:1004A000353DB2B6BAAF8C96198F9FA70E161EB403
:1004B0009AB8AA872C547CB9A3DEDFDFA3B180F2FF
:1004C000C4CDC9F1B8A9B499830D355D89B9A32DFF
:1004D000557DB593A30E161EA92C547CB8B4B0F16B
:1004E0009783A81184A50998A383F0DA24084410FF
:1004F0006418D8F1A529557DA58595021A2E3A567E
:100500005A4048F9F3A3D9F8F098832408441064BA
:10051000189782A8F111F098A2240844106418DA00
:10052000F3DED883A59401D9A302F1A2C3C5C7D82D
:10053000F18492A24DDA2AD84869D92AD86855DAC6
:1005400032D85071D932D8705DDA3AD85879D93A60
:10055000D87893A34DDA2AD84869D92AD86855DAC9
:1005600032D85071D932D8705DDA3AD85879D93A40
:10057000D878A88A9AF02850789EF38818F19F1DA1
:1005800098A8D908D8C89F129EF315A8DA1210D8D7
:10059000F1AFC8978734B5B994A421F3D922D8F222
:1005A0002DF3D92AD8F235F3D932D881A46060610D
:1005B000D961D86C6869D969D8747071D971D8B1AA
:1005C000A384193D5DA3831A3E5E93103081101100
:1005D000B8B0AF8F94F2DA3ED8B49AA88729DAF887
:1005E000D8879A35DAF8D8879A3DDAF8D8B1B9A41D
:1005F0009885022E56A581000C14A397B08AF12D80
:10060000D928D84DD948D86DD968D8B1840DDA0E1B
:10061000D8A32983DA2C0ED8A3844983DA2C4C0E74
:10062000D8B8B0A88A9AF520AADADFD8A840AAD00C
:10063000DADED8A860AADAD0DFD8F19786A8319B95
:10064000069907AB9728889BF00C201440B8B0B4EB
:10065000A88C9CF0042851791D301438B282ABD09C
:10066000982C505078789BF11AB0F08A9CA82951A8
:10067000798B2951798A2470598B2058718A446961
:10068000388B3940688A6448318B304960A58820AE
:100690000971584468113964493019F1AC002C547F
:1006A0007CF08CA804285078F1889726A85998AC3B
:1006B0008C02264666F0899CA829517924705944F9
:1006C0006938644831A98809205970AB11384069EC
:1006D000A8193148608CA83C415C207C00F18798C7
:1006E0001986A86E767EA999882D557D9EB9A38A14
:1006F000228A6E8A568A5E9FB183062646660E2E31
:100700004E6E9DB8AD002C547CF2B18CB499B9A357
:100710002D557D8191AC38AD3AB58391AC2DD9285A
:10072000D84DD948D86DD968D88C9DAE29D904AE9A
:10073000D851D904AED879D904D881F39DAD008DB4
:10074000AE1981ADD901D8F2AEDA26D88E912983BF
:10075000A7D9ADADADADF32AD8D8F1B0AC89913EF3
:100760005E76F3AC2E2EF1B18C5A9CAC2C28282846
:100770009CAC3018A8988128343C9724A728343C96
:100780009C24F2B089AC912C4C6C8A9B2DD9D8D882
:1007900051D9D8D879D9D8D8F19E88A331DAD8D808
:1007A000912DD928D84DD948D86DD968D8B183931F
:1007B000353D8025DAD8D88569DAD8D8B49381A3B5
:1007C00028343CF3AB8BF8A391B609B4D9ABDEFA6D
:1007D000B0879CB9A3DDF1A3A3A3A395F1A3A3A321
:1007E0009DF1A3A3A3A3F2A3B49080F2A3A3A3A318
:1007F000A3A3A3A3A3A3B2A3A3A3A3A3A3B087B5B7
:1008000099F1A3A3A398F1A3A3A3A397A3A3A3A33D
:10081000F39BA3A3DCB9A7F1262626D8D8FF037B38
:10082000034CCD6C03AB0336567600680402CB470D
:10083000A202180400058BC1010C04000000000393
:100840007F060CC92C979797038903264666006C90
:1008500002200002400400000000024404000000E6
:100860000002480400000000024C040000000002E6
:10087000500400000000025404000000000258046C
:1008800000000000025C040000000002BC04000044
:10089000000001EC0400004000037F060CC92C9707
:1008A00097970402030D355D040904872D353D003B
:1008B000A3010000000001078601FE074105F120A9
:1008C000283038077E01300746019A074704F1288F
:1008D0003038076C04F1283038021602000101B2EA
:1008E00002FFFF0190040923A135016A02060001FD
:1008F00060080000000000000000006004400000EC
:1009000000016202000000600400400000000000DE
:1009100000240027002A0000000000250028002BEA
:100920000000000000230026002900040404040441
:10093000040404020202020202030303030303018C
:100940000204081020408001020408102001020463
:100950000810200000000700020100000304060048
:100960000000000000000000C8150E1A11241FBE70
:10097000CFEFD8E0DEBFCDBF12E0A0E0B1E0E4EB06
:10098000F3E402C005900D92AA30B107D9F713E045
:10099000AAE0B2E001C01D92AF37B107E1F719E05C
:1009A000CCE6D9E004C02297FE010E94D421C836CB
:1009B000D107C9F70E941C1D0C94D8210C9400008B
:1009C000FB01DC0104C08D910190801921F441509C
:1009D0005040C8F7881B990B0895FB01DC0102C049
:1009E00001900D9241505040D8F708950E94031392
:1009F0000E94DC0B882309F040C008958CEC92E043
:100A000060E071E00E948F1B0E9403130E94F90BAB
:100A1000FC0140815181628173818CEC92E022E083
:100A200030E00E94761C8CEC92E065E071E00E9460
:100A30008F1B0E9403130E94F90BFC014481558116
:100A4000668177818CEC92E022E030E00E94761C97
:100A50008CEC92E065E071E00E948F1B0E94031312
:100A60000E94F90BFC0140855185628573858CECF1
:100A700092E022E030E00E94791C0E9403130E9461
:100A8000E10B882309F4BACF0E9403130E94FE0BE6
:100A90000895CF92DF92EF92FF920F931F930E94DF
:100AA000031364E97FEF48E854E020EF38E00CE1FD
:100AB00010E0F4EEEF2EFFEFFF2EE8E0CE2ED12C6B
:100AC0000E94EC111F910F91FF90EF90DF90CF905B
:100AD0000895CF92DF92FF920F931F93CF93DF93EE
:100AE000582F162F042F690180EC92E0652F0E9489
:100AF0008E1580EC92E0612F0E941016C02FD0E07E
:100B0000CC0FDD1FFF2412C0000F111F0C0D1D1D87
:100B1000F801618180EC92E00E94101680EC92E076
:100B2000F80160810E941016F2E0FF0E0F2D10E018
:100B30000C171D074CF380EC92E00E94531690E0D6
:100B4000882309F491E0892FDF91CF911F910F91B4
:100B5000FF90DF90CF900895DF93CF9300D0CDB773
:100B6000DEB75A83498341E09E012F5F3F4F0E94C9
:100B700069050F900F90CF91DF910895EF92FF924A
:100B80000F931F93CF93DF93582F162FE42E022F2E
:100B9000F32E80EC92E0652F0E948E1580EC92E09F
:100BA000612F0E941016202F3F2DC901EC0110E08B
:100BB00006C080EC92E069910E9410161F5F1E151E
:100BC000C0F380EC92E00E94531690E0882309F471
:100BD00091E0892FDF91CF911F910F91FF90EF90BE
:100BE0000895DF93CF930F92CDB7DEB7498341E0ED
:100BF0009E012F5F3F4F0E94BE050F90CF91DF9166
:100C000008952F923F924F925F926F927F928F92B0
:100C10009F92AF92BF92CF92DF92EF92FF920F938B
:100C20001F93DF93CF9300D000D00F92CDB7DEB7E4
:100C3000882E6983942E3B832A830E94761D5B0154
:100C40006C01FF24EE24292C332428016624772408
:100C50004BC080EC92E0682D0E948E1580EC92E0F3
:100C600069810E94101680EC92E00E94531680EC7D
:100C700092E0682D0E948E15A1014E195109413252
:100C8000510514F040E250E080EC92E0682D0E94A3
:100C900064162F2D332727FD30958A819B81280FDD
:100CA000391F3D832C8380EC92E00E949815892B9C
:100CB00009F452C00115110561F00E94761D6A19F0
:100CC0007B098C099D09641575058605970508F053
:100CD00043C080EC92E00E94A115EC81FD818193DC
:100CE000FD83EC83F394DFCFE91408F4B2CF011550
:100CF0001105C9F00E94761D6A197B098C099D09AE
:100D0000980140E050E0621773078407950758F098
:100D10002F2D332727FD3095892D90E0281739078F
:100D200014F4FF24FA948F2D0F900F900F900F90D2
:100D30000F90CF91DF911F910F91FF90EF90DF9077
:100D4000CF90BF90AF909F908F907F906F905F906B
:100D50004F903F902F900895892DF0E2F91508F4F7
:100D600080E2E80EC1CF0F931F93FA01890141E0A1
:100D70009F010E9401061F910F910895DF92EF924B
:100D8000FF920F931F93DF93CF930F92CDB7DEB7F0
:100D9000E82ED62EF42E122F2091E2013091E3019D
:100DA000AE014F5F5F4F0E94B306882341F1212FB0
:100DB00030E04F2D50E04F5F5F4F421B530B81E0FF
:100DC00090E002C0880F991F1A95E2F70197042E50
:100DD00002C0880F991F0A94E2F7202F30E002C06A
:100DE000220F331F4A95E2F7482F4095598145233A
:100DF0008223482B49838E2D6D2D0E94F1050F9083
:100E0000CF91DF911F910F91FF90EF90DF900895A8
:100E1000EF92FF920F931F93DF93CF930F92CDB773
:100E2000DEB7F82EE62E042F122F2091E20130912A
:100E3000E301AE014F5F5F4F0E94B306298111238A
:100E400051F081E090E002C0880F991F0A95E2F707
:100E5000422F482B0AC081E090E002C0880F991F02
:100E60000A95E2F7482F4095422349838F2D6E2D36
:100E70000E94F1050F90CF91DF911F910F91FF908C
:100E8000EF900895CF92DF92EF92FF920F931F930E
:100E9000DF93CF930F92CDB7DEB7C42ED22E97013A
:100EA000AE014F5F5F4F0E94B306682F882309F1A0
:100EB0008D2D90E04C2D50E04F5F5F4F481B590B3C
:100EC00021E030E002C0220F331FDA94E2F7215014
:100ED0003040042E02C0220F331F0A94E2F78981AA
:100EE000822390E002C0959587954A95E2F7F80134
:100EF0008083862F0F90CF91DF911F910F91FF90EC
:100F0000EF90DF90CF900895DF92EF92FF920F93D2
:100F10001F93DF93CF930F92CDB7DEB7D42E790115
:100F20009801AE014F5F5F4F0E94B30621E030E0B1
:100F300002C0220F331FDA94E2F799819223F7015E
:100F400090830F90CF91DF911F910F91FF90EF90C1
:100F5000DF900895FC0188E680830895FC01462F08
:100F6000808161E70E94F1050895FC01462F808190
:100F700060E70E94F1050895FC01462F80816EE62E
:100F80000E94F1050895FC01962F9F712111906236
:100F90004111906480816DE6492F0E94F10508950A
:100FA000FC01462F808168E30E94F1050895FC0151
:100FB000862F643040F463E0869FB00111246B5D9E
:100FC00080810E94F1050895FC01462F808162E234
:100FD0000E94F1050895FC01462F808161E20E9484
:100FE000F1050895FC01462F808160E20E94F10521
:100FF0000895FC01462F80816FE10E94F10508955C
:10100000FC01462F808169E10E94F10508950F934C
:101010001F938C01AC014F5F5F4F2091E201309133
:10102000E301FC0180816FE60E94B306F801818133
:101030001F910F9108950F931F938C01AC014F5F87
:101040005F4F2091E2013091E301FC0180816AE36E
:101050000E94B306F80181811F910F9108954F926C
:101060005F926F927F929F92AF92BF92CF92DF92E8
:10107000EF92FF920F931F93CF93DF936C013B018D
:101080005A01922EE02E622F40E020E00E94C3071A
:10109000C601602F0E94BC07C0E0D0E0412C91E067
:1010A000592E34C0CE014096A816B90618F080E13A
:1010B000F82E02C0FA2CFC1A2F2D30E0C2018E1936
:1010C00091098217930714F4FE2CF19493012C0FCD
:1010D0003D1F0091E2011091E301F60180816FE66E
:1010E0004F2D0E940106CF0DD11DEF0CCA15DB0557
:1010F00068F4EE2009F49394C601692D40E020E0E5
:101100000E94C307C6016E2D0E94BC07CA15DB05ED
:1011100048F2DF91CF911F910F91FF90EF90DF90F8
:10112000CF90BF90AF909F907F906F905F904F90C7
:1011300008950F931F93FC019B010091E201109110
:10114000E301808164E70E9401061F910F910895D9
:10115000EF92FF920F931F937C019C012F5F3F4FF3
:101160000091E2011091E301FC01808162E742E01D
:101170000E940106F701918180E0228130E0282B56
:10118000392BC9011F910F91FF90EF9008953F9265
:101190004F925F926F927F928F929F92AF92BF9287
:1011A000CF92DF92EF92FF920F931F93DF93CF9333
:1011B00000D000D0CDB7DEB75C017A8369832A0105
:1011C000622E702E3E2CEC2C622F40E020E00E941C
:1011D000C307C501602F0E94BC07332029F080E1BE
:1011E00090E00E9473164C01EE2029F080E190E01F
:1011F0000E9473166C011C821B827BC08B819C81B8
:1012000040964816590618F0E0E1FE2E03C0F42C73
:101210008B81F81A2F2D30E080E091E08719910939
:101220008217930714F4F72CF194E981FA81AB81CA
:10123000BC81EA0FFB1FEE2089F0AF0120E030E017
:101240000AC0FA018491F601E20FF31F80832F5F39
:101250003F4F4F5F5F4F2F15A0F301C06F01D501C6
:101260008C916FE64F2D96010E94BE05332051F1FF
:101270008114910439F1C501662D40E020E00E94FF
:10128000C307C501672D0E94BC070091E2011091C0
:10129000E301F50180816FE64F2D94010E94010664
:1012A000C601B4014F2D50E00E94E004009751F0B8
:1012B000C4010E941017EE2019F0C6010E941017F9
:1012C00080E028C08B819C818F0D911D9C838B8336
:1012D0007F0C8415950568F4772009F46394C501A3
:1012E000662D40E020E00E94C307C501672D0E94E3
:1012F000BC07AB81BC81A415B50508F47FCF3320B2
:1013000019F0C4010E941017EE2019F0C6010E94C6
:10131000101781E00F900F900F900F90CF91DF91F9
:101320001F910F91FF90EF90DF90CF90BF90AF9003
:101330009F908F907F906F905F904F903F90089517
:101340002F923F924F925F926F927F928F929F92D5
:10135000AF92BF92CF92EF92FF920F931F93CF93D2
:10136000DF932C014B011A01F22E222309F47CC0D9
:1013700088E090E00E9473165C0176C0AE014F5F7A
:101380005F4FF401EC0FFD1FFF2091F08491BA0133
:101390006F5F7F4F480D591DFA019491EB01219623
:1013A000680D791DFB016491E82E092F162F0DC0E1
:1013B000E080F401E40FF51F0081CA010196F401F9
:1013C000E80FF91F1081EC012196112389F1FF200C
:1013D000F1F0133030F0C501612F70E00E94A817C2
:1013E0005C01A4014C0F5D1F20E030E0612F70E034
:1013F0000AC0FA018491F501E20FF31F80832F5F89
:101400003F4F4F5F5F4F2617370798F303C05401D4
:10141000AC0EBD1E612E7724C201B501A3012E2D95
:10142000EE24E394CC240E94C708882301F515C05C
:10143000F401EC0FFD1FCE010196FF2019F0EC0125
:10144000249102C02081EC01213039F4F201808125
:1014500068E342E30E94F1050CC0FF2019F0C501CA
:101460000E94101780E00FC0C0E0D0E002C0C60D9F
:10147000D71DC215D30508F481CFFF2019F0C5018F
:101480000E94101781E0DF91CF911F910F91FF9083
:10149000EF90CF90BF90AF909F908F907F906F9084
:1014A0005F904F903F902F90089521E00E94A009F7
:1014B0000895CF92EF920F93CC24C3940E94C70853
:1014C0000F91EF90CF900895FC0180816AE643E090
:1014D00021E00E9408070895FC01262F80816AE61A
:1014E00047E00E9408070895FC01262F808160E0F4
:1014F00040E00E9408070895FC01262F80816BE6DA
:1015000046E00E9408070895FC0180816BE647E0F1
:1015100021E00E9408070895FC0180816AE641E00D
:1015200021E00E9408070895FC0180816AE642E0FC
:1015300021E00E9408070895FC01262F80816AE6B9
:1015400045E00E9408070895FC01262F80816AE685
:1015500046E00E9408070895EF92FF920F931F93B1
:101560007C019C012F5F3F4F0091E2011091E3014C
:10157000FC01808160E040E00E948407F7018181E6
:101580001F910F91FF90EF900895FC01AB018081B6
:1015900067E10E94AC050895FC01AB01808165E123
:1015A0000E94AC050895FC01AB01808163E10E94BB
:1015B000AC050895FC01AB0180816AE00E94AC0596
:1015C0000895FC01AB01808168E00E94AC0508959C
:1015D000FC01AB01808166E00E94AC0508950F9389
:1015E000FC01062F808162E046E026E00E94BE06F4
:1015F0000F9108950F93FC01062F808161E046E072
:1016000026E00E94BE060F9108950F93FC01062F5D
:10161000808160E046E026E00E94BE060F910895BA
:101620000F93FC01062F80816BE642E023E00E94CD
:10163000BE060F9108950F93FC01062F80816CE187
:1016400044E022E00E94BE060F9108950F93FC0132
:10165000062F80816BE144E022E00E94BE060F91DC
:1016600008950F931F938C0161E00E94100BC80135
:1016700060E00E94260BC80160E00E941B0BC801BD
:1016800060E00E947C0A1F910F9108950F93FC0166
:10169000062F80816AE142E023E00E94BE060F919E
:1016A00008950F93FC01062F80816AE145E023E055
:1016B0000E94BE060F910895CF92DF92EF92FF92A3
:1016C0000F931F936C018C010F5F1F4FE090E2019D
:1016D000F090E301FC01808162E046E026E00E9498
:1016E0004207F60181811F910F91FF90EF90DF90EB
:1016F000CF900895CF92DF92EF92FF920F931F93B6
:101700006C018C010F5F1F4FE090E201F090E3014C
:10171000FC01808161E046E026E00E944207F6017C
:1017200081811F910F91FF90EF90DF90CF900895EE
:10173000CF92DF92EF92FF920F931F936C018C0177
:101740000F5F1F4FE090E201F090E301FC01808108
:1017500060E046E026E00E944207F60181811F9189
:101760000F91FF90EF90DF90CF900895CF92DF928E
:10177000EF92FF920F931F936C018C010F5F1F4F2D
:10178000E090E201F090E301FC01808165E746E032
:1017900026E00E944207F60181811F910F91FF9080
:1017A000EF90DF90CF9008950E94B60B90E08433C5
:1017B00009F491E0892F0895FC01E357FF4F8081E0
:1017C0000895DC01A257BF4F8C91AE58B0408823DA
:1017D00069F440E0FD01EF59FF4FAD59BF4F2D9126
:1017E0003C91808191812817390708F041E0842FCE
:1017F00008959C012F573F4FC90108952F923F92A2
:101800004F925F926F927F928F929F92AF92BF9210
:10181000CF92DF92EF92FF920F931F93DF93CF93BC
:10182000CDB7DEB764970FB6F894DEBF0FBECDBF5D
:1018300082579F4FDC011C92AE58B040BC8BAB8BE3
:10184000BB88AC888B2D9A2D0E941B08EB89FC89E4
:10185000808B8B899C890E94A8089C010B891C891C
:101860000D591F4FD8018D939C93EB89FC8980897A
:1018700084FD03C02050344059F48B2D9A2D0E94D2
:10188000940A8CEC92E067E071E00E948C1C3BC3F0
:1018900081FD09C038C38B2D9A2D0E94A808D7015D
:1018A0008D939C9308C0E1E6CE2ED12CEB89FC8968
:1018B000CE0EDF1E7801D6014D915C91F70180813B
:1018C00091818417950738F36B897C896F5E7F4F10
:1018D0008B2D9A2D0E949908D8018D919C9111977A
:1018E000F60120813181821B930B8D939C9375E6C9
:1018F000E72EF12C2B893C89E20EF31E2F5A3F4F25
:10190000D901ED91FD91708160E0ED91FC9111970D
:10191000A355B040BC8BAB8B208130E0622B732B86
:10192000882777FD8095982F0E94E21F20E030E005
:1019300040E858E30E94C220F701608371838283EC
:1019400093830B891C8907591F4F2B893C892B5A7C
:101950003F4FD901ED91FD91708160E0ED91FC91D7
:101960001197A755B040BC8BAB8B208130E0622B28
:10197000732B882777FD8095982F0E94E21F20E027
:1019800030E040E858E30E94C220F8016083718390
:10199000828393830B891C8903591F4F2B893C89B0
:1019A000275A3F4FD901ED91FD91708160E0ED9193
:1019B000FC911197AB55B040BC8BAB8B208130E0D4
:1019C000622B732B882777FD8095982F0E94E21F4A
:1019D00020E030E040E858E30E94C220F801608334
:1019E0007183828393830B891C890F581F4F2B8926
:1019F0003C89235A3F4FD901ED91FD91708160E000
:101A0000ED91FC911197AF55B040BC8BAB8B208111
:101A100030E0622B732B882777FD8095982F0E94EA
:101A2000E21F20E030E040E858E30E94C220F801C5
:101A300060837183828393836701AA24BB24D601C8
:101A4000ED90FD900D911C91C801B70120E030E0B0
:101A500040E050E40E94B72088236CF0C801B70131
:101A600020E030E040E850E40E947C1EF6016083F4
:101A70007183828393830894A11CB11C24E030E01D
:101A8000C20ED31E34E0A316B104C9F68B899C891B
:101A90008B589F4F9E838D8369E6662E712CAB8990
:101AA000BC896A0E7B1EAF58BF4FB887AF83F30166
:101AB00060817181828193812D913D914D915C91E5
:101AC0000E94C2207B018C0155E6C52ED12C2B89AA
:101AD0003C89C20ED31E4DE6842E912C820E931E9D
:101AE000D6016D917D918D919C91F4012081318180
:101AF000428153810E94C2209B01AC01C801B70101
:101B00000E947C1E9B01AC010E947D1EAD81BE81A6
:101B10006D937D938D939C931397EB89FC89E75884
:101B2000FF4FFA87E987D6016D917D918D919C9148
:101B3000F30120813181428153810E94C2207B01C7
:101B40008C01D4016D917D918D919C91EF81F885EF
:101B500020813181428153810E94C2209B01AC01CE
:101B6000C801B7010E947D1E9B01AC010E947D1E31
:101B7000A985BA856D937D938D939C931397F601F8
:101B8000A080B180C280D380D3012D903D904D9034
:101B90005C90F4016080718082809380AF81B88511
:101BA0008D919D910D90BC91A02D89839A83AB83DB
:101BB000BC83EB89FC89E358FF4FFC8BEB8BC601A0
:101BC000B501A60195010E94C2207B018C01C201D2
:101BD000B101A20191010E94C2209B01AC01C80188
:101BE000B7010E947C1E7B018C01C401B301A401DA
:101BF00093010E94C2209B01AC01C801B7010E9461
:101C00007C1E7B018C0169817A818B819C819B0187
:101C1000AC010E94C2209B01AC01C801B7010E9427
:101C20007D1E6B877C878D879E87AB89BC896D9372
:101C30007D938D939D93BC8BAB8BC201B101A201AF
:101C400091010E947D1E6F87788B898B9A8BA401EE
:101C500093010E94C2207B018C01C601B50120E0E6
:101C600030E040E050EC0E94C22029813A814B8153
:101C70005C810E94C2209B01AC01C801B7010E9497
:101C80007D1E3B014C01C601B501A60195010E94D4
:101C90007D1EA60195010E94C2207B018C016F85EB
:101CA000788989899A89A20191010E94C2209B01A9
:101CB000AC01C801B7010E947D1E20E030E040E881
:101CC0005FE30E947C1E9B01AC01C401B3010E9432
:101CD000F01E20E030E044E353E40E94C2202BEDEC
:101CE0003FE049E450E40E94471FEB89FC89608390
:101CF000718382839383E158F040FC8BEB8BA98541
:101D0000BA85AD90BD90CD90DC90C601B501A6011D
:101D100095010E94C2207B018C016B857C858D859D
:101D20009E859B01AC010E94C2203B014C01C80171
:101D3000B701A40193010E947D1E0E9429219B01ED
:101D4000AC01ED81FE8160817181828193810E946D
:101D5000471F0E941B1F25E8422E512C2B893C89CE
:101D6000420E531E20E030E044E353E40E94C220C0
:101D70002BED3FE049E450E40E94471FD2016D93F0
:101D80007D938D939C931397ED81FE81208131810A
:101D900042815381CA01B9010E94C220A40193016A
:101DA0000E947D1E0E9429219B01AC01C601B50144
:101DB0000E94471F0E941B1F2B893C8927573F4FBA
:101DC0003C8B2B8B20E030E044E353E40E94C220A4
:101DD0002BED3FE049E450E40E94471FAB89BC89EA
:101DE0006D937D938D939C931397A958B040BC8BB2
:101DF000AB8B6B857C858D859E8520E030E040E057
:101E000050E00E94431F8823ACF5F201E080F1808E
:101E100002811381C801B70120E030E040E050E0CA
:101E20000E94B72018167CF460E070E084E393E42D
:101E3000A80197010E947C1ED2016D937D938D9322
:101E40009C93139717C0C801B70120E030E040E031
:101E500050E00E94431F88236CF460E070E084E34C
:101E600093ECA80197010E947C1EF20160837183AC
:101E700082839383EB89FC89E358FF4F60817181F2
:101E80008281938120E030E040E050E00E94431FD7
:101E90008823CCF589E8C82ED12C2B893C89C20E29
:101EA000D31ED601ED90FD900D911C91C801B70194
:101EB00020E030E040E050E00E94B72018162CF4FB
:101EC00060E070E084E393E415C02B893C892B57D4
:101ED0003F4FD9016D917D918D919C9120E030E033
:101EE00040E050E00E94431F88236CF460E070E003
:101EF00084E393ECA80197010E947C1EF6016083A5
:101F000071838283938364960FB6F894DEBF0FBE0D
:101F1000CDBFCF91DF911F910F91FF90EF90DF9098
:101F2000CF90BF90AF909F908F907F906F905F9079
:101F30004F903F902F900895AF92BF92CF92EF9223
:101F4000FF920F931F93DF93CF93CDB7DEB7C059A6
:101F5000D0400FB6F894DEBF0FBECDBF182FF92EBC
:101F60000E94840A6EE170E080E090E00E94BF1D54
:101F7000812F9F2D60E00E947C0A812F9F2D60E1C0
:101F800041E021E00E94C307812F9F2D66E00E945F
:101F9000BC07812F9F2D0E940708812F9F2D60E095
:101FA00040E020E00E94C307812F9F2D0E94AC0AD1
:101FB000812F9F2D0E94980BA82E812F9F2D0E946C
:101FC0007A0BB82E812F9F2D0E945C0BC82E812F7B
:101FD0009F2D60E04FE70E94D707812F9F2D60E083
:101FE0000E949C0A812F9F2D60E048E60E94D7073F
:101FF000812F9F2D0E948C0A64E170E080E090E0C8
:102000000E94BF1D812F9F2D65E970E049E857E0D0
:1020100020E000E0EE24E3940E94590A882311F4A2
:1020200081E0C9C1812F9F2D6EE178E040EC50E046
:102030000E94550A882311F482E0BDC1812F9F2D93
:1020400063E00E94100B812F9F2D62E10E94D00758
:10205000812F9F2D64E00E940008812F9F2D61E059
:102060000E94510B812F9F2D63E00E94460B812F10
:102070009F2D63E00E94260B812F9F2D63E00E941D
:10208000B507812F9F2D60E00E94AE07812F9F2D05
:1020900060E00E94740A812F9F2D6A2D0E94050B1B
:1020A000812F9F2D6B2D0E94FA0A812F9F2D6C2D61
:1020B0000E94EF0AAA24BB24BE016F5F7F4FF50187
:1020C000E252F74FE491DB01AA0DB11DEC932A2DEA
:1020D0002F5F0894A11CB11C83E08A1580F74B8107
:1020E000842F90E0029630E08217930744F7812F07
:1020F0009F2DBE016C5F7F4F50E029810A81EE2445
:10210000E394CC240E94C70850E0BE016F5F7F4F6C
:10211000F501E252F74FE491DB01A50FB11DEC93FD
:102120005F5F0894A11CB11C543090F34B81842F45
:1021300090E00296252F30E0821793074CF7812F0D
:102140009F2DBE016C5F7F4F50E029810A81EE24F4
:10215000E394CC240E94C708812F9F2D0E94940AEB
:10216000812F9F2D0E94A808482F812F9F2DBE01EF
:102170006F5E7F4F0E949908812F9F2D62E00E9421
:10218000F907812F9F2D6CE90E94EB07812F9F2D6E
:1021900060E50E94F207812F9F2D60E00E94E40716
:1021A000812F9F2D0E94940A812F9F2D61E00E9414
:1021B000A40A812F9F2D61E00E946C0A812F9F2D20
:1021C0000E94640A50E0BE016F5F7F4FF501E2524A
:1021D000F74FE491DB01A50FB11DEC935F5F08940D
:1021E000A11CB11C543090F34B81842F90E00296D7
:1021F000252F30E0821793074CF7812F9F2DBE01CA
:102200006C5F7F4F50E029810A81EE24E394CC2457
:102210000E94C70850E0BE016F5F7F4FF501E25298
:10222000F74FE491DB01A50FB11DEC935F5F0894BC
:10223000A11CB11C543090F34B81842F90E0029686
:10224000252F30E0821793074CF7812F9F2DBE0179
:102250006C5F7F4F50E029810A81EE24E394CC2407
:102260000E94C70850E0BE016F5F7F4FF501E25248
:10227000F74FE491DB01A50FB11DEC935F5F08946C
:10228000A11CB11C543090F34B81842F90E0029636
:10229000252F30E0821793074CF7812F9F2DBE0129
:1022A0006C5F7F4F50E029810A81EE24E394CC24B7
:1022B0000E94C708812F9F2D0E94A808AC0183307F
:1022C0009105C0F3812F9F2DBE016F5E7F4F0E944D
:1022D0009908812F9F2D0E941B0850E0BE016F5F5F
:1022E0007F4FF501E252F74FE491DB01A50FB11DDD
:1022F000EC935F5F0894A11CB11C543090F34B81A8
:10230000842F90E00296252F30E0821793074CF738
:10231000812F9F2DBE016C5F7F4F50E029810A8184
:102320000E942F08812F9F2D0E94A808AC018330A6
:102330009105C0F3812F9F2DBE016F5E7F4F0E94DC
:102340009908812F9F2D0E941B0850E0BE016F5FEE
:102350007F4FF501E252F74FE491DB01A50FB11D6C
:10236000EC935F5F0894A11CB11C543090F34B8137
:10237000842F90E00296252F30E0821793074CF7C8
:10238000812F9F2DBE016C5F7F4F50E029810A8114
:10239000EE24E394CC240E94C708812F9F2D60E097
:1023A0000E946C0A812F9F2D0E94940A812F9F2DDD
:1023B0000E941B0880E0C057DF4F0FB6F894DEBFC5
:1023C0000FBECDBFCF91DF911F910F91FF90EF9086
:1023D000CF90BF90AF9008954F925F926F927F928F
:1023E0008F929F92AF92BF92CF92DF92EF92FF9225
:1023F0000F931F93CF93DF93EC015B014A013901E7
:10240000280180EC92E00E94681688E18093B80071
:102410008CEC92E040E052EC61E070E00E94011927
:102420001C2F0D2FCE010E94310BCE010E94D40B28
:10243000882319F466E171E002C060E371E08CEC7E
:1024400092E00E948C1C8CEC92E06EE471E00E94A1
:102450008C1CCE010E949C0F8F87812F902FB5017D
:102460000E94E80A812F902FB4010E94E10A812F77
:10247000902FB3010E94DA0A812F902FB2010E949F
:10248000D30A812F902FB7010E94CC0A812F902F61
:10249000B6010E94C50A8F85882379F58CEC92E0FD
:1024A00062E671E00E948C1C812F902F61E00E94F7
:1024B0006C0A8CEC92E062E771E00E948C1C80E078
:1024C0006EE173E143E050E00E949F1C812F902F4A
:1024D0000E941B08888B8CEC92E062E971E00E94FC
:1024E0008C1CC357DF4F81E08883AC978AE290E071
:1024F00099838883C156D04013C08CEC92E061EB85
:1025000071E00E948F1B8CEC92E06F854AE050E0F6
:102510000E943D1B8CEC92E062ED71E00E948C1CED
:102520008F85DF91CF911F910F91FF90EF90DF90FA
:10253000CF90BF90AF909F908F907F906F905F9063
:102540004F9008950F931F938C010E94AA07F801E2
:102550001786108A0F591F4FF801119211928F019F
:1025600011821082065D1F4FF80111928F011082B7
:102570000E581040F801EF5AFF4F0F5E1F4F1183A6
:10258000008301511040F801ED5AFF4F0E5E1F4FBE
:102590001183008302511040F801EB5AFF4F0B5E8C
:1025A0001F4F1183008305511040F801E95AFF4F76
:1025B0000A5E1F4F1183008306511040F801E75A4D
:1025C000FF4F075E1F4F1183008309511040F80130
:1025D000E55AFF4F065E1F4F118300830A511040DA
:1025E000F801E35AFF4F035E1F4F118300830D5123
:1025F0001040C8014E96015A1F4FF8019183808305
:102600001F910F9108950F931F9380910A0290914B
:102610000B02892B61F48FE890E00E942B1D182F8C
:10262000092F0E94A21210930A0200930B028091BC
:102630000A0290910B021F910F9108950E940313BB
:10264000FC01E257FF4F81E080830895382F41322B
:1026500010F040E042C080910C028823E1F791E045
:1026600090930C0220930E028FEF809379021092C8
:1026700034024150409335024F5F90930D02809198
:102680000D02330F832B80930D0280910F02813056
:1026900041F410920F0280910D028093BB0085ECF3
:1026A00001C085EE8093BC0080910C028130E1F383
:1026B00080913402841710F44091340220E030E01D
:1026C0000AC0FB01E20FF31FD901AC5EBD4F8C9134
:1026D00080832F5F3F4F2417A0F3842F08950F931B
:1026E0001F93582F122F413210F081E04AC0809181
:1026F0000C028823E1F782E080930C0200930E0223
:102700008FEF809379021092340240933502A4E156
:10271000B2E0FB0102C081918D938E2F861B84173E
:10272000D0F310920D0280910D02550F852B8093EE
:102730000D0280910F02813041F410920F028091BE
:102740000D028093BB0085EC01C085EE8093BC0038
:10275000112321F080910C028230E1F38091790203
:102760008F3F11F480E00DC080917902803211F426
:1027700082E007C080917902803311F084E001C0CB
:1027800083E01F910F910895482F613210F081E08E
:10279000089580910C02843011F082E008956093D6
:1027A0005702A6E3B2E0842F9C01F90102C0819197
:1027B0008D938E2F841B8617D0F380E008951F928F
:1027C0000F920FB60F9211242F933F934F935F9365
:1027D0006F937F938F939F93AF93BF93EF93FF93E9
:1027E0008091B90090E0887F90708036910509F45F
:1027F000F2C081369105CCF58832910509F47BC091
:1028000089329105B4F48031910509F46FC08131AA
:1028100091053CF4009709F447C1089709F04FC1AE
:1028200065C08831910509F466C0809709F047C1F9
:1028300082C08034910509F4A4C08134910544F428
:102840008033910509F482C0C89709F038C189C066
:102850008035910509F489C08835910509F496C041
:102860008834910509F02BC1AEC08839910509F46F
:1028700013C189399105ECF48837910509F4ABC08F
:10288000893791054CF48836910509F4A4C0803746
:10289000910509F014C19FC08838910509F4FCC066
:1028A0008039910509F49DC08038910509F007C170
:1028B00098C0803B910509F4C6C0813B91054CF45A
:1028C000803A910509F49FC0883A910509F0F7C054
:1028D000BAC0803C910509F4E3C0883C910509F435
:1028E000DFC0883B910509F0EAC0C2C080910D02AB
:1028F0008093BB00CFC0909134028091350298172D
:1029000068F490913402E92FF0E0EC5EFD4F808195
:102910008093BB009F5F90933402BCC080910E02F5
:10292000882309F44BC085ED8093BC008091BC00E6
:1029300084FDFCCFC2C080E28093790285ED809354
:10294000BC008091BC0084FDFCCFB7C080E38093C5
:10295000790285ED8093BC008091BC0084FDFCCFA2
:10296000ACC088E3809379029BC08091340290913F
:10297000BB00E82FF0E0EC5EFD4F90838F5F80930B
:102980003402909134028091350282C080913402E9
:102990009091BB00E82FF0E0EC5EFD4F90838F5FDD
:1029A0008093340280910E02882341F085ED80935C
:1029B000BC008091BC0084FDFCCF7FC081E080938F
:1029C0000F0284EA6EC085ED8093BC008091BC004C
:1029D00084FDFCCF72C083E080930C0210927802D9
:1029E00059C080917802803208F056C080917802F8
:1029F0009091BB00E82FF0E0E85AFD4F90838F5F85
:102A00008093780247C080917802803230F4E09160
:102A10007802F0E0E85AFD4F108285ED8093BC000B
:102A20008091BC0084FDFCCF10920C026091780272
:102A3000E0911202F091130288E592E070E00995AE
:102A4000109278022DC084E080930C0210925602FE
:102A500010925702E0911002F091110209958091B5
:102A60005702882329F481E080935702109236029E
:102A700090915602E92FF0E0EA5CFD4F808180934F
:102A8000BB009F5F9093560290915602809157022F
:102A9000981710F485EC01C085E88093BC000FC046
:102AA00085EC8093BC0009C01092790285ED80937B
:102AB000BC008091BC0084FDFCCF10920C02FF9101
:102AC000EF91BF91AF919F918F917F916F915F91A6
:102AD0004F913F912F910F900FBE0F901F9018951F
:102AE00010920C0281E080930E0210920F0282E19C
:102AF00061E00E94271E83E161E00E94271EE9EB4E
:102B0000F0E080818E7F808380818D7F808388E468
:102B10008093B80085E48093BC00089581E08093A1
:102B2000BF0260939C021092BD021092BE020895F3
:102B300020919B0230E080919A02281B3109C90143
:102B4000089540919A0280919B02481718F02FEF48
:102B50003FEF0AC0E42FF0E0E658FD4F8081282FB8
:102B600030E04F5F40939A02C9010895E0919A02C4
:102B700080919B02E81718F0EFEFFFEF06C0F0E03E
:102B8000E658FD4F8081E82FF0E0CF0108950895C9
:102B90001092C3021092C20288EE93E0A0E0B0E06F
:102BA0008093C4029093C502A093C602B093C7025B
:102BB0008EEE91E09093C1028093C0020895CF926F
:102BC000DF92EF92FF920F931F93CF93DF937C01DD
:102BD0006B018A018091BF028823A1F0C0E0D0E0A0
:102BE0000DC0D701ED91FC91D601AC0FBD1F019036
:102BF000F081E02DC7016C9109952196C017D1078E
:102C000080F304C0CB01642F0E94C413C801DF917C
:102C1000CF911F910F91FF90EF90DF90CF9008958B
:102C2000DF93CF930F92CDB7DEB7FC01698380911C
:102C3000BF028823C9F08091BE02803238F081E063
:102C400090E09383828320E030E015C08091BD0244
:102C5000E82FF0E0E356FD4F998190838F5F8093DA
:102C6000BD028093BE0205C0CE01019661E00E94C4
:102C7000C41321E030E0C9010F90CF91DF91089596
:102C80000F93062F80919C026DE972E04091BE0285
:102C900021E00E946F131092BD021092BE021092AA
:102CA000BF020F91089561E00E94401608954132DD
:102CB00008F040E2862F6AE772E00E942613109225
:102CC0009A0280939B02089521E00E94571608956E
:102CD00010929A0210929B021092BD021092BE02B4
:102CE0000E94701508950F931F93CF93DF93BC013B
:102CF0008230910510F462E070E0E0917D03F09184
:102D00007E0340E050E0A0E0B0E024C080819181EB
:102D100086179707D0F08617970771F48281938101
:102D2000109729F013969C938E9312972CC0909332
:102D30007E0380937D0327C04115510519F0841748
:102D4000950718F48D01AC01EF01DF0182819381B9
:102D50009C01F9013097D1F641155105F9F0CA01EE
:102D6000861B970B8430910580F48A819B81011525
:102D7000110521F0F8019383828304C090937E03B0
:102D800080937D03FE01329645C0FE01E80FF91FD6
:102D9000619371930297998388833CC080917B03F0
:102DA00090917C03892B41F48091E6019091E70199
:102DB00090937C0380937B034091E8015091E9015B
:102DC0004115510541F44DB75EB78091E4019091F2
:102DD000E501481B590B20917B0330917C0324179C
:102DE0003507B0F4CA01821B930B8617970780F052
:102DF000AB014E5F5F4F8417950750F0420F531F92
:102E000050937C0340937B03F9016193719302C05B
:102E1000E0E0F0E0CF01DF91CF911F910F91089595
:102E2000CF93DF939C01009709F48FC0EC012297A8
:102E30001B821A8260917D0370917E03611571057A
:102E400081F488819981820F931F20917B033091B7
:102E50007C032817390739F5D0937C03C0937B0393
:102E600074C0DB0140E050E0AC17BD0708F1BB8344
:102E7000AA83FE0121913191E20FF31FAE17BF0724
:102E800079F48D919C911197280F391F2E5F3F4F38
:102E90003983288312968D919C9113979B838A8303
:102EA0004115510571F4D0937E03C0937D034DC04D
:102EB00012968D919C911397AD01009711F0DC0152
:102EC000D3CFDA011396DC93CE931297FA012191B6
:102ED0003191E20FF31FCE17DF0769F488819981E2
:102EE000280F391F2E5F3F4FFA01318320838A81DB
:102EF0009B8193838283E0E0F0E0DB0112968D9169
:102F00009C911397009719F0BC01FD01F6CFAB011E
:102F10004E5F5F4FDB018D919C91840F951F209137
:102F20007B0330917C032817390779F4309729F413
:102F300010927E0310927D0302C0138212824250CF
:102F4000504050937C0340937B03DF91CF910895D1
:102F50006F927F928F929F92AF92BF92CF92DF92A9
:102F6000EF92FF920F931F93CF93DF938C01009703
:102F700029F4CB010E9473168C01BBC08EEFE82EA2
:102F80008FEFF82EE00EF11E4801860E971E8E146C
:102F90009F0408F4ACC0D7014D915C91119746177E
:102FA0005707B8F04530510508F4A3C0CA0104978B
:102FB0008617970708F49DC042505040461B570B98
:102FC000F401419351936D937C93CF010E941017AC
:102FD00090C05B01A41AB50A3801640E751EA09159
:102FE0007D03B0917E03E0E0F0E0CC24DD2447C017
:102FF000A615B705A9F5CD91DC911197CE010296E2
:103000008A159B0568F1CE018A199B0902961296D2
:103010002C91129713963C91059758F0F401228356
:103020003383CA19DB09D183C083D7016D937C93A5
:1030300009C04E5F5F4F4C0F5D1FF7015183408306
:10304000C901FC01C114D10431F0D6011396FC93DF
:10305000EE9312974EC0F0937E03E0937D0349C038
:103060008D919C911197E817F90708F4FC016D0107
:1030700012968C91129713969C919C01D9011097EE
:1030800009F0B6CF80917B0390917C03861597055C
:10309000E9F4E617F707D0F42091E8013091E9014F
:1030A0002115310541F42DB73EB78091E40190918F
:1030B000E501281B390B82169306C8F490927C0315
:1030C00080927B03F7017183608313C0CB010E9460
:1030D0007316EC01009759F0D7014D915C91B8013E
:1030E0000E94ED04C8010E9410178E0102C000E08A
:1030F00010E0C801DF91CF911F910F91FF90EF90E9
:10310000DF90CF90BF90AF909F908F907F906F9007
:10311000089508951F920F920FB60F9211242F93C6
:103120003F934F938F939F93EF93FF938091C000B2
:1031300082FD19C04091C6008091EA02282F30E03C
:103140002F5F3F4F2F7330708091EB0290E0281774
:10315000390759F0E091EA02F0E0E453FD4F42A351
:103160002093EA0202C08091C600FF91EF919F91E7
:103170008F914F913F912F910F900FBE0F901F9005
:1031800018958091EA022091EB0290E0805C9F4FBD
:10319000821B91098F739070892B11F00E948918FE
:1031A00008951F920F920FB60F9211242F938F93B1
:1031B0009F93EF93FF939091EC028091ED0298170B
:1031C00031F48091C1008F7D8093C10010C0E091E7
:1031D000ED02F0E0E25DFC4F20818091ED0290E095
:1031E00001968F7390708093ED022093C600FF913B
:1031F000EF919F918F912F910F900FBE0F901F9085
:103200001895AF92BF92DF92EF92FF920F931F93A8
:10321000CF93DF93EC017A018B01DD24403081EE06
:10322000580780E0680780E0780711F0DD24D39428
:1032300091E0A92EB12CE889F989DD2069F0C5015A
:103240000C8C02C0880F991F0A94E2F7808360E01B
:1032500079E08DE390E005C0108260E874E88EE1CB
:1032600090E0A80197010E94B021215030404040D9
:103270005040569547953795279580E1203038077F
:1032800020F0DD2011F0DD24D6CFEC85FD853083E4
:10329000EE85FF8520831D8EEA89FB89408121E030
:1032A00030E0C901088C02C0880F991F0A94E2F728
:1032B000482B4083EA89FB894081C901098C02C0FF
:1032C000880F991F0A94E2F7482B4083EA89FB890B
:1032D0004081C9010A8C02C0880F991F0A94E2F745
:1032E000482B4083EA89FB8980810B8C02C0220F26
:1032F000331F0A94E2F7209528232083DF91CF9192
:103300001F910F91FF90EF90DF90BF90AF900895C5
:10331000FC01268D878D30E0205C3F4F281B310952
:103320002F733070C9010895FC01968D878D981711
:1033300019F42FEF3FEF06C0878DE80FF11D82A132
:10334000282F30E0C9010895DC015E969C915E97BC
:103350005F968C915F97981719F42FEF3FEF10C08D
:103360005F968C915F97FD01E80FF11D92A15F962A
:103370008C915F978F5F8F735F968C93292F30E0CE
:10338000C9010895DC015D968C915D97882339F021
:103390005096ED91FC915197808186FFF9CF5D9613
:1033A0001C920895DC0190968C919097282F30E024
:1033B0002F5F3F4F2F73307091968C91919790E0D3
:1033C00028173907C9F390968C919097FD01E80F63
:1033D000F11DEE59FF4F608390962C939097529673
:1033E000ED91FC915397208181E090E05B960C90E9
:1033F0005B9702C0880F991F0A94E2F7282B20835D
:1034000081E05D968C935D975096ED91FC9151977C
:1034100080818064808381E090E008951092CF02E3
:103420001092CE0288EE93E0A0E0B0E08093D0024C
:103430009093D102A093D202B093D3028EEF91E089
:103440009093CD028093CC021092ED028091ED0218
:103450008093EC021092EB028091EB028093EA02DF
:1034600085EC90E09093D9028093D80284EC90E0B0
:103470009093DB028093DA0280EC90E09093DD027F
:103480008093DC0281EC90E09093DF028093DE0277
:1034900082EC90E09093E1028093E00286EC90E071
:1034A0009093E3028093E20284E08093E40283E05D
:1034B0008093E50287E08093E60285E08093E7024F
:1034C00081E08093E8020895CF92DF92EF92FF921D
:1034D0000F931F93CF93DF937C016B018A01C0E0B0
:1034E000D0E00FC0D6016D916D01D701ED91FC9137
:1034F0000190F081E02DC7010995C80FD91F015037
:1035000010400115110571F7CE01DF91CF911F9188
:103510000F91FF90EF90DF90CF900895EF92FF9280
:103520000F931F938C01DC01ED91FC910190F081D0
:10353000E02D6DE009957C01D801ED91FC910190A1
:10354000F081E02DC8016AE009959C012E0D3F1D18
:10355000C9011F910F91FF90EF900895CF93DF93D2
:10356000EC016115710519F420E030E00FC0DB01BA
:103570000D900020E9F71197A61BB70BE881F981A0
:103580000280F381E02DAD0109959C01C901DF9115
:10359000CF9108954F925F927F928F929F92AF92B8
:1035A000BF92CF92DF92EF92FF920F931F93DF9320
:1035B000CF93CDB7DEB7A1970FB6F894DEBF0FBE9D
:1035C000CDBF2C01742ECB01223008F42AE019A2C1
:1035D00031E2C32ED12CCC0EDD1E822E9924AA24DA
:1035E000BB24672D752FA50194010E94B02179019C
:1035F0008A01C801B701A50194010E949121472DBC
:10360000461B0894C108D1084A3014F4405D01C03B
:10361000495CF6014083E114F1040105110521F034
:103620007E2C5F2DC801DDCFC201B6010E94AE1A0B
:10363000A1960FB6F894DEBF0FBECDBFCF91DF913C
:103640001F910F91FF90EF90DF90CF90BF90AF90C0
:103650009F908F907F905F904F900895DC0121158F
:10366000310541F4ED91FC910190F081E02D642F42
:10367000099508950E94CA1A0895EF92FF920F9338
:103680001F939A01E62EFF2400E010E0B801A70185
:103690000E942E1B1F910F91FF90EF900895CF92E3
:1036A000DF92EF92FF920F931F93CF93DF93EC0182
:1036B0006A017B012115310541F4E881F98101900E
:1036C000F081E02D642F09951FC02A303105D1F417
:1036D00077FF17C0E881F9810190F081E02D6DE25C
:1036E00009958C0144275527BA014C195D096E09CB
:1036F0007F09CE012AE00E94CA1A9801280F391FBB
:1037000004C02AE00E94CA1A9C01C901DF91CF912E
:103710001F910F91FF90EF90DF90CF9008950E943E
:10372000AE1A08957F928F929F92AF92BF92CF92DE
:10373000DF92EF92FF920F931F93CF93DF934C0191
:103740007A018B01722ECB01BA01A80197010E9468
:103750007621882321F0C40164ED71E021C0C0E02E
:10376000D0E057016801E894D7F8C601B5012FEF02
:103770003FEF4FE75FE70E947621882351F4C601AF
:10378000B5012FEF3FEF4FE75FE70E94431F181689
:1037900014F0C1E0D0E0219739F0C40168ED71E088
:1037A0000E94AE1AEC0193C0C801B7012FEF3FEFA2
:1037B0004FE75FE40E94B720181654F0C801B70124
:1037C0002FEF3FEF4FE75FEC0E94431F882324F465
:1037D000C4016CED71E0E4CFC801B70120E030E036
:1037E00040E050E00E94431F87FD03C0C0E0D0E0EE
:1037F0000EC0D401ED91FC910190F081E02DC40147
:103800006DE20995EC0117FB109517F9109520E072
:1038100030E040E05FE3DD240BC0CA01B90120E0E5
:1038200030E040E251E40E94471F9B01AC01D39479
:10383000D71498F3C801B7010E947D1E5B016C018B
:103840000E94B41F7B018C01C401B801A7012AE0CA
:1038500030E00E942E1BC80FD91F772039F0C40119
:1038600060EE71E00E94AE1AC80FD91FC801B701FF
:103870000E94E01F9B01AC01C601B5010E947C1EA5
:1038800024C020E030E040E251E40E94C2207B01ED
:103890008C010E94AF1F5B016C01CC24B7FCC0946B
:1038A000DC2CC401B601A5012AE030E00E944F1BC8
:1038B000C80FD91FC601B5010E94E21F9B01AC01D0
:1038C000C801B7010E947C1E7A947720D1F6CE0100
:1038D000DF91CF911F910F91FF90EF90DF90CF90EC
:1038E000BF90AF909F908F907F9008950E94921B01
:1038F0000895EF92FF920F931F937C010E94921BF9
:103900008C01C7010E948E1A080F191FC8011F9150
:103910000F91FF90EF900895EF92FF920F931F93F6
:103920007C010E94AE1A8C01C7010E948E1A080FFA
:10393000191FC8011F910F91FF90EF9008958230D9
:1039400000F5E82FF0E0EE0FFF1FE259FC4F718306
:103950006083882319F08130A1F408C08091690048
:103960008C7F842B80936900E89A08958091690088
:10397000440F551F440F551F837F842B809369008C
:10398000E99A08951F920F920FB60F9211242F9368
:103990003F934F935F936F937F938F939F93AF93D7
:1039A000BF93EF93FF9380916E0390916F03892BE8
:1039B00029F0E0916E03F0916F030995FF91EF916B
:1039C000BF91AF919F918F917F916F915F914F9137
:1039D0003F912F910F900FBE0F901F9018951F923F
:1039E0000F920FB60F9211242F933F934F935F9333
:1039F0006F937F938F939F93AF93BF93EF93FF93B7
:103A00008091700390917103892B29F0E0917003EC
:103A1000F09171030995FF91EF91BF91AF919F9143
:103A20008F917F916F915F914F913F912F910F9067
:103A30000FBE0F901F901895CF93DF930E94841DA7
:103A40000E944905C1ECD8E10E94F6042097E1F3F9
:103A50000E94C118F9CF0E94731608951F920F9209
:103A60000FB60F9211242F933F938F939F93AF9391
:103A7000BF938091760390917703A0917803B091E2
:103A8000790330917A030196A11DB11D232F2D5F7B
:103A90002D3720F02D570196A11DB11D20937A03DB
:103AA0008093760390937703A0937803B093790380
:103AB0008091720390917303A0917403B091750388
:103AC0000196A11DB11D8093720390937303A0937F
:103AD0007403B0937503BF91AF919F918F913F9104
:103AE0002F910F900FBE0F901F9018958FB7F894DD
:103AF00020917603309177034091780350917903B8
:103B00008FBFB901CA010895789484B5826084BDDD
:103B100084B5816084BD85B5826085BD85B58160D1
:103B200085BDEEE6F0E0808181608083E1E8F0E031
:103B30001082808182608083808181608083E0E860
:103B4000F0E0808181608083E1EBF0E0808184603F
:103B50008083E0EBF0E0808181608083EAE7F0E041
:103B600080818460808380818260808380818160A5
:103B700080838081806880831092C1000895EF92D5
:103B8000FF920F931F93CF93DF937B018C013FB77D
:103B9000F8948091720390917303A0917403B09193
:103BA000750326B5A89B05C02F3F19F00196A11DEE
:103BB000B11D3FBFBA2FA92F982F8827820F911DC3
:103BC000A11DB11D52E0880F991FAA1FBB1F5A9556
:103BD000D1F7EC0130C00E947B1E3FB7F894809172
:103BE000720390917303A0917403B091750326B58D
:103BF000A89B05C02F3F19F00196A11DB11D3FBF25
:103C0000BA2FA92F982F8827820F911DA11DB11DB2
:103C100032E0880F991FAA1FBB1F3A95D1F78C1B62
:103C20009D0B885E9340B8F20894E108F108010901
:103C30001109C851DC4FE114F1040105110559F6D1
:103C4000DF91CF911F910F91FF90EF900895482F32
:103C500050E0CA018D5A964FFC012491CA01815C43
:103C6000964FFC019491455D564FFA0134913323F0
:103C700009F440C0222351F1233071F0243028F49C
:103C80002130A1F0223011F514C02630B1F02730D8
:103C9000C1F02430D9F404C0809180008F7703C034
:103CA000809180008F7D8093800010C084B58F77D5
:103CB00002C084B58F7D84BD09C08091B0008F772C
:103CC00003C08091B0008F7D8093B000E32FF0E0BF
:103CD000EE0FFF1FE95EF64FA591B4912FB7F89450
:103CE000662321F48C919095892302C08C91892BB5
:103CF0008C932FBF089508955058BB27AA270ED044
:103D0000FCC1EDD130F0F2D120F031F49F3F11F43D
:103D10001EF4BDC10EF4E095E7FBB3C1E92FFED15F
:103D200080F3BA17620773078407950718F071F4D8
:103D30009EF516C20EF4E0950B2EBA2FA02D0B01A6
:103D4000B90190010C01CA01A0011124FF27591BE0
:103D500099F0593F50F4503E68F11A16F040A22FE6
:103D6000232F342F4427585FF3CF46953795279557
:103D7000A795F0405395C9F77EF41F16BA0B620B56
:103D8000730B840BBAF09150A1F0FF0FBB1F661F9D
:103D9000771F881FC2F70EC0BA0F621F731F841FE0
:103DA00048F4879577956795B795F7959E3F08F006
:103DB000B3CF9395880F08F09927EE0F97958795C5
:103DC00008958DD158F080E891E009F49EEF8ED1EE
:103DD00028F040E851E059F45EEF09C058C1C0C175
:103DE000E92FE0789BD168F3092E052AC1F3261745
:103DF00037074807590738F00E2E07F8E02569F015
:103E0000E025E0640AC0EF6307F8009407FADB01DD
:103E1000B9019D01DC01CA01AD01EF9347D06DD11D
:103E20000AD05F91552331F02BED3FE049E450FD7E
:103E300049EC63CF0895DF93DD27B92FBF7740E8C2
:103E40005FE31616170648075B0710F4D92F93D1C6
:103E50009F938F937F936F9346D2E8E6F0E01AD159
:103E60004CD12F913F914F915F9198D1DD2349F033
:103E70009058A2EA2AED3FE049EC5FE3D0785D2755
:103E80004DDFDF913AC1D9D008F481E008950CD01C
:103E900034C12CD140F023D130F021F45F3F19F030
:103EA000F0C051115EC1F3C039D198F39923C9F321
:103EB0005523B1F3951B550BBB27AA276217730730
:103EC000840738F09F5F5F4F220F331F441FAA1FE4
:103ED000A9F333D00E2E3AF0E0E830D091505040A4
:103EE000E695001CCAF729D0FE2F27D0660F771F52
:103EF000881FBB1F261737074807AB07B0E809F034
:103F0000BB0B802DBF01FF2793585F4F2AF09E3FC8
:103F1000510568F0B6C025C15F3FECF3983EDCF375
:103F2000869577956795B795F7959F5FC9F7880F41
:103F3000911D9695879597F90895E1E0660F771F93
:103F4000881FBB1F621773078407BA0720F0621B24
:103F5000730B840BBA0BEE1F88F7E095089504D01D
:103F60006894B111FEC00895E1D088F09F5790F099
:103F7000B92F9927B751A0F0D1F0660F771F881F8E
:103F8000991F1AF0BA95C9F712C0B13081F0E8D084
:103F9000B1E00895E5C0672F782F8827B85F39F022
:103FA000B93FCCF3869577956795B395D9F73EF4ED
:103FB00090958095709561957F4F8F4F9F4F089595
:103FC000E89409C097FB3EF49095809570956195B3
:103FD0007F4F8F4F9F4F9923A9F0F92F96E9BB2769
:103FE0009395F695879577956795B795F111F8CFE5
:103FF000FAF4BB0F11F460FF1BC06F5F7F4F8F4F50
:104000009F4F16C0882311F096E911C0772321F045
:104010009EE8872F762F05C0662371F096E8862FDD
:1040200070E060E02AF09A95660F771F881FDAF734
:10403000880F9695879597F90895990F0008550F61
:10404000AA0BE0E8FEEF16161706E807F907C0F01E
:1040500012161306E407F50798F0621B730B840B26
:10406000950B39F40A2661F0232B242B252B21F400
:1040700008950A2609F4A140A6958FEF811D811DA0
:10408000089597F99F6780E870E060E008959FEFDA
:1040900080EC0895DF93CF931F930F93FF92EF92DD
:1040A000DF927B018C01689405C0DA2EEF0176D097
:1040B000FE01E894A5912591359145915591AEF376
:1040C000EF012CDEFE019701A801DA9479F7DF9069
:1040D000EF90FF900F911F91CF91DF9108950024F1
:1040E0000A941616170618060906089500240A945D
:1040F00012161306140605060895092E0394000CE3
:1041000011F4882352F0BB0F40F4BF2B11F460FF71
:1041100004C06F5F7F4F8F4F9F4F089557FD90589A
:10412000440F551F59F05F3F71F04795880F97FB7B
:10413000991F61F09F3F79F0879508951216130635
:104140001406551FF2CF4695F1DF08C01616170664
:104150001806991FF1CF8695710561050894089599
:10416000E894BB2766277727CB0197F9089565DF89
:1041700008F48FEF08959B01AC0160E070E080E8E7
:104180009FE385CE0BD0B9CFAADF28F0AFDF18F0C0
:10419000952309F076CF7BCF1124E3CFBFDFA0F3C7
:1041A000959FD1F3950F50E0551F629FF001729FCC
:1041B000BB27F00DB11D639FAA27F00DB11DAA1FEB
:1041C000649F6627B00DA11D661F829F2227B00D38
:1041D000A11D621F739FB00DA11D621F839FA00DC3
:1041E000611D221F749F3327A00D611D231F849F13
:1041F000600D211D822F762F6A2F11249F5750406A
:104200008AF0E1F088234AF0EE0FFF1FBB1F661F04
:10421000771F881F91505040A9F79E3F510570F0BD
:1042200030CF9FCF5F3FECF3983EDCF386957795D8
:104230006795B795F795E7959F5FC1F7FE2B880FB8
:10424000911D9695879597F9089511F40EF41FCF57
:1042500051C06CDFD0F39923D9F3CEF39F57550BA0
:1042600087FF58D056959795B0E020F4660F771FDA
:10427000881FBB1F1F930F9300249001A001800192
:10428000F001A0E80E0F1F1F0A1E511D601B710BCD
:104290008009B50B48F4600F711F801DB51F0E1B00
:1042A0001F0B0A0A510907C02E0F3F1F4A1F0E0F8E
:1042B0001F1F0A1E511D660F771F881FBB1FA69563
:1042C000F795E795F8F60617170708065B07211D0F
:1042D000311D411D0F911F91B901842F9158880FF5
:1042E0009695879508959B01AC014CCFA6DE880B6F
:1042F000990B08959F3F49F0915028F48695779542
:104300006795B7959F5F80389F4F880F96958795E3
:1043100097F9089591505040660F771F881FD2F784
:104320000895629FD001739FF001829FE00DF11DFF
:10433000649FE00DF11D929FF00D839FF00D749F1F
:10434000F00D659FF00D9927729FB00DE11DF91FCB
:10435000639FB00DE11DF91FBD01CF011124089528
:10436000A1E21A2EAA1BBB1BFD010DC0AA1FBB1F79
:10437000EE1FFF1FA217B307E407F50720F0A21BEB
:10438000B30BE40BF50B661F771F881F991F1A9458
:1043900069F760957095809590959B01AC01BD0182
:1043A000CF010895EE0FFF1F0590F491E02D0994C1
:0443B000F894FFCFAF
:1043B400797072090009004649464F206F7665728C
:1043C400666C6F7721004D50553630353020636F61
:1043D4006E6E656374696F6E206661696C656400F6
:1043E4004D50553630353020636F6E6E6563746999
:1043F4006F6E207375636365737366756C00496EC5
:10440400697469616C697A696E6720444D502E2E17
:104414002E00456E61626C696E6720444D502E2EED
:104424002E00456E61626C696E6720696E746572F8
:104434007275707420646574656374696F6E2E2E72
:104444002E0057616974696E6720666F7220666911
:1044540072737420696E746572727570742E2E2E68
:1044640000444D5020696E697469616C697A6174A5
:10447400696F6E206661696C65642028636F64658A
:10448400200029006E616E00696E66006F7666001A
:104494002E00E80380007F030000000000001016D7
:1044A400DF159815A115B615C71500000000D2191F
:0A44B400641A8819A4199419C2199A
:00000001FF
