:100000000C94C1040C94B3210C94E0210C942A1597
:100010000C948E150C94F2150C94E9040C94E904DC
:100020000C94E9040C94E9040C94E9040C949318DE
:100030000C94E9040C94E9040C94E9040C94E9048C
:100040000C941F220C94E9040C94B51E0C94FC1E15
:100050000C94E9040C94E9040C94E9040C94E9046C
:100060000C940A1A0C94E904084AD73B3BCE016E63
:1000700084BCBFFDC12F3D6C74319ABD56833DDAFF
:100080003D00C77F11BED9E4BB4C3E916BAAAABE0E
:10009000000000803FFB00003E000B003600010026
:1000A000020003000000650054FFEF0000FA80002A
:1000B0000B1282000100020000000000000000009E
:1000C000000000000000280000FFFF4581FFFFFA4C
:1000D0007200000000000003E80000000100017F42
:1000E000FFFFFE8001001B00000000000000000078
:1000F0000000000000003E03304000000002CAE3A0
:10010000093E8000002000000000000000400000C8
:10011000006000000041FF000000000B2A000016F4
:100120005500002182FD872650FD800000001F0041
:100130000000058000000000000001000000020037
:100140000000030000400000000000046F00026592
:100150003200005EC040000000000000000000000F
:100160000000000000FB8C6F5DFD5D08D9007C7312
:100170003B006C12CC3200139D3200D0D632000806
:1001800000400001F4FFE68079020000000000D08A
:10019000D600002710FB0000004000000000000017
:1001A000000000000000000001000000000000014D
:1001B00000010000000000FA36FFBC308E0005FB95
:1001C000F0FFD95BC8FFD09ABE000010A9FFF41E53
:1001D000B200CEBBF70000000100000004000200E6
:1001E000020200000CFFC280000001800000CF80EE
:1001F00000400000000000000100000000000006B8
:1002000000000000140000000000000000000000DA
:1002100000000000000000000000000000000000DE
:1002200000000000000000000000000000000000CE
:10023000000000000000000000033F68B679352888
:10024000BCC67ED16C80000000400000000000B2FF
:100250006A00000000000000000000000000003FF5
:10026000F00000003000000000000000000000006E
:10027000000000000000000000000000000000007E
:1002800000000000000000254D002F706D000005EB
:10029000AE000C02D00000000000650054FFEF002B
:1002A0000000000000000001000044000000000CFD
:1002B0000000000100000000000065000000540084
:1002C00000FFEF0000000000000000000000000040
:1002D00000000000004000000000000000000000DE
:1002E00000000000004000000000000000000000CE
:1002F00000000000000000000100000002000000FB
:1003000000000000000000000000000000000000ED
:1003100000000000000000000000000000000000DD
:100320000000000000001B000000000000000000B2
:1003300000000000000000000000000000000000BD
:1003400000000000000000000000000000000000AD
:100350000040000000001B00000000000000000042
:10036000000000000000000000000000000000008D
:10037000000000000000000000000000000000007D
:10038000000000000000000000000000000000006D
:100390000000000000D8DCBAA2F1DEB2B8B4A88137
:1003A00091F74A907F916AF3F9DBA8F9B0BAA0807F
:1003B000F2CE81F3C2F1C1F2C3F3CCA2B280F1C696
:1003C000D880BAA7DFDFDFF2A7C3CBC5B6F087A21C
:1003D000942448703C95406834589B78A2F18392ED
:1003E0002D557DD8B1B4B8A1D09180F270F370F2E0
:1003F0007C80A8F101B09887D943D886C988BAA172
:10040000F20EB89780F1A9DFDFDFAADFDFDFF2AA03
:10041000C5CDC7A90CC92C97979797F1A9892646EE
:1004200066B0B4BA80ACDEF2CAF1B28C02A9B6985A
:1004300000890E161EB8A9B4992C547CB08AA896CF
:10044000365676F1B9AFB4B083C0B8A89711B18F62
:1004500098B9AFF0240844106418F1A329557DAF72
:1004600083B593AFF0002850F1A3869F61A6DADE32
:10047000DFD9FAA38696DB31A6D9F8DFBAA68FC2F8
:10048000C5C7B28CC1B8A2DFDFDFA3DFDFDFD8D8FA
:10049000F1B8A8B286B4980D355DB8AA98B0872D8A
:1004A000353DB2B6BAAF8C96198F9FA70E161EB403
:1004B0009AB8AA872C547CB9A3DEDFDFA3B180F2FF
:1004C000C4CDC9F1B8A9B499830D355D89B9A32DFF
:1004D000557DB593A30E161EA92C547CB8B4B0F16B
:1004E0009783A81184A50998A383F0DA24084410FF
:1004F0006418D8F1A529557DA58595021A2E3A567E
:100500005A4048F9F3A3D9F8F098832408441064BA
:10051000189782A8F111F098A2240844106418DA00
:10052000F3DED883A59401D9A302F1A2C3C5C7D82D
:10053000F18492A24DDA2AD84869D92AD86855DAC6
:1005400032D85071D932D8705DDA3AD85879D93A60
:10055000D87893A34DDA2AD84869D92AD86855DAC9
:1005600032D85071D932D8705DDA3AD85879D93A40
:10057000D878A88A9AF02850789EF38818F19F1DA1
:1005800098A8D908D8C89F129EF315A8DA1210D8D7
:10059000F1AFC8978734B5B994A421F3D922D8F222
:1005A0002DF3D92AD8F235F3D932D881A46060610D
:1005B000D961D86C6869D969D8747071D971D8B1AA
:1005C000A384193D5DA3831A3E5E93103081101100
:1005D000B8B0AF8F94F2DA3ED8B49AA88729DAF887
:1005E000D8879A35DAF8D8879A3DDAF8D8B1B9A41D
:1005F0009885022E56A581000C14A397B08AF12D80
:10060000D928D84DD948D86DD968D8B1840DDA0E1B
:10061000D8A32983DA2C0ED8A3844983DA2C4C0E74
:10062000D8B8B0A88A9AF520AADADFD8A840AAD00C
:10063000DADED8A860AADAD0DFD8F19786A8319B95
:10064000069907AB9728889BF00C201440B8B0B4EB
:10065000A88C9CF0042851791D301438B282ABD09C
:10066000982C505078789BF11AB0F08A9CA82951A8
:10067000798B2951798A2470598B2058718A446961
:10068000388B3940688A6448318B304960A58820AE
:100690000971584468113964493019F1AC002C547F
:1006A0007CF08CA804285078F1889726A85998AC3B
:1006B0008C02264666F0899CA829517924705944F9
:1006C0006938644831A98809205970AB11384069EC
:1006D000A8193148608CA83C415C207C00F18798C7
:1006E0001986A86E767EA999882D557D9EB9A38A14
:1006F000228A6E8A568A5E9FB183062646660E2E31
:100700004E6E9DB8AD002C547CF2B18CB499B9A357
:100710002D557D8191AC38AD3AB58391AC2DD9285A
:10072000D84DD948D86DD968D88C9DAE29D904AE9A
:10073000D851D904AED879D904D881F39DAD008DB4
:10074000AE1981ADD901D8F2AEDA26D88E912983BF
:10075000A7D9ADADADADF32AD8D8F1B0AC89913EF3
:100760005E76F3AC2E2EF1B18C5A9CAC2C28282846
:100770009CAC3018A8988128343C9724A728343C96
:100780009C24F2B089AC912C4C6C8A9B2DD9D8D882
:1007900051D9D8D879D9D8D8F19E88A331DAD8D808
:1007A000912DD928D84DD948D86DD968D8B183931F
:1007B000353D8025DAD8D88569DAD8D8B49381A3B5
:1007C00028343CF3AB8BF8A391B609B4D9ABDEFA6D
:1007D000B0879CB9A3DDF1A3A3A3A395F1A3A3A321
:1007E0009DF1A3A3A3A3F2A3B49080F2A3A3A3A318
:1007F000A3A3A3A3A3A3B2A3A3A3A3A3A3B087B5B7
:1008000099F1A3A3A398F1A3A3A3A397A3A3A3A33D
:10081000F39BA3A3DCB9A7F1262626D8D8FF037B38
:10082000034CCD6C03AB0336567600680402CB470D
:10083000A202180400058BC1010C04000000000393
:100840007F060CC92C979797038903264666006C90
:1008500002200002400400000000024404000000E6
:100860000002480400000000024C040000000002E6
:10087000500400000000025404000000000258046C
:1008800000000000025C040000000002BC04000044
:10089000000001EC0400004000037F060CC92C9707
:1008A00097970402030D355D040904872D353D003B
:1008B000A3010000000001078601FE074105F120A9
:1008C000283038077E01300746019A074704F1288F
:1008D0003038076C04F1283038021602000101B2EA
:1008E00002FFFF0190040923A135016A02060001FD
:1008F00060080000000000000000006004400000EC
:1009000000016202000000600400400000000102DB
:1009100003040506070001020304050001020304A5
:100920000500000000240027002A00000000002528
:100930000028002B000000000023002600290004EE
:100940000404040404040402020202020203030376
:100950000303030102040810204080010204081070
:10096000200102040810200000000700020100001E
:100970000304060000000000000000000105F31B56
:10098000392011241FBECFEFD8E0DEBFCDBF11E06C
:10099000A0E0B1E0EEEBFEE402C005900D92A63FB0
:1009A000B107D9F713E0A6EFB1E001C01D92A63E52
:1009B000B107E1F719E0C2E8D9E004C02297FE01CF
:1009C0000E945927CC37D107C9F70E940D220C94F9
:1009D0005D270C940000FB01DC0104C08D910190A7
:1009E000801921F441505040C8F7881B990B089595
:1009F000FB01DC0102C001900D9241505040D8F73C
:100A0000089586EF91E00E94FB058DEF91E00E9432
:100A1000FB0584E092E00E94FB058BE092E00E94DF
:100A2000FB0508950E94B3130E94990C8823C9F511
:100A300008950E94EC160E9466160E94EC160E9411
:100A4000C216FC01408151816281738186EF91E081
:100A50000E94DA050E94EC160E94C216FC01408139
:100A60005181628173818DEF91E00E94DA050E94CD
:100A7000EC160E94C216FC01408151816281738193
:100A800084E092E00E94DA050E94EC160E94C216F1
:100A9000FC0140815181628173818BE092E00E9470
:100AA000DA050E94B3130E949E0C882311F20E9463
:100AB000B3130E94B60C0895CF92DF92EF92FF928B
:100AC0000F931F93DF93CF93CDB7DEB76C970FB61D
:100AD000F894DEBF0FBECDBF83E393E040E052EC5D
:100AE00061E070E00E942C1F0E94B31364E97FEF65
:100AF00048E854E020EF38E00CE110E0F4EEEF2E8F
:100B0000FFEFFF2EE8E0CE2ED12C0E94A4120E940F
:100B1000EC160E94C7168E010F5F1F4FC80169E0D7
:100B200070E00E940C06A6EFB1E0F80187E00190AA
:100B30000D928150E1F78E01085F1F4FC8016AE0F6
:100B400070E00E940C06ADEFB1E0F80187E0019083
:100B50000D928150E1F78E01015F1F4FC8016BE0DC
:100B600070E00E940C06A4E0B2E0F80187E001907A
:100B70000D928150E1F78E010A5E1F4FC8016CE0B3
:100B800070E00E940C06ABE0B2E0F80187E0019053
:100B90000D928150E1F76C960FB6F894DEBF0FBE50
:100BA000CDBFCF91DF911F910F91FF90EF90DF901C
:100BB000CF9008950F931F938C01FC0143835483BE
:100BC00065837683CB01BA0120E030E04AE754E444
:100BD0000E94182620E030E04AE754E40E94D32324
:100BE0000E9405259B01AC01C801B9010E94D117E3
:100BF0001F910F9108950F931F938C010E94B717B7
:100C000080E090E0A0E0B0E0F80183839483A583C6
:100C1000B6831F910F910895EF92FF920F931F9348
:100C20008C017B010E94B71780E090E0A0E0B0E06B
:100C3000F80183839483A583B683C801B7010E941A
:100C40008C181F910F91FF90EF900895CF92DF9233
:100C5000FF920F931F93CF93DF93582F162F042FDC
:100C6000690187E293E0652F0E94B91B87E293E058
:100C7000612F0E943B1CC02FD0E0CC0FDD1FFF2452
:100C800012C0000F111F0C0D1D1DF801618187E2BC
:100C900093E00E943B1C87E293E0F80160810E9490
:100CA0003B1CF2E0FF0E0F2D10E00C171D074CF35C
:100CB00087E293E00E947E1C90E0882309F491E093
:100CC000892FDF91CF911F910F91FF90DF90CF90EF
:100CD0000895DF93CF9300D0CDB7DEB75A83498311
:100CE00041E09E012F5F3F4F0E9426060F900F901C
:100CF000CF91DF910895EF92FF920F931F93CF93BF
:100D0000DF93582F162FE42E022FF32E87E293E065
:100D1000652F0E94B91B87E293E0612F0E943B1C64
:100D2000202F3F2DC901EC0110E006C087E293E0BF
:100D300069910E943B1C1F5F1E15C0F387E293E080
:100D40000E947E1C90E0882309F491E0892FDF91B6
:100D5000CF911F910F91FF90EF900895DF93CF9364
:100D60000F92CDB7DEB7498341E09E012F5F3F4F21
:100D70000E947B060F90CF91DF9108952F923F92B2
:100D80004F925F926F927F928F929F92AF92BF929B
:100D9000CF92DF92EF92FF920F931F93DF93CF9347
:100DA00000D000D00F92CDB7DEB7882E6983942E85
:100DB0003B832A830E9467225B016C01FF24EE249F
:100DC000292C33242801662477244BC087E293E042
:100DD000682D0E94B91B87E293E069810E943B1C49
:100DE00087E293E00E947E1C87E293E0682D0E94D8
:100DF000B91BA1014E1951094132510514F040E2CD
:100E000050E087E293E0682D0E948F1C2F2D33273E
:100E100027FD30958A819B81280F391F3D832C83C4
:100E200087E293E00E94C31B892B09F452C001158D
:100E3000110561F00E9467226A197B098C099D09DE
:100E4000641575058605970508F043C087E293E0B1
:100E50000E94CC1BEC81FD818193FD83EC83F39494
:100E6000DFCFE91408F4B2CF01151105C9F00E94D3
:100E700067226A197B098C099D09980140E050E0BE
:100E8000621773078407950758F02F2D332727FD26
:100E90003095892D90E02817390714F4FF24FA942F
:100EA0008F2D0F900F900F900F900F90CF91DF919B
:100EB0001F910F91FF90EF90DF90CF90BF90AF9078
:100EC0009F908F907F906F905F904F903F902F906A
:100ED0000895892DF0E2F91508F480E2E80EC1CFFB
:100EE0000F931F93FA01890141E09F010E94BE0602
:100EF0001F910F910895DF92EF92FF920F931F932E
:100F0000DF93CF930F92CDB7DEB7E82ED62EF42E17
:100F1000122F2091CD013091CE01AE014F5F5F4F76
:100F20000E947007882341F1212F30E04F2D50E0BF
:100F30004F5F5F4F421B530B81E090E002C0880F70
:100F4000991F1A95E2F70197042E02C0880F991F86
:100F50000A94E2F7202F30E002C0220F331F4A9597
:100F6000E2F7482F4095598145238223482B498336
:100F70008E2D6D2D0E94AE060F90CF91DF911F91A7
:100F80000F91FF90EF90DF900895EF92FF920F93F3
:100F90001F93DF93CF930F92CDB7DEB7F82EE62ED7
:100FA000042F122F2091CD013091CE01AE014F5F61
:100FB0005F4F0E9470072981112351F081E090E07A
:100FC00002C0880F991F0A95E2F7422F482B0AC0EA
:100FD00081E090E002C0880F991F0A95E2F7482F40
:100FE0004095422349838F2D6E2D0E94AE060F90AF
:100FF000CF91DF911F910F91FF90EF900895CF92C5
:10100000DF92EF92FF920F931F93DF93CF930F9294
:10101000CDB7DEB7C42ED22E9701AE014F5F5F4F22
:101020000E947007682F882309F18D2D90E04C2DC8
:1010300050E04F5F5F4F481B590B21E030E002C08A
:10104000220F331FDA94E2F721503040042E02C001
:10105000220F331F0A94E2F78981822390E002C0B5
:10106000959587954A95E2F7F8018083862F0F9032
:10107000CF91DF911F910F91FF90EF90DF90CF9074
:101080000895DF92EF92FF920F931F93DF93CF9318
:101090000F92CDB7DEB7D42E79019801AE014F5F24
:1010A0005F4F0E94700721E030E002C0220F331F23
:1010B000DA94E2F799819223F70190830F90CF9110
:1010C000DF911F910F91FF90EF90DF900895FC0149
:1010D00088E680830895FC01462F808161E70E94A5
:1010E000AE060895FC01462F808160E70E94AE069F
:1010F0000895FC01462F80816EE60E94AE06089599
:10110000FC01962F9F7121119062411190648081A2
:101110006DE6492F0E94AE060895FC01462F80819E
:1011200068E30E94AE060895FC01862F643040F407
:1011300063E0869FB00111246B5D80810E94AE0642
:101140000895FC01462F808162E20E94AE06089558
:10115000FC01462F808161E20E94AE060895FC01E9
:10116000462F808160E20E94AE060895FC01462F62
:1011700080816FE10E94AE060895FC01462F8081B8
:1011800069E10E94AE0608950F931F938C01AC0194
:101190004F5F5F4F2091CD013091CE01FC018081E6
:1011A0006FE60E947007F80181811F910F910895E9
:1011B0000F931F938C01AC014F5F5F4F2091CD01C6
:1011C0003091CE01FC0180816AE30E947007F80132
:1011D00081811F910F9108954F925F926F927F923C
:1011E0009F92AF92BF92CF92DF92EF92FF920F93B6
:1011F0001F93CF93DF936C013B015A01922EE02E97
:10120000622F40E020E00E948008C601602F0E940B
:101210007908C0E0D0E0412C91E0592E34C0CE01D5
:101220004096A816B90618F080E1F82E02C0FA2CF4
:10123000FC1A2F2D30E0C2018E19910982179307F5
:1012400014F4FE2CF19493012C0F3D1F0091CD015D
:101250001091CE01F60180816FE64F2D0E94BE06EF
:10126000CF0DD11DEF0CCA15DB0568F4EE2009F493
:101270009394C601692D40E020E00E948008C601D9
:101280006E2D0E947908CA15DB0548F2DF91CF91D7
:101290001F910F91FF90EF90DF90CF90BF90AF9094
:1012A0009F907F906F905F904F9008950F931F9342
:1012B000FC019B010091CD011091CE01808164E77A
:1012C0000E94BE061F910F910895EF92FF920F9317
:1012D0001F937C019C012F5F3F4F0091CD01109126
:1012E000CE01FC01808162E742E00E94BE06F70168
:1012F000918180E0228130E0282B392BC9011F9198
:101300000F91FF90EF9008953F924F925F926F92EE
:101310007F928F929F92AF92BF92CF92DF92EF9285
:10132000FF920F931F93DF93CF9300D000D0CDB7E0
:10133000DEB75C017A8369832A01622E702E3E2C0F
:10134000EC2C622F40E020E00E948008C501602F55
:101350000E947908332029F080E190E00E949E1CD1
:101360004C01EE2029F080E190E00E949E1C6C016F
:101370001C821B827BC08B819C814096481659063B
:1013800018F0E0E1FE2E03C0F42C8B81F81A2F2D0B
:1013900030E080E091E0871991098217930714F4F7
:1013A000F72CF194E981FA81AB81BC81EA0FFB1F34
:1013B000EE2089F0AF0120E030E00AC0FA0184910C
:1013C000F601E20FF31F80832F5F3F4F4F5F5F4FA8
:1013D0002F15A0F301C06F01D5018C916FE64F2D41
:1013E00096010E947B06332051F18114910439F15A
:1013F000C501662D40E020E00E948008C501672DF0
:101400000E9479080091CD011091CE01F5018081F3
:101410006FE64F2D94010E94BE06C601B4014F2D08
:1014200050E00E94EB04009751F0C4010E943B1D64
:10143000EE2019F0C6010E943B1D80E028C08B8180
:101440009C818F0D911D9C838B837F0C841595054A
:1014500068F4772009F46394C501662D40E020E02C
:101460000E948008C501672D0E947908AB81BC816C
:10147000A415B50508F47FCF332019F0C4010E94EC
:101480003B1DEE2019F0C6010E943B1D81E00F902C
:101490000F900F900F90CF91DF911F910F91FF90C0
:1014A000EF90DF90CF90BF90AF909F908F907F9004
:1014B0006F905F904F903F9008952F923F924F9280
:1014C0005F926F927F928F929F92AF92BF92CF92D4
:1014D000EF92FF920F931F93CF93DF932C014B0159
:1014E0001A01F22E222309F47CC088E090E00E94C9
:1014F0009E1C5C0176C0AE014F5F5F4FF401EC0FA4
:10150000FD1FFF2091F08491BA016F5F7F4F480D5E
:10151000591DFA019491EB012196680D791DFB018B
:101520006491E82E092F162F0DC0E080F401E40F1E
:10153000F51F0081CA010196F401E80FF91F10811F
:10154000EC012196112389F1FF20F1F0133030F0E6
:10155000C501612F70E00E94D31D5C01A4014C0FF6
:101560005D1F20E030E0612F70E00AC0FA01849135
:10157000F501E20FF31F80832F5F3F4F4F5F5F4FF7
:101580002617370798F303C05401AC0EBD1E612E19
:101590007724C201B501A3012E2DEE24E394CC24BF
:1015A0000E948409882301F515C0F401EC0FFD1F8A
:1015B000CE010196FF2019F0EC01249102C0208198
:1015C000EC01213039F4F201808168E342E30E94AA
:1015D000AE060CC0FF2019F0C5010E943B1D80E043
:1015E0000FC0C0E0D0E002C0C60DD71DC215D305A4
:1015F00008F481CFFF2019F0C5010E943B1D81E056
:10160000DF91CF911F910F91FF90EF90CF90BF90FE
:10161000AF909F908F907F906F905F904F903F9092
:101620002F90089521E00E945D0A0895CF92EF92D5
:101630000F93CC24C3940E9484090F91EF90CF9014
:101640000895FC0180816AE643E021E00E94C5071D
:101650000895FC01262F80816AE647E00E94C507B5
:101660000895FC01262F808160E040E00E94C507BC
:101670000895FC01262F80816BE646E00E94C50795
:101680000895FC0180816BE647E021E00E94C507D8
:101690000895FC0180816AE641E021E00E94C507CF
:1016A0000895FC0180816AE642E021E00E94C507BE
:1016B0000895FC01262F80816AE645E00E94C50757
:1016C0000895FC01262F80816AE646E00E94C50746
:1016D0000895EF92FF920F931F937C019C012F5F5F
:1016E0003F4F0091CD011091CE01FC01808160E05F
:1016F00040E00E944108F70181811F910F91FF9006
:10170000EF900895FC01AB01808167E10E946906BA
:101710000895FC01AB01808165E10E94690608958E
:10172000FC01AB01808163E10E9469060895FC0120
:10173000AB0180816AE00E9469060895FC01AB015B
:10174000808168E00E9469060895FC01AB018081F8
:1017500066E00E94690608950F93FC01062F8081C0
:1017600062E046E026E00E947B070F9108950F9308
:10177000FC01062F808161E046E026E00E947B07A5
:101780000F9108950F93FC01062F808160E046E0E1
:1017900026E00E947B070F9108950F93FC01062F0E
:1017A00080816BE642E023E00E947B070F91089561
:1017B0000F93FC01062F80816CE144E022E00E943F
:1017C0007B070F9108950F93FC01062F80816BE139
:1017D00044E022E00E947B070F9108950F931F932E
:1017E0008C0161E00E94CD0BC80160E00E94E30B18
:1017F000C80160E00E94D80BC80160E00E94390B6C
:101800001F910F9108950F93FC01062F80816AE1CB
:1018100042E023E00E947B070F9108950F93FC01A3
:10182000062F80816AE145E023E00E947B070F914B
:101830000895CF92DF92EF92FF920F931F936C0166
:101840008C010F5F1F4FE090CD01F090CE01FC01A5
:10185000808162E046E026E00E94FF07F601818178
:101860001F910F91FF90EF90DF90CF900895CF924E
:10187000DF92EF92FF920F931F936C018C010F5F29
:101880001F4FE090CD01F090CE01FC01808161E01E
:1018900046E026E00E94FF07F60181811F910F912B
:1018A000FF90EF90DF90CF900895CF92DF92EF926C
:1018B000FF920F931F936C018C010F5F1F4FE090FD
:1018C000CD01F090CE01FC01808160E046E026E091
:1018D0000E94FF07F60181811F910F91FF90EF9009
:1018E000DF90CF900895CF92DF92EF92FF920F9307
:1018F0001F936C018C010F5F1F4FE090CD01F090A2
:10190000CE01FC01808165E746E026E00E94FF07EA
:10191000F60181811F910F91FF90EF90DF90CF90A2
:1019200008950E94730C90E0843309F491E0892FAC
:101930000895FC01E357FF4F80810895DC01A25711
:10194000BF4F8C91AE58B040882369F440E0FD0150
:10195000EF59FF4FAD59BF4F2D913C91808191813F
:101960002817390708F041E0842F08952F923F92FD
:101970004F925F926F927F928F929F92AF92BF929F
:10198000CF92DF92EF92FF920F931F93DF93CF934B
:10199000CDB7DEB764970FB6F894DEBF0FBECDBFEC
:1019A00082579F4FDC011C92AE58B040BC8BAB8B72
:1019B000BB88AC888B2D9A2D0E94D808EB89FC89B6
:1019C000808B8B899C890E9465099C010B891C89ED
:1019D0000D591F4FD8018D939C93EB89FC89808909
:1019E00084FD03C02050344059F48B2D9A2D0E9461
:1019F000510B83E393E060E071E00E947D213BC3E3
:101A000081FD09C038C38B2D9A2D0E946509D7012D
:101A10008D939C9308C0E1E6CE2ED12CEB89FC89F6
:101A2000CE0EDF1E7801D6014D915C91F7018081C9
:101A300091818417950738F36B897C896F5E7F4F9E
:101A40008B2D9A2D0E945609D8018D919C9111974A
:101A5000F60120813181821B930B8D939C9375E657
:101A6000E72EF12C2B893C89E20EF31E2F5A3F4FB3
:101A7000D901ED91FD91708160E0ED91FC9111979C
:101A8000A355B040BC8BAB8B208130E0622B732B15
:101A9000882777FD8095982F0E94382520E030E038
:101AA00040E858E30E941826F7016083718382831F
:101AB00093830B891C8907591F4F2B893C892B5A0B
:101AC0003F4FD901ED91FD91708160E0ED91FC9166
:101AD0001197A755B040BC8BAB8B208130E0622BB7
:101AE000732B882777FD8095982F0E94382520E05A
:101AF00030E040E858E30E941826F80160837183C3
:101B0000828393830B891C8903591F4F2B893C893E
:101B1000275A3F4FD901ED91FD91708160E0ED9121
:101B2000FC911197AB55B040BC8BAB8B208130E062
:101B3000622B732B882777FD8095982F0E9438257C
:101B400020E030E040E858E30E941826F801608366
:101B50007183828393830B891C890F581F4F2B89B4
:101B60003C89235A3F4FD901ED91FD91708160E08E
:101B7000ED91FC911197AF55B040BC8BAB8B2081A0
:101B800030E0622B732B882777FD8095982F0E9479
:101B9000382520E030E040E858E30E941826F8019C
:101BA00060837183828393836701AA24BB24D60157
:101BB000ED90FD900D911C91C801B70120E030E03F
:101BC00040E050E40E940D2688236CF0C801B70164
:101BD00020E030E040E850E40E94D223F601608328
:101BE0007183828393830894A11CB11C24E030E0AC
:101BF000C20ED31E34E0A316B104C9F68B899C89AA
:101C00008B589F4F9E838D8369E6662E712CAB891E
:101C1000BC896A0E7B1EAF58BF4FB887AF83F301F4
:101C200060817181828193812D913D914D915C9173
:101C30000E9418267B018C0155E6C52ED12C2B89DC
:101C40003C89C20ED31E4DE6842E912C820E931E2B
:101C5000D6016D917D918D919C91F401208131810E
:101C6000428153810E9418269B01AC01C801B70133
:101C70000E94D2239B01AC010E94D323AD81BE817F
:101C80006D937D938D939C931397EB89FC89E75813
:101C9000FF4FFA87E987D6016D917D918D919C91D7
:101CA000F30120813181428153810E9418267B01FA
:101CB0008C01D4016D917D918D919C91EF81F8857E
:101CC00020813181428153810E9418269B01AC0101
:101CD000C801B7010E94D3239B01AC010E94D3230A
:101CE000A985BA856D937D938D939C931397F60187
:101CF000A080B180C280D380D3012D903D904D90C3
:101D00005C90F4016080718082809380AF81B8859F
:101D10008D919D910D90BC91A02D89839A83AB8369
:101D2000BC83EB89FC89E358FF4FFC8BEB8BC6012E
:101D3000B501A60195010E9418267B018C01C20104
:101D4000B101A20191010E9418269B01AC01C801BA
:101D5000B7010E94D2237B018C01C401B301A4010D
:101D600093010E9418269B01AC01C801B7010E9493
:101D7000D2237B018C0169817A818B819C819B01BB
:101D8000AC010E9418269B01AC01C801B7010E945A
:101D9000D3236B877C878D879E87AB89BC896D93A6
:101DA0007D938D939D93BC8BAB8BC201B101A2013E
:101DB00091010E94D3236F87788B898B9A8BA40122
:101DC00093010E9418267B018C01C601B50120E019
:101DD00030E040E050EC0E94182629813A814B8186
:101DE0005C810E9418269B01AC01C801B7010E94CA
:101DF000D3233B014C01C601B501A60195010E9408
:101E0000D323A60195010E9418267B018C016F85C2
:101E1000788989899A89A20191010E9418269B01DB
:101E2000AC01C801B7010E94D32320E030E040E8B4
:101E30005FE30E94D2239B01AC01C401B3010E9465
:101E4000462420E030E044E353E40E9418262BEDC2
:101E50003FE049E450E40E949D24EB89FC896083C3
:101E6000718382839383E158F040FC8BEB8BA985CF
:101E7000BA85AD90BD90CD90DC90C601B501A601AC
:101E800095010E9418267B018C016B857C858D85D0
:101E90009E859B01AC010E9418263B014C01C801A4
:101EA000B701A40193010E94D3230E947F269B01C6
:101EB000AC01ED81FE8160817181828193810E94FC
:101EC0009D240E94712425E8422E512C2B893C89A7
:101ED000420E531E20E030E044E353E40E941826F3
:101EE0002BED3FE049E450E40E949D24D2016D9324
:101EF0007D938D939C931397ED81FE812081318199
:101F000042815381CA01B9010E941826A40193019C
:101F10000E94D3230E947F269B01AC01C601B5011C
:101F20000E949D240E9471242B893C8927573F4F92
:101F30003C8B2B8B20E030E044E353E40E941826D6
:101F40002BED3FE049E450E40E949D24AB89BC891D
:101F50006D937D938D939C931397A958B040BC8B40
:101F6000AB8B6B857C858D859E8520E030E040E0E5
:101F700050E00E9499248823ACF5F201E080F180C2
:101F800002811381C801B70120E030E040E050E059
:101F90000E940D2618167CF460E070E084E393E460
:101FA000A80197010E94D223D2016D937D938D9356
:101FB0009C93139717C0C801B70120E030E040E0C0
:101FC00050E00E94992488236CF460E070E084E380
:101FD00093ECA80197010E94D223F20160837183E0
:101FE00082839383EB89FC89E358FF4F6081718181
:101FF0008281938120E030E040E050E00E9499240B
:102000008823CCF589E8C82ED12C2B893C89C20EB7
:10201000D31ED601ED90FD900D911C91C801B70122
:1020200020E030E040E050E00E940D2618162CF42D
:1020300060E070E084E393E415C02B893C892B5762
:102040003F4FD9016D917D918D919C9120E030E0C1
:1020500040E050E00E94992488236CF460E070E036
:1020600084E393ECA80197010E94D223F6016083D8
:1020700071838283938364960FB6F894DEBF0FBE9C
:10208000CDBFCF91DF911F910F91FF90EF90DF9027
:10209000CF90BF90AF909F908F907F906F905F9008
:1020A0004F903F902F900895AF92BF92CF92EF92B2
:1020B000FF920F931F93DF93CF93CDB7DEB7C05935
:1020C000D0400FB6F894DEBF0FBECDBF182FF92E4B
:1020D0000E94410B6EE170E080E090E00E94D62209
:1020E000812F9F2D60E00E94390B812F9F2D60E191
:1020F00041E021E00E948008812F9F2D66E00E9430
:102100007908812F9F2D0E94C408812F9F2D60E0A8
:1021100040E020E00E948008812F9F2D0E94690BE3
:10212000812F9F2D0E94550CA82E812F9F2D0E943C
:10213000370CB82E812F9F2D0E94190CC82E812F8D
:102140009F2D60E04FE70E949408812F9F2D60E053
:102150000E94590B812F9F2D60E048E60E94940851
:10216000812F9F2D0E94490B64E170E080E090E098
:102170000E94D622812F9F2D65E970E049E857E043
:1021800020E000E0EE24E3940E94160B882311F473
:1021900081E0C9C1812F9F2D6EE178E040EC50E0D5
:1021A0000E94120B882311F482E0BDC1812F9F2D64
:1021B00063E00E94CD0B812F9F2D62E10E948D086C
:1021C000812F9F2D64E00E94BD08812F9F2D61E02B
:1021D0000E940E0C812F9F2D63E00E94030C812F23
:1021E0009F2D63E00E94E30B812F9F2D63E00E94EF
:1021F0007208812F9F2D60E00E946B08812F9F2D18
:1022000060E00E94310B812F9F2D6A2D0E94C20B2E
:10221000812F9F2D6B2D0E94B70B812F9F2D6C2D31
:102220000E94AC0BAA24BB24BE016F5F7F4FF50157
:10223000E252F74FE491DB01AA0DB11DEC932A2D78
:102240002F5F0894A11CB11C83E08A1580F74B8195
:10225000842F90E0029630E08217930744F7812F95
:102260009F2DBE016C5F7F4F50E029810A81EE24D3
:10227000E394CC240E94840950E0BE016F5F7F4F3D
:10228000F501E252F74FE491DB01A50FB11DEC938C
:102290005F5F0894A11CB11C543090F34B81842FD4
:1022A00090E00296252F30E0821793074CF7812F9C
:1022B0009F2DBE016C5F7F4F50E029810A81EE2483
:1022C000E394CC240E948409812F9F2D0E94510BFE
:1022D000812F9F2D0E946509482F812F9F2DBE01C0
:1022E0006F5E7F4F0E945609812F9F2D62E00E94F2
:1022F000B608812F9F2D6CE90E94A808812F9F2D81
:1023000060E50E94AF08812F9F2D60E00E94A10828
:10231000812F9F2D0E94510B812F9F2D61E00E94E4
:10232000610B812F9F2D61E00E94290B812F9F2D32
:102330000E94210B50E0BE016F5F7F4FF501E2521A
:10234000F74FE491DB01A50FB11DEC935F5F08949B
:10235000A11CB11C543090F34B81842F90E0029665
:10236000252F30E0821793074CF7812F9F2DBE0158
:102370006C5F7F4F50E029810A81EE24E394CC24E6
:102380000E94840950E0BE016F5F7F4FF501E25269
:10239000F74FE491DB01A50FB11DEC935F5F08944B
:1023A000A11CB11C543090F34B81842F90E0029615
:1023B000252F30E0821793074CF7812F9F2DBE0108
:1023C0006C5F7F4F50E029810A81EE24E394CC2496
:1023D0000E94840950E0BE016F5F7F4FF501E25219
:1023E000F74FE491DB01A50FB11DEC935F5F0894FB
:1023F000A11CB11C543090F34B81842F90E00296C5
:10240000252F30E0821793074CF7812F9F2DBE01B7
:102410006C5F7F4F50E029810A81EE24E394CC2445
:102420000E948409812F9F2D0E946509AC01833091
:102430009105C0F3812F9F2DBE016F5E7F4F0E94DB
:102440005609812F9F2D0E94D80850E0BE016F5F72
:102450007F4FF501E252F74FE491DB01A50FB11D6B
:10246000EC935F5F0894A11CB11C543090F34B8136
:10247000842F90E00296252F30E0821793074CF7C7
:10248000812F9F2DBE016C5F7F4F50E029810A8113
:102490000E94EC08812F9F2D0E946509AC018330BA
:1024A0009105C0F3812F9F2DBE016F5E7F4F0E946B
:1024B0005609812F9F2D0E94D80850E0BE016F5F02
:1024C0007F4FF501E252F74FE491DB01A50FB11DFB
:1024D000EC935F5F0894A11CB11C543090F34B81C6
:1024E000842F90E00296252F30E0821793074CF757
:1024F000812F9F2DBE016C5F7F4F50E029810A81A3
:10250000EE24E394CC240E948409812F9F2D60E067
:102510000E94290B812F9F2D0E94510B812F9F2DEF
:102520000E94D80880E0C057DF4F0FB6F894DEBF96
:102530000FBECDBFCF91DF911F910F91FF90EF9014
:10254000CF90BF90AF9008954F925F926F927F921D
:102550008F929F92AF92BF92CF92DF92EF92FF92B3
:102560000F931F93CF93DF93EC015B014A01390175
:10257000280187E293E00E94931C88E18093B800D1
:102580001C2F0D2FCE010E94EE0BCE010E94910C4C
:10259000882319F46FE071E002C069E271E083E31F
:1025A00093E00E947D2183E393E067E471E00E9461
:1025B0007D21CE010E9454108F87812F902FB5016D
:1025C0000E94A50B812F902FB4010E949E0B812F9A
:1025D000902FB3010E94970B812F902FB2010E9480
:1025E000900B812F902FB7010E94890B812F902F84
:1025F000B6010E94820B8F85882379F583E393E0EF
:102600006BE571E00E947D21812F902F61E00E9497
:10261000290B83E393E06BE671E00E947D2180E06B
:102620006EEC73E143E050E00E949021812F902FE7
:102630000E94D808888B83E393E06BE871E00E94E6
:102640007D21C357DF4F81E08883AC978AE290E019
:1026500099838883C156D04013C083E393E06AEA2C
:1026600071E00E947A2183E393E06F854AE050E0B5
:102670000E94682183E393E06BEC71E00E947D216E
:102680008F85DF91CF911F910F91FF90EF90DF9099
:10269000CF90BF90AF909F908F907F906F905F9002
:1026A0004F9008950F931F938C010E946708F801C3
:1026B0001786108A0F591F4FF801119211928F013E
:1026C00011821082065D1F4FF80111928F01108256
:1026D0000E581040F801EF5AFF4F0F5E1F4F118345
:1026E000008301511040F801ED5AFF4F0E5E1F4F5D
:1026F0001183008302511040F801EB5AFF4F0B5E2B
:102700001F4F1183008305511040F801E95AFF4F14
:102710000A5E1F4F1183008306511040F801E75AEB
:10272000FF4F075E1F4F1183008309511040F801CE
:10273000E55AFF4F065E1F4F118300830A51104078
:10274000F801E35AFF4F035E1F4F118300830D51C1
:102750001040C8014E96015A1F4FF80191838083A3
:102760001F910F9108950F931F93809112029091E2
:102770001302892B61F48FE890E00E941C22182F2D
:10278000092F0E945213109312020093130280919A
:102790001202909113021F910F9108950E94B3139A
:1027A000FC01E257FF4F81E080830895E82FEF7727
:1027B00087FD05C08E2F8250823008F4A0C02E2FD6
:1027C00030E0F901ED5AF64F5491F901E15CF64F12
:1027D0009491433011F04130B9F4923031F480914A
:1027E0004202852B809342020FC0933031F48091D6
:1027F0004402852B8093440207C0943029F48091D1
:102800004602852B8093460241504230B8F4923004
:1028100031F480914302852B809343020FC09330A3
:1028200031F480914502852B8093450207C0943096
:1028300029F480914702852B80934702235F364F0E
:10284000F90184919330D1F4E82FF0E0EE0FFF1FEF
:10285000EA5DFD4F718360838BE399E0FC01A591F4
:10286000B4918C9180934B028CE690E0909315028A
:102870008093140280916800826037C09430D1F454
:10288000E82FF0E0EE0FFF1FEE5CFD4F71836083D9
:102890008DE399E0FC01A591B4918C9180934A025B
:1028A0008DE690E090931502809314028091680069
:1028B00084601BC09230D9F4E82FF0E0EE0FFF1FC8
:1028C000E65EFD4F7183608389E399E0FC01A59189
:1028D000B4918C9180934C028BE690E0909315021A
:1028E0008093140280916800816080936800E09179
:1028F0001402F09115028081582B50832AC09FB793
:10290000F894E330A1F47093190260931802E998E7
:1029100080916900837F8093690080916900440FF2
:10292000440F842B80936900E19AE99A11C0709357
:10293000170260931602E898809169008C7F80935B
:10294000690080916900842B80936900E09AE89A7D
:102950009FBF8FB780688FBF08952FB7F894E82F77
:10296000EF7787FD05C08E2F8250823008F45FC05C
:102970004E2F50E0CA018D5A964FFC019491415C54
:10298000564FFA0184918230D1F480916B0090957A
:10299000892380936B0080916B00882329F48091B8
:1029A00068008E7F80936800809142028923809323
:1029B00042028091430298239093430249C083309E
:1029C000D1F480916C009095892380936C00809164
:1029D0006C00882329F4809168008D7F80936800C3
:1029E0008091440289238093440280914502982378
:1029F000909345022DC0843059F580916D009095DB
:102A0000892380936D0080916D00882329F4809143
:102A100068008B7F809368008091460289238093B1
:102A200046028091470298239093470211C0E330F9
:102A300041F4E99880916900837F80936900E19A6D
:102A400007C0E898809169008C7F80936900E09AC4
:102A50002FBF08951F920F920FB60F9211241F934C
:102A60002F933F934F935F936F937F938F939F9396
:102A7000AF93BF93EF93FF9333B140914C0290918A
:102A8000420220914302832F809582239323892B36
:102A900090916B0043274923482330934C024423F1
:102AA00059F1142F40FF05C0E0911A02F0911B026A
:102AB000099511FF05C0E0911C02F0911D020995D6
:102AC00012FF05C0E0911E02F0911F02099513FF4D
:102AD00005C0E0912002F0912102099514FF05C084
:102AE000E0912202F0912302099515FF05C0E091C3
:102AF0002402F09125020995FF91EF91BF91AF91CA
:102B00009F918F917F916F915F914F913F912F9105
:102B10001F910F900FBE0F901F9018951F920F924C
:102B20000FB60F9211241F932F933F934F935F93F0
:102B30006F937F938F939F93AF93BF93EF93FF9385
:102B400036B140914B029091440220914502832F6F
:102B5000809582239323892B90916C0043274923EE
:102B6000482330934B02442359F1142F40FF05C0F2
:102B7000E0912602F0912702099511FF05C0E0912E
:102B80002802F0912902099512FF05C0E0912A025E
:102B9000F0912B02099513FF05C0E0912C02F091F2
:102BA0002D02099514FF05C0E0912E02F0912F022D
:102BB000099515FF05C0E0913002F09131020995A9
:102BC000FF91EF91BF91AF919F918F917F916F9105
:102BD0005F914F913F912F911F910F900FBE0F90DA
:102BE0001F9018951F920F920FB60F9211240F93FA
:102BF0001F932F933F934F935F936F937F938F9385
:102C00009F93AF93BF93EF93FF9339B100914A0223
:102C10009091460220914702832F8095822393232F
:102C2000892B90916D0003270923082330934A02D2
:102C30000023C9F1102F00FF05C0E0913202F0918E
:102C40003302099511FF05C0E0913402F09135027D
:102C5000099512FF05C0E0913602F09137020995FF
:102C600013FF05C0E0913802F0913902099514FF75
:102C700005C0E0913A02F0913B02099515FF05C0AD
:102C8000E0913C02F0913D02099516FF05C0E091EC
:102C90003E02F0913F02099507FF05C0E091400216
:102CA000F09141020995FF91EF91BF91AF919F91F2
:102CB0008F917F916F915F914F913F912F911F91D4
:102CC0000F910F900FBE0F901F901895AF92BF926B
:102CD000CF92DF92EF92FF920F931F93CF93DF93E8
:102CE000EC015C01CC24DD24F50164817581685E12
:102CF0007340882777FD8095982F0E94382520E023
:102D000030E04AE754E40E949D247B018C016C87EB
:102D10007D878E879F8720E030E040E050E00E9472
:102D2000992488232CF480E090E0A0E0B0E00EC06D
:102D3000C801B70120E030E040E85FE30E940D26C3
:102D4000181644F480E090E0A0E8BFE38C879D87EC
:102D5000AE87BF870894C11CD11C82E090E0A80E0A
:102D6000B91E249694E0C916D10409F0BDCFDF91B5
:102D7000CF911F910F91FF90EF90DF90CF90BF9078
:102D8000AF9008959C01245F3F4FC90108950F93B0
:102D90001F938C01FC01808162E00E943E23F801B8
:102DA000818162E00E943E23F801828162E00E94FC
:102DB0003E23F801838162E00E943E23F801848D66
:102DC000080F111DF80180816BE877E143E00E9454
:102DD000D6131F910F910895CF93DF9380914802EE
:102DE00090914902892B81F585E290E00E941C2296
:102DF000FC01148E158E168E178E10A211A212A22F
:102E000013A214A286E0808387E0818385E0828319
:102E100084E08383EF01DF0180E090E020E030E098
:102E200040E050E01D821C821C962D933D934D93F3
:102E30005C931F970196229614968430910591F722
:102E4000F0934902E0934802809148029091490230
:102E5000DF91CF910895EF92FF920F931F93CF933D
:102E6000DF930E94EC168C010E947522F80161A389
:102E700072A383A394A30E94EC167C010E94EC161B
:102E8000FC01848DC82FD0E00E94EC16FC0101A14A
:102E900012A10E94EC162296CC0FDD1FCE0DDF1D75
:102EA000FC01858D968D081B190B198308830E94E0
:102EB000EC168C010E94EC16FC01848D080F111D8C
:102EC000F80180810E94AD140E94EC16FC01848DF3
:102ED0008F5F848F0E94EC168C010E94EC16FC011F
:102EE000848D8370F801848F0E94EC168C010E94FF
:102EF000EC16FC01848D080F111DF80180816BE830
:102F000077E143E00E94D613DF91CF911F910F919B
:102F1000FF90EF9008950F931F930E94EC168C0181
:102F20000E947522F801658F768F878F90A30E948B
:102F3000EC168C010E94EC16FC01848D080F111D0B
:102F4000F80180810E94AD140E94EC168C010E9451
:102F5000EC16FC01848D080F111DF80180816BE2D5
:102F600077E142E00E94D6131F910F910895FC0172
:102F700080914D028C3090F480838F5F80934D025E
:102F8000815090E0FC01EE0FFF1FE80FF91FE25B9C
:102F9000FD4F88EB9BE09283818308958FEF8083C0
:102FA0000895FC0120812C30B8F58181992787FD97
:102FB000909548E850E0481B590B440F551F440FAB
:102FC000551F6417750784F08281992787FD9095B6
:102FD00048E552E0481B590B440F551F440F551F3D
:102FE000641775070CF4AB0142505040CA01AA2780
:102FF00097FDA095BA2F880F991FAA1FBB1F4FB727
:10300000F89430E0F901EE0FFF1FE20FF31FE25BCF
:10301000FD4F928381834FBF0895CF92DF92EF924D
:10302000FF921F93CF93DF93EC01162F7A01690172
:1030300088818C3008F064C0862F61E00E943E23B6
:10304000888190E0FC01EE0FFF1FE80FF91FE25BA3
:10305000FD4F1F738081807C812B808380E292E012
:103060008E199F0964E070E00E940E27698380E654
:1030700099E08C199D0964E070E00E940E276A8334
:10308000A8818A2F6CE00E940227682F70E0AB01B4
:10309000440F551F460F571F440F551F440F551F10
:1030A00020E030E0C901840F951FFC01EE0FFF1FE7
:1030B000E80FF91FE25BFD4F808186FD15C02F5F91
:1030C0003F4F2C30310571F724C01092800082E010
:1030D000809381001092850010928400B19A8091B3
:1030E0006F00826080936F008A2F90E0FC01EE0FEA
:1030F000FF1FE80FF91FE25BFD4F80818064808332
:103100008881DF91CF911F91FF90EF90DF90CF905A
:103110000895672BD1F2E8CF40E252E020E639E093
:103120000E940D1808951F920F920FB60F9211244E
:103130002F933F934F935F936F937F938F939F93BF
:10314000AF93BF93EF93FF938091720287FF05C007
:1031500010928500109284002BC0209172023327B8
:1031600027FD309580914D0290E02817390704F52E
:1031700080917202992787FD9095FC01EE0FFF1F49
:10318000E80FF91FE25BFD4F808186FF11C080913F
:103190007202992787FD9095FC01EE0FFF1FE80F43
:1031A000F91FE25BFD4F80818F7360E00E947D23F9
:1031B000809172028F5F8093720220917202332796
:1031C00027FD309580914D0290E0281739070CF0CB
:1031D0004EC0809172028C300CF049C02091840066
:1031E0003091850080917202992787FD9095FC01AE
:1031F000EE0FFF1FE80FF91FE25BFD4F8181928107
:10320000820F931F909389008093880080917202AF
:10321000992787FD9095FC01EE0FFF1FE80FF91F1E
:10322000E25BFD4F808186FF2BC08091720299275F
:1032300087FD9095FC01EE0FFF1FE80FF91FE25B81
:10324000FD4F80818F7361E00E947D2319C080E46F
:103250009CE905C08091840090918500049690932C
:103260008900809388008FEF8093720209C080915B
:10327000840090918500049680549C4940F3EACFE5
:10328000FF91EF91BF91AF919F918F917F916F913E
:103290005F914F913F912F910F900FBE0F901F9014
:1032A0001895382F413210F040E042C080917302EF
:1032B0008823E1F791E090937302209375028FEFDA
:1032C0008093E00210929B02415040939C024F5F1A
:1032D0009093740280917402330F832B8093740255
:1032E00080917602813041F41092760280917402CE
:1032F0008093BB0085EC01C085EE8093BC0080917B
:1033000073028130E1F380919B02841710F44091A5
:103310009B0220E030E00AC0FB01E20FF31FD9015D
:10332000A558BD4F8C9180832F5F3F4F2417A0F38A
:10333000842F08950F931F93582F122F413210F0AE
:1033400081E04AC0809173028823E1F782E0809394
:103350007302009375028FEF8093E00210929B023C
:1033600040939C02ABE7B2E0FB0102C081918D93D8
:103370008E2F861B8417D0F31092740280917402F2
:10338000550F852B8093740280917602813041F431
:1033900010927602809174028093BB0085EC01C08C
:1033A00085EE8093BC00112321F08091730282305E
:1033B000E1F38091E0028F3F11F480E00DC0809135
:1033C000E002803211F482E007C08091E002803395
:1033D00011F084E001C083E01F910F910895482F00
:1033E000613210F081E0089580917302843011F011
:1033F00082E008956093BE02ADE9B2E0842F9C01A3
:10340000F90102C081918D938E2F841B8617D0F312
:1034100080E008951F920F920FB60F9211242F9300
:103420003F934F935F936F937F938F939F93AF934C
:10343000BF93EF93FF938091B90090E0887F9070E5
:103440008036910509F4F2C081369105CCF58832B9
:10345000910509F47BC089329105B4F4803191055E
:1034600009F46FC0813191053CF4009709F447C11C
:10347000089709F04FC165C08831910509F466C00D
:10348000809709F047C182C08034910509F4A4C037
:103490008134910544F48033910509F482C0C897C2
:1034A00009F038C189C08035910509F489C0883593
:1034B000910509F496C08834910509F02BC1AEC07E
:1034C0008839910509F413C189399105ECF48837DD
:1034D000910509F4ABC0893791054CF48836910504
:1034E00009F4A4C08037910509F014C19FC0883841
:1034F000910509F4FCC08039910509F49DC080381C
:10350000910509F007C198C0803B910509F4C6C038
:10351000813B91054CF4803A910509F49FC0883AAB
:10352000910509F0F7C0BAC0803C910509F4E3C0E9
:10353000883C910509F4DFC0883B910509F0EAC099
:10354000C2C0809174028093BB00CFC090919B0257
:1035500080919C02981768F490919B02E92FF0E00B
:10356000E558FD4F80818093BB009F5F90939B0245
:10357000BCC080917502882309F44BC085ED80930F
:10358000BC008091BC0084FDFCCFC2C080E280936F
:10359000E00285ED8093BC008091BC0084FDFCCFEF
:1035A000B7C080E38093E00285ED8093BC008091FA
:1035B000BC0084FDFCCFACC088E38093E0029BC0DC
:1035C00080919B029091BB00E82FF0E0E558FD4F01
:1035D00090838F5F80939B0290919B0280919C02CD
:1035E00082C080919B029091BB00E82FF0E0E558EB
:1035F000FD4F90838F5F80939B028091750288239B
:1036000041F085ED8093BC008091BC0084FDFCCF2F
:103610007FC081E08093760284EA6EC085ED80935E
:10362000BC008091BC0084FDFCCF72C083E080931D
:1036300073021092DF0259C08091DF02803208F0DD
:1036400056C08091DF029091BB00E82FF0E0E1547A
:10365000FD4F90838F5F8093DF0247C08091DF0230
:10366000803230F4E091DF02F0E0E154FD4F10824F
:1036700085ED8093BC008091BC0084FDFCCF10924E
:1036800073026091DF02E0917902F0917A028FEB90
:1036900092E070E009951092DF022DC084E08093E3
:1036A00073021092BD021092BE02E0917702F09177
:1036B000780209958091BE02882329F481E08093E5
:1036C000BE0210929D029091BD02E92FF0E0E356F8
:1036D000FD4F80818093BB009F5F9093BD029091CE
:1036E000BD028091BE02981710F485EC01C085E8F8
:1036F0008093BC000FC085EC8093BC0009C0109281
:10370000E00285ED8093BC008091BC0084FDFCCF7D
:1037100010927302FF91EF91BF91AF919F918F91A2
:103720007F916F915F914F913F912F910F900FBEBD
:103730000F901F9018951092730281E0809375028C
:103740001092760282E161E00E947D2383E161E0D4
:103750000E947D23E9EBF0E080818E7F8083808171
:103760008D7F808388E48093B80085E48093BC00DB
:10377000089581E08093260360930303109224034D
:103780001092250308952091020330E080910103F7
:10379000281B3109C901089540910103809102035A
:1037A000481718F02FEF3FEF0AC0E42FF0E0EF5179
:1037B000FD4F8081282F30E04F5F40930103C90106
:1037C0000895E091010380910203E81718F0EFEFEC
:1037D000FFEF06C0F0E0EF51FD4F8081E82FF0E0F1
:1037E000CF010895089510922A031092290388EEBC
:1037F00093E0A0E0B0E080932B0390932C03A09380
:103800002D03B0932E0389ED91E0909328038093CC
:1038100027030895CF92DF92EF92FF920F931F93A9
:10382000CF93DF937C016B018A018091260388236B
:10383000A1F0C0E0D0E00DC0D701ED91FC91D60120
:10384000AC0FBD1F0190F081E02DC7016C9109956F
:103850002196C017D10780F304C0CB01642F0E94CA
:10386000EF19C801DF91CF911F910F91FF90EF9059
:10387000DF90CF900895DF93CF930F92CDB7DEB74F
:10388000FC016983809126038823C9F08091250378
:10389000803238F081E090E09383828320E030E052
:1038A00015C080912403E82FF0E0EC5FFC4F998174
:1038B00090838F5F809324038093250305C0CE01FE
:1038C000019661E00E94EF1921E030E0C9010F90FC
:1038D000CF91DF9108950F93062F8091030364E049
:1038E00073E04091250321E00E949A19109224036D
:1038F00010922503109226030F91089561E00E9413
:103900006B1C0895413208F040E2862F61EE72E0B0
:103910000E9451191092010380930203089521E03F
:103920000E94821C089510920103109202031092CB
:103930002403109225030E949B1B08950F931F934D
:10394000CF93DF93BC018230910510F462E070E008
:10395000E091E403F091E50340E050E0A0E0B0E046
:1039600024C08081918186179707D0F0861797072A
:1039700071F482819381109729F013969C938E9312
:1039800012972CC09093E5038093E40327C0411560
:10399000510519F08417950718F48D01AC01EF015A
:1039A000DF01828193819C01F9013097D1F64115A5
:1039B0005105F9F0CA01861B970B8430910580F4FC
:1039C0008A819B810115110521F0F801938382837F
:1039D00004C09093E5038093E403FE01329645C052
:1039E000FE01E80FF91F6193719302979983888311
:1039F0003CC08091E2039091E303892B41F48091D4
:103A0000D1019091D2019093E3038093E20340911E
:103A1000D3015091D4014115510541F44DB75EB722
:103A20008091CF019091D001481B590B2091E20366
:103A30003091E30324173507B0F4CA01821B930BBE
:103A40008617970780F0AB014E5F5F4F841795078D
:103A500050F0420F531F5093E3034093E203F901E8
:103A60006193719302C0E0E0F0E0CF01DF91CF916C
:103A70001F910F910895CF93DF939C01009709F454
:103A80008FC0EC0122971B821A826091E40370912F
:103A9000E5036115710581F488819981820F931F77
:103AA0002091E2033091E3032817390739F5D093C9
:103AB000E303C093E20374C0DB0140E050E0AC17C5
:103AC000BD0708F1BB83AA83FE0121913191E20F6A
:103AD000F31FAE17BF0779F48D919C911197280FB2
:103AE000391F2E5F3F4F3983288312968D919C9109
:103AF00013979B838A834115510571F4D093E50395
:103B0000C093E4034DC012968D919C911397AD0123
:103B1000009711F0DC01D3CFDA011396DC93CE933A
:103B20001297FA0121913191E20FF31FCE17DF07AF
:103B300069F488819981280F391F2E5F3F4FFA0160
:103B4000318320838A819B8193838283E0E0F0E04C
:103B5000DB0112968D919C911397009719F0BC018F
:103B6000FD01F6CFAB014E5F5F4FDB018D919C9164
:103B7000840F951F2091E2033091E3032817390742
:103B800079F4309729F41092E5031092E40302C00F
:103B900013821282425050405093E3034093E20359
:103BA000DF91CF9108956F927F928F929F92AF9203
:103BB000BF92CF92DF92EF92FF920F931F93CF931A
:103BC000DF938C01009729F4CB010E949E1C8C018D
:103BD000BBC08EEFE82E8FEFF82EE00EF11E4801ED
:103BE000860E971E8E149F0408F4ACC0D7014D9129
:103BF0005C91119746175707B8F04530510508F406
:103C0000A3C0CA0104978617970708F49DC04250C5
:103C10005040461B570BF401419351936D937C9395
:103C2000CF010E943B1D90C05B01A41AB50A380168
:103C3000640E751EA091E403B091E503E0E0F0E0AE
:103C4000CC24DD2447C0A615B705A9F5CD91DC919C
:103C50001197CE0102968A159B0568F1CE018A194B
:103C60009B09029612962C91129713963C910597F8
:103C700058F0F40122833383CA19DB09D183C0834E
:103C8000D7016D937C9309C04E5F5F4F4C0F5D1F52
:103C9000F70151834083C901FC01C114D10431F003
:103CA000D6011396FC93EE9312974EC0F093E50362
:103CB000E093E40349C08D919C911197E817F907AF
:103CC00008F4FC016D0112968C91129713969C9149
:103CD0009C01D901109709F0B6CF8091E203909131
:103CE000E30386159705E9F4E617F707D0F420916A
:103CF000D3013091D4012115310541F42DB73EB7E0
:103D00008091CF019091D001281B390B8216930628
:103D1000C8F49092E3038092E203F7017183608319
:103D200013C0CB010E949E1CEC01009759F0D701F3
:103D30004D915C91B8010E94F804C8010E943B1D9E
:103D40008E0102C000E010E0C801DF91CF911F9109
:103D50000F91FF90EF90DF90CF90BF90AF909F902A
:103D60008F907F906F90089508951F920F920FB6D5
:103D70000F9211242F933F934F938F939F93EF9321
:103D8000FF938091C00082FD19C04091C6008091D0
:103D90005103282F30E02F5F3F4F2F7330708091F9
:103DA000520390E02817390759F0E0915103F0E0F1
:103DB000ED5CFC4F42A32093510302C08091C600EA
:103DC000FF91EF919F918F914F913F912F910F9084
:103DD0000FBE0F901F9018958091510320915203B0
:103DE00090E0805C9F4F821B91098F739070892BAC
:103DF00011F00E94B41E08951F920F920FB60F92F9
:103E000011242F938F939F93EF93FF9390915303DC
:103E100080915403981731F48091C1008F7D809375
:103E2000C10010C0E0915403F0E0EB56FC4F20813C
:103E30008091540390E001968F73907080935403A7
:103E40002093C600FF91EF919F918F912F910F903A
:103E50000FBE0F901F901895AF92BF92DF92EF9216
:103E6000FF920F931F93CF93DF93EC017A018B01A5
:103E7000DD24403081EE580780E0680780E0780755
:103E800011F0DD24D39491E0A92EB12CE889F989B1
:103E9000DD2069F0C5010C8C02C0880F991F0A94BF
:103EA000E2F7808360E079E08DE390E005C0108266
:103EB00060E874E88EE190E0A80197010E94212754
:103EC00021503040404050405695479537952795B2
:103ED00080E12030380720F0DD2011F0DD24D6CF3E
:103EE000EC85FD853083EE85FF8520831D8EEA8974
:103EF000FB89408121E030E0C901088C02C0880FB5
:103F0000991F0A94E2F7482B4083EA89FB89408194
:103F1000C901098C02C0880F991F0A94E2F7482B47
:103F20004083EA89FB894081C9010A8C02C0880F5D
:103F3000991F0A94E2F7482B4083EA89FB89808124
:103F40000B8C02C0220F331F0A94E2F7209528231E
:103F50002083DF91CF911F910F91FF90EF90DF9021
:103F6000BF90AF900895FC01268D878D30E0205CD6
:103F70003F4F281B31092F733070C9010895FC0190
:103F8000968D878D981719F42FEF3FEF06C0878D18
:103F9000E80FF11D82A1282F30E0C9010895DC014E
:103FA0005E969C915E975F968C915F97981719F437
:103FB0002FEF3FEF10C05F968C915F97FD01E80FE8
:103FC000F11D92A15F968C915F978F5F8F735F96C3
:103FD0008C93292F30E0C9010895DC015D968C9106
:103FE0005D97882339F05096ED91FC91519780812F
:103FF00086FFF9CF5D961C920895DC0190968C9116
:104000009097282F30E02F5F3F4F2F73307091969D
:104010008C91919790E028173907C9F390968C916D
:104020009097FD01E80FF11DEE59FF4F60839096C8
:104030002C9390975296ED91FC915397208181E0BB
:1040400090E05B960C905B9702C0880F991F0A94D2
:10405000E2F7282B208381E05D968C935D97509644
:10406000ED91FC91519780818064808381E090E0A4
:104070000895109236031092350388EE93E0A0E085
:10408000B0E08093370390933803A0933903B09343
:104090003A0389EE91E090933403809333031092B6
:1040A00054038091540380935303109252038091E0
:1040B00052038093510385EC90E0909340038093EA
:1040C0003F0384EC90E0909342038093410380ECA3
:1040D00090E0909344038093430381EC90E09093AD
:1040E00046038093450382EC90E0909348038093CD
:1040F000470386EC90E090934A038093490384E061
:1041000080934B0383E080934C0387E080934D03BF
:1041100085E080934E0381E080934F030895CF9212
:10412000DF92EF92FF920F931F93CF93DF937C0167
:104130006B018A01C0E0D0E00FC0D6016D916D0126
:10414000D701ED91FC910190F081E02DC701099517
:10415000C80FD91F015010400115110571F7CE018C
:10416000DF91CF911F910F91FF90EF90DF90CF9053
:104170000895EF92FF920F931F938C01DC01ED9154
:10418000FC910190F081E02D6DE009957C01D80152
:10419000ED91FC910190F081E02DC8016AE0099554
:1041A0009C012E0D3F1DC9011F910F91FF90EF90B3
:1041B0000895CF93DF93EC016115710519F420E0A8
:1041C00030E00FC0DB010D900020E9F71197A61B2E
:1041D000B70BE881F9810280F381E02DAD010995EB
:1041E0009C01C901DF91CF9108954F925F927F9218
:1041F0008F929F92AF92BF92CF92DF92EF92FF92F7
:104200000F931F93DF93CF93CDB7DEB7A1970FB670
:10421000F894DEBF0FBECDBF2C01742ECB0122302F
:1042200008F42AE019A231E2C32ED12CCC0EDD1EF7
:10423000822E9924AA24BB24672D752FA5019401F1
:104240000E94212779018A01C801B701A5019401C3
:104250000E94E326472D461B0894C108D1084A3026
:1042600014F4405D01C0495CF6014083E114F1049F
:104270000105110521F07E2C5F2DC801DDCFC201A3
:10428000B6010E94D920A1960FB6F894DEBF0FBEEA
:10429000CDBFCF91DF911F910F91FF90EF90DF90F5
:1042A000CF90BF90AF909F908F907F905F904F90F6
:1042B0000895DC012115310541F4ED91FC91019047
:1042C000F081E02D642F099508950E94F52008954E
:1042D000EF92FF920F931F939A01E62EFF2400E0C6
:1042E00010E0B801A7010E9459211F910F91FF9082
:1042F000EF9008950E94D9200895EF92FF920F93B6
:104300001F937C010E94D9208C01C7010E94B92013
:10431000080F191FC8011F910F91FF90EF9008958A
:10432000823000F5E82FF0E0EE0FFF1FEB52FC4F5C
:1043300071836083882319F08130A1F408C08091D3
:1043400069008C7F842B80936900E89A089580919E
:104350006900440F551F440F551F837F842B8093A2
:104360006900E99A08951F920F920FB60F921124D7
:104370002F933F934F935F936F937F938F939F936D
:10438000AF93BF93EF93FF938091D5039091D603A2
:10439000892B29F0E091D503F091D6030995FF917F
:1043A000EF91BF91AF919F918F917F916F915F91AD
:1043B0004F913F912F910F900FBE0F901F90189526
:1043C0001F920F920FB60F9211242F933F934F938A
:1043D0005F936F937F938F939F93AF93BF93EF936D
:1043E000FF938091D7039091D803892B29F0E09116
:1043F000D703F091D8030995FF91EF91BF91AF9149
:104400009F918F917F916F915F914F913F912F91EC
:104410000F900FBE0F901F901895CF93DF930E94BF
:104420009B220E945C05CCEEDEE10E9412052097E3
:10443000E1F30E94EC1EF9CF0E949E1C08951F928A
:104440000F920FB60F9211242F933F938F939F9348
:10445000AF93BF938091DD039091DE03A091DF03C2
:10446000B091E0033091E1030196A11DB11D232F0E
:104470002D5F2D3720F02D570196A11DB11D2093E2
:10448000E1038093DD039093DE03A093DF03B093F9
:10449000E0038091D9039091DA03A091DB03B091FE
:1044A000DC030196A11DB11D8093D9039093DA031B
:1044B000A093DB03B093DC03BF91AF919F918F91E9
:1044C0003F912F910F900FBE0F901F9018958FB7AF
:1044D000F8942091DD033091DE034091DF03509189
:1044E000E0038FBFB901CA0108959FB7F8942091E6
:1044F000D9033091DA034091DB035091DC0386B598
:10450000A89B06C08F3F21F02F5F3F4F4F4F5F4F5B
:104510009FBF542F432F322F2227280F311D411DBB
:10452000511D82E0220F331F441F551F8A95D1F77A
:10453000B901CA010895789484B5826084BD84B5B8
:10454000816084BD85B5826085BD85B5816085BD8E
:10455000EEE6F0E0808181608083E1E8F0E01082A7
:10456000808182608083808181608083E0E8F0E0E8
:10457000808181608083E1EBF0E0808184608083D2
:10458000E0EBF0E0808181608083EAE7F0E0808109
:104590008460808380818260808380818160808369
:1045A0008081806880831092C1000895EF92FF920D
:1045B0000F931F93CF93DF937B018C013FB7F89448
:1045C0008091D9039091DA03A091DB03B091DC03D1
:1045D00026B5A89B05C02F3F19F00196A11DB11D5E
:1045E0003FBFBA2FA92F982F8827820F911DA11D99
:1045F000B11D52E0880F991FAA1FBB1F5A95D1F712
:10460000EC0130C00E94D1233FB7F8948091D903C8
:104610009091DA03A091DB03B091DC0326B5A89B4F
:1046200005C02F3F19F00196A11DB11D3FBFBA2F44
:10463000A92F982F8827820F911DA11DB11D32E04F
:10464000880F991FAA1FBB1F3A95D1F78C1B9D0B92
:10465000885E9340B8F20894E108F1080109110955
:10466000C851DC4FE114F1040105110559F6DF9141
:10467000CF911F910F91FF90EF900895CF93DF930B
:10468000482F50E0CA018D5A964FFC013491415C8D
:10469000564FFA018491882369F190E0880F991FA1
:1046A000FC01EF5DF64FA591B491FC01E55DF64F7D
:1046B000C591D491662351F42FB7F8948C91932F20
:1046C000909589238C93888189230BC0623061F493
:1046D0002FB7F8948C91932F909589238C93888190
:1046E000832B88832FBF06C09FB7F8948C91832BB0
:1046F0008C939FBFDF91CF910895482F50E0CA015E
:104700008959964FFC012491CA018D5A964FFC019C
:104710009491415C564FFA013491332309F440C01F
:10472000222351F1233071F0243028F42130A1F0FC
:10473000223011F514C02630B1F02730C1F02430FA
:10474000D9F404C0809180008F7703C080918000ED
:104750008F7D8093800010C084B58F7702C084B5B0
:104760008F7D84BD09C08091B0008F7703C0809198
:10477000B0008F7D8093B000E32FF0E0EE0FFF1FBD
:10478000E55DF64FA591B4912FB7F894662321F417
:104790008C919095892302C08C91892B8C932FBF8B
:1047A000089508955058BB27AA270ED0FCC1EDD11B
:1047B00030F0F2D120F031F49F3F11F41EF4BDC16E
:1047C0000EF4E095E7FBB3C1E92FFED180F3BA17F1
:1047D000620773078407950718F071F49EF516C2F7
:1047E0000EF4E0950B2EBA2FA02D0B01B90190010C
:1047F0000C01CA01A0011124FF27591B99F0593F50
:1048000050F4503E68F11A16F040A22F232F342F97
:104810004427585FF3CF469537952795A795F040E5
:104820005395C9F77EF41F16BA0B620B730B840BFA
:10483000BAF09150A1F0FF0FBB1F661F771F881FB2
:10484000C2F70EC0BA0F621F731F841F48F487950A
:1048500077956795B795F7959E3F08F0B3CF9395F9
:10486000880F08F09927EE0F9795879508958DD1B9
:1048700058F080E891E009F49EEF8ED128F040E8EE
:1048800051E059F45EEF09C058C1C0C1E92FE0788A
:104890009BD168F3092E052AC1F32617370748076D
:1048A000590738F00E2E07F8E02569F0E025E0649E
:1048B0000AC0EF6307F8009407FADB01B9019D0114
:1048C000DC01CA01AD01EF9347D06DD10AD05F91F1
:1048D000552331F02BED3FE049E450FD49EC63CF27
:1048E0000895DF93DD27B92FBF7740E85FE3161601
:1048F000170648075B0710F4D92F93D19F938F9326
:104900007F936F9346D2E8E6F0E01AD14CD12F9115
:104910003F914F915F9198D1DD2349F09058A2EAE1
:104920002AED3FE049EC5FE3D0785D274DDFDF9172
:104930003AC1D9D008F481E008950CD034C12CD10B
:1049400040F023D130F021F45F3F19F0F0C0511155
:104950005EC1F3C039D198F39923C9F35523B1F35C
:10496000951B550BBB27AA2762177307840738F0DE
:104970009F5F5F4F220F331F441FAA1FA9F333D03D
:104980000E2E3AF0E0E830D091505040E695001CF1
:10499000CAF729D0FE2F27D0660F771F881FBB1FAD
:1049A000261737074807AB07B0E809F0BB0B802D87
:1049B000BF01FF2793585F4F2AF09E3F510568F0D3
:1049C000B6C025C15F3FECF3983EDCF38695779542
:1049D0006795B795F7959F5FC9F7880F911D9695D5
:1049E000879597F90895E1E0660F771F881FBB1F31
:1049F000621773078407BA0720F0621B730B840BDE
:104A0000BA0BEE1F88F7E095089504D06894B111B1
:104A1000FEC00895E1D088F09F5790F0B92F9927F4
:104A2000B751A0F0D1F0660F771F881F991F1AF0B9
:104A3000BA95C9F712C0B13081F0E8D0B1E008955D
:104A4000E5C0672F782F8827B85F39F0B93FCCF3DE
:104A5000869577956795B395D9F73EF490958095AF
:104A6000709561957F4F8F4F9F4F0895E89409C0CF
:104A700097FB3EF490958095709561957F4F8F4F91
:104A80009F4F9923A9F0F92F96E9BB279395F695A7
:104A9000879577956795B795F111F8CFFAF4BB0F25
:104AA00011F460FF1BC06F5F7F4F8F4F9F4F16C089
:104AB000882311F096E911C0772321F09EE8872F13
:104AC000762F05C0662371F096E8862F70E060E0CF
:104AD0002AF09A95660F771F881FDAF7880F969548
:104AE000879597F90895990F0008550FAA0BE0E8EC
:104AF000FEEF16161706E807F907C0F012161306A0
:104B0000E407F50798F0621B730B840B950B39F4DF
:104B10000A2661F0232B242B252B21F408950A2645
:104B200009F4A140A6958FEF811D811D089597F985
:104B30009F6780E870E060E008959FEF80EC089543
:104B4000DF93CF931F930F93FF92EF92DF927B013E
:104B50008C01689405C0DA2EEF0176D0FE01E8944E
:104B6000A5912591359145915591AEF3EF012CDE3C
:104B7000FE019701A801DA9479F7DF90EF90FF909A
:104B80000F911F91CF91DF91089500240A9416167A
:104B9000170618060906089500240A94121613062B
:104BA000140605060895092E0394000C11F48823B9
:104BB00052F0BB0F40F4BF2B11F460FF04C06F5FD5
:104BC0007F4F8F4F9F4F089557FD9058440F551FAB
:104BD00059F05F3F71F04795880F97FB991F61F07F
:104BE0009F3F79F087950895121613061406551FF6
:104BF000F2CF4695F1DF08C0161617061806991F62
:104C0000F1CF86957105610508940895E894BB2756
:104C100066277727CB0197F9089565DF08F48FEFB2
:104C200008959B01AC0160E070E080E89FE385CED1
:104C30000BD0B9CFAADF28F0AFDF18F0952309F029
:104C400076CF7BCF1124E3CFBFDFA0F3959FD1F3C5
:104C5000950F50E0551F629FF001729FBB27F00D2A
:104C6000B11D639FAA27F00DB11DAA1F649F66277F
:104C7000B00DA11D661F829F2227B00DA11D621FCE
:104C8000739FB00DA11D621F839FA00D611D221F88
:104C9000749F3327A00D611D231F849F600D211D6C
:104CA000822F762F6A2F11249F5750408AF0E1F00F
:104CB00088234AF0EE0FFF1FBB1F661F771F881F58
:104CC00091505040A9F79E3F510570F030CF9FCFD3
:104CD0005F3FECF3983EDCF3869577956795B79543
:104CE000F795E7959F5FC1F7FE2B880F911D96956D
:104CF000879597F9089511F40EF41FCF4DC06CDF1E
:104D0000D0F39923D9F3CEF39F57550B87FF54D097
:104D100056959795B0E020F4660F771F881FBB1F4C
:104D20001F930F9300249001A0018001F001A0E8DF
:104D30000E0F1F1F0A1E511D601B710B8009B50B42
:104D400048F4600F711F801DB51F0E1B1F0B0A0A50
:104D5000510907C02E0F3F1F4A1F0E0F1F1F0A1EAB
:104D6000511D660F771F881FBB1FA695F795E79506
:104D7000F8F60617170708065B07211D311D411DB0
:104D80000F911F91B901842F9158880F969587959F
:104D900008959B01AC014CCF9F3F49F0915028F4FE
:104DA000869577956795B7959F5F80389F4F880F59
:104DB0009695879597F9089591505040660F771F03
:104DC000881FD2F70895629FD001739FF001829FE0
:104DD000E00DF11D649FE00DF11D929FF00D839F8A
:104DE000F00D749FF00D659FF00D9927729FB00D27
:104DF000E11DF91F639FB00DE11DF91FBD01CF013A
:104E000011240895991B79E004C0991F961708F0A2
:104E1000961B881F7A95C9F78095089597FB092EF0
:104E200007260AD077FD04D02ED006D000201AF431
:104E3000709561957F4F0895F6F7909581959F4FF6
:104E40000895A1E21A2EAA1BBB1BFD010DC0AA1FCB
:104E5000BB1FEE1FFF1FA217B307E407F50720F0E3
:104E6000A21BB30BE40BF50B661F771F881F991F5E
:104E70001A9469F760957095809590959B01AC01A7
:104E8000BD01CF010895AA1BBB1B51E107C0AA1F9A
:104E9000BB1FA617B70710F0A61BB70B881F991FDB
:104EA0005A95A9F780959095BC01CD010895EE0F14
:0E4EB000FF1F0590F491E02D0994F894FFCFB8
:104EBE004649464F206F766572666C6F7721004DBE
:104ECE0050553630353020636F6E6E656374696F82
:104EDE006E206661696C6564004D50553630353014
:104EEE0020636F6E6E656374696F6E207375636396
:104EFE0065737366756C00496E697469616C697A65
:104F0E00696E6720444D502E2E2E00456E61626CE8
:104F1E00696E6720444D502E2E2E00456E61626CD8
:104F2E00696E6720696E746572727570742064653F
:104F3E0074656374696F6E2E2E2E005761697469E5
:104F4E006E6720666F7220666972737420696E7464
:104F5E006572727570742E2E2E00444D5020696E3F
:104F6E00697469616C697A6174696F6E20666169D2
:104F7E006C65642028636F646520002900E8038057
:104F8E0000E6030000000000003B1C0A1CC31BCC03
:104F9E001BE11BF21B00000000FD1F8F20B31FCF73
:064FAE001FBF1FED1F00F4
:00000001FF
