:100000000C94C1040C94CF280C94FC280C94E81A8E
:100010000C944C1B0C94B01B0C94E9040C94E90454
:100020000C94E9040C94E9040C94E9040C94881EE3
:100030000C94E9040C94E9040C94E9040C94E9048C
:100040000C943B290C94E9040C94AA240C94F124FC
:100050000C94E9040C94E9040C94E9040C94E9046C
:100060000C94FF1F0C94E904084AD73B3BCE016E69
:1000700084BCBFFDC12F3D6C74319ABD56833DDAFF
:100080003D00C77F11BED9E4BB4C3E916BAAAABE0E
:10009000000000803FFB00003E000B003600010026
:1000A000020003000000650054FFEF0000FA80002A
:1000B0000B1282000100020000000000000000009E
:1000C000000000000000280000FFFF4581FFFFFA4C
:1000D0007200000000000003E80000000100017F42
:1000E000FFFFFE8001001B00000000000000000078
:1000F0000000000000003E03304000000002CAE3A0
:10010000093E8000002000000000000000400000C8
:10011000006000000041FF000000000B2A000016F4
:100120005500002182FD872650FD800000001F0041
:100130000000058000000000000001000000020037
:100140000000030000400000000000046F00026592
:100150003200005EC040000000000000000000000F
:100160000000000000FB8C6F5DFD5D08D9007C7312
:100170003B006C12CC3200139D3200D0D632000806
:1001800000400001F4FFE68079020000000000D08A
:10019000D600002710FB0000004000000000000017
:1001A000000000000000000001000000000000014D
:1001B00000010000000000FA36FFBC308E0005FB95
:1001C000F0FFD95BC8FFD09ABE000010A9FFF41E53
:1001D000B200CEBBF70000000100000004000200E6
:1001E000020200000CFFC280000001800000CF80EE
:1001F00000400000000000000100000000000006B8
:1002000000000000140000000000000000000000DA
:1002100000000000000000000000000000000000DE
:1002200000000000000000000000000000000000CE
:10023000000000000000000000033F68B679352888
:10024000BCC67ED16C80000000400000000000B2FF
:100250006A00000000000000000000000000003FF5
:10026000F00000003000000000000000000000006E
:10027000000000000000000000000000000000007E
:1002800000000000000000254D002F706D000005EB
:10029000AE000C02D00000000000650054FFEF002B
:1002A0000000000000000001000044000000000CFD
:1002B0000000000100000000000065000000540084
:1002C00000FFEF0000000000000000000000000040
:1002D00000000000004000000000000000000000DE
:1002E00000000000004000000000000000000000CE
:1002F00000000000000000000100000002000000FB
:1003000000000000000000000000000000000000ED
:1003100000000000000000000000000000000000DD
:100320000000000000001B000000000000000000B2
:1003300000000000000000000000000000000000BD
:1003400000000000000000000000000000000000AD
:100350000040000000001B00000000000000000042
:10036000000000000000000000000000000000008D
:10037000000000000000000000000000000000007D
:10038000000000000000000000000000000000006D
:100390000000000000D8DCBAA2F1DEB2B8B4A88137
:1003A00091F74A907F916AF3F9DBA8F9B0BAA0807F
:1003B000F2CE81F3C2F1C1F2C3F3CCA2B280F1C696
:1003C000D880BAA7DFDFDFF2A7C3CBC5B6F087A21C
:1003D000942448703C95406834589B78A2F18392ED
:1003E0002D557DD8B1B4B8A1D09180F270F370F2E0
:1003F0007C80A8F101B09887D943D886C988BAA172
:10040000F20EB89780F1A9DFDFDFAADFDFDFF2AA03
:10041000C5CDC7A90CC92C97979797F1A9892646EE
:1004200066B0B4BA80ACDEF2CAF1B28C02A9B6985A
:1004300000890E161EB8A9B4992C547CB08AA896CF
:10044000365676F1B9AFB4B083C0B8A89711B18F62
:1004500098B9AFF0240844106418F1A329557DAF72
:1004600083B593AFF0002850F1A3869F61A6DADE32
:10047000DFD9FAA38696DB31A6D9F8DFBAA68FC2F8
:10048000C5C7B28CC1B8A2DFDFDFA3DFDFDFD8D8FA
:10049000F1B8A8B286B4980D355DB8AA98B0872D8A
:1004A000353DB2B6BAAF8C96198F9FA70E161EB403
:1004B0009AB8AA872C547CB9A3DEDFDFA3B180F2FF
:1004C000C4CDC9F1B8A9B499830D355D89B9A32DFF
:1004D000557DB593A30E161EA92C547CB8B4B0F16B
:1004E0009783A81184A50998A383F0DA24084410FF
:1004F0006418D8F1A529557DA58595021A2E3A567E
:100500005A4048F9F3A3D9F8F098832408441064BA
:10051000189782A8F111F098A2240844106418DA00
:10052000F3DED883A59401D9A302F1A2C3C5C7D82D
:10053000F18492A24DDA2AD84869D92AD86855DAC6
:1005400032D85071D932D8705DDA3AD85879D93A60
:10055000D87893A34DDA2AD84869D92AD86855DAC9
:1005600032D85071D932D8705DDA3AD85879D93A40
:10057000D878A88A9AF02850789EF38818F19F1DA1
:1005800098A8D908D8C89F129EF315A8DA1210D8D7
:10059000F1AFC8978734B5B994A421F3D922D8F222
:1005A0002DF3D92AD8F235F3D932D881A46060610D
:1005B000D961D86C6869D969D8747071D971D8B1AA
:1005C000A384193D5DA3831A3E5E93103081101100
:1005D000B8B0AF8F94F2DA3ED8B49AA88729DAF887
:1005E000D8879A35DAF8D8879A3DDAF8D8B1B9A41D
:1005F0009885022E56A581000C14A397B08AF12D80
:10060000D928D84DD948D86DD968D8B1840DDA0E1B
:10061000D8A32983DA2C0ED8A3844983DA2C4C0E74
:10062000D8B8B0A88A9AF520AADADFD8A840AAD00C
:10063000DADED8A860AADAD0DFD8F19786A8319B95
:10064000069907AB9728889BF00C201440B8B0B4EB
:10065000A88C9CF0042851791D301438B282ABD09C
:10066000982C505078789BF11AB0F08A9CA82951A8
:10067000798B2951798A2470598B2058718A446961
:10068000388B3940688A6448318B304960A58820AE
:100690000971584468113964493019F1AC002C547F
:1006A0007CF08CA804285078F1889726A85998AC3B
:1006B0008C02264666F0899CA829517924705944F9
:1006C0006938644831A98809205970AB11384069EC
:1006D000A8193148608CA83C415C207C00F18798C7
:1006E0001986A86E767EA999882D557D9EB9A38A14
:1006F000228A6E8A568A5E9FB183062646660E2E31
:100700004E6E9DB8AD002C547CF2B18CB499B9A357
:100710002D557D8191AC38AD3AB58391AC2DD9285A
:10072000D84DD948D86DD968D88C9DAE29D904AE9A
:10073000D851D904AED879D904D881F39DAD008DB4
:10074000AE1981ADD901D8F2AEDA26D88E912983BF
:10075000A7D9ADADADADF32AD8D8F1B0AC89913EF3
:100760005E76F3AC2E2EF1B18C5A9CAC2C28282846
:100770009CAC3018A8988128343C9724A728343C96
:100780009C24F2B089AC912C4C6C8A9B2DD9D8D882
:1007900051D9D8D879D9D8D8F19E88A331DAD8D808
:1007A000912DD928D84DD948D86DD968D8B183931F
:1007B000353D8025DAD8D88569DAD8D8B49381A3B5
:1007C00028343CF3AB8BF8A391B609B4D9ABDEFA6D
:1007D000B0879CB9A3DDF1A3A3A3A395F1A3A3A321
:1007E0009DF1A3A3A3A3F2A3B49080F2A3A3A3A318
:1007F000A3A3A3A3A3A3B2A3A3A3A3A3A3B087B5B7
:1008000099F1A3A3A398F1A3A3A3A397A3A3A3A33D
:10081000F39BA3A3DCB9A7F1262626D8D8FF037B38
:10082000034CCD6C03AB0336567600680402CB470D
:10083000A202180400058BC1010C04000000000393
:100840007F060CC92C979797038903264666006C90
:1008500002200002400400000000024404000000E6
:100860000002480400000000024C040000000002E6
:10087000500400000000025404000000000258046C
:1008800000000000025C040000000002BC04000044
:10089000000001EC0400004000037F060CC92C9707
:1008A00097970402030D355D040904872D353D003B
:1008B000A3010000000001078601FE074105F120A9
:1008C000283038077E01300746019A074704F1288F
:1008D0003038076C04F1283038021602000101B2EA
:1008E00002FFFF0190040923A135016A02060001FD
:1008F00060080000000000000000006004400000EC
:1009000000016202000000600400400000000102DB
:1009100003040506070001020304050001020304A5
:100920000500000000240027002A00000000002528
:100930000028002B000000000023002600290004EE
:100940000404040404040402020202020203030376
:100950000303030102040810204080010204081070
:10096000200102040810200000000700020100001E
:100970000304060000000000000000000105E8215B
:100980002E2611241FBECFEFD8E0DEBFCDBF12E070
:10099000A0E0B1E0EAE7FDE502C005900D92A631C6
:1009A000B107D9F714E0A6E1B2E001C01D92A83961
:1009B000B107E1F719E0C2E8D9E004C02297FE01CF
:1009C0000E94B72ECC37D107C9F70E9429290C9471
:1009D000BB2E0C940000FB01DC0104C08D91019042
:1009E000801921F441505040C8F7881B990B089595
:1009F000FB01DC0102C001900D9241505040D8F73C
:100A00000895AF92BF92CF92DF92EF92FF920F9331
:100A10001F9386E192E00E9465088DE192E00E94BA
:100A2000650884E292E00E9465088BE292E00E94F1
:100A3000650800D000D000D0E090EA01F090EB0112
:100A40000091EC011091ED01A0904A02B0904B0290
:100A5000C0904C02D0904D0280914E0290914F0276
:100A6000A0915002B0915102EDB7FEB781839283FD
:100A7000A383B4831682158282E592E062E372E07A
:100A800046E352E02AE332E00E94FF18E090EA01D8
:100A9000F090EB010091EC011091ED01A0904A0261
:100AA000B0904B02C0904C02D0904D0280914E020B
:100AB00090914F02A0915002B0915102EDB7FEB754
:100AC00081839283A383B483168215828BE892E09C
:100AD0006EE372E042E452E026E432E00E94FF1846
:100AE0008DB79EB706960FB6F8949EBF0FBE8DBF0A
:100AF0001F910F91FF90EF90DF90CF90BF90AF903C
:100B00000895CF92DF92EF92FF920F931F93DF939E
:100B1000CF93CDB7DEB76C970FB6F894DEBF0FBE9C
:100B2000CDBF85EE93E040E052EC61E070E00E94C2
:100B300021250E94221664E97FEF48E854E020EF67
:100B400038E00CE110E0F4EEEF2EFFEFFF2EE8E0CE
:100B5000CE2ED12C0E9413150E94051D0E94E01C70
:100B60008E010F5F1F4FC80169E070E00E94760898
:100B7000A6E1B2E0F80187E001900D928150E1F723
:100B80008E01085F1F4FC8016AE070E00E9476087E
:100B9000ADE1B2E0F80187E001900D928150E1F7FC
:100BA0008E01015F1F4FC8016BE070E00E94760864
:100BB000A4E2B2E0F80187E001900D928150E1F7E4
:100BC0008E010A5E1F4FC8016CE070E00E9476083B
:100BD000ABE2B2E0F80187E001900D928150E1F7BD
:100BE00082E592E061E070E00E948D1782E592E07C
:100BF00040E050E060E87FEB00E010E020E83FE3F9
:100C00000E9411178BE892E061E070E00E948D175E
:100C10008BE892E040E050E060E87FEB00E010E01D
:100C200020E83FE30E9411176C960FB6F894DEBFE0
:100C30000FBECDBFCF91DF911F910F91FF90EF902D
:100C4000DF90CF900895AF92BF92CF92DF92EF9254
:100C5000FF920F931F9359016A01A80197010E9407
:100C6000AE2CA60195010E948F2C1F910F91FF9031
:100C7000EF90DF90CF90BF90AF900895EF92FF92EA
:100C80000F931F930E9422160E94030F882309F0DE
:100C9000E3C1EDC10E94051D0E945C1C0E9422164A
:100CA0000E94200FFC01608571858285938520E07C
:100CB00030E044E353E40E94B92B26E636E646E6EC
:100CC0005FE30E94722D7B018C010E94051D0E9432
:100CD000571CFC01648575858685978520E030E08A
:100CE00040E05FE30E94EE2A9B01AC010E94EF2AE4
:100CF0002DEC3CEC4CEC5DE30E94722D9B01AC01B1
:100D0000C801B7010E94EF2A609332027093330248
:100D100080933402909335020E9422160E94200F85
:100D2000FC01648175818681978120E030E044E395
:100D300053E40E94B92B26E636E646E65FE30E94BE
:100D4000722D7B018C010E94051D0E94571CFC0125
:100D5000608571858285938520E030E040E05FE327
:100D60000E94EE2A9B01AC010E94EF2A2DEC3CEC84
:100D70004CEC5DE30E94722D9B01AC01C801B701F0
:100D80000E94EF2A60933E0270933F0280934002DC
:100D90009093410282E592E00E94E1178BE892E095
:100DA0000E94E1170E94051D0E94571CFC016081F2
:100DB0007181828193812DEC3CEC4CEC5DE30E94CF
:100DC000672D18160CF0DCC060914202709143024E
:100DD0008091440290914502209136023091370271
:100DE00040913802509139020E94EE2A7B018C0119
:100DF0000E94051D0E94571CFC01C801B7012081FB
:100E00003181428153810E94EF2A20E030E040E0AE
:100E100050E00F2EF0E0EF2EF0E0FF2EF0E80F2F65
:100E2000FFE31F2FF02D0E942306AB01BC0186E1DA
:100E300092E00E94440860913602709137028091DE
:100E40003802909139022091420230914302409140
:100E50004402509145020E94EF2A7B018C010E94BE
:100E6000051D0E94571CFC01C801B701208131817A
:100E7000428153810E94EF2A20E030E040E050E0C0
:100E80000F2EF0E0EF2EF0E0FF2EF0E80F2FFFE343
:100E90001F2FF02D0E942306AB01BC018DE192E0D3
:100EA0000E944408609136027091370280913802A6
:100EB0009091390290582091420230914302409122
:100EC0004402509145020E94EE2A7B018C010E944F
:100ED000051D0E94571CFC01C801B701208131810A
:100EE000428153810E94EF2A20E030E040E050E050
:100EF0000F2EF0E0EF2EF0E0FF2EF0E80F2FFFE3D3
:100F00001F2FF02D0E942306AB01BC0184E292E06A
:100F10000E94440860913602709137028091380235
:100F20009091390220914202309143024091440253
:100F3000509145020E94EE2A7B018C010E94051D02
:100F40000E94571CFC01C801B701208131814281F8
:100F500053810E94EF2A20E030E040E050E00F2E65
:100F6000F0E0EF2EF0E0FF2EF0E80F2FFFE31F2F51
:100F7000F02D0E942306AB01BC018BE292E01EC063
:100F800086E192E040E050E060E070E00E944408BA
:100F90008DE192E040E050E060E070E00E944408A3
:100FA00084E292E040E050E060E070E00E9444089B
:100FB0008BE292E040E050E060E070E00E94440884
:100FC00085EE93E060E071E00E94AF2786E192E059
:100FD0000E943C08AB01BC0185EE93E022E030E0CA
:100FE0000E94962885EE93E06DE071E00E94AF27A5
:100FF0008DE192E00E943C08AB01BC0185EE93E0DC
:1010000022E030E00E94962885EE93E06DE071E0EA
:101010000E94AF2784E292E00E943C08AB01BC0131
:1010200085EE93E022E030E00E94962885EE93E082
:101030006DE071E00E94AF278BE292E00E943C08D5
:10104000AB01BC0185EE93E022E030E00E949628DF
:1010500085EE93E00E94AE260E9422160E94080FA1
:10106000882309F417CE0E9422160E94250F1F9193
:101070000F91FF90EF900895FC0123813481458109
:101080005681B901CA0108950F931F938C01FC0189
:101090004383548365837683CB01BA0120E030E03B
:1010A0004AE754E40E94722D20E030E04AE754E41D
:1010B0000E94EF2A0E94212C9B01AC01C801B901BA
:1010C0000E94C61D1F910F9108950F931F938C01CD
:1010D0000E94AC1D80E090E0A0E0B0E0F8018383C6
:1010E0009483A583B6831F910F910895EF92FF9289
:1010F0000F931F938C017B010E94AC1D80E090E058
:10110000A0E0B0E0F80183839483A583B683C8018F
:10111000B7010E94811E1F910F91FF90EF900895DB
:10112000CF92DF92FF920F931F93CF93DF93582FAD
:10113000162F042F690189ED93E0652F0E94AE21DF
:1011400089ED93E0612F0E943022C02FD0E0CC0FB8
:10115000DD1FFF2412C0000F111F0C0D1D1DF80113
:10116000618189ED93E00E94302289ED93E0F801DE
:1011700060810E943022F2E0FF0E0F2D10E00C176C
:101180001D074CF389ED93E00E94732290E08823C1
:1011900009F491E0892FDF91CF911F910F91FF907A
:1011A000DF90CF900895DF93CF9300D0CDB7DEB717
:1011B0005A83498341E09E012F5F3F4F0E94900870
:1011C0000F900F90CF91DF910895EF92FF920F93C0
:1011D0001F93CF93DF93582F162FE42E022FF32E59
:1011E00089ED93E0652F0E94AE2189ED93E0612F98
:1011F0000E943022202F3F2DC901EC0110E006C0D3
:1012000089ED93E069910E9430221F5F1E15C0F3A3
:1012100089ED93E00E94732290E0882309F491E025
:10122000892FDF91CF911F910F91FF90EF9008953B
:10123000DF93CF930F92CDB7DEB7498341E09E0194
:101240002F5F3F4F0E94E5080F90CF91DF910895E7
:101250002F923F924F925F926F927F928F929F92C6
:10126000AF92BF92CF92DF92EF92FF920F931F93B4
:10127000DF93CF9300D000D00F92CDB7DEB7882E8A
:101280006983942E3B832A830E9483295B016C012E
:10129000FF24EE24292C33242801662477244BC014
:1012A00089ED93E0682D0E94AE2189ED93E069817C
:1012B0000E94302289ED93E00E94732289ED93E031
:1012C000682D0E94AE21A1014E19510941325105EC
:1012D00014F040E250E089ED93E0682D0E948422F2
:1012E0002F2D332727FD30958A819B81280F391FA9
:1012F0003D832C8389ED93E00E94B821892B09F46A
:1013000052C00115110561F00E9483296A197B09F9
:101310008C099D09641575058605970508F043C07D
:1013200089ED93E00E94C121EC81FD818193FD83D1
:10133000EC83F394DFCFE91408F4B2CF0115110563
:10134000C9F00E9483296A197B098C099D099801BB
:1013500040E050E0621773078407950758F02F2D7F
:10136000332727FD3095892D90E02817390714F48D
:10137000FF24FA948F2D0F900F900F900F900F90E5
:10138000CF91DF911F910F91FF90EF90DF90CF9061
:10139000BF90AF909F908F907F906F905F904F9095
:1013A0003F902F900895892DF0E2F91508F480E21E
:1013B000E80EC1CF0F931F93FA01890141E09F010D
:1013C0000E9428091F910F910895DF92EF92FF92DA
:1013D0000F931F93DF93CF930F92CDB7DEB7E82E15
:1013E000D62EF42E122F2091EE013091EF01AE0196
:1013F0004F5F5F4F0E94DA09882341F1212F30E0CF
:101400004F2D50E04F5F5F4F421B530B81E090E048
:1014100002C0880F991F1A95E2F70197042E02C0A7
:10142000880F991F0A94E2F7202F30E002C0220FA4
:10143000331F4A95E2F7482F40955981452382236F
:10144000482B49838E2D6D2D0E9418090F90CF9146
:10145000DF911F910F91FF90EF90DF900895EF9231
:10146000FF920F931F93DF93CF930F92CDB7DEB709
:10147000F82EE62E042F122F2091EE013091EF016D
:10148000AE014F5F5F4F0E94DA092981112351F0AD
:1014900081E090E002C0880F991F0A95E2F7422F81
:1014A000482B0AC081E090E002C0880F991F0A957E
:1014B000E2F7482F4095422349838F2D6E2D0E94DD
:1014C00018090F90CF91DF911F910F91FF90EF902E
:1014D0000895CF92DF92EF92FF920F931F93DF93C5
:1014E000CF930F92CDB7DEB7C42ED22E9701AE01A7
:1014F0004F5F5F4F0E94DA09682F882309F18D2D15
:1015000090E04C2D50E04F5F5F4F481B590B21E09E
:1015100030E002C0220F331FDA94E2F7215030404E
:10152000042E02C0220F331F0A94E2F7898182231E
:1015300090E002C0959587954A95E2F7F80180837F
:10154000862F0F90CF91DF911F910F91FF90EF9019
:10155000DF90CF900895DF92EF92FF920F931F9349
:10156000DF93CF930F92CDB7DEB7D42E79019801D8
:10157000AE014F5F5F4F0E94DA0921E030E002C008
:10158000220F331FDA94E2F799819223F7019083B7
:101590000F90CF91DF911F910F91FF90EF90DF900F
:1015A0000895FC0188E680830895FC01462F808120
:1015B00061E70E9418090895FC01462F808160E7C9
:1015C0000E9418090895FC01462F80816EE60E9452
:1015D00018090895FC01962F9F7121119062411105
:1015E000906480816DE6492F0E9418090895FC01DE
:1015F000462F808168E30E9418090895FC01862F18
:10160000643040F463E0869FB00111246B5D8081FB
:101610000E9418090895FC01462F808162E20E9411
:1016200018090895FC01462F808161E20E94180983
:101630000895FC01462F808160E20E9418090895F8
:10164000FC01462F80816FE10E9418090895FC017A
:10165000462F808169E10E94180908950F931F9316
:101660008C01AC014F5F5F4F2091EE013091EF0193
:10167000FC0180816FE60E94DA09F80181811F91E7
:101680000F9108950F931F938C01AC014F5F5F4F33
:101690002091EE013091EF01FC0180816AE30E940C
:1016A000DA09F80181811F910F9108954F925F929D
:1016B0006F927F929F92AF92BF92CF92DF92EF9202
:1016C000FF920F931F93CF93DF936C013B015A015D
:1016D000922EE02E622F40E020E00E94EA0AC6012E
:1016E000602F0E94E30AC0E0D0E0412C91E0592E27
:1016F00034C0CE014096A816B90618F080E1F82E45
:1017000002C0FA2CFC1A2F2D30E0C2018E1991096B
:101710008217930714F4FE2CF19493012C0F3D1FB4
:101720000091EE011091EF01F60180816FE64F2DDF
:101730000E942809CF0DD11DEF0CCA15DB0568F4F6
:10174000EE2009F49394C601692D40E020E00E9448
:10175000EA0AC6016E2D0E94E30ACA15DB0548F2AB
:10176000DF91CF911F910F91FF90EF90DF90CF907D
:10177000BF90AF909F907F906F905F904F90089533
:101780000F931F93FC019B010091EE011091EF015B
:10179000808164E70E9428091F910F910895EF92BC
:1017A000FF920F931F937C019C012F5F3F4F00918D
:1017B000EE011091EF01FC01808162E742E00E949E
:1017C0002809F701918180E0228130E0282B392B14
:1017D000C9011F910F91FF90EF9008953F924F9292
:1017E0005F926F927F928F929F92AF92BF92CF92B1
:1017F000DF92EF92FF920F931F93DF93CF9300D06E
:1018000000D0CDB7DEB75C017A8369832A01622EEE
:10181000702E3E2CEC2C622F40E020E00E94EA0A61
:10182000C501602F0E94E30A332029F080E190E097
:101830000E9493224C01EE2029F080E190E00E946A
:1018400093226C011C821B827BC08B819C81409601
:101850004816590618F0E0E1FE2E03C0F42C8B81E7
:10186000F81A2F2D30E080E091E087199109821756
:10187000930714F4F72CF194E981FA81AB81BC81D0
:10188000EA0FFB1FEE2089F0AF0120E030E00AC034
:10189000FA018491F601E20FF31F80832F5F3F4F1F
:1018A0004F5F5F4F2F15A0F301C06F01D5018C91E1
:1018B0006FE64F2D96010E94E508332051F1811407
:1018C000910439F1C501662D40E020E00E94EA0A4A
:1018D000C501672D0E94E30A0091EE011091EF010E
:1018E000F50180816FE64F2D94010E942809C60101
:1018F000B4014F2D50E00E94EB04009751F0C40159
:101900000E943023EE2019F0C6010E94302380E0AF
:1019100028C08B819C818F0D911D9C838B837F0CB4
:101920008415950568F4772009F46394C501662D44
:1019300040E020E00E94EA0AC501672D0E94E30A08
:10194000AB81BC81A415B50508F47FCF332019F015
:10195000C4010E943023EE2019F0C6010E943023FA
:1019600081E00F900F900F900F90CF91DF911F911A
:101970000F91FF90EF90DF90CF90BF90AF909F902E
:101980008F907F906F905F904F903F9008952F922F
:101990003F924F925F926F927F928F929F92AF92FF
:1019A000BF92CF92EF92FF920F931F93CF93DF934B
:1019B0002C014B011A01F22E222309F47CC088E08D
:1019C00090E00E9493225C0176C0AE014F5F5F4FB2
:1019D000F401EC0FFD1FFF2091F08491BA016F5FBD
:1019E0007F4F480D591DFA019491EB012196680D26
:1019F000791DFB016491E82E092F162F0DC0E080A0
:101A0000F401E40FF51F0081CA010196F401E80F0B
:101A1000F91F1081EC012196112389F1FF20F1F0CB
:101A2000133030F0C501612F70E00E94C8235C01C3
:101A3000A4014C0F5D1F20E030E0612F70E00AC070
:101A4000FA018491F501E20FF31F80832F5F3F4F6E
:101A50004F5F5F4F2617370798F303C05401AC0E52
:101A6000BD1E612E7724C201B501A3012E2DEE24E7
:101A7000E394CC240E94EE0B882301F515C0F401F9
:101A8000EC0FFD1FCE010196FF2019F0EC0124910F
:101A900002C02081EC01213039F4F201808168E339
:101AA00042E30E9418090CC0FF2019F0C5010E94F2
:101AB000302380E00FC0C0E0D0E002C0C60DD71DCB
:101AC000C215D30508F481CFFF2019F0C5010E948B
:101AD000302381E0DF91CF911F910F91FF90EF9024
:101AE000CF90BF90AF909F908F907F906F905F90BE
:101AF0004F903F902F90089521E00E94C70C0895C9
:101B0000CF92EF920F93CC24C3940E94EE0B0F91CF
:101B1000EF90CF900895FC0180816AE643E021E0D8
:101B20000E942F0A0895FC01262F80816AE647E073
:101B30000E942F0A0895FC01262F808160E040E07A
:101B40000E942F0A0895FC01262F80816BE646E053
:101B50000E942F0A0895FC0180816BE647E021E096
:101B60000E942F0A0895FC0180816AE641E021E08D
:101B70000E942F0A0895FC0180816AE642E021E07C
:101B80000E942F0A0895FC01262F80816AE645E015
:101B90000E942F0A0895FC01262F80816AE646E004
:101BA0000E942F0A0895EF92FF920F931F937C01DA
:101BB0009C012F5F3F4F0091EE011091EF01FC015E
:101BC000808160E040E00E94AB0AF70181811F91B3
:101BD0000F91FF90EF900895FC01AB01808167E1C8
:101BE0000E94D3080895FC01AB01808165E10E9449
:101BF000D3080895FC01AB01808163E10E94D30802
:101C00000895FC01AB0180816AE00E94D308089529
:101C1000FC01AB01808168E00E94D3080895FC01BB
:101C2000AB01808166E00E94D30808950F93FC0108
:101C3000062F808162E046E026E00E94E5090F91D0
:101C400008950F93FC01062F808161E046E026E0B5
:101C50000E94E5090F9108950F93FC01062F8081E2
:101C600060E046E026E00E94E5090F9108950F9399
:101C7000FC01062F80816BE642E023E00E94E5092B
:101C80000F9108950F93FC01062F80816CE144E0D1
:101C900022E00E94E5090F9108950F93FC01062FA1
:101CA00080816BE144E022E00E94E5090F910895F4
:101CB0000F931F938C0161E00E94370EC80160E012
:101CC0000E944D0EC80160E00E94420EC80160E013
:101CD0000E94A30D1F910F9108950F93FC01062FF1
:101CE00080816AE142E023E00E94E5090F910895B6
:101CF0000F93FC01062F80816AE145E023E00E94FA
:101D0000E5090F910895CF92DF92EF92FF920F9322
:101D10001F936C018C010F5F1F4FE090EE01F0905C
:101D2000EF01FC01808162E046E026E00E94690A42
:101D3000F60181811F910F91FF90EF90DF90CF907E
:101D40000895CF92DF92EF92FF920F931F936C0151
:101D50008C010F5F1F4FE090EE01F090EF01FC014E
:101D6000808161E046E026E00E94690AF6018181F7
:101D70001F910F91FF90EF90DF90CF900895CF9239
:101D8000DF92EF92FF920F931F936C018C010F5F14
:101D90001F4FE090EE01F090EF01FC01808160E0C8
:101DA00046E026E00E94690AF60181811F910F91A9
:101DB000FF90EF90DF90CF900895CF92DF92EF9257
:101DC000FF920F931F936C018C010F5F1F4FE090E8
:101DD000EE01F090EF01FC01808165E746E026E02E
:101DE0000E94690AF60181811F910F91FF90EF9087
:101DF000DF90CF9008950E94DD0E90E0843309F4C7
:101E000091E0892F0895FC01E357FF4F80810895E9
:101E1000DC01A257BF4F8C91AE58B040882369F4C3
:101E200040E0FD01EF59FF4FAD59BF4F2D913C915F
:101E3000808191812817390708F041E0842F0895A7
:101E40009C012F573F4FC90108952F923F924F9207
:101E50005F926F927F928F929F92AF92BF92CF923A
:101E6000DF92EF92FF920F931F93DF93CF93CDB743
:101E7000DEB764970FB6F894DEBF0FBECDBF8257B2
:101E80009F4FDC011C92AE58B040BC8BAB8BBB8823
:101E9000AC888B2D9A2D0E94420BEB89FC89808B9C
:101EA0008B899C890E94CF0B9C010B891C890D5941
:101EB0001F4FD8018D939C93EB89FC89808984FD09
:101EC00003C02050344059F48B2D9A2D0E94BB0D35
:101ED00085EE93E06FE071E00E9499283BC381FD9D
:101EE00009C038C38B2D9A2D0E94CF0BD7018D933B
:101EF0009C9308C0E1E6CE2ED12CEB89FC89CE0E56
:101F0000DF1E7801D6014D915C91F70180819181AE
:101F10008417950738F36B897C896F5E7F4F8B2D13
:101F20009A2D0E94C00BD8018D919C911197F601BA
:101F300020813181821B930B8D939C9375E6E72E54
:101F4000F12C2B893C89E20EF31E2F5A3F4FD90109
:101F5000ED91FD91708160E0ED91FC911197A35599
:101F6000B040BC8BAB8B208130E0622B732B882779
:101F700077FD8095982F0E94542C20E030E040E8B7
:101F800058E30E94722DF7016083718382839383EB
:101F90000B891C8907591F4F2B893C892B5A3F4FAE
:101FA000D901ED91FD91708160E0ED91FC91119767
:101FB000A755B040BC8BAB8B208130E0622B732BDC
:101FC000882777FD8095982F0E94542C20E030E0E0
:101FD00040E858E30E94722DF80160837183828388
:101FE00093830B891C8903591F4F2B893C89275ADE
:101FF0003F4FD901ED91FD91708160E0ED91FC9131
:102000001197AB55B040BC8BAB8B208130E0622B7D
:10201000732B882777FD8095982F0E94542C20E001
:1020200030E040E858E30E94722DF801608371832C
:10203000828393830B891C890F581F4F2B893C89FE
:10204000235A3F4FD901ED91FD91708160E0ED91F0
:10205000FC911197AF55B040BC8BAB8B208130E029
:10206000622B732B882777FD8095982F0E94542C24
:1020700020E030E040E858E30E94722DF8016083D0
:102080007183828393836701AA24BB24D601ED90D8
:10209000FD900D911C91C801B70120E030E040E0B7
:1020A00050E40E94672D88236CF0C801B70120E03E
:1020B00030E040E850E40E94EE2AF601608371832C
:1020C000828393830894A11CB11C24E030E0C20EEB
:1020D000D31E34E0A316B104C9F68B899C898B58B2
:1020E0009F4F9E838D8369E6662E712CAB89BC89D8
:1020F0006A0E7B1EAF58BF4FB887AF83F301608174
:102100007181828193812D913D914D915C910E94CD
:10211000722D7B018C0155E6C52ED12C2B893C8973
:10212000C20ED31E4DE6842E912C820E931ED60134
:102130006D917D918D919C91F4012081318142813D
:1021400053810E94722D9B01AC01C801B7010E940E
:10215000EE2A9B01AC010E94EF2AAD81BE816D93F6
:102160007D938D939C931397EB89FC89E758FF4FE0
:10217000FA87E987D6016D917D918D919C91F3014C
:1021800020813181428153810E94722D7B018C011B
:10219000D4016D917D918D919C91EF81F885208185
:1021A0003181428153810E94722D9B01AC01C80193
:1021B000B7010E94EF2A9B01AC010E94EF2AA9857A
:1021C000BA856D937D938D939C931397F601A080B0
:1021D000B180C280D380D3012D903D904D905C9012
:1021E000F4016080718082809380AF81B8858D9189
:1021F0009D910D90BC91A02D89839A83AB83BC8364
:10220000EB89FC89E358FF4FFC8BEB8BC601B501D2
:10221000A60195010E94722D7B018C01C201B101C2
:10222000A20191010E94722D9B01AC01C801B7016E
:102230000E94EE2A7B018C01C401B301A401930129
:102240000E94722D9B01AC01C801B7010E94EE2AC9
:102250007B018C0169817A818B819C819B01AC011E
:102260000E94722D9B01AC01C801B7010E94EF2AA8
:102270006B877C878D879E87AB89BC896D937D93A7
:102280008D939D93BC8BAB8BC201B101A2019101D7
:102290000E94EF2A6F87788B898B9A8BA401930118
:1022A0000E94722D7B018C01C601B50120E030E057
:1022B00040E050EC0E94722D29813A814B815C8173
:1022C0000E94722D9B01AC01C801B7010E94EF2A48
:1022D0003B014C01C601B501A60195010E94EF2A00
:1022E000A60195010E94722D7B018C016F85788972
:1022F00089899A89A20191010E94722D9B01AC01EA
:10230000C801B7010E94EF2A20E030E040E85FE317
:102310000E94EE2A9B01AC01C401B3010E94622B12
:1023200020E030E044E353E40E94722D2BED3FE0C7
:1023300049E450E40E94B92BEB89FC8960837183E6
:1023400082839383E158F040FC8BEB8BAD81BE819F
:10235000AD90BD90CD90DC90C601B501A601950170
:102360000E94722D7B018C016B857C858D859E85FD
:102370009B01AC010E94722D3B014C01C801B701C9
:10238000A40193010E94EF2A0E94D92D9B01AC0168
:10239000E985FA8560817181828193810E94B92BE0
:1023A0000E948D2B25E8422E512C2B893C89420E10
:1023B000531E20E030E044E353E40E94722D2BEDE5
:1023C0003FE049E450E40E94B92BD2016D937D9324
:1023D0008D939C931397E985FA8520813181428101
:1023E0005381CA01B9010E94722DA40193010E9478
:1023F000EF2A0E94D92D9B01AC01C601B5010E94B4
:10240000B92B0E948D2B2B893C8927573F4F3C8B42
:102410002B8B20E030E044E353E40E94722D2BED3F
:102420003FE049E450E40E94B92BAB89BC896D932D
:102430007D938D939C931397A958B040BC8BAB8B25
:102440006B857C858D859E8520E030E040E050E006
:102450000E94B52B8823ACF5F201E080F180028167
:102460001381C801B70120E030E040E050E00E9455
:10247000672D18167CF460E070E084E393E4A80113
:1024800097010E94EE2AD2016D937D938D939C93C8
:10249000139717C0C801B70120E030E040E050E0DA
:1024A0000E94B52B88236CF460E070E084E393EC29
:1024B000A80197010E94EE2AF20160837183828352
:1024C0009383EB89FC89E358FF4F6081718182819E
:1024D000938120E030E040E050E00E94B52B88235B
:1024E000CCF589E8C82ED12C2B893C89C20ED31E8D
:1024F000D601ED90FD900D911C91C801B70120E02F
:1025000030E040E050E00E94672D18162CF460E0A7
:1025100070E084E393E415C02B893C892B573F4F2F
:10252000D9016D917D918D919C9120E030E040E04A
:1025300050E00E94B52B88236CF460E070E084E3E7
:1025400093ECA80197010E94EE2AF6016083718343
:102550008283938364960FB6F894DEBF0FBECDBF1F
:10256000CF91DF911F910F91FF90EF90DF90CF906F
:10257000BF90AF909F908F907F906F905F904F90A3
:102580003F902F900895AF92BF92CF92EF92FF921B
:102590000F931F93DF93CF93CDB7DEB7C059D040D1
:1025A0000FB6F894DEBF0FBECDBF182FF92E0E94D4
:1025B000AB0D6EE170E080E090E00E94F229812F87
:1025C0009F2D60E00E94A30D812F9F2D60E141E0CF
:1025D00021E00E94EA0A812F9F2D66E00E94E30A13
:1025E000812F9F2D0E942E0B812F9F2D60E040E0B8
:1025F00020E00E94EA0A812F9F2D0E94D30D812F97
:102600009F2D0E94BF0EA82E812F9F2D0E94A10EEC
:10261000B82E812F9F2D0E94830EC82E812F9F2DB3
:1026200060E04FE70E94FE0A812F9F2D60E00E942C
:10263000C30D812F9F2D60E048E60E94FE0A812F86
:102640009F2D0E94B30D64E170E080E090E00E9455
:10265000F229812F9F2D65E970E049E857E020E0DD
:1026600000E0EE24E3940E94800D882311F481E0C1
:10267000C9C1812F9F2D6EE178E040EC50E00E94AF
:102680007C0D882311F482E0BDC1812F9F2D63E072
:102690000E94370E812F9F2D62E10E94F70A812F41
:1026A0009F2D64E00E94270B812F9F2D61E00E94E7
:1026B000780E812F9F2D63E00E946D0E812F9F2D3C
:1026C00063E00E944D0E812F9F2D63E00E94DC0A83
:1026D000812F9F2D60E00E94D50A812F9F2D60E001
:1026E0000E949B0D812F9F2D6A2D0E942C0E812F01
:1026F0009F2D6B2D0E94210E812F9F2D6C2D0E94EE
:10270000160EAA24BB24BE016F5F7F4FF501E25273
:10271000F74FE491DB01AA0DB11DEC932A2D2F5F39
:102720000894A11CB11C83E08A1580F74B81842F8B
:1027300090E0029630E08217930744F7812F9F2D97
:10274000BE016C5F7F4F50E029810A81EE24E39443
:10275000CC240E94EE0B50E0BE016F5F7F4FF5016D
:10276000E252F74FE491DB01A50FB11DEC935F5FDF
:102770000894A11CB11C543090F34B81842F90E03D
:102780000296252F30E0821793074CF7812F9F2D5B
:10279000BE016C5F7F4F50E029810A81EE24E394F3
:1027A000CC240E94EE0B812F9F2D0E94BB0D812F08
:1027B0009F2D0E94CF0B482F812F9F2DBE016F5E52
:1027C0007F4F0E94C00B812F9F2D62E00E94200B43
:1027D000812F9F2D6CE90E94120B812F9F2D60E5A8
:1027E0000E94190B812F9F2D60E00E940B0B812FFF
:1027F0009F2D0E94BB0D812F9F2D61E00E94CB0D6C
:10280000812F9F2D61E00E94930D812F9F2D0E94AB
:102810008B0D50E0BE016F5F7F4FF501E252F74F25
:10282000E491DB01A50FB11DEC935F5F0894A11C3F
:10283000B11C543090F34B81842F90E00296252FE9
:1028400030E0821793074CF7812F9F2DBE016C5FFC
:102850007F4F50E029810A81EE24E394CC240E942A
:10286000EE0B50E0BE016F5F7F4FF501E252F74F74
:10287000E491DB01A50FB11DEC935F5F0894A11CEF
:10288000B11C543090F34B81842F90E00296252F99
:1028900030E0821793074CF7812F9F2DBE016C5FAC
:1028A0007F4F50E029810A81EE24E394CC240E94DA
:1028B000EE0B50E0BE016F5F7F4FF501E252F74F24
:1028C000E491DB01A50FB11DEC935F5F0894A11C9F
:1028D000B11C543090F34B81842F90E00296252F49
:1028E00030E0821793074CF7812F9F2DBE016C5F5C
:1028F0007F4F50E029810A81EE24E394CC240E948A
:10290000EE0B812F9F2D0E94CF0BAC0183309105E0
:10291000C0F3812F9F2DBE016F5E7F4F0E94C00BC1
:10292000812F9F2D0E94420B50E0BE016F5F7F4FB1
:10293000F501E252F74FE491DB01A50FB11DEC93D5
:102940005F5F0894A11CB11C543090F34B81842F1D
:1029500090E00296252F30E0821793074CF7812FE5
:102960009F2DBE016C5F7F4F50E029810A810E943C
:10297000560B812F9F2D0E94CF0BAC018330910508
:10298000C0F3812F9F2DBE016F5E7F4F0E94C00B51
:10299000812F9F2D0E94420B50E0BE016F5F7F4F41
:1029A000F501E252F74FE491DB01A50FB11DEC9365
:1029B0005F5F0894A11CB11C543090F34B81842FAD
:1029C00090E00296252F30E0821793074CF7812F75
:1029D0009F2DBE016C5F7F4F50E029810A81EE245C
:1029E000E394CC240E94EE0B812F9F2D60E00E9487
:1029F000930D812F9F2D0E94BB0D812F9F2D0E9433
:102A0000420B80E0C057DF4F0FB6F894DEBF0FBE19
:102A1000CDBFCF91DF911F910F91FF90EF90CF909D
:102A2000BF90AF9008954F925F926F927F928F9276
:102A30009F92AF92BF92CF92DF92EF92FF920F934D
:102A40001F93CF93DF93EC015B014A013901280109
:102A500089ED93E00E94882288E18093B8001C2FC2
:102A60000D2FCE010E94580ECE010E94FB0E88232E
:102A700019F46EE171E002C068E371E085EE93E065
:102A80000E94992885EE93E066E571E00E949928FE
:102A9000CE010E94C3128F87812F902FB5010E9413
:102AA0000F0E812F902FB4010E94080E812F902FBE
:102AB000B3010E94010E812F902FB2010E94FA0DE6
:102AC000812F902FB7010E94F30D812F902FB60117
:102AD0000E94EC0D8F85882379F585EE93E06AE6F8
:102AE00071E00E949928812F902F61E00E94930D40
:102AF00085EE93E06AE771E00E94992880E06DE33B
:102B000076E143E050E00E94AC28812F902F0E9494
:102B1000420B888B85EE93E06AE971E00E94992868
:102B2000C357DF4F81E08883AC978AE290E09983B6
:102B30008883C156D04013C085EE93E069EB71E005
:102B40000E94AF2785EE93E06F854AE050E00E9437
:102B50005D2785EE93E06AED71E00E9499288F85EC
:102B6000DF91CF911F910F91FF90EF90DF90CF9069
:102B7000BF90AF909F908F907F906F905F904F909D
:102B800008950F931F938C010E94D10AF8011786B4
:102B9000108A0F591F4FF801119211928F01118263
:102BA0001082065D1F4FF80111928F0110820E589E
:102BB0001040F801EF5AFF4F0F5E1F4F1183008343
:102BC00001511040F801ED5AFF4F0E5E1F4F118367
:102BD000008302511040F801EB5AFF4F0B5E1F4F6C
:102BE0001183008305511040F801E95AFF4F0A5E36
:102BF0001F4F1183008306511040F801E75AFF4F21
:102C0000075E1F4F1183008309511040F801E55AF8
:102C1000FF4F065E1F4F118300830A511040F801D9
:102C2000E35AFF4F035E1F4F118300830D51104085
:102C3000C8014E96015A1F4FF801918380831F915E
:102C40000F9108950F931F938091C4029091C50234
:102C5000892B61F48FE890E00E943829182F092F02
:102C60000E94C1151093C4020093C5028091C40252
:102C70009091C5021F910F9108950E942216FC01A8
:102C8000E257FF4F81E0808308952F923F924F9249
:102C90005F926F927F928F929F92AF92BF92CF92EC
:102CA000DF92EF92FF920F931F93DF93CF9300D0A9
:102CB00000D0CDB7DEB71C0149835A836B837C8378
:102CC0004801590126013701CB01BA0120E030E06B
:102CD00040E050E00E94B52B87FD8CC0C501B401D7
:102CE00020E030E040E050E00E94B52B87FD82C03C
:102CF000C701B60120E030E040E050E00E94B52B73
:102D000087FD78C089819A81AB81BC81F101808384
:102D10009183A283B383D10114968D929D92AD923B
:102D2000BC921797C086D186E286F38664A575A506
:102D300086A597A50E94522C20E030E04AE754E493
:102D40000E94B92B7B018C0189819A81AB81BC8166
:102D5000F10184879587A687B787C501B401A801CB
:102D600097010E94722D5B016C01D10150966D9309
:102D70007D938D939C935397C301B201A801970152
:102D80000E94B92B7B018C01F101648B758B868BC2
:102D9000978B808D918D019769F560E070E080E000
:102DA00090E029813A814B815C810E94EE2AD10119
:102DB0001C966D937D938D939C931F9760E070E0BC
:102DC00080E090E0A60195010E94EE2AF101608B5F
:102DD000718B828B938B60E070E080E090E0A801C3
:102DE00097010E94EE2AD10154966D937D938D93A5
:102DF0009C9357970F900F900F900F90CF91DF916A
:102E00001F910F91FF90EF90DF90CF90BF90AF9008
:102E10009F908F907F906F905F904F903F902F90FA
:102E200008954F925F926F927F928F929F92AF928E
:102E3000BF92CF92DF92EF92FF920F931F93CF93A7
:102E4000DF93EC013A014B0178018901CB01BA0112
:102E5000A80197010E94672D87FF4EC068AA79AA32
:102E60008AAA9BAAECAAFDAA0EAB1FAB88AD882349
:102E700009F442C04C8C5D8CF201A080B180C2800C
:102E8000D380C601B501A80197010E94672D1816CD
:102E900034F4F201E082F182028313830DC0C60193
:102EA000B501A40193010E94B52B88232CF4F201F3
:102EB0006082718282829382ACA0BDA0CEA0DFA08E
:102EC000ECA8FDA80EA91FA9C601B501A80197018C
:102ED0000E94672D181664F0E8A8F9A80AA91BA992
:102EE000C601B501A80197010E94B52B882324F4DF
:102EF000ECA2FDA20EA31FA3DF91CF911F910F9112
:102F0000FF90EF90DF90CF90BF90AF909F908F9009
:102F10007F906F905F904F9008959F92AF92BF9275
:102F2000CF92DF92EF92FF920F931F93CF93DF9395
:102F3000EC0199246130710511F49924939488ADC2
:102F400091E08927981681F5EC8DFD8DE080F18068
:102F500002811381ECA2FDA20EA31FA3EA8DFB8DBB
:102F600080819181A281B38188A799A7AAA7BBA7D5
:102F7000ACA8BDA8CEA8DFA8C801B701A6019501DD
:102F80000E94672D181664F0A8A8B9A8CAA8DBA8E3
:102F9000C801B701A60195010E94B52B882324F42E
:102FA000ACA2BDA2CEA2DFA298AEDF91CF911F91BD
:102FB0000F91FF90EF90DF90CF90BF90AF909F90D8
:102FC00008952F923F924F925F926F927F928F92CD
:102FD0009F92AF92BF92CF92DF92EF92FF920F93A8
:102FE0001F93DF93CF9300D000D000D0CDB7DEB7D2
:102FF0009E838D83DC01D8968C91882309F4E5C0EB
:103000000E94832969837A838B839C83ED81FE816F
:1030100080A191A1A2A1B3A129813A814B815C81B8
:10302000281B390B4A0B5B0B84A595A5A6A5B7A554
:10303000281739074A075B0708F4C7C0028CF38DCD
:10304000E02D2080318042805380AD81BE815E962C
:10305000ED91FC915F976081718182819381A201E2
:1030600091010E94EE2A3B014C01ED81FE812089F5
:103070003189428953890E94722DAD81BE81949617
:103080002D913D914D915C9197970E94EF2A7B0184
:103090008C01ED81FE8164A375A386A397A3A4A8E8
:1030A000B5A8C6A8D7A8A60195010E94672D181635
:1030B00074F0ED81FE81A0A8B1A8C2A8D3A8C80170
:1030C000B701A60195010E94B52B882344F4AD8178
:1030D000BE819496AD92BD92CD92DC929797C40139
:1030E000B301ED81FE8124853585468557850E9493
:1030F000722DAD81BE8194962D913D914D915C9143
:1031000097970E94EF2A7B018C01C201B101ED81EA
:10311000FE8120A531A542A553A50E94EE2AAD81CE
:10312000BE8154962D913D914D915C9157970E948F
:10313000722D9B01AC01C801B7010E94EE2A7B01F0
:103140008C01ED81FE81D4A8C5A8B6A8A7A82D2D15
:103150003C2D4B2D5A2D0E94672D1816BCF0AD81C9
:10316000BE81D096DC90D097D196CC90D197D29654
:10317000BC90D297D396AC90C801B7012D2D3C2DB1
:103180004B2D5A2D0E94B52B882334F48D2D9C2D68
:10319000AB2DBA2D7C018D01AD81BE815C96ED9188
:1031A000FC915D97E082F18202831383FD0120A6EA
:1031B00031A642A653A689819A81AB81BC8180A3A6
:1031C00091A3A2A3B3A381E001C080E026960FB62D
:1031D000F894DEBF0FBECDBFCF91DF911F910F914D
:1031E000FF90EF90DF90CF90BF90AF909F908F9027
:1031F0007F906F905F904F903F902F9008954F92E7
:103200005F926F927F928F929F92AF92BF92CF9276
:10321000DF92EF92FF920F931F93DF93CF93CDB77F
:10322000DEB74C0127013801EF88F88CFC01558F7F
:10323000448F738F628F378F268F10AE40E050E03F
:1032400060E070E000E010E02FE733E40E94111727
:1032500084E690E0A0E0B0E0F40184A795A7A6A7DB
:10326000B7A780AD882391F1808D918DE816F9067E
:1032700069F160E070E080E090E024853585468566
:1032800057850E94EE2AF4016487758786879787A1
:1032900060E070E080E090E02089318942895389C4
:1032A0000E94EE2AF401608B718B828B938B60E01D
:1032B00070E080E090E024893589468957890E9432
:1032C000EE2AF401648B758B868B978BF401F18E5B
:1032D000E08EC401B301A20196018501CB88DC8890
:1032E000ED88FE880E9445160E948329F40124A5DA
:1032F00035A546A557A5621B730B840B950B60A3E0
:1033000071A382A393A3CF91DF911F910F91FF909F
:10331000EF90DF90CF90BF90AF909F908F907F9075
:103320006F905F904F900895E82FEF7787FD05C06D
:103330008E2F8250823008F4A0C02E2F30E0F90189
:10334000ED5AF64F5491F901E15CF64F94914330F8
:1033500011F04130B9F4923031F48091F402852BB0
:103360008093F4020FC0933031F48091F602852BE4
:103370008093F60207C0943029F48091F802852BDF
:103380008093F80241504230B8F4923031F4809189
:10339000F502852B8093F5020FC0933031F48091B4
:1033A000F702852B8093F70207C0943029F48091AF
:1033B000F902852B8093F902235F364FF90184913E
:1033C0009330D1F4E82FF0E0EE0FFF1FE852FD4FED
:1033D000718360838BE399E0FC01A591B4918C919A
:1033E0008093FD028CE690E09093C7028093C60222
:1033F00080916800826037C09430D1F4E82FF0E00B
:10340000EE0FFF1FEC51FD4F718360838DE399E058
:10341000FC01A591B4918C918093FC028DE690E023
:103420009093C7028093C6028091680084601BC09D
:103430009230D9F4E82FF0E0EE0FFF1FE453FD4F78
:103440007183608389E399E0FC01A591B4918C912B
:103450008093FE028BE690E09093C7028093C602B1
:1034600080916800816080936800E091C602F091CD
:10347000C7028081582B50832AC09FB7F894E3304D
:10348000A1F47093CB026093CA02E998809169001D
:10349000837F8093690080916900440F440F842BDF
:1034A00080936900E19AE99A11C07093C902609310
:1034B000C802E898809169008C7F809369008091B0
:1034C0006900842B80936900E09AE89A9FBF8FB7C8
:1034D00080688FBF08952FB7F894E82FEF7787FDA6
:1034E00005C08E2F8250823008F45FC04E2F50E00E
:1034F000CA018D5A964FFC019491415C564FFA01D6
:1035000084918230D1F480916B00909589238093CF
:103510006B0080916B00882329F4809168008E7F76
:10352000809368008091F40289238093F402809153
:10353000F50298239093F50249C08330D1F480912D
:103540006C009095892380936C0080916C00882397
:1035500029F4809168008D7F809368008091F60245
:1035600089238093F6028091F70298239093F702C3
:103570002DC0843059F580916D00909589238093FA
:103580006D0080916D00882329F4809168008B7F05
:10359000809368008091F80289238093F8028091DB
:1035A000F90298239093F90211C0E33041F4E998AD
:1035B00080916900837F80936900E19A07C0E89851
:1035C000809169008C7F80936900E09A2FBF0895F5
:1035D0001F920F920FB60F9211241F932F933F93B8
:1035E0004F935F936F937F938F939F93AF93BF930B
:1035F000EF93FF9333B14091FE029091F40220913A
:10360000F502832F809582239323892B90916B0061
:103610004327492348233093FE02442359F1142FB2
:1036200040FF05C0E091CC02F091CD02099511FF59
:1036300005C0E091CE02F091CF02099512FF05C0BE
:10364000E091D002F091D102099513FF05C0E091FD
:10365000D202F091D302099514FF05C0E091D40283
:10366000F091D502099515FF05C0E091D602F091C1
:10367000D7020995FF91EF91BF91AF919F918F91E3
:103680007F916F915F914F913F912F911F910F907B
:103690000FBE0F901F9018951F920F920FB60F92AA
:1036A00011241F932F933F934F935F936F937F93B7
:1036B0008F939F93AF93BF93EF93FF9336B1409156
:1036C000FD029091F6022091F702832F80958223CC
:1036D0009323892B90916C004327492348233093EF
:1036E000FD02442359F1142F40FF05C0E091D80298
:1036F000F091D902099511FF05C0E091DA02F0912D
:10370000DB02099512FF05C0E091DC02F091DD02B9
:10371000099513FF05C0E091DE02F091DF020995E3
:1037200014FF05C0E091E002F091E102099515FF58
:1037300005C0E091E202F091E3020995FF91EF915B
:10374000BF91AF919F918F917F916F915F914F91B9
:103750003F912F911F910F900FBE0F901F901895C2
:103760001F920F920FB60F9211240F931F932F9356
:103770003F934F935F936F937F938F939F93AF93F9
:10378000BF93EF93FF9339B10091FC029091F8023F
:103790002091F902832F809582239323892B909186
:1037A0006D000327092308233093FC020023C9F18D
:1037B000102F00FF05C0E091E402F091E5020995A9
:1037C00011FF05C0E091E602F091E702099512FFB2
:1037D00005C0E091E802F091E902099513FF05C0E8
:1037E000E091EA02F091EB02099514FF05C0E09127
:1037F000EC02F091ED02099515FF05C0E091EE0293
:10380000F091EF02099516FF05C0E091F002F091EA
:10381000F102099507FF05C0E091F202F091F30271
:103820000995FF91EF91BF91AF919F918F917F91FA
:103830006F915F914F913F912F911F910F910F9039
:103840000FBE0F901F901895FC01148E158E168ECA
:10385000178E10A211A212A213A214A286E08083D6
:1038600087E0818385E0828384E0838380E090E049
:10387000A0E0B0E084839583A683B78380E090E0E6
:10388000A0E0BFE380879187A287B387848795876D
:10389000A687B787808B918BA28BB38B158A148AEE
:1038A000178A168A118E108E138E128E08959C011F
:1038B0002C5F3F4FC9010895AF92BF92CF92DF9224
:1038C000EF92FF920F931F93CF93DF93EC010E942F
:1038D000912929A13AA14BA15CA1621B730B840B16
:1038E000950B615A764881409040C8F080E090E0A6
:1038F000A0E0B0E08C839D83AE83BF8380E090E046
:10390000A0E0BFE388879987AA87BB878C879D87BC
:10391000AE87BF87888B998BAA8BBB8B46C05E0115
:10392000CC24DD24F50164897589685E734088279D
:1039300077FD8095982F0E94542C20E030E04AE7D4
:1039400054E40E94B92B7B018C016C837D838E83B0
:103950009F8320E030E040E050E00E94B52B8823B8
:103960002CF480E090E0A0E0B0E00EC0C801B70108
:1039700020E030E040E85FE30E94672D181644F431
:1039800080E090E0A0E8BFE38C839D83AE83BF839B
:103990000894C11CD11C82E090E0A80EB91E2496A8
:1039A00094E0C916D10409F0BDCFDF91CF911F91EA
:1039B0000F91FF90EF90DF90CF90BF90AF90089560
:1039C0000F931F938C01FC01808162E00E945A2AB0
:1039D000F801818162E00E945A2AF801828162E046
:1039E0000E945A2AF801838162E00E945A2AF80153
:1039F000848D080F111DF801808160E87DE143E0AE
:103A00000E9494191F910F9108950F931F93809115
:103A1000FA029091FB02892B61F485E290E00E940A
:103A20003829182F092F0E94241C1093FA020093A2
:103A3000FB028091FA029091FB021F910F91089571
:103A4000EF92FF920F931F93CF93DF930E94051D78
:103A50008C010E949129F80161A372A383A394A30E
:103A60000E94051D7C010E94051DFC01848DC82F4C
:103A7000D0E00E94051DFC0101A112A10E94051DBC
:103A80002A96CC0FDD1FCE0DDF1DFC01858D968D96
:103A9000081B190B198308830E94051D8C010E94C5
:103AA000051DFC01848D080F111DF80180810E9405
:103AB0006B1A0E94051DFC01848D8F5F848F0E940C
:103AC000051D8C010E94051DFC01848D8370F80189
:103AD000848F0E94051D8C010E94051DFC01848DB0
:103AE000080F111DF801808160E87DE143E00E942C
:103AF0009419DF91CF911F910F91FF90EF9008954E
:103B00000F931F930E94051D8C010E949129F801BB
:103B1000658F768F878F90A30E94051D8C010E9470
:103B2000051DFC01848D080F111DF80180810E9484
:103B30006B1A0E94051D8C010E94051DFC01848DDD
:103B4000080F111DF801808160E27DE142E00E94D2
:103B500094191F910F910895FC018091FF028C3000
:103B600090F480838F5F8093FF02815090E0FC018E
:103B7000EE0FFF1FE80FF91FE050FD4F88EB9BE0B1
:103B80009283818308958FEF80830895FC012081C3
:103B90002C30B8F58181992787FD909548E850E051
:103BA000481B590B440F551F440F551F64177507C9
:103BB00084F08281992787FD909548E552E0481B63
:103BC000590B440F551F440F551F641775070CF40C
:103BD000AB0142505040CA01AA2797FDA095BA2FC9
:103BE000880F991FAA1FBB1F4FB7F89430E0F90147
:103BF000EE0FFF1FE20FF31FE050FD4F9283818312
:103C00004FBF0895CF92DF92EF92FF921F93CF9311
:103C1000DF93EC01162F7A01690188818C3008F05E
:103C200064C0862F61E00E945A2A888190E0FC01DE
:103C3000EE0FFF1FE80FF91FE050FD4F1F7380814B
:103C4000807C812B808380E292E08E199F0964E062
:103C500070E00E946C2E698380E699E08C199D09C2
:103C600064E070E00E946C2E6A83A8818A2F6CE069
:103C70000E94602E682F70E0AB01440F551F460F65
:103C8000571F440F551F440F551F20E030E0C90156
:103C9000840F951FFC01EE0FFF1FE80FF91FE05086
:103CA000FD4F808186FD15C02F5F3F4F2C303105C1
:103CB00071F724C01092800082E0809381001092FE
:103CC000850010928400B19A80916F008260809389
:103CD0006F008A2F90E0FC01EE0FFF1FE80FF91F25
:103CE000E050FD4F8081806480838881DF91CF9197
:103CF0001F91FF90EF90DF90CF900895672BD1F246
:103D0000E8CF40E252E020E639E00E94021E08952A
:103D10001F920F920FB60F9211242F933F934F9340
:103D20005F936F937F938F939F93AF93BF93EF9323
:103D3000FF938091240387FF05C0109285001092A5
:103D400084002BC020912403332727FD30958091D8
:103D5000FF0290E02817390704F580912403992782
:103D600087FD9095FC01EE0FFF1FE80FF91FE05053
:103D7000FD4F808186FF11C080912403992787FD24
:103D80009095FC01EE0FFF1FE80FF91FE050FD4F6B
:103D900080818F7360E00E94992A809124038F5F55
:103DA0008093240320912403332727FD30958091AD
:103DB000FF0290E0281739070CF04EC080912403D1
:103DC0008C300CF049C020918400309185008091A6
:103DD0002403992787FD9095FC01EE0FFF1FE80F44
:103DE000F91FE050FD4F81819281820F931F9093C4
:103DF00089008093880080912403992787FD9095FE
:103E0000FC01EE0FFF1FE80FF91FE050FD4F80810E
:103E100086FF2BC080912403992787FD9095FC0194
:103E2000EE0FFF1FE80FF91FE050FD4F80818F73E9
:103E300061E00E94992A19C080E49CE905C0809144
:103E40008400909185000496909389008093880067
:103E50008FEF8093240309C08091840090918500A6
:103E6000049680549C4940F3EACFFF91EF91BF91B3
:103E7000AF919F918F917F916F915F914F913F9102
:103E80002F910F900FBE0F901F901895382F413231
:103E900010F040E042C0809125038823E1F791E0D3
:103EA00090932503209327038FEF80939203109222
:103EB0004D03415040934E034F5F909326038091F2
:103EC0002603330F832B80932603809128038130B0
:103ED00041F410922803809126038093BB0085EC67
:103EE00001C085EE8093BC00809125038130E1F311
:103EF00080914D03841710F440914D0320E030E091
:103F00000AC0FB01E20FF31FD901A35DBC4F8C91E6
:103F100080832F5F3F4F2417A0F3842F08950F93C2
:103F20001F93582F122F413210F081E04AC0809128
:103F300025038823E1F782E080932503009327037C
:103F40008FEF8093920310924D0340934E03ADE2A6
:103F5000B3E0FB0102C081918D938E2F861B8417E5
:103F6000D0F31092260380912603550F852B809362
:103F7000260380912803813041F410922803809118
:103F800026038093BB0085EC01C085EE8093BC00C6
:103F9000112321F0809125038230E1F38091920377
:103FA0008F3F11F480E00DC080919203803211F4B4
:103FB00082E007C080919203803311F084E001C059
:103FC00083E01F910F910895482F613210F081E036
:103FD000089580912503843011F082E00895609364
:103FE0007003AFE4B3E0842F9C01F90102C081911A
:103FF0008D938E2F841B8617D0F380E008951F9237
:104000000F920FB60F9211242F933F934F935F930C
:104010006F937F938F939F93AF93BF93EF93FF9390
:104020008091B90090E0887F90708036910509F406
:10403000F2C081369105CCF58832910509F47BC038
:1040400089329105B4F48031910509F46FC0813152
:1040500091053CF4009709F447C1089709F04FC156
:1040600065C08831910509F466C0809709F047C1A1
:1040700082C08034910509F4A4C08134910544F4D0
:104080008033910509F482C0C89709F038C189C00E
:104090008035910509F489C08835910509F496C0E9
:1040A0008834910509F02BC1AEC08839910509F417
:1040B00013C189399105ECF48837910509F4ABC037
:1040C000893791054CF48836910509F4A4C08037EE
:1040D000910509F014C19FC08838910509F4FCC00E
:1040E0008039910509F49DC08038910509F007C118
:1040F00098C0803B910509F4C6C0813B91054CF402
:10410000803A910509F49FC0883A910509F0F7C0FB
:10411000BAC0803C910509F4E3C0883C910509F4DC
:10412000DFC0883B910509F0EAC0C2C08091260338
:104130008093BB00CFC090914D0380914E039817A0
:1041400068F490914D03E92FF0E0E35DFC4F80812E
:104150008093BB009F5F90934D03BCC08091270369
:10416000882309F44BC085ED8093BC008091BC008E
:1041700084FDFCCFC2C080E28093920385ED8093E2
:10418000BC008091BC0084FDFCCFB7C080E380936D
:10419000920385ED8093BC008091BC0084FDFCCF30
:1041A000ACC088E3809392039BC080914D039091B3
:1041B000BB00E82FF0E0E35DFC4F90838F5F8093BE
:1041C0004D0390914D0380914E0382C080914D0329
:1041D0009091BB00E82FF0E0E35DFC4F90838F5F90
:1041E00080934D0380912703882341F085ED8093D0
:1041F000BC008091BC0084FDFCCF7FC081E0809337
:10420000280384EA6EC085ED8093BC008091BC00D9
:1042100084FDFCCF72C083E080932503109291034C
:1042200059C080919103803208F056C0809191036B
:104230009091BB00E82FF0E0EF58FC4F90838F5F28
:104240008093910347C080919103803230F4E091D4
:104250009103F0E0EF58FC4F108285ED8093BC0095
:104260008091BC0084FDFCCF1092250360919103E6
:10427000E0912B03F0912C0381E793E070E0099526
:10428000109291032DC084E08093250310926F0358
:1042900010927003E0912903F0912A03099580910F
:1042A0007003882329F481E08093700310924F03F8
:1042B00090916F03E92FF0E0E15BFC4F80818093E8
:1042C000BB009F5F90936F0390916F038091700389
:1042D000981710F485EC01C085E88093BC000FC0EE
:1042E00085EC8093BC0009C01092920385ED809309
:1042F000BC008091BC0084FDFCCF10922503FF918F
:10430000EF91BF91AF919F918F917F916F915F914D
:104310004F913F912F910F900FBE0F901F901895C6
:104320001092250381E0809327031092280382E1F5
:1043300061E00E94992A83E161E00E94992AE9EBF9
:10434000F0E080818E7F808380818D7F808388E410
:104350008093B80085E48093BC00089581E0809349
:10436000D8036093B5031092D6031092D703089533
:104370002091B40330E08091B303281B3109C901B7
:1043800008954091B3038091B403481718F02FEFBC
:104390003FEF0AC0E42FF0E0ED56FC4F8081282F5C
:1043A00030E04F5F4093B303C9010895E091B30338
:1043B0008091B403E81718F0EFEFFFEF06C0F0E0CC
:1043C000ED56FC4F8081E82FF0E0CF01089508956D
:1043D0001092DC031092DB0388EE93E0A0E0B0E0E3
:1043E0008093DD039093DE03A093DF03B093E0039B
:1043F0008AEF91E09093DA038093D9030895CF92E6
:10440000DF92EF92FF920F931F93CF93DF937C0184
:104410006B018A018091D8038823A1F0C0E0D0E02D
:104420000DC0D701ED91FC91D601AC0FBD1F0190DD
:10443000F081E02DC7016C9109952196C017D10735
:1044400080F304C0CB01642F0E94E41FC801DF91F8
:10445000CF911F910F91FF90EF90DF90CF90089533
:10446000DF93CF930F92CDB7DEB7FC0169838091C4
:10447000D8038823C9F08091D703803238F081E0D7
:1044800090E09383828320E030E015C08091D603D2
:10449000E82FF0E0EA54FC4F998190838F5F80937E
:1044A000D6038093D70305C0CE01019661E00E9438
:1044B000E41F21E030E0C9010F90CF91DF91089512
:1044C0000F93062F8091B50366EB73E04091D703FD
:1044D00021E00E948F1F1092D6031092D7031092F2
:1044E000D8030F91089561E00E946022089541323F
:1044F00008F040E2862F63E973E00E94461F1092A5
:10450000B3038093B403089521E00E9477220895B5
:104510001092B3031092B4031092D6031092D703F3
:104520000E94902108950F931F93CF93DF93BC01B6
:104530008230910510F462E070E0E0919604F09111
:10454000970440E050E0A0E0B0E024C08081918179
:1045500086179707D0F08617970771F482819381A9
:10456000109729F013969C938E9312972CC09093DA
:1045700097048093960427C04115510519F08417BC
:10458000950718F48D01AC01EF01DF018281938161
:104590009C01F9013097D1F641155105F9F0CA0196
:1045A000861B970B8430910580F48A819B810115CD
:1045B000110521F0F8019383828304C0909397043E
:1045C00080939604FE01329645C0FE01E80FF91F64
:1045D000619371930297998388833CC0809194047E
:1045E00090919504892B41F48091F2019091F3010F
:1045F00090939504809394044091F4015091F501B7
:104600004115510541F44DB75EB78091F00190918D
:10461000F101481B590B2091940430919504241703
:104620003507B0F4CA01821B930B8617970780F0F9
:10463000AB014E5F5F4F8417950750F0420F531F39
:104640005093950440939404F9016193719302C0CF
:10465000E0E0F0E0CF01DF91CF911F910F9108953D
:10466000CF93DF939C01009709F48FC0EC01229750
:104670001B821A82609196047091970461157105EE
:1046800081F488819981820F931F20919404309145
:1046900095042817390739F5D0939504C0939404ED
:1046A00074C0DB0140E050E0AC17BD0708F1BB83EC
:1046B000AA83FE0121913191E20FF31FAE17BF07CC
:1046C00079F48D919C911197280F391F2E5F3F4FE0
:1046D0003983288312968D919C9113979B838A83AB
:1046E0004115510571F4D0939704C09396044DC0C1
:1046F00012968D919C911397AD01009711F0DC01FA
:10470000D3CFDA011396DC93CE931297FA0121915D
:104710003191E20FF31FCE17DF0769F48881998189
:10472000280F391F2E5F3F4FFA01318320838A8182
:104730009B8193838283E0E0F0E0DB0112968D9110
:104740009C911397009719F0BC01FD01F6CFAB01C6
:104750004E5F5F4FDB018D919C91840F951F2091DF
:104760009404309195042817390779F4309729F487
:10477000109297041092960402C013821282425043
:1047800050405093950440939404DF91CF91089545
:104790006F927F928F929F92AF92BF92CF92DF9251
:1047A000EF92FF920F931F93CF93DF938C010097AB
:1047B00029F4CB010E9493228C01BBC08EEFE82E1E
:1047C0008FEFF82EE00EF11E4801860E971E8E1414
:1047D0009F0408F4ACC0D7014D915C911197461726
:1047E0005707B8F04530510508F4A3C0CA01049733
:1047F0008617970708F49DC042505040461B570B40
:10480000F401419351936D937C93CF010E94302327
:1048100090C05B01A41AB50A3801640E751EA09100
:104820009604B0919704E0E0F0E0CC24DD2447C08A
:10483000A615B705A9F5CD91DC911197CE01029689
:104840008A159B0568F1CE018A199B09029612967A
:104850002C91129713963C91059758F0F4012283FE
:104860003383CA19DB09D183C083D7016D937C934D
:1048700009C04E5F5F4F4C0F5D1FF70151834083AE
:10488000C901FC01C114D10431F0D6011396FC9387
:10489000EE9312974EC0F0939704E093960449C0AC
:1048A0008D919C911197E817F90708F4FC016D01AF
:1048B00012968C91129713969C919C01D901109796
:1048C00009F0B6CF809194049091950486159705D0
:1048D000E9F4E617F707D0F42091F4013091F501DF
:1048E0002115310541F42DB73EB78091F00190912B
:1048F000F101281B390B82169306C8F49092950497
:1049000080929404F7017183608313C0CB010E94ED
:104910009322EC01009759F0D7014D915C91B801B9
:104920000E94F804C8010E9430238E0102C000E0FA
:1049300010E0C801DF91CF911F910F91FF90EF9090
:10494000DF90CF90BF90AF909F908F907F906F90AF
:10495000089508951F920F920FB60F9211242F936E
:104960003F934F938F939F93EF93FF938091C0005A
:1049700082FD19C04091C60080910304282F30E0C9
:104980002F5F3F4F2F7330708091040490E0281701
:10499000390759F0E0910304F0E0EB51FC4F42A3DA
:1049A0002093030402C08091C600FF91EF919F9174
:1049B0008F914F913F912F910F900FBE0F901F90AD
:1049C0001895809103042091040490E0805C9F4F2F
:1049D000821B91098F739070892B11F00E94A9247A
:1049E00008951F920F920FB60F9211242F938F9359
:1049F0009F93EF93FF93909105048091060498177D
:104A000031F48091C1008F7D8093C10010C0E0918E
:104A10000604F0E0E95BFB4F20818091060490E002
:104A200001968F739070809306042093C600FF91C7
:104A3000EF919F918F912F910F900FBE0F901F902C
:104A40001895AF92BF92DF92EF92FF920F931F9350
:104A5000CF93DF93EC017A018B01DD24403081EEAE
:104A6000580780E0680780E0780711F0DD24D394D0
:104A700091E0A92EB12CE889F989DD2069F0C50102
:104A80000C8C02C0880F991F0A94E2F7808360E0C3
:104A900079E08DE390E005C0108260E874E88EE173
:104AA00090E0A80197010E947F2E215030404040A5
:104AB0005040569547953795279580E12030380727
:104AC00020F0DD2011F0DD24D6CFEC85FD8530838C
:104AD000EE85FF8520831D8EEA89FB89408121E0D8
:104AE00030E0C901088C02C0880F991F0A94E2F7D0
:104AF000482B4083EA89FB894081C901098C02C0A7
:104B0000880F991F0A94E2F7482B4083EA89FB89B2
:104B10004081C9010A8C02C0880F991F0A94E2F7EC
:104B2000482B4083EA89FB8980810B8C02C0220FCD
:104B3000331F0A94E2F7209528232083DF91CF9139
:104B40001F910F91FF90EF90DF90BF90AF9008956D
:104B5000FC01268D878D30E0205C3F4F281B3109FA
:104B60002F733070C9010895FC01968D878D9817B9
:104B700019F42FEF3FEF06C0878DE80FF11D82A1DA
:104B8000282F30E0C9010895DC015E969C915E9764
:104B90005F968C915F97981719F42FEF3FEF10C035
:104BA0005F968C915F97FD01E80FF11D92A15F96D2
:104BB0008C915F978F5F8F735F968C93292F30E076
:104BC000C9010895DC015D968C915D97882339F0C9
:104BD0005096ED91FC915197808186FFF9CF5D96BB
:104BE0001C920895DC0190968C919097282F30E0CC
:104BF0002F5F3F4F2F73307091968C91919790E07B
:104C000028173907C9F390968C919097FD01E80F0A
:104C1000F11DEE59FF4F608390962C93909752961A
:104C2000ED91FC915397208181E090E05B960C9090
:104C30005B9702C0880F991F0A94E2F7282B208304
:104C400081E05D968C935D975096ED91FC91519724
:104C500080818064808381E090E008951092E80371
:104C60001092E70388EE93E0A0E0B0E08093E903C0
:104C70009093EA03A093EB03B093EC038AE092E0F5
:104C80009093E6038093E503109206048091060456
:104C9000809305041092040480910404809303041B
:104CA00085EC90E09093F2038093F10384EC90E024
:104CB0009093F4038093F30380EC90E09093F603D9
:104CC0008093F50381EC90E09093F8038093F703D1
:104CD00082EC90E09093FA038093F90386EC90E0E5
:104CE0009093FC038093FB0384E08093FD0383E0B7
:104CF0008093FE0387E08093FF0385E080930004A8
:104D000081E0809301040895CF92DF92EF92FF92A9
:104D10000F931F93CF93DF937C016B018A01C0E057
:104D2000D0E00FC0D6016D916D01D701ED91FC91DE
:104D30000190F081E02DC7010995C80FD91F0150DE
:104D400010400115110571F7CE01DF91CF911F9130
:104D50000F91FF90EF90DF90CF900895EF92FF9228
:104D60000F931F938C01DC01ED91FC910190F08178
:104D7000E02D6DE009957C01D801ED91FC91019049
:104D8000F081E02DC8016AE009959C012E0D3F1DC0
:104D9000C9011F910F91FF90EF900895CF93DF937A
:104DA000EC016115710519F420E030E00FC0DB0162
:104DB0000D900020E9F71197A61BB70BE881F98148
:104DC0000280F381E02DAD0109959C01C901DF91BD
:104DD000CF9108954F925F927F928F929F92AF9260
:104DE000BF92CF92DF92EF92FF920F931F93DF93C8
:104DF000CF93CDB7DEB7A1970FB6F894DEBF0FBE45
:104E0000CDBF2C01742ECB01223008F42AE019A268
:104E100031E2C32ED12CCC0EDD1E822E9924AA2481
:104E2000BB24672D752FA50194010E947F2E790167
:104E30008A01C801B701A50194010E94412E472DA6
:104E4000461B0894C108D1084A3014F4405D01C0E3
:104E5000495CF6014083E114F1040105110521F0DC
:104E60007E2C5F2DC801DDCFC201B6010E94CE2687
:104E7000A1960FB6F894DEBF0FBECDBFCF91DF91E4
:104E80001F910F91FF90EF90DF90CF90BF90AF9068
:104E90009F908F907F905F904F900895DC01211537
:104EA000310541F4ED91FC910190F081E02D642FEA
:104EB000099508950E94EA260895EF92FF920F93B4
:104EC0001F939A01E62EFF2400E010E0B801A7012D
:104ED0000E944E271F910F91FF90EF900895CF925F
:104EE000DF92EF92FF920F931F93CF93DF93EC012A
:104EF0006A017B012115310541F4E881F9810190B6
:104F0000F081E02D642F09951FC02A303105D1F4BE
:104F100077FF17C0E881F9810190F081E02D6DE203
:104F200009958C0144275527BA014C195D096E0972
:104F30007F09CE012AE00E94EA269801280F391F36
:104F400004C02AE00E94EA269C01C901DF91CF91AA
:104F50001F910F91FF90EF90DF90CF9008950E94E6
:104F6000CE2608957F928F929F92AF92BF92CF925A
:104F7000DF92EF92FF920F931F93CF93DF934C0139
:104F80007A018B01722ECB01BA01A80197010E9410
:104F9000262E882321F0C4016CED71E021C0C0E011
:104FA000D0E057016801E894D7F8C601B5012FEFAA
:104FB0003FEF4FE75FE70E94262E882351F4C6019A
:104FC000B5012FEF3FEF4FE75FE70E94B52B1816B3
:104FD00014F0C1E0D0E0219739F0C40160EE71E037
:104FE0000E94CE26EC0193C0C801B7012FEF3FEF1E
:104FF0004FE75FE40E94672D181654F0C801B7010F
:105000002FEF3FEF4FE75FEC0E94B52B882324F48E
:10501000C40164EE71E0E4CFC801B70120E030E0E4
:1050200040E050E00E94B52B87FD03C0C0E0D0E017
:105030000EC0D401ED91FC910190F081E02DC401EE
:105040006DE20995EC0117FB109517F9109520E01A
:1050500030E040E05FE3DD240BC0CA01B90120E08D
:1050600030E040E251E40E94B92B9B01AC01D394A3
:10507000D71498F3C801B7010E94EF2A5B016C01B5
:105080000E94262C7B018C01C401B801A7012AE0F3
:1050900030E00E944E27C80FD91F772039F0C40195
:1050A00068EE71E00E94CE26C80FD91FC801B70173
:1050B0000E94522C9B01AC01C601B5010E94EE2A50
:1050C00024C020E030E040E251E40E94722D7B01D8
:1050D0008C010E94212C5B016C01CC24B7FCC09494
:1050E000DC2CC401B601A5012AE030E00E946F2744
:1050F000C80FD91FC601B5010E94542C9B01AC01F9
:10510000C801B7010E94EE2A7A947720D1F6CE0129
:10511000DF91CF911F910F91FF90EF90DF90CF9093
:10512000BF90AF909F908F907F9008950E94B2277C
:105130000895EF92FF920F931F937C010E94CE2659
:105140008C01C7010E94AE26080F191FC8011F91CC
:105150000F91FF90EF900895823000F5E82FF0E076
:10516000EE0FFF1FE957FB4F71836083882319F00F
:105170008130A1F408C0809169008C7F842B8093DA
:105180006900E89A089580916900440F551F440F03
:10519000551F837F842B80936900E99A08951F929D
:1051A0000F920FB60F9211242F933F934F935F935B
:1051B0006F937F938F939F93AF93BF93EF93FF93DF
:1051C0008091870490918804892B29F0E0918704CD
:1051D000F09188040995FF91EF91BF91AF919F9154
:1051E0008F917F916F915F914F913F912F910F9090
:1051F0000FBE0F901F9018951F920F920FB60F922F
:1052000011242F933F934F935F936F937F938F93CB
:105210009F93AF93BF93EF93FF93809189049091F5
:105220008A04892B29F0E0918904F0918A04099578
:10523000FF91EF91BF91AF919F918F917F916F916E
:105240005F914F913F912F910F900FBE0F901F9044
:105250001895CF93DF930E94B7290E948105C1EE74
:10526000D4E20E943E062097E1F30E94E124F9CFA8
:105270000E94932208951F920F920FB60F9211244D
:105280002F933F938F939F93AF93BF9380918F04FE
:1052900090919004A0919104B09192043091930464
:1052A0000196A11DB11D232F2D5F2D3720F02D5705
:1052B0000196A11DB11D2093930480938F049093B8
:1052C0009004A0939104B093920480918B049091E8
:1052D0008C04A0918D04B0918E040196A11DB11D86
:1052E00080938B0490938C04A0938D04B0938E04D0
:1052F000BF91AF919F918F913F912F910F900FBED2
:105300000F901F9018958FB7F89420918F043091CB
:10531000900440919104509192048FBFB901CA0149
:1053200008959FB7F89420918B0430918C0440919C
:105330008D0450918E0486B5A89B06C08F3F21F046
:105340002F5F3F4F4F4F5F4F9FBF542F432F322F41
:105350002227280F311D411D511D82E0220F331FCE
:10536000441F551F8A95D1F7B901CA010895789451
:1053700084B5826084BD84B5816084BD85B582605A
:1053800085BD85B5816085BDEEE6F0E080818160F8
:105390008083E1E8F0E010828081826080838081F8
:1053A00081608083E0E8F0E0808181608083E1EBD0
:1053B000F0E0808184608083E0EBF0E080818160B8
:1053C0008083EAE7F0E0808184608083808182606E
:1053D0008083808181608083808180688083109257
:1053E000C1000895EF92FF920F931F93CF93DF9325
:1053F0007B018C013FB7F89480918B0490918C04D1
:10540000A0918D04B0918E0426B5A89B05C02F3FB6
:1054100019F00196A11DB11D3FBFBA2FA92F982FDA
:105420008827820F911DA11DB11D52E0880F991F81
:10543000AA1FBB1F5A95D1F7EC0130C00E94ED2A7C
:105440003FB7F89480918B0490918C04A0918D04C7
:10545000B0918E0426B5A89B05C02F3F19F0019688
:10546000A11DB11D3FBFBA2FA92F982F8827820FEA
:10547000911DA11DB11D32E0880F991FAA1FBB1FEE
:105480003A95D1F78C1B9D0B885E9340B8F2089437
:10549000E108F10801091109C851DC4FE114F104D8
:1054A0000105110559F6DF91CF911F910F91FF90E2
:1054B000EF900895CF93DF93482F50E0CA018D5AA3
:1054C000964FFC013491415C564FFA018491882338
:1054D00069F190E0880F991FFC01EF5DF64FA591EF
:1054E000B491FC01E55DF64FC591D491662351F46A
:1054F0002FB7F8948C91932F909589238C93888162
:1055000089230BC0623061F42FB7F8948C91932FEC
:10551000909589238C938881832B88832FBF06C025
:105520009FB7F8948C91832B8C939FBFDF91CF9181
:105530000895482F50E0CA018959964FFC012491E3
:10554000CA018D5A964FFC019491415C564FFA0165
:105550003491332309F440C0222351F1233071F0F8
:10556000243028F42130A1F0223011F514C0263067
:10557000B1F02730C1F02430D9F404C0809180000C
:105580008F7703C0809180008F7D8093800010C052
:1055900084B58F7702C084B58F7D84BD09C08091AA
:1055A000B0008F7703C08091B0008F7D8093B000F2
:1055B000E32FF0E0EE0FFF1FE55DF64FA591B491EC
:1055C0002FB7F894662321F48C919095892302C01B
:1055D0008C91892B8C932FBF089508955058BB2729
:1055E000AA270ED03AC22BD230F030D220F031F4BC
:1055F0009F3F11F41EF4FBC10EF4E095E7FBF1C1EF
:10560000E92F3CD280F3BA17620773078407950726
:1056100018F071F49EF554C20EF4E0950B2EBA2FDB
:10562000A02D0B01B90190010C01CA01A0011124A8
:10563000FF27591B99F0593F50F4503E68F11A1654
:10564000F040A22F232F342F4427585FF3CF4695E5
:1056500037952795A795F0405395C9F77EF41F1607
:10566000BA0B620B730B840BBAF09150A1F0FF0FD1
:10567000BB1F661F771F881FC2F70EC0BA0F621FBD
:10568000731F841F48F4879577956795B795F795AD
:105690009E3F08F0B3CF9395880F08F09927EE0F3F
:1056A000979587950895CBD158F080E891E009F45B
:1056B0009EEFCCD128F040E851E059F45EEF09C0EC
:1056C00096C1FEC1E92FE078D9D168F3092E052AE9
:1056D000C1F3261737074807590738F00E2E07F889
:1056E000E02569F0E025E0640AC0EF6307F8009464
:1056F00007FADB01B9019D01DC01CA01AD01EF939D
:1057000047D0ABD10AD05F91552331F02BED3FE06C
:1057100049E450FD49EC63CF0895DF93DD27B92FAD
:10572000BF7740E85FE31616170648075B0710F4DB
:10573000D92FD1D19F938F937F936F9384D2E8E633
:10574000F0E058D18AD12F913F914F915F91D6D1FE
:10575000DD2349F09058A2EA2AED3FE049EC5FE3EF
:10576000D0785D274DDFDF9178C117D108F481E053
:1057700008950CD072C16AD140F061D130F021F4AB
:105780005F3F19F02EC151119CC131C177D198F3FF
:105790009923C9F35523B1F3951B550BBB27AA27B2
:1057A00062177307840738F09F5F5F4F220F331F24
:1057B000441FAA1FA9F333D00E2E3AF0E0E830D0F0
:1057C00091505040E695001CCAF729D0FE2F27D0F3
:1057D000660F771F881FBB1F261737074807AB07C1
:1057E000B0E809F0BB0B802DBF01FF2793585F4F36
:1057F0002AF09E3F510568F0F4C063C15F3FECF3AF
:10580000983EDCF3869577956795B795F7959F5FFA
:10581000C9F7880F911D9695879597F90895E1E04E
:10582000660F771F881FBB1F621773078407BA07AD
:1058300020F0621B730B840BBA0BEE1F88F7E09508
:10584000089504D06894B1113CC108951FD188F027
:105850009F5790F0B92F9927B751A0F0D1F0660F5C
:10586000771F881F991F1AF0BA95C9F712C0B13077
:1058700081F026D1B1E0089523C1672F782F8827C2
:10588000B85F39F0B93FCCF3869577956795B395B6
:10589000D9F73EF490958095709561957F4F8F4F25
:1058A0009F4F0895E89409C097FB3EF4909580952A
:1058B000709561957F4F8F4F9F4F9923A9F0F92FD6
:1058C00096E9BB279395F695879577956795B79554
:1058D000F111F8CFFAF4BB0F11F460FF1BC06F5F3A
:1058E0007F4F8F4F9F4F16C0882311F096E911C04C
:1058F000772321F09EE8872F762F05C0662371F06D
:1059000096E8862F70E060E02AF09A95660F771F80
:10591000881FDAF7880F9695879597F90895990F5C
:10592000BB0B550FAA0BE0E8FEEF16161706E807AB
:10593000F90770F012161306E407F50760F0BA17BE
:105940003CF049F46217730784079507A7951BF489
:10595000B901CA01BA2FB69597950895990FBB0B57
:10596000550FAA0BE0E8FEEF16161706E807F90731
:1059700070F012161306E407F50760F0BA1754F03A
:1059800031F42617370748075907A7951BF4B901C3
:10599000CA01BA2FB69597950895990F0008550F2B
:1059A000AA0BE0E8FEEF16161706E807F907C0F0A5
:1059B00012161306E407F50798F0621B730B840BAD
:1059C000950B39F40A2661F0232B242B252B21F487
:1059D00008950A2609F4A140A6958FEF811D811D27
:1059E000089597F99F6780E870E060E008959FEF61
:1059F00080EC0895DF93CF931F930F93FF92EF9264
:105A0000DF927B018C01689405C0DA2EEF0176D01D
:105A1000FE01E894A5912591359145915591AEF3FC
:105A2000EF01EEDDFE019701A801DA9479F7DF902E
:105A3000EF90FF900F911F91CF91DF910895002477
:105A40000A941616170618060906089500240A94E3
:105A500012161306140605060895092E0394000C69
:105A600011F4882352F0BB0F40F4BF2B11F460FFF8
:105A700004C06F5F7F4F8F4F9F4F089557FD905821
:105A8000440F551F59F05F3F71F04795880F97FB02
:105A9000991F61F09F3F79F08795089512161306BC
:105AA0001406551FF2CF4695F1DF08C016161706EB
:105AB0001806991FF1CF8695710561050894089520
:105AC000E894BB2766277727CB0197F9089565DF10
:105AD00008F48FEF08959B01AC0160E070E080E86E
