:100000000C94C0040C9463200C9490200C9446141F
:100010000C94AA140C940E150C94E8040C94E804A7
:100020000C94E8040C94E8040C94E8040C94E804A0
:100030000C94E8040C94CB160C94E8040C94E8049B
:100040000C94CF200C94E8040C94651D0C94AC1D0A
:100050000C94E8040C94E8040C94E8040C94E80470
:100060000C94BA180C94E804084AD73B3BCE016EB6
:1000700084BCBFFDC12F3D6C74319ABD56833DDAFF
:100080003D00C77F11BED9E4BB4C3E916BAAAABE0E
:10009000000000803FFB00003E000B003600010026
:1000A000020003000000650054FFEF0000FA80002A
:1000B0000B1282000100020000000000000000009E
:1000C000000000000000280000FFFF4581FFFFFA4C
:1000D0007200000000000003E80000000100017F42
:1000E000FFFFFE8001001B00000000000000000078
:1000F0000000000000003E03304000000002CAE3A0
:10010000093E8000002000000000000000400000C8
:10011000006000000041FF000000000B2A000016F4
:100120005500002182FD872650FD800000001F0041
:100130000000058000000000000001000000020037
:100140000000030000400000000000046F00026592
:100150003200005EC040000000000000000000000F
:100160000000000000FB8C6F5DFD5D08D9007C7312
:100170003B006C12CC3200139D3200D0D632000806
:1001800000400001F4FFE68079020000000000D08A
:10019000D600002710FB0000004000000000000017
:1001A000000000000000000001000000000000014D
:1001B00000010000000000FA36FFBC308E0005FB95
:1001C000F0FFD95BC8FFD09ABE000010A9FFF41E53
:1001D000B200CEBBF70000000100000004000200E6
:1001E000020200000CFFC280000001800000CF80EE
:1001F00000400000000000000100000000000006B8
:1002000000000000140000000000000000000000DA
:1002100000000000000000000000000000000000DE
:1002200000000000000000000000000000000000CE
:10023000000000000000000000033F68B679352888
:10024000BCC67ED16C80000000400000000000B2FF
:100250006A00000000000000000000000000003FF5
:10026000F00000003000000000000000000000006E
:10027000000000000000000000000000000000007E
:1002800000000000000000254D002F706D000005EB
:10029000AE000C02D00000000000650054FFEF002B
:1002A0000000000000000001000044000000000CFD
:1002B0000000000100000000000065000000540084
:1002C00000FFEF0000000000000000000000000040
:1002D00000000000004000000000000000000000DE
:1002E00000000000004000000000000000000000CE
:1002F00000000000000000000100000002000000FB
:1003000000000000000000000000000000000000ED
:1003100000000000000000000000000000000000DD
:100320000000000000001B000000000000000000B2
:1003300000000000000000000000000000000000BD
:1003400000000000000000000000000000000000AD
:100350000040000000001B00000000000000000042
:10036000000000000000000000000000000000008D
:10037000000000000000000000000000000000007D
:10038000000000000000000000000000000000006D
:100390000000000000D8DCBAA2F1DEB2B8B4A88137
:1003A00091F74A907F916AF3F9DBA8F9B0BAA0807F
:1003B000F2CE81F3C2F1C1F2C3F3CCA2B280F1C696
:1003C000D880BAA7DFDFDFF2A7C3CBC5B6F087A21C
:1003D000942448703C95406834589B78A2F18392ED
:1003E0002D557DD8B1B4B8A1D09180F270F370F2E0
:1003F0007C80A8F101B09887D943D886C988BAA172
:10040000F20EB89780F1A9DFDFDFAADFDFDFF2AA03
:10041000C5CDC7A90CC92C97979797F1A9892646EE
:1004200066B0B4BA80ACDEF2CAF1B28C02A9B6985A
:1004300000890E161EB8A9B4992C547CB08AA896CF
:10044000365676F1B9AFB4B083C0B8A89711B18F62
:1004500098B9AFF0240844106418F1A329557DAF72
:1004600083B593AFF0002850F1A3869F61A6DADE32
:10047000DFD9FAA38696DB31A6D9F8DFBAA68FC2F8
:10048000C5C7B28CC1B8A2DFDFDFA3DFDFDFD8D8FA
:10049000F1B8A8B286B4980D355DB8AA98B0872D8A
:1004A000353DB2B6BAAF8C96198F9FA70E161EB403
:1004B0009AB8AA872C547CB9A3DEDFDFA3B180F2FF
:1004C000C4CDC9F1B8A9B499830D355D89B9A32DFF
:1004D000557DB593A30E161EA92C547CB8B4B0F16B
:1004E0009783A81184A50998A383F0DA24084410FF
:1004F0006418D8F1A529557DA58595021A2E3A567E
:100500005A4048F9F3A3D9F8F098832408441064BA
:10051000189782A8F111F098A2240844106418DA00
:10052000F3DED883A59401D9A302F1A2C3C5C7D82D
:10053000F18492A24DDA2AD84869D92AD86855DAC6
:1005400032D85071D932D8705DDA3AD85879D93A60
:10055000D87893A34DDA2AD84869D92AD86855DAC9
:1005600032D85071D932D8705DDA3AD85879D93A40
:10057000D878A88A9AF02850789EF38818F19F1DA1
:1005800098A8D908D8C89F129EF315A8DA1210D8D7
:10059000F1AFC8978734B5B994A421F3D922D8F222
:1005A0002DF3D92AD8F235F3D932D881A46060610D
:1005B000D961D86C6869D969D8747071D971D8B1AA
:1005C000A384193D5DA3831A3E5E93103081101100
:1005D000B8B0AF8F94F2DA3ED8B49AA88729DAF887
:1005E000D8879A35DAF8D8879A3DDAF8D8B1B9A41D
:1005F0009885022E56A581000C14A397B08AF12D80
:10060000D928D84DD948D86DD968D8B1840DDA0E1B
:10061000D8A32983DA2C0ED8A3844983DA2C4C0E74
:10062000D8B8B0A88A9AF520AADADFD8A840AAD00C
:10063000DADED8A860AADAD0DFD8F19786A8319B95
:10064000069907AB9728889BF00C201440B8B0B4EB
:10065000A88C9CF0042851791D301438B282ABD09C
:10066000982C505078789BF11AB0F08A9CA82951A8
:10067000798B2951798A2470598B2058718A446961
:10068000388B3940688A6448318B304960A58820AE
:100690000971584468113964493019F1AC002C547F
:1006A0007CF08CA804285078F1889726A85998AC3B
:1006B0008C02264666F0899CA829517924705944F9
:1006C0006938644831A98809205970AB11384069EC
:1006D000A8193148608CA83C415C207C00F18798C7
:1006E0001986A86E767EA999882D557D9EB9A38A14
:1006F000228A6E8A568A5E9FB183062646660E2E31
:100700004E6E9DB8AD002C547CF2B18CB499B9A357
:100710002D557D8191AC38AD3AB58391AC2DD9285A
:10072000D84DD948D86DD968D88C9DAE29D904AE9A
:10073000D851D904AED879D904D881F39DAD008DB4
:10074000AE1981ADD901D8F2AEDA26D88E912983BF
:10075000A7D9ADADADADF32AD8D8F1B0AC89913EF3
:100760005E76F3AC2E2EF1B18C5A9CAC2C28282846
:100770009CAC3018A8988128343C9724A728343C96
:100780009C24F2B089AC912C4C6C8A9B2DD9D8D882
:1007900051D9D8D879D9D8D8F19E88A331DAD8D808
:1007A000912DD928D84DD948D86DD968D8B183931F
:1007B000353D8025DAD8D88569DAD8D8B49381A3B5
:1007C00028343CF3AB8BF8A391B609B4D9ABDEFA6D
:1007D000B0879CB9A3DDF1A3A3A3A395F1A3A3A321
:1007E0009DF1A3A3A3A3F2A3B49080F2A3A3A3A318
:1007F000A3A3A3A3A3A3B2A3A3A3A3A3A3B087B5B7
:1008000099F1A3A3A398F1A3A3A3A397A3A3A3A33D
:10081000F39BA3A3DCB9A7F1262626D8D8FF037B38
:10082000034CCD6C03AB0336567600680402CB470D
:10083000A202180400058BC1010C04000000000393
:100840007F060CC92C979797038903264666006C90
:1008500002200002400400000000024404000000E6
:100860000002480400000000024C040000000002E6
:10087000500400000000025404000000000258046C
:1008800000000000025C040000000002BC04000044
:10089000000001EC0400004000037F060CC92C9707
:1008A00097970402030D355D040904872D353D003B
:1008B000A3010000000001078601FE074105F120A9
:1008C000283038077E01300746019A074704F1288F
:1008D0003038076C04F1283038021602000101B2EA
:1008E00002FFFF0190040923A135016A02060001FD
:1008F00060080000000000000000006004400000EC
:1009000000016202000000600400400000000102DB
:1009100003040506070001020304050001020304A5
:100920000500000000240027002A00000000002528
:100930000028002B000000000023002600290004EE
:100940000404040404040402020202020203030376
:100950000303030102040810204080010204081070
:10096000200102040810200000000700020100001E
:10097000030406000000000000000000A31AE91EA6
:1009800011241FBECFEFD8E0DEBFCDBF11E0A0E045
:10099000B1E0EAE0FBE402C005900D92A63FB1078A
:1009A000D9F713E0A6EFB1E001C01D92AA3AB10752
:1009B000E1F719E0C0E8D9E004C02297FE010E94E7
:1009C0007F25CC37D107C9F70E94BD200C94832521
:1009D0000C940000FB01DC0104C08D910190801992
:1009E00021F441505040C8F7881B990B0895FB0132
:1009F000DC0102C001900D9241505040D8F708959B
:100A00000E94CF120E94B50B882329F408950E94FA
:100A100018160E9482150E94CF120E94BA0B8823DA
:100A2000B1F30E94CF120E94D20B0895CF92DF92B1
:100A3000EF92FF920F931F9387EF92E040E052EC0A
:100A400061E070E00E94DC1D0E94CF1264E97FEF3C
:100A500048E854E020EF38E00CE110E0F4EEEF2E2F
:100A6000FFEFFF2EE8E0CE2ED12C0E94C0110E9495
:100A700018160E94DE151F910F91FF90EF90DF90E6
:100A8000CF900895CF92DF92FF920F931F93CF9351
:100A9000DF93582F162F042F69018BEE92E0652FFC
:100AA0000E94691A8BEE92E0612F0E94EB1AC02F10
:100AB000D0E0CC0FDD1FFF2412C0000F111F0C0D62
:100AC0001D1DF80161818BEE92E00E94EB1A8BEE06
:100AD00092E0F80160810E94EB1AF2E0FF0E0F2D08
:100AE00010E00C171D074CF38BEE92E00E942E1BBA
:100AF00090E0882309F491E0892FDF91CF911F9135
:100B00000F91FF90DF90CF900895DF93CF9300D0A7
:100B1000CDB7DEB75A83498341E09E012F5F3F4F37
:100B20000E9442050F900F90CF91DF910895EF92B0
:100B3000FF920F931F93CF93DF93582F162FE42E1E
:100B4000022FF32E8BEE92E0652F0E94691A8BEE36
:100B500092E0612F0E94EB1A202F3F2DC901EC017A
:100B600010E006C08BEE92E069910E94EB1A1F5FC5
:100B70001E15C0F38BEE92E00E942E1B90E088239E
:100B800009F491E0892FDF91CF911F910F91FF9090
:100B9000EF900895DF93CF930F92CDB7DEB74983DF
:100BA00041E09E012F5F3F4F0E9497050F90CF912C
:100BB000DF9108952F923F924F925F926F927F92B2
:100BC0008F929F92AF92BF92CF92DF92EF92FF925D
:100BD0000F931F93DF93CF9300D000D00F92CDB728
:100BE000DEB7882E6983942E3B832A830E941721C7
:100BF0005B016C01FF24EE24292C33242801662498
:100C000077244BC08BEE92E0682D0E94691A8BEE20
:100C100092E069810E94EB1A8BEE92E00E942E1BFB
:100C20008BEE92E0682D0E94691AA1014E195109BC
:100C30004132510514F040E250E08BEE92E0682D15
:100C40000E943F1B2F2D332727FD30958A819B81E2
:100C5000280F391F3D832C838BEE92E00E94731A7C
:100C6000892B09F452C00115110561F00E9417216A
:100C70006A197B098C099D09641575058605970518
:100C800008F043C08BEE92E00E947C1AEC81FD815B
:100C90008193FD83EC83F394DFCFE91408F4B2CFA2
:100CA00001151105C9F00E9417216A197B098C09E9
:100CB0009D09980140E050E062177307840795078B
:100CC00058F02F2D332727FD3095892D90E02817D8
:100CD000390714F4FF24FA948F2D0F900F900F9082
:100CE0000F900F90CF91DF911F910F91FF90EF9098
:100CF000DF90CF90BF90AF909F908F907F906F903C
:100D00005F904F903F902F900895892DF0E2F91554
:100D100008F480E2E80EC1CF0F931F93FA01890116
:100D200041E09F010E94DA051F910F910895DF9223
:100D3000EF92FF920F931F93DF93CF930F92CDB754
:100D4000DEB7E82ED62EF42E122F2091CD01309151
:100D5000CE01AE014F5F5F4F0E948C06882341F1A8
:100D6000212F30E04F2D50E04F5F5F4F421B530B60
:100D700081E090E002C0880F991F1A95E2F7019771
:100D8000042E02C0880F991F0A94E2F7202F30E04A
:100D900002C0220F331F4A95E2F7482F4095598130
:100DA00045238223482B49838E2D6D2D0E94CA0531
:100DB0000F90CF91DF911F910F91FF90EF90DF90F7
:100DC0000895EF92FF920F931F93DF93CF930F92AB
:100DD000CDB7DEB7F82EE62E042F122F2091CD01CD
:100DE0003091CE01AE014F5F5F4F0E948C0629818A
:100DF000112351F081E090E002C0880F991F0A95FD
:100E0000E2F7422F482B0AC081E090E002C0880F31
:100E1000991F0A95E2F7482F4095422349838F2D69
:100E20006E2D0E94CA050F90CF91DF911F910F91F7
:100E3000FF90EF900895CF92DF92EF92FF920F9381
:100E40001F93DF93CF930F92CDB7DEB7C42ED22E70
:100E50009701AE014F5F5F4F0E948C06682F882379
:100E600009F18D2D90E04C2D50E04F5F5F4F481BF6
:100E7000590B21E030E002C0220F331FDA94E2F771
:100E800021503040042E02C0220F331F0A94E2F793
:100E90008981822390E002C0959587954A95E2F773
:100EA000F8018083862F0F90CF91DF911F910F91D2
:100EB000FF90EF90DF90CF900895DF92EF92FF9236
:100EC0000F931F93DF93CF930F92CDB7DEB7D42E3E
:100ED00079019801AE014F5F5F4F0E948C0621E0BF
:100EE00030E002C0220F331FDA94E2F79981922397
:100EF000F70190830F90CF91DF911F910F91FF9099
:100F0000EF90DF900895FC0188E680830895FC014E
:100F1000462F808161E70E94CA050895FC01462F93
:100F2000808160E70E94CA050895FC01462F8081F8
:100F30006EE60E94CA050895FC01962F9F7121114B
:100F400090624111906480816DE6492F0E94CA052C
:100F50000895FC01462F808168E30E94CA05089528
:100F6000FC01862F643040F463E0869FB0011124B9
:100F70006B5D80810E94CA050895FC01462F808127
:100F800062E20E94CA050895FC01462F808161E259
:100F90000E94CA050895FC01462F808160E20E94EC
:100FA000CA050895FC01462F80816FE10E94CA05A1
:100FB0000895FC01462F808169E10E94CA050895C9
:100FC0000F931F938C01AC014F5F5F4F2091CD01B8
:100FD0003091CE01FC0180816FE60E948C06F80101
:100FE00081811F910F9108950F931F938C01AC0184
:100FF0004F5F5F4F2091CD013091CE01FC01808188
:101000006AE30E948C06F80181811F910F91089577
:101010004F925F926F927F929F92AF92BF92CF92C8
:10102000DF92EF92FF920F931F93CF93DF936C01A8
:101030003B015A01922EE02E622F40E020E00E94F8
:101040009C07C601602F0E949507C0E0D0E0412CAC
:1010500091E0592E34C0CE014096A816B90618F07A
:1010600080E1F82E02C0FA2CFC1A2F2D30E0C201CC
:101070008E1991098217930714F4FE2CF1949301B1
:101080002C0F3D1F0091CD011091CE01F601808102
:101090006FE64F2D0E94DA05CF0DD11DEF0CCA155A
:1010A000DB0568F4EE2009F49394C601692D40E055
:1010B00020E00E949C07C6016E2D0E949507CA156C
:1010C000DB0548F2DF91CF911F910F91FF90EF90D8
:1010D000DF90CF90BF90AF909F907F906F905F9088
:1010E0004F9008950F931F93FC019B010091CD0138
:1010F0001091CE01808164E70E94DA051F910F9163
:101100000895EF92FF920F931F937C019C012F5F34
:101110003F4F0091CD011091CE01FC01808162E72B
:1011200042E00E94DA05F701918180E0228130E0FF
:10113000282B392BC9011F910F91FF90EF90089533
:101140003F924F925F926F927F928F929F92AF9257
:10115000BF92CF92DF92EF92FF920F931F93DF9394
:10116000CF9300D000D0CDB7DEB75C017A8369831E
:101170002A01622E702E3E2CEC2C622F40E020E0E3
:101180000E949C07C501602F0E949507332029F01B
:1011900080E190E00E944E1B4C01EE2029F080E19E
:1011A00090E00E944E1B6C011C821B827BC08B81D5
:1011B0009C8140964816590618F0E0E1FE2E03C0C7
:1011C000F42C8B81F81A2F2D30E080E091E0871904
:1011D00091098217930714F4F72CF194E981FA81AD
:1011E000AB81BC81EA0FFB1FEE2089F0AF0120E04C
:1011F00030E00AC0FA018491F601E20FF31F808308
:101200002F5F3F4F4F5F5F4F2F15A0F301C06F015E
:10121000D5018C916FE64F2D96010E9497053320E2
:1012200051F18114910439F1C501662D40E020E0AF
:101230000E949C07C501672D0E9495070091CD0172
:101240001091CE01F50180816FE64F2D94010E942F
:10125000DA05C601B4014F2D50E00E94EA04009760
:1012600051F0C4010E94EB1BEE2019F0C6010E9450
:10127000EB1B80E028C08B819C818F0D911D9C838E
:101280008B837F0C8415950568F4772009F46394AB
:10129000C501662D40E020E00E949C07C501672D36
:1012A0000E949507AB81BC81A415B50508F47FCFDA
:1012B000332019F0C4010E94EB1BEE2019F0C60187
:1012C0000E94EB1B81E00F900F900F900F90CF9139
:1012D000DF911F910F91FF90EF90DF90CF90BF9023
:1012E000AF909F908F907F906F905F904F903F90C6
:1012F00008952F923F924F925F926F927F928F92BA
:101300009F92AF92BF92CF92EF92FF920F931F9353
:10131000CF93DF932C014B011A01F22E222309F403
:101320007CC088E090E00E944E1B5C0176C0AE015C
:101330004F5F5F4FF401EC0FFD1FFF2091F0849190
:10134000BA016F5F7F4F480D591DFA019491EB016F
:101350002196680D791DFB016491E82E092F162F47
:101360000DC0E080F401E40FF51F0081CA01019671
:10137000F401E80FF91F1081EC012196112389F186
:10138000FF20F1F0133030F0C501612F70E00E94B2
:10139000831C5C01A4014C0F5D1F20E030E0612F35
:1013A00070E00AC0FA018491F501E20FF31F808317
:1013B0002F5F3F4F4F5F5F4F2617370798F303C0EC
:1013C0005401AC0EBD1E612E7724C201B501A301EC
:1013D0002E2DEE24E394CC240E94A008882301F54E
:1013E00015C0F401EC0FFD1FCE010196FF2019F08E
:1013F000EC01249102C02081EC01213039F4F2018A
:10140000808168E342E30E94CA050CC0FF2019F006
:10141000C5010E94EB1B80E00FC0C0E0D0E002C01D
:10142000C60DD71DC215D30508F481CFFF2019F0D2
:10143000C5010E94EB1B81E0DF91CF911F910F91BD
:10144000FF90EF90CF90BF90AF909F908F907F9044
:101450006F905F904F903F902F90089521E00E94F1
:1014600079090895CF92EF920F93CC24C3940E94F0
:10147000A0080F91EF90CF900895FC0180816AE65B
:1014800043E021E00E94E1060895FC01262F8081BF
:101490006AE647E00E94E1060895FC01262F80815C
:1014A00060E040E00E94E1060895FC01262F808163
:1014B0006BE646E00E94E1060895FC0180816BE640
:1014C00047E021E00E94E1060895FC0180816AE680
:1014D00041E021E00E94E1060895FC0180816AE676
:1014E00042E021E00E94E1060895FC01262F808160
:1014F0006AE645E00E94E1060895FC01262F8081FE
:101500006AE646E00E94E1060895EF92FF920F938B
:101510001F937C019C012F5F3F4F0091CD011091E3
:10152000CE01FC01808160E040E00E945D07F70190
:1015300081811F910F91FF90EF900895FC01AB0105
:10154000808167E10E9485050895FC01AB018081DF
:1015500065E10E9485050895FC01AB01808163E18E
:101560000E9485050895FC01AB0180816AE00E941C
:1015700085050895FC01AB01808168E00E94850526
:101580000895FC01AB01808166E00E948505089505
:101590000F93FC01062F808162E046E026E00E9466
:1015A00097060F9108950F93FC01062F808161E04B
:1015B00046E026E00E9497060F9108950F93FC01E4
:1015C000062F808160E046E026E00E9497060F919A
:1015D00008950F93FC01062F80816BE642E023E023
:1015E0000E9497060F9108950F93FC01062F8081AA
:1015F0006CE144E022E00E9497060F9108950F935A
:10160000FC01062F80816BE144E022E00E949706F6
:101610000F9108950F931F938C0161E00E94E90AD6
:10162000C80160E00E94FF0AC80160E00E94F40A5D
:10163000C80160E00E94550A1F910F9108950F9311
:10164000FC01062F80816AE142E023E00E949706B8
:101650000F9108950F93FC01062F80816AE145E008
:1016600023E00E9497060F910895CF92DF92EF92A8
:10167000FF920F931F936C018C010F5F1F4FE0903F
:10168000CD01F090CE01FC01808162E046E026E0D1
:101690000E941B07F60181811F910F91FF90EF902F
:1016A000DF90CF900895CF92DF92EF92FF920F9349
:1016B0001F936C018C010F5F1F4FE090CD01F090E4
:1016C000CE01FC01808161E046E026E00E941B071C
:1016D000F60181811F910F91FF90EF90DF90CF90E5
:1016E0000895CF92DF92EF92FF920F931F936C01B8
:1016F0008C010F5F1F4FE090CD01F090CE01FC01F7
:10170000808160E046E026E00E941B07F6018181AF
:101710001F910F91FF90EF90DF90CF900895CF929F
:10172000DF92EF92FF920F931F936C018C010F5F7A
:101730001F4FE090CD01F090CE01FC01808165E764
:1017400046E026E00E941B07F60181811F910F9160
:10175000FF90EF90DF90CF9008950E948F0B90E064
:10176000843309F491E0892F0895FC01E357FF4F7A
:1017700080810895DC01A257BF4F8C91AE58B040D4
:10178000882369F440E0FD01EF59FF4FAD59BF4F89
:101790002D913C91808191812817390708F041E013
:1017A000842F08952F923F924F925F926F927F9273
:1017B0008F929F92AF92BF92CF92DF92EF92FF9261
:1017C0000F931F93DF93CF93CDB7DEB764970FB618
:1017D000F894DEBF0FBECDBF82579F4FDC011C9235
:1017E000AE58B040BC8BAB8BBB88AC888B2D9A2D90
:1017F0000E94F407EB89FC89808B8B899C890E946D
:1018000081089C010B891C890D591F4FD8018D93AC
:101810009C93EB89FC89808984FD03C0205034406F
:1018200059F48B2D9A2D0E946D0A87EF92E060E0AB
:1018300071E00E942D203BC381FD09C038C38B2D70
:101840009A2D0E948108D7018D939C9308C0E1E6F0
:10185000CE2ED12CEB89FC89CE0EDF1E7801D6016D
:101860004D915C91F701808191818417950738F340
:101870006B897C896F5E7F4F8B2D9A2D0E94720839
:10188000D8018D919C911197F60120813181821BA5
:10189000930B8D939C9375E6E72EF12C2B893C8955
:1018A000E20EF31E2F5A3F4FD901ED91FD91708149
:1018B00060E0ED91FC911197A355B040BC8BAB8BD0
:1018C000208130E0622B732B882777FD8095982F3D
:1018D0000E94912320E030E040E858E30E94712408
:1018E000F70160837183828393830B891C89075975
:1018F0001F4F2B893C892B5A3F4FD901ED91FD9108
:10190000708160E0ED91FC911197A755B040BC8BC0
:10191000AB8B208130E0622B732B882777FD80957D
:10192000982F0E94912320E030E040E858E30E9485
:101930007124F80160837183828393830B891C89EE
:1019400003591F4F2B893C89275A3F4FD901ED91ED
:10195000FD91708160E0ED91FC911197AB55B04025
:10196000BC8BAB8B208130E0622B732B882777FDFB
:101970008095982F0E94912320E030E040E858E3C2
:101980000E947124F80160837183828393830B89A1
:101990001C890F581F4F2B893C89235A3F4FD9016F
:1019A000ED91FD91708160E0ED91FC911197AF5543
:1019B000B040BC8BAB8B208130E0622B732B88272F
:1019C00077FD8095982F0E94912320E030E040E839
:1019D00058E30E947124F8016083718382839383AA
:1019E0006701AA24BB24D601ED90FD900D911C91B6
:1019F000C801B70120E030E040E050E40E946624D6
:101A000088236CF0C801B70120E030E040E850E4E2
:101A10000E945C22F6016083718382839383089421
:101A2000A11CB11C24E030E0C20ED31E34E0A3168A
:101A3000B104C9F68B899C898B589F4F9E838D83F7
:101A400069E6662E712CAB89BC896A0E7B1EAF5885
:101A5000BF4FB887AF83F301608171818281938129
:101A60002D913D914D915C910E9471247B018C01DF
:101A700055E6C52ED12C2B893C89C20ED31E4DE6CE
:101A8000842E912C820E931ED6016D917D918D91A5
:101A90009C91F40120813181428153810E94712403
:101AA0009B01AC01C801B7010E945C229B01AC0103
:101AB0000E945D22AD81BE816D937D938D939C9339
:101AC0001397EB89FC89E758FF4FFA87E987D6011E
:101AD0006D917D918D919C91F301208131814281A5
:101AE00053810E9471247B018C01D4016D917D9101
:101AF0008D919C91EF81F8852081318142815381C4
:101B00000E9471249B01AC01C801B7010E945D22B3
:101B10009B01AC010E945D22A985BA856D937D93DE
:101B20008D939C931397F601A080B180C280D380DF
:101B3000D3012D903D904D905C90F40160807180B8
:101B400082809380AF81B8858D919D910D90BC91DD
:101B5000A02D89839A83AB83BC83EB89FC89E358EE
:101B6000FF4FFC8BEB8BC601B501A60195010E94CE
:101B700071247B018C01C201B101A20191010E947B
:101B800071249B01AC01C801B7010E945C227B015A
:101B90008C01C401B301A40193010E9471249B0133
:101BA000AC01C801B7010E945C227B018C016981F4
:101BB0007A818B819C819B01AC010E9471249B01E5
:101BC000AC01C801B7010E945D226B877C878D87BD
:101BD0009E87AB89BC896D937D938D939D93BC8BC0
:101BE000AB8BC201B101A20191010E945D226F87FE
:101BF000788B898B9A8BA40193010E9471247B01BD
:101C00008C01C601B50120E030E040E050EC0E94BC
:101C1000712429813A814B815C810E9471249B014E
:101C2000AC01C801B7010E945D223B014C01C60115
:101C3000B501A60195010E945D22A60195010E94B1
:101C400071247B018C016F85788989899A89A20129
:101C500091010E9471249B01AC01C801B7010E944F
:101C60005D2220E030E040E85FE30E945C229B01BF
:101C7000AC01C401B3010E94D02220E030E044E373
:101C800053E40E9471242BED3FE049E450E40E94AC
:101C90002723EB89FC896083718382839383E158D6
:101CA000F040FC8BEB8BA985BA85AD90BD90CD90B3
:101CB000DC90C601B501A60195010E9471247B014B
:101CC0008C016B857C858D859E859B01AC010E9476
:101CD00071243B014C01C801B701A40193010E948A
:101CE0005D220E94D8249B01AC01ED81FE816081C0
:101CF0007181828193810E9427230E94FB2225E823
:101D0000422E512C2B893C89420E531E20E030E09C
:101D100044E353E40E9471242BED3FE049E450E496
:101D20000E942723D2016D937D938D939C931397EB
:101D3000ED81FE812081318142815381CA01B90147
:101D40000E947124A40193010E945D220E94D82464
:101D50009B01AC01C601B5010E9427230E94FB2212
:101D60002B893C8927573F4F3C8B2B8B20E030E061
:101D700044E353E40E9471242BED3FE049E450E436
:101D80000E942723AB89BC896D937D938D939C938F
:101D90001397A958B040BC8BAB8B6B857C858D8528
:101DA0009E8520E030E040E050E00E94232388231D
:101DB000ACF5F201E080F18002811381C801B70126
:101DC00020E030E040E050E00E94662418167CF4E9
:101DD00060E070E084E393E4A80197010E945C2234
:101DE000D2016D937D938D939C93139717C0C80177
:101DF000B70120E030E040E050E00E942323882338
:101E00006CF460E070E084E393ECA80197010E9419
:101E10005C22F2016083718382839383EB89FC8966
:101E2000E358FF4F608171818281938120E030E02F
:101E300040E050E00E9423238823CCF589E8C82E97
:101E4000D12C2B893C89C20ED31ED601ED90FD907A
:101E50000D911C91C801B70120E030E040E050E056
:101E60000E94662418162CF460E070E084E393E48A
:101E700015C02B893C892B573F4FD9016D917D911E
:101E80008D919C9120E030E040E050E00E942323BF
:101E900088236CF460E070E084E393ECA801970180
:101EA0000E945C22F601608371838283938364962F
:101EB0000FB6F894DEBF0FBECDBFCF91DF911F915B
:101EC0000F91FF90EF90DF90CF90BF90AF909F90D9
:101ED0008F907F906F905F904F903F902F900895DC
:101EE000AF92BF92CF92EF92FF920F931F93DF9327
:101EF000CF93CDB7DEB7C059D0400FB6F894DEBF50
:101F00000FBECDBF182FF92E0E945D0A6EE170E062
:101F100080E090E00E946021812F9F2D60E00E9470
:101F2000550A812F9F2D60E141E021E00E949C072E
:101F3000812F9F2D66E00E949507812F9F2D0E9483
:101F4000E007812F9F2D60E040E020E00E949C0789
:101F5000812F9F2D0E94850A812F9F2D0E94710B3A
:101F6000A82E812F9F2D0E94530BB82E812F9F2DBD
:101F70000E94350BC82E812F9F2D60E04FE70E94F5
:101F8000B007812F9F2D60E00E94750A812F9F2D41
:101F900060E048E60E94B007812F9F2D0E94650AED
:101FA00064E170E080E090E00E946021812F9F2D2D
:101FB00065E970E049E857E020E000E0EE24E394B2
:101FC0000E94320A882311F481E0C9C1812F9F2D1C
:101FD0006EE178E040EC50E00E942E0A882311F474
:101FE00082E0BDC1812F9F2D63E00E94E90A812F0D
:101FF0009F2D62E10E94A907812F9F2D64E00E941E
:10200000D907812F9F2D61E00E942A0B812F9F2DE0
:1020100063E00E941F0B812F9F2D63E00E94FF0A47
:10202000812F9F2D63E00E948E07812F9F2D60E0FE
:102030000E948707812F9F2D60E00E944D0A812F0B
:102040009F2D6A2D0E94DE0A812F9F2D6B2D0E94ED
:10205000D30A812F9F2D6C2D0E94C80AAA24BB246D
:10206000BE016F5F7F4FF501E252F74FE491DB0154
:10207000AA0DB11DEC932A2D2F5F0894A11CB11C51
:1020800083E08A1580F74B81842F90E0029630E040
:102090008217930744F7812F9F2DBE016C5F7F4FFE
:1020A00050E029810A81EE24E394CC240E94A00808
:1020B00050E0BE016F5F7F4FF501E252F74FE491B0
:1020C000DB01A50FB11DEC935F5F0894A11CB11C4F
:1020D000543090F34B81842F90E00296252F30E00E
:1020E000821793074CF7812F9F2DBE016C5F7F4FA6
:1020F00050E029810A81EE24E394CC240E94A008B8
:10210000812F9F2D0E946D0A812F9F2D0E94810893
:10211000482F812F9F2DBE016F5E7F4F0E94720856
:10212000812F9F2D62E00E94D207812F9F2D6CE9A5
:102130000E94C407812F9F2D60E50E94CB07812F4D
:102140009F2D60E00E94BD07812F9F2D0E946D0A88
:10215000812F9F2D61E00E947D0A812F9F2D61E0DC
:102160000E94450A812F9F2D0E943D0A50E0BE012A
:102170006F5F7F4FF501E252F74FE491DB01A50F4E
:10218000B11DEC935F5F0894A11CB11C543090F317
:102190004B81842F90E00296252F30E08217930721
:1021A0004CF7812F9F2DBE016C5F7F4F50E029813E
:1021B0000A81EE24E394CC240E94A00850E0BE01E2
:1021C0006F5F7F4FF501E252F74FE491DB01A50FFE
:1021D000B11DEC935F5F0894A11CB11C543090F3C7
:1021E0004B81842F90E00296252F30E082179307D1
:1021F0004CF7812F9F2DBE016C5F7F4F50E02981EE
:102200000A81EE24E394CC240E94A00850E0BE0191
:102210006F5F7F4FF501E252F74FE491DB01A50FAD
:10222000B11DEC935F5F0894A11CB11C543090F376
:102230004B81842F90E00296252F30E08217930780
:102240004CF7812F9F2DBE016C5F7F4F50E029819D
:102250000A81EE24E394CC240E94A008812F9F2DB4
:102260000E948108AC0183309105C0F3812F9F2D1E
:10227000BE016F5E7F4F0E947208812F9F2D0E94CA
:10228000F40750E0BE016F5F7F4FF501E252F74F58
:10229000E491DB01A50FB11DEC935F5F0894A11CD5
:1022A000B11C543090F34B81842F90E00296252F7F
:1022B00030E0821793074CF7812F9F2DBE016C5F92
:1022C0007F4F50E029810A810E940808812F9F2DAD
:1022D0000E948108AC0183309105C0F3812F9F2DAE
:1022E000BE016F5E7F4F0E947208812F9F2D0E945A
:1022F000F40750E0BE016F5F7F4FF501E252F74FE8
:10230000E491DB01A50FB11DEC935F5F0894A11C64
:10231000B11C543090F34B81842F90E00296252F0E
:1023200030E0821793074CF7812F9F2DBE016C5F21
:102330007F4F50E029810A81EE24E394CC240E944F
:10234000A008812F9F2D60E00E94450A812F9F2DBC
:102350000E946D0A812F9F2D0E94F40780E0C057D4
:10236000DF4F0FB6F894DEBF0FBECDBFCF91DF9128
:102370001F910F91FF90EF90CF90BF90AF90089575
:102380004F925F926F927F928F929F92AF92BF9285
:10239000CF92DF92EF92FF920F931F93CF93DF9331
:1023A000EC015B014A01390128018BEE92E00E94A9
:1023B000431B88E18093B8001C2F0D2FCE010E9493
:1023C0000A0BCE010E94AD0B882319F46FE071E077
:1023D00002C069E271E087EF92E00E942D2087EF52
:1023E00092E067E471E00E942D20CE010E94700F00
:1023F0008F87812F902FB5010E94C10A812F902FC6
:10240000B4010E94BA0A812F902FB3010E94B30A2F
:10241000812F902FB2010E94AC0A812F902FB7011B
:102420000E94A50A812F902FB6010E949E0A8F85D7
:10243000882379F587EF92E06BE571E00E942D200B
:10244000812F902F61E00E94450A87EF92E06BE6B2
:1024500071E00E942D2080E06AEE72E143E050E0DE
:102460000E944020812F902F0E94F407888B87EFD5
:1024700092E06BE871E00E942D20C357DF4F81E0AE
:102480008883AC978AE290E099838883C156D040D4
:1024900013C087EF92E06AEA71E00E942A2087EF7A
:1024A00092E06F854AE050E00E94182087EF92E0AA
:1024B0006BEC71E00E942D208F85DF91CF911F91F1
:1024C0000F91FF90EF90DF90CF90BF90AF909F90D3
:1024D0008F907F906F905F904F9008950F931F9310
:1024E0008C010E948307F8011786108A0F591F4F2D
:1024F000F801119211928F0111821082065D1F4F17
:10250000F80111928F0110820E581040F801EF5A15
:10251000FF4F0F5E1F4F1183008301511040F801E0
:10252000ED5AFF4F0E5E1F4F118300830251104082
:10253000F801EB5AFF4F0B5E1F4F118300830551CB
:102540001040F801E95AFF4F0A5E1F4F11830083C4
:1025500006511040F801E75AFF4F075E1F4F1183E5
:10256000008309511040F801E55AFF4F065E1F4FE6
:10257000118300830A511040F801E35AFF4F035EB4
:102580001F4F118300830D511040C8014E96015A10
:102590001F4FF801918380831F910F9108950F932E
:1025A0001F938091F6019091F701892B61F48FE8D8
:1025B00090E00E94CC20182F092F0E946E121093D9
:1025C000F6010093F7018091F6019091F7011F91B8
:1025D0000F9108950E94CF12FC01E257FF4F81E056
:1025E00080830895E82FEF7787FD05C08E2F8250F6
:1025F000823008F4A0C02E2F30E0F901ED5AF64FDA
:102600005491F901E15CF64F9491433011F041305F
:10261000B9F4923031F480912602852B8093260202
:102620000FC0933031F480912802852B80932802CB
:1026300007C0943029F480912A02852B80932A02C6
:1026400041504230B8F4923031F480912702852B0A
:10265000809327020FC0933031F480912902852B9B
:102660008093290207C0943029F480912B02852B96
:1026700080932B02235F364FF90184919330D1F47C
:10268000E82FF0E0EE0FFF1FE65FFD4F71836083E0
:102690008BE399E0FC01A591B4918C9180932F027A
:1026A0008CE690E09093F9018093F80180916800A6
:1026B000826037C09430D1F4E82FF0E0EE0FFF1FB6
:1026C000EA5EFD4F718360838DE399E0FC01A59183
:1026D000B4918C9180932E028DE690E09093F90155
:1026E0008093F8018091680084601BC09230D9F417
:1026F000E82FF0E0EE0FFF1FE250FE4F7183608382
:1027000089E399E0FC01A591B4918C91809330020A
:102710008BE690E09093F9018093F8018091680036
:10272000816080936800E091F801F091F901808167
:10273000582B50832AC09FB7F894E330A1F47093CC
:10274000FD016093FC01E99880916900837F80938B
:10275000690080916900440F440F842B80936900C5
:10276000E19AE99A11C07093FB016093FA01E8982D
:10277000809169008C7F8093690080916900842B2F
:1027800080936900E09AE89A9FBF8FB780688FBFF7
:1027900008952FB7F894E82FEF7787FD05C08E2FA7
:1027A0008250823008F45FC04E2F50E0CA018D5A2B
:1027B000964FFC019491415C564FFA01849182300E
:1027C000D1F480916B009095892380936B00809168
:1027D0006B00882329F4809168008E7F80936800C5
:1027E00080912602892380932602809127029823D4
:1027F0009093270249C08330D1F480916C0090956A
:10280000892380936C0080916C00882329F4809147
:1028100068008D7F809368008091280289238093CF
:102820002802809129029823909329022DC0843098
:1028300059F580916D009095892380936D0080916A
:102840006D00882329F4809168008B7F8093680055
:1028500080912A02892380932A0280912B02982357
:1028600090932B0211C0E33041F4E9988091690004
:10287000837F80936900E19A07C0E898809169009E
:102880008C7F80936900E09A2FBF08951F920F926A
:102890000FB60F9211241F932F933F934F935F9383
:1028A0006F937F938F939F93AF93BF93EF93FF9318
:1028B00033B1409130029091260220912702832F5C
:1028C000809582239323892B90916B004327492382
:1028D000482330933002442359F1142F40FF05C0A0
:1028E000E091FE01F091FF01099511FF05C0E09113
:1028F0000002F0910102099512FF05C0E091020269
:10290000F0910302099513FF05C0E0910402F091D4
:102910000502099514FF05C0E0910602F091070237
:10292000099515FF05C0E0910802F091090209958B
:10293000FF91EF91BF91AF919F918F917F916F9197
:102940005F914F913F912F911F910F900FBE0F906C
:102950001F9018951F920F920FB60F9211241F937C
:102960002F933F934F935F936F937F938F939F9397
:10297000AF93BF93EF93FF9336B140912F029091A5
:10298000280220912902832F809582239323892B6B
:1029900090916C0043274923482330932F0244230E
:1029A00059F1142F40FF05C0E0910A02F0910B028B
:1029B000099511FF05C0E0910C02F0910D020995F7
:1029C00012FF05C0E0910E02F0910F02099513FF6E
:1029D00005C0E0911002F0911102099514FF05C0A5
:1029E000E0911202F0911302099515FF05C0E091E4
:1029F0001402F09115020995FF91EF91BF91AF91EB
:102A00009F918F917F916F915F914F913F912F9106
:102A10001F910F900FBE0F901F9018951F920F924D
:102A20000FB60F9211240F931F932F933F934F9341
:102A30005F936F937F938F939F93AF93BF93EF9326
:102A4000FF9339B100912E0290912A0220912B021E
:102A5000832F809582239323892B90916D000327E8
:102A60000923082330932E020023C9F1102F00FF01
:102A700005C0E0911602F0911702099511FF05C0FB
:102A8000E0911802F0911902099512FF05C0E0913A
:102A90001A02F0911B02099513FF05C0E0911C0278
:102AA000F0911D02099514FF05C0E0911E02F091FE
:102AB0001F02099515FF05C0E0912002F091210247
:102AC000099516FF05C0E0912202F09123020995B5
:102AD00007FF05C0E0912402F09125020995FF91BE
:102AE000EF91BF91AF919F918F917F916F915F9186
:102AF0004F913F912F911F910F910F900FBE0F900B
:102B00001F901895AF92BF92CF92DF92EF92FF92F3
:102B10000F931F93CF93DF93EC015C01CC24DD2452
:102B2000F50164817581685E7340882777FD809523
:102B3000982F0E94912320E030E04AE754E40E945D
:102B400027237B018C016C877D878E879F8720E000
:102B500030E040E050E00E94232388232CF480E002
:102B600090E0A0E0B0E00EC0C801B70120E030E086
:102B700040E85FE30E946624181644F480E090E089
:102B8000A0E8BFE38C879D87AE87BF870894C11CF0
:102B9000D11C82E090E0A80EB91E249694E0C916DC
:102BA000D10409F0BDCFDF91CF911F910F91FF901C
:102BB000EF90DF90CF90BF90AF900895EF92FF928B
:102BC0000F931F938C0131E3E32E32E0F32EC70104
:102BD00048E958E060E070E00E946617C7010E9473
:102BE0009317C7010E949017F801808162E00E944C
:102BF000C821F801818162E00E94C821F801828128
:102C000062E00E94C821F801838162E00E94C8212D
:102C1000F801848D080F111DF801808161EA76E1C9
:102C200043E00E94F2121F910F91FF90EF900895E0
:102C3000CF93DF9380912C0290912D02892B41F547
:102C40008DE190E00E94CC20FC01148E86E0808310
:102C500087E0818385E0828384E08383EF01DF0165
:102C600080E090E020E030E040E050E01D821C82F7
:102C70001C962D933D934D935C931F97019622963E
:102C800014968430910591F7F0932D02E0932C0275
:102C900080912C0290912D02DF91CF910895EF92B7
:102CA000FF920F931F93CF93DF930E9418167C011E
:102CB0000E941816FC01848DC82FD0E001E312E0B9
:102CC000C8010E9499172296CC0FDD1FCE0DDF1D83
:102CD00079836883C8010E9493170E9418168C019B
:102CE0000E941816FC01848D080F111DF8018081C7
:102CF0000E94C9130E941816FC01848D8F5F848F77
:102D00000E9418168C010E941816FC01848D837095
:102D1000F801848F0E9418168C010E941816FC017D
:102D2000848D080F111DF801808161EA76E143E08E
:102D30000E94F212DF91CF911F910F91FF90EF90BF
:102D400008950F931F9301E312E0C8010E949017AA
:102D5000C8010E946E170E9418168C010E94181656
:102D6000FC01848D080F111DF80180810E94C91398
:102D70000E9418168C010E941816FC01848D080F01
:102D8000111DF80180816FE476E142E00E94F212A9
:102D90001F910F9108951F920F920FB60F92112459
:102DA0002F933F934F935F936F937F938F939F9353
:102DB000AF93BF93EF93FF93E0913502F09136020A
:102DC0000995FF91EF91BF91AF919F918F917F9165
:102DD0006F915F914F913F912F910F900FBE0F9088
:102DE0001F901895FC01A3E0440F551F661F771F25
:102DF000AA95D1F7403080E0580781E0680780E06D
:102E0000780714F481E010C033E075956795579505
:102E100047953A95D1F7403080E0580781E0680740
:102E200080E078071CF482E0828339C023E0759546
:102E30006795579547952A95D1F7403080E0580718
:102E400081E0680780E0780714F483E0EDCF92E03A
:102E500075956795579547959A95D1F7403080E0DD
:102E6000580781E0680780E0780714F484E0DCCF3D
:102E700082E075956795579547958A95D1F74030CB
:102E800080E0580781E0680780E0780714F485E067
:102E9000CBCF85E082834FEF5FEF60E070E08FB7CC
:102EA0008383F89451834083509387004093860036
:102EB00083818FBF80918100887F80938100809182
:102EC00081009281892B8093810008951092800067
:102ED00020E1209381000E94F2160895FC01809168
:102EE0006F008E7F80936F0083B5816083BD8FB745
:102EF0008383F89410928500109284008FBF809194
:102F000081009281892B809381002FB7F894809162
:102F10008400909185002FBF892BB9F323830895F6
:102F20000E946E170895E1E8F0E08081887F808339
:102F300008951F93CF93DF93EC012FB72B83F89461
:102F40008091840090918500AC0160E070E02FBF1B
:102F50008A81833071F0843018F4823041F405C0E6
:102F6000843049F0853019F408C013E007C010E040
:102F700005C016E003C018E001C01AE02FB7F894AE
:102F8000E0918400F09185002FBFCF01A0E0B0E078
:102F900084179507A607B70789F32B8348175907A6
:102FA0006A077B0798F02091860030918700809116
:102FB0008600909187002E1B3F0BA90160E070E016
:102FC000A0E0B0E0480F591F6A1F7B1FCB01BA0178
:102FD00028EE33E040E050E00E943C2520E83EE34C
:102FE00040E050E00E945B2504C0220F331F441FC5
:102FF000551F1A95D2F7B901CA01DF91CF911F91E0
:103000000895382F413210F040E042C080913702DD
:103010008823E1F791E090933702209339028FEFF4
:103020008093A40210925F024150409360024F5F70
:103030009093380280913802330F832B80933802AB
:1030400080913A02813041F410923A028091380224
:103050008093BB0085EC01C085EE8093BC0080911D
:1030600037028130E1F380915F02841710F44091C0
:103070005F0220E030E00AC0FB01E20FF31FD9013C
:10308000A15CBD4F8C9180832F5F3F4F2417A0F32D
:10309000842F08950F931F93582F122F413210F051
:1030A00081E04AC0809137028823E1F782E0809373
:1030B0003702009339028FEF8093A40210925F02CF
:1030C00040936002AFE3B2E0FB0102C081918D93B7
:1030D0008E2F861B8417D0F310923802809138020D
:1030E000550F852B8093380280913A02813041F44C
:1030F00010923A02809138028093BB0085EC01C0A7
:1031000085EE8093BC00112321F08091370282303C
:10311000E1F38091A4028F3F11F480E00DC0809113
:10312000A402803211F482E007C08091A4028033AF
:1031300011F084E001C083E01F910F910895482FA2
:10314000613210F081E0089580913702843011F0EF
:1031500082E0089560938202A1E6B2E0842F9C0190
:10316000F90102C081918D938E2F841B8617D0F3B5
:1031700080E008951F920F920FB60F9211242F93A3
:103180003F934F935F936F937F938F939F93AF93EF
:10319000BF93EF93FF938091B90090E0887F907088
:1031A0008036910509F4F2C081369105CCF588325C
:1031B000910509F47BC089329105B4F48031910501
:1031C00009F46FC0813191053CF4009709F447C1BF
:1031D000089709F04FC165C08831910509F466C0B0
:1031E000809709F047C182C08034910509F4A4C0DA
:1031F0008134910544F48033910509F482C0C89765
:1032000009F038C189C08035910509F489C0883535
:10321000910509F496C08834910509F02BC1AEC020
:103220008839910509F413C189399105ECF488377F
:10323000910509F4ABC0893791054CF488369105A6
:1032400009F4A4C08037910509F014C19FC08838E3
:10325000910509F4FCC08039910509F49DC08038BE
:10326000910509F007C198C0803B910509F4C6C0DB
:10327000813B91054CF4803A910509F49FC0883A4E
:10328000910509F0F7C0BAC0803C910509F4E3C08C
:10329000883C910509F4DFC0883B910509F0EAC03C
:1032A000C2C0809138028093BB00CFC090915F0272
:1032B00080916002981768F490915F02E92FF0E026
:1032C000E15CFD4F80818093BB009F5F90935F0224
:1032D000BCC080913902882309F44BC085ED8093EE
:1032E000BC008091BC0084FDFCCFC2C080E2809312
:1032F000A40285ED8093BC008091BC0084FDFCCFCE
:10330000B7C080E38093A40285ED8093BC008091D8
:10331000BC0084FDFCCFACC088E38093A4029BC0BA
:1033200080915F029091BB00E82FF0E0E15CFD4FDF
:1033300090838F5F80935F0290915F028091600223
:1033400082C080915F029091BB00E82FF0E0E15CC9
:10335000FD4F90838F5F80935F02809139028823B5
:1033600041F085ED8093BC008091BC0084FDFCCFD2
:103370007FC081E080933A0284EA6EC085ED80933D
:10338000BC008091BC0084FDFCCF72C083E08093C0
:1033900037021092A30259C08091A302803208F034
:1033A00056C08091A3029091BB00E82FF0E0ED574A
:1033B000FD4F90838F5F8093A30247C08091A3024B
:1033C000803230F4E091A302F0E0ED57FD4F10821F
:1033D00085ED8093BC008091BC0084FDFCCF1092F1
:1033E00037026091A302E0913D02F0913E0283E832
:1033F00092E070E009951092A3022DC084E08093C2
:1034000037021092810210928202E0913B02F09109
:103410003C02099580918202882329F481E08093FF
:1034200082021092610290918102E92FF0E0EF593F
:10343000FD4F80818093BB009F5F909381029091AC
:10344000810280918202981710F485EC01C085E812
:103450008093BC000FC085EC8093BC0009C0109223
:10346000A40285ED8093BC008091BC0084FDFCCF5C
:1034700010923702FF91EF91BF91AF919F918F9181
:103480007F916F915F914F913F912F910F900FBE60
:103490000F901F9018951092370281E080933902A7
:1034A00010923A0282E161E00E94072283E161E02A
:1034B0000E940722E9EBF0E080818E7F808380818B
:1034C0008D7F808388E48093B80085E48093BC007E
:1034D000089581E08093EA026093C7021092E802A7
:1034E0001092E90208952091C60230E08091C50251
:1034F000281B3109C90108954091C5028091C60277
:10350000481718F02FEF3FEF0AC0E42FF0E0EB551B
:10351000FD4F8081282F30E04F5F4093C502C901E5
:103520000895E091C5028091C602E81718F0EFEF08
:10353000FFEF06C0F0E0EB55FD4F8081E82FF0E093
:10354000CF01089508951092EE021092ED0288EED8
:1035500093E0A0E0B0E08093EF029093F002A0939C
:10356000F102B093F20289ED91E09093EC02809326
:10357000EB020895CF92DF92EF92FF920F931F9389
:10358000CF93DF937C016B018A018091EA0288234B
:10359000A1F0C0E0D0E00DC0D701ED91FC91D601C3
:1035A000AC0FBD1F0190F081E02DC7016C91099512
:1035B0002196C017D10780F304C0CB01642F0E946D
:1035C0009F18C801DF91CF911F910F91FF90EF904D
:1035D000DF90CF900895DF93CF930F92CDB7DEB7F2
:1035E000FC0169838091EA028823C9F08091E90295
:1035F000803238F081E090E09383828320E030E0F5
:1036000015C08091E802E82FF0E0E853FD4F998162
:1036100090838F5F8093E8028093E90205C0CE011A
:10362000019661E00E949F1821E030E0C9010F90EF
:10363000CF91DF9108950F93062F8091C70268EC18
:1036400072E04091E90221E00E944A181092E802DB
:103650001092E9021092EA020F91089561E00E942F
:103660001B1B0895413208F040E2862F65EA72E0A4
:103670000E9401181092C5028093C602089521E0AD
:103680000E94321B08951092C5021092C602109239
:10369000E8021092E9020E944B1A08950F931F93BB
:1036A000CF93DF93BC018230910510F462E070E0AB
:1036B000E091A803F091A90340E050E0A0E0B0E061
:1036C00024C08081918186179707D0F086179707CD
:1036D00071F482819381109729F013969C938E93B5
:1036E00012972CC09093A9038093A80327C041157B
:1036F000510519F08417950718F48D01AC01EF01FD
:10370000DF01828193819C01F9013097D1F6411547
:103710005105F9F0CA01861B970B8430910580F49E
:103720008A819B810115110521F0F8019383828321
:1037300004C09093A9038093A803FE01329645C06C
:10374000FE01E80FF91F61937193029799838883B3
:103750003CC08091A6039091A703892B41F48091EE
:10376000D1019091D2019093A7038093A603409139
:10377000D3015091D4014115510541F44DB75EB7C5
:103780008091CF019091D001481B590B2091A60345
:103790003091A70324173507B0F4CA01821B930B9D
:1037A0008617970780F0AB014E5F5F4F8417950730
:1037B00050F0420F531F5093A7034093A603F90103
:1037C0006193719302C0E0E0F0E0CF01DF91CF910F
:1037D0001F910F910895CF93DF939C01009709F4F7
:1037E0008FC0EC0122971B821A826091A80370910E
:1037F000A9036115710581F488819981820F931F56
:103800002091A6033091A7032817390739F5D093E3
:10381000A703C093A60374C0DB0140E050E0AC17DF
:10382000BD0708F1BB83AA83FE0121913191E20F0C
:10383000F31FAE17BF0779F48D919C911197280F54
:10384000391F2E5F3F4F3983288312968D919C91AB
:1038500013979B838A834115510571F4D093A90373
:10386000C093A8034DC012968D919C911397AD0102
:10387000009711F0DC01D3CFDA011396DC93CE93DD
:103880001297FA0121913191E20FF31FCE17DF0752
:1038900069F488819981280F391F2E5F3F4FFA0103
:1038A000318320838A819B8193838283E0E0F0E0EF
:1038B000DB0112968D919C911397009719F0BC0132
:1038C000FD01F6CFAB014E5F5F4FDB018D919C9107
:1038D000840F951F2091A6033091A703281739075D
:1038E00079F4309729F41092A9031092A80302C02A
:1038F00013821282425050405093A7034093A60374
:10390000DF91CF9108956F927F928F929F92AF92A5
:10391000BF92CF92DF92EF92FF920F931F93CF93BC
:10392000DF938C01009729F4CB010E944E1B8C0180
:10393000BBC08EEFE82E8FEFF82EE00EF11E48018F
:10394000860E971E8E149F0408F4ACC0D7014D91CB
:103950005C91119746175707B8F04530510508F4A8
:10396000A3C0CA0104978617970708F49DC0425068
:103970005040461B570BF401419351936D937C9338
:10398000CF010E94EB1B90C05B01A41AB50A38015D
:10399000640E751EA091A803B091A903E0E0F0E0C9
:1039A000CC24DD2447C0A615B705A9F5CD91DC913F
:1039B0001197CE0102968A159B0568F1CE018A19EE
:1039C0009B09029612962C91129713963C9105979B
:1039D00058F0F40122833383CA19DB09D183C083F1
:1039E000D7016D937C9309C04E5F5F4F4C0F5D1FF5
:1039F000F70151834083C901FC01C114D10431F0A6
:103A0000D6011396FC93EE9312974EC0F093A90340
:103A1000E093A80349C08D919C911197E817F9078D
:103A200008F4FC016D0112968C91129713969C91EB
:103A30009C01D901109709F0B6CF8091A60390910F
:103A4000A70386159705E9F4E617F707D0F4209148
:103A5000D3013091D4012115310541F42DB73EB782
:103A60008091CF019091D001281B390B82169306CB
:103A7000C8F49092A7038092A603F7017183608334
:103A800013C0CB010E944E1BEC01009759F0D701E7
:103A90004D915C91B8010E94F704C8010E94EB1B94
:103AA0008E0102C000E010E0C801DF91CF911F91AC
:103AB0000F91FF90EF90DF90CF90BF90AF909F90CD
:103AC0008F907F906F90089508951F920F920FB678
:103AD0000F9211242F933F934F938F939F93EF93C4
:103AE000FF938091C00082FD19C04091C600809173
:103AF0001503282F30E02F5F3F4F2F7330708091D8
:103B0000160390E02817390759F0E0911503F0E00B
:103B1000E950FD4F42A32093150302C08091C600D7
:103B2000FF91EF919F918F914F913F912F910F9026
:103B30000FBE0F901F9018958091150320911603CA
:103B400090E0805C9F4F821B91098F739070892B4E
:103B500011F00E94641D08951F920F920FB60F92EC
:103B600011242F938F939F93EF93FF9390911703BB
:103B700080911803981731F48091C1008F7D809354
:103B8000C10010C0E0911803F0E0E75AFC4F20811B
:103B90008091180390E001968F73907080931803C2
:103BA0002093C600FF91EF919F918F912F910F90DD
:103BB0000FBE0F901F901895AF92BF92DF92EF92B9
:103BC000FF920F931F93CF93DF93EC017A018B0148
:103BD000DD24403081EE580780E0680780E07807F8
:103BE00011F0DD24D39491E0A92EB12CE889F98954
:103BF000DD2069F0C5010C8C02C0880F991F0A9462
:103C0000E2F7808360E079E08DE390E005C0108208
:103C100060E874E88EE190E0A80197010E945B25BE
:103C20002150304040405040569547953795279554
:103C300080E12030380720F0DD2011F0DD24D6CFE0
:103C4000EC85FD853083EE85FF8520831D8EEA8916
:103C5000FB89408121E030E0C901088C02C0880F57
:103C6000991F0A94E2F7482B4083EA89FB89408137
:103C7000C901098C02C0880F991F0A94E2F7482BEA
:103C80004083EA89FB894081C9010A8C02C0880F00
:103C9000991F0A94E2F7482B4083EA89FB898081C7
:103CA0000B8C02C0220F331F0A94E2F720952823C1
:103CB0002083DF91CF911F910F91FF90EF90DF90C4
:103CC000BF90AF900895FC01268D878D30E0205C79
:103CD0003F4F281B31092F733070C9010895FC0133
:103CE000968D878D981719F42FEF3FEF06C0878DBB
:103CF000E80FF11D82A1282F30E0C9010895DC01F1
:103D00005E969C915E975F968C915F97981719F4D9
:103D10002FEF3FEF10C05F968C915F97FD01E80F8A
:103D2000F11D92A15F968C915F978F5F8F735F9665
:103D30008C93292F30E0C9010895DC015D968C91A8
:103D40005D97882339F05096ED91FC9151978081D1
:103D500086FFF9CF5D961C920895DC0190968C91B8
:103D60009097282F30E02F5F3F4F2F733070919640
:103D70008C91919790E028173907C9F390968C9110
:103D80009097FD01E80FF11DEE59FF4F608390966B
:103D90002C9390975296ED91FC915397208181E05E
:103DA00090E05B960C905B9702C0880F991F0A9475
:103DB000E2F7282B208381E05D968C935D975096E7
:103DC000ED91FC91519780818064808381E090E047
:103DD00008951092FA021092F90288EE93E0A0E0A2
:103DE000B0E08093FB029093FC02A093FD02B0939D
:103DF000FE0289EE91E09093F8028093F702109210
:103E00001803809118038093170310921603809172
:103E100016038093150385EC90E090930403809340
:103E2000030384EC90E0909306038093050380ECF9
:103E300090E0909308038093070381EC90E09093C7
:103E40000A038093090382EC90E090930C03809323
:103E50000B0386EC90E090930E0380930D0384E0B7
:103E600080930F0383E08093100387E08093110316
:103E700085E08093120381E0809313030895CF922D
:103E8000DF92EF92FF920F931F93CF93DF937C010A
:103E90006B018A01C0E0D0E00FC0D6016D916D01C9
:103EA000D701ED91FC910190F081E02DC7010995BA
:103EB000C80FD91F015010400115110571F7CE012F
:103EC000DF91CF911F910F91FF90EF90DF90CF90F6
:103ED0000895EF92FF920F931F938C01DC01ED91F7
:103EE000FC910190F081E02D6DE009957C01D801F5
:103EF000ED91FC910190F081E02DC8016AE00995F7
:103F00009C012E0D3F1DC9011F910F91FF90EF9055
:103F10000895CF93DF93EC016115710519F420E04A
:103F200030E00FC0DB010D900020E9F71197A61BD0
:103F3000B70BE881F9810280F381E02DAD0109958D
:103F40009C01C901DF91CF9108954F925F927F92BA
:103F50008F929F92AF92BF92CF92DF92EF92FF9299
:103F60000F931F93DF93CF93CDB7DEB7A1970FB613
:103F7000F894DEBF0FBECDBF2C01742ECB012230D2
:103F800008F42AE019A231E2C32ED12CCC0EDD1E9A
:103F9000822E9924AA24BB24672D752FA501940194
:103FA0000E945B2579018A01C801B701A50194012E
:103FB0000E943C25472D461B0894C108D1084A3071
:103FC00014F4405D01C0495CF6014083E114F10442
:103FD0000105110521F07E2C5F2DC801DDCFC20146
:103FE000B6010E94891FA1960FB6F894DEBF0FBEDE
:103FF000CDBFCF91DF911F910F91FF90EF90DF9098
:10400000CF90BF90AF909F908F907F905F904F9098
:104010000895DC012115310541F4ED91FC910190E9
:10402000F081E02D642F099508950E94A51F089541
:10403000EF92FF920F931F939A01E62EFF2400E068
:1040400010E0B801A7010E9409201F910F91FF9075
:10405000EF9008950E94891F0895EF92FF920F93A9
:104060001F937C010E94891F8C01C7010E94691F58
:10407000080F191FC8011F910F91FF90EF9008952D
:10408000823000F5E82FF0E0EE0FFF1FE756FC4FFF
:1040900071836083882319F08130A1F408C0809176
:1040A00069008C7F842B80936900E89A0895809141
:1040B0006900440F551F440F551F837F842B809345
:1040C0006900E99A08951F920F920FB60F9211247A
:1040D0002F933F934F935F936F937F938F939F9310
:1040E000AF93BF93EF93FF938091990390919A03BD
:1040F000892B29F0E0919903F0919A030995FF919A
:10410000EF91BF91AF919F918F917F916F915F914F
:104110004F913F912F910F900FBE0F901F901895C8
:104120001F920F920FB60F9211242F933F934F932C
:104130005F936F937F938F939F93AF93BF93EF930F
:10414000FF9380919B0390919C03892B29F0E09130
:104150009B03F0919C030995FF91EF91BF91AF9163
:104160009F918F917F916F915F914F913F912F918F
:104170000F900FBE0F901F901895CF93DF930E9462
:1041800025210E941605CCE9DDE10E94000520975B
:10419000E1F30E949C1DF9CF0E944E1B08951F92CF
:1041A0000F920FB60F9211242F933F938F939F93EB
:1041B000AF93BF938091A1039091A203A091A30319
:1041C000B091A4033091A5030196A11DB11D232F29
:1041D0002D5F2D3720F02D570196A11DB11D209385
:1041E000A5038093A1039093A203A093A303B0938C
:1041F000A40380919D0390919E03A0919F03B09191
:10420000A0030196A11DB11D80939D0390939E0371
:10421000A0939F03B093A003BF91AF919F918F9103
:104220003F912F910F900FBE0F901F9018958FB751
:10423000F8942091A1033091A2034091A3035091DF
:10424000A4038FBFB901CA010895789484B5826030
:1042500084BD84B5816084BD85B5826085BD85B52A
:10426000816085BDEEE6F0E0808181608083E1E8D9
:10427000F0E0108280818260808380818160808311
:10428000E0E8F0E0808181608083E1EBF0E0808114
:1042900084608083E0EBF0E0808181608083EAE7E6
:1042A000F0E080818460808380818260808380816F
:1042B000816080838081806880831092C10008952E
:1042C000EF92FF920F931F93CF93DF937B018C01AB
:1042D0003FB7F89480919D0390919E03A0919F0316
:1042E000B091A00326B5A89B05C02F3F19F00196F9
:1042F000A11DB11D3FBFBA2FA92F982F8827820F6C
:10430000911DA11DB11D52E0880F991FAA1FBB1F4F
:104310005A95D1F7EC0130C00E945B223FB7F89468
:1043200080919D0390919E03A0919F03B091A00363
:1043300026B5A89B05C02F3F19F00196A11DB11D00
:104340003FBFBA2FA92F982F8827820F911DA11D3B
:10435000B11D32E0880F991FAA1FBB1F3A95D1F7F4
:104360008C1B9D0B885E9340B8F20894E108F1081D
:1043700001091109C851DC4FE114F10401051105CF
:1043800059F6DF91CF911F910F91FF90EF90089513
:10439000CF93DF93482F50E0CA018D5A964FFC010E
:1043A0003491415C564FFA018491882369F190E081
:1043B000880F991FFC01EF5DF64FA591B491FC01A8
:1043C000E55DF64FC591D491662351F42FB7F8946B
:1043D0008C91932F909589238C93888189230BC08E
:1043E000623061F42FB7F8948C91932F90958923C4
:1043F0008C938881832B88832FBF06C09FB7F89446
:104400008C91832B8C939FBFDF91CF910895482F80
:1044100050E0CA018959964FFC012491CA018D5A76
:10442000964FFC019491415C564FFA01349133232D
:1044300009F440C0222351F1233071F0243028F4D4
:104440002130A1F0223011F514C02630B1F0273010
:10445000C1F02430D9F404C0809180008F7703C06C
:10446000809180008F7D8093800010C084B58F770D
:1044700002C084B58F7D84BD09C08091B0008F7764
:1044800003C08091B0008F7D8093B000E32FF0E0F7
:10449000EE0FFF1FE55DF64FA591B4912FB7F8948D
:1044A000662321F48C919095892302C08C91892BED
:1044B0008C932FBF089508955058BB27AA270ED07C
:1044C000CBC1BCD130F0C1D120F031F49F3F11F409
:1044D0001EF48CC10EF4E095E7FB82C1E92FCDD12B
:1044E00080F3BA17620773078407950718F071F411
:1044F0009EF5E5C10EF4E0950B2EBA2FA02D0B0111
:10450000B90190010C01CA01A0011124FF27591B18
:1045100099F0593F50F4503E68F11A16F040A22F1E
:10452000232F342F4427585FF3CF4695379527958F
:10453000A795F0405395C9F77EF41F16BA0B620B8E
:10454000730B840BBAF09150A1F0FF0FBB1F661FD5
:10455000771F881FC2F70EC0BA0F621F731F841F18
:1045600048F4879577956795B795F7959E3F08F03E
:10457000B3CF9395880F08F09927EE0F97958795FD
:1045800008955CD158F080E891E009F49EEF5DD188
:1045900028F040E851E059F45EEF09C027C18FC10F
:1045A000E92FE0786AD168F3092E052AC1F32617AE
:1045B00037074807590738F00E2E07F8E02569F04D
:1045C000E025E0640AC0EF6307F8009407FADB0116
:1045D000B9019D01DC01CA01AD01EF9347D03CD187
:1045E0000AD05F91552331F02BED3FE049E450FDB7
:1045F00049EC63CF0895DF93DD27B92FBF7740E8FB
:104600005FE31616170648075B0710F4D92F62D12F
:104610009F938F937F936F9315D2E8E6F0E0E9D0F4
:104620001BD12F913F914F915F9167D1DD2349F0CD
:104630009058A2EA2AED3FE049EC5FE3D0785D278D
:104640004DDFDF9109C1A8D008F481E008950CD0B6
:1046500003C1FBD040F0F2D030F021F45F3F19F0FD
:10466000BFC051112DC1C2C008D198F39923C9F31D
:104670005523B1F3951B550BBB27AA276217730768
:10468000840738F09F5F5F4F220F331F441FAA1F1C
:10469000A9F333D00E2E3AF0E0E830D091505040DC
:1046A000E695001CCAF729D0FE2F27D0660F771F8A
:1046B000881FBB1F261737074807AB07B0E809F06C
:1046C000BB0B802DBF01FF2793585F4F2AF09E3F01
:1046D000510568F085C0F4C05F3FECF3983EDCF311
:1046E000869577956795B795F7959F5FC9F7880F7A
:1046F000911D9695879597F90895E1E0660F771FCC
:10470000881FBB1F621773078407BA0720F0621B5C
:10471000730B840BBA0BEE1F88F7E0950895E894AD
:1047200009C097FB3EF490958095709561957F4FF9
:104730008F4F9F4F9923A9F0F92F96E9BB279395A7
:10474000F695879577956795B795F111F8CFFAF4B7
:10475000BB0F11F460FF1BC06F5F7F4F8F4F9F4FE8
:1047600016C0882311F096E911C0772321F09EE846
:10477000872F762F05C0662371F096E8862F70E0AC
:1047800060E02AF09A95660F771F881FDAF7880F86
:104790009695879597F90895990F0008550FAA0BDC
:1047A000E0E8FEEF16161706E807F907C0F0121644
:1047B0001306E407F50798F0621B730B840B950B47
:1047C00039F40A2661F0232B242B252B21F408959C
:1047D0000A2609F4A140A6958FEF811D811D089539
:1047E00097F99F6780E870E060E008959FEF80ECA4
:1047F0000895DF93CF931F930F93FF92EF92DF9271
:104800007B018C01689405C0DA2EEF0176D0FE01A1
:10481000E894A5912591359145915591AEF3EF011D
:104820005DDEFE019701A801DA9479F7DF90EF9041
:10483000FF900F911F91CF91DF91089500240A946A
:104840001616170618060906089500240A9412166B
:104850001306140605060895092E0394000C11F49E
:10486000882352F0BB0F40F4BF2B11F460FF04C04B
:104870006F5F7F4F8F4F9F4F089557FD9058440FA4
:10488000551F59F05F3F71F04795880F97FB991FAF
:1048900061F09F3F79F0879508951216130614066C
:1048A000551FF2CF4695F1DF08C0161617061806F9
:1048B000991FF1CF86957105610508940895E894D4
:1048C000BB2766277727CB0197F9089565DF08F4A2
:1048D0008FEF08959B01AC0160E070E080E89FE3FA
:1048E000B6CE0BD0B9CFAADF28F0AFDF18F09523F2
:1048F00009F076CF7BCF1124E3CFBFDFA0F3959FE4
:10490000D1F3950F50E0551F629FF001729FBB27B6
:10491000F00DB11D639FAA27F00DB11DAA1F649F62
:104920006627B00DA11D661F829F2227B00DA11D15
:10493000621F739FB00DA11D621F839FA00D611D9B
:10494000221F749F3327A00D611D231F849F600DBC
:10495000211D822F762F6A2F11249F5750408AF0F5
:10496000E1F088234AF0EE0FFF1FBB1F661F771F81
:10497000881F91505040A9F79E3F510570F030CFED
:104980009FCF5F3FECF3983EDCF386957795679574
:10499000B795F795E7959F5FC1F7FE2B880F911D9F
:1049A0009695879597F9089511F40EF41FCF4DC091
:1049B0006CDFD0F39923D9F3CEF39F57550B87FFC4
:1049C00054D056959795B0E020F4660F771F881F56
:1049D000BB1F1F930F9300249001A0018001F001E1
:1049E000A0E80E0F1F1F0A1E511D601B710B8009CE
:1049F000B50B48F4600F711F801DB51F0E1B1F0BF8
:104A00000A0A510907C02E0F3F1F4A1F0E0F1F1F12
:104A10000A1E511D660F771F881FBB1FA695F795AD
:104A2000E795F8F60617170708065B07211D311DE5
:104A3000411D0F911F91B901842F9158880F9695B0
:104A4000879508959B01AC014CCF9F3F49F0915051
:104A500028F4869577956795B7959F5F80389F4F27
:104A6000880F9695879597F9089591505040660F55
:104A7000771F881FD2F70895629FD001739FF001BE
:104A8000829FE00DF11D649FE00DF11D929FF00DDE
:104A9000839FF00D749FF00D659FF00D9927729F15
:104AA000B00DE11DF91F639FB00DE11DF91FBD01A0
:104AB000CF0111240895A1E21A2EAA1BBB1BFD01F0
:104AC0000DC0AA1FBB1FEE1FFF1FA217B307E407ED
:104AD000F50720F0A21BB30BE40BF50B661F771F45
:104AE000881F991F1A9469F7609570958095909525
:104AF0009B01AC01BD01CF010895EE0FFF1F059092
:0A4B0000F491E02D0994F894FFCF22
:104B0A004649464F206F766572666C6F7721004D75
:104B1A0050553630353020636F6E6E656374696F39
:104B2A006E206661696C6564004D505536303530CB
:104B3A0020636F6E6E656374696F6E20737563634D
:104B4A0065737366756C00496E697469616C697A1C
:104B5A00696E6720444D502E2E2E00456E61626CA0
:104B6A00696E6720444D502E2E2E00456E61626C90
:104B7A00696E6720696E74657272757074206465F7
:104B8A0074656374696F6E2E2E2E0057616974699D
:104B9A006E6720666F7220666972737420696E741C
:104BAA006572727570742E2E2E00444D5020696EF7
:104BBA00697469616C697A6174696F6E206661698A
:104BCA006C65642028636F646520002900E803800F
:104BDA0000AA03000000000000EB1ABA1A731A7C3C
:104BEA001A911AA21A00000000AD1E3F1F631E7F11
:064BFA001E6F1E9D1E004F
:00000001FF
