:100000000C94C1040C9431290C945E290C94711C3D
:100010000C94D51C0C94391D0C94E9040C94E9043F
:100020000C94E9040C94E9040C94E9040C94112058
:100030000C94E9040C94E9040C94E9040C94E9048C
:100040000C949D290C94E9040C9433260C947A2684
:100050000C94E9040C94E9040C94E9040C94E9046C
:100060000C9488210C94E904084AD73B3BCE016EDE
:1000700084BCBFFDC12F3D6C74319ABD56833DDAFF
:100080003D00C77F11BED9E4BB4C3E916BAAAABE0E
:10009000000000803FFB00003E000B003600010026
:1000A000020003000000650054FFEF0000FA80002A
:1000B0000B1282000100020000000000000000009E
:1000C000000000000000280000FFFF4581FFFFFA4C
:1000D0007200000000000003E80000000100017F42
:1000E000FFFFFE8001001B00000000000000000078
:1000F0000000000000003E03304000000002CAE3A0
:10010000093E8000002000000000000000400000C8
:10011000006000000041FF000000000B2A000016F4
:100120005500002182FD872650FD800000001F0041
:100130000000058000000000000001000000020037
:100140000000030000400000000000046F00026592
:100150003200005EC040000000000000000000000F
:100160000000000000FB8C6F5DFD5D08D9007C7312
:100170003B006C12CC3200139D3200D0D632000806
:1001800000400001F4FFE68079020000000000D08A
:10019000D600002710FB0000004000000000000017
:1001A000000000000000000001000000000000014D
:1001B00000010000000000FA36FFBC308E0005FB95
:1001C000F0FFD95BC8FFD09ABE000010A9FFF41E53
:1001D000B200CEBBF70000000100000004000200E6
:1001E000020200000CFFC280000001800000CF80EE
:1001F00000400000000000000100000000000006B8
:1002000000000000140000000000000000000000DA
:1002100000000000000000000000000000000000DE
:1002200000000000000000000000000000000000CE
:10023000000000000000000000033F68B679352888
:10024000BCC67ED16C80000000400000000000B2FF
:100250006A00000000000000000000000000003FF5
:10026000F00000003000000000000000000000006E
:10027000000000000000000000000000000000007E
:1002800000000000000000254D002F706D000005EB
:10029000AE000C02D00000000000650054FFEF002B
:1002A0000000000000000001000044000000000CFD
:1002B0000000000100000000000065000000540084
:1002C00000FFEF0000000000000000000000000040
:1002D00000000000004000000000000000000000DE
:1002E00000000000004000000000000000000000CE
:1002F00000000000000000000100000002000000FB
:1003000000000000000000000000000000000000ED
:1003100000000000000000000000000000000000DD
:100320000000000000001B000000000000000000B2
:1003300000000000000000000000000000000000BD
:1003400000000000000000000000000000000000AD
:100350000040000000001B00000000000000000042
:10036000000000000000000000000000000000008D
:10037000000000000000000000000000000000007D
:10038000000000000000000000000000000000006D
:100390000000000000D8DCBAA2F1DEB2B8B4A88137
:1003A00091F74A907F916AF3F9DBA8F9B0BAA0807F
:1003B000F2CE81F3C2F1C1F2C3F3CCA2B280F1C696
:1003C000D880BAA7DFDFDFF2A7C3CBC5B6F087A21C
:1003D000942448703C95406834589B78A2F18392ED
:1003E0002D557DD8B1B4B8A1D09180F270F370F2E0
:1003F0007C80A8F101B09887D943D886C988BAA172
:10040000F20EB89780F1A9DFDFDFAADFDFDFF2AA03
:10041000C5CDC7A90CC92C97979797F1A9892646EE
:1004200066B0B4BA80ACDEF2CAF1B28C02A9B6985A
:1004300000890E161EB8A9B4992C547CB08AA896CF
:10044000365676F1B9AFB4B083C0B8A89711B18F62
:1004500098B9AFF0240844106418F1A329557DAF72
:1004600083B593AFF0002850F1A3869F61A6DADE32
:10047000DFD9FAA38696DB31A6D9F8DFBAA68FC2F8
:10048000C5C7B28CC1B8A2DFDFDFA3DFDFDFD8D8FA
:10049000F1B8A8B286B4980D355DB8AA98B0872D8A
:1004A000353DB2B6BAAF8C96198F9FA70E161EB403
:1004B0009AB8AA872C547CB9A3DEDFDFA3B180F2FF
:1004C000C4CDC9F1B8A9B499830D355D89B9A32DFF
:1004D000557DB593A30E161EA92C547CB8B4B0F16B
:1004E0009783A81184A50998A383F0DA24084410FF
:1004F0006418D8F1A529557DA58595021A2E3A567E
:100500005A4048F9F3A3D9F8F098832408441064BA
:10051000189782A8F111F098A2240844106418DA00
:10052000F3DED883A59401D9A302F1A2C3C5C7D82D
:10053000F18492A24DDA2AD84869D92AD86855DAC6
:1005400032D85071D932D8705DDA3AD85879D93A60
:10055000D87893A34DDA2AD84869D92AD86855DAC9
:1005600032D85071D932D8705DDA3AD85879D93A40
:10057000D878A88A9AF02850789EF38818F19F1DA1
:1005800098A8D908D8C89F129EF315A8DA1210D8D7
:10059000F1AFC8978734B5B994A421F3D922D8F222
:1005A0002DF3D92AD8F235F3D932D881A46060610D
:1005B000D961D86C6869D969D8747071D971D8B1AA
:1005C000A384193D5DA3831A3E5E93103081101100
:1005D000B8B0AF8F94F2DA3ED8B49AA88729DAF887
:1005E000D8879A35DAF8D8879A3DDAF8D8B1B9A41D
:1005F0009885022E56A581000C14A397B08AF12D80
:10060000D928D84DD948D86DD968D8B1840DDA0E1B
:10061000D8A32983DA2C0ED8A3844983DA2C4C0E74
:10062000D8B8B0A88A9AF520AADADFD8A840AAD00C
:10063000DADED8A860AADAD0DFD8F19786A8319B95
:10064000069907AB9728889BF00C201440B8B0B4EB
:10065000A88C9CF0042851791D301438B282ABD09C
:10066000982C505078789BF11AB0F08A9CA82951A8
:10067000798B2951798A2470598B2058718A446961
:10068000388B3940688A6448318B304960A58820AE
:100690000971584468113964493019F1AC002C547F
:1006A0007CF08CA804285078F1889726A85998AC3B
:1006B0008C02264666F0899CA829517924705944F9
:1006C0006938644831A98809205970AB11384069EC
:1006D000A8193148608CA83C415C207C00F18798C7
:1006E0001986A86E767EA999882D557D9EB9A38A14
:1006F000228A6E8A568A5E9FB183062646660E2E31
:100700004E6E9DB8AD002C547CF2B18CB499B9A357
:100710002D557D8191AC38AD3AB58391AC2DD9285A
:10072000D84DD948D86DD968D88C9DAE29D904AE9A
:10073000D851D904AED879D904D881F39DAD008DB4
:10074000AE1981ADD901D8F2AEDA26D88E912983BF
:10075000A7D9ADADADADF32AD8D8F1B0AC89913EF3
:100760005E76F3AC2E2EF1B18C5A9CAC2C28282846
:100770009CAC3018A8988128343C9724A728343C96
:100780009C24F2B089AC912C4C6C8A9B2DD9D8D882
:1007900051D9D8D879D9D8D8F19E88A331DAD8D808
:1007A000912DD928D84DD948D86DD968D8B183931F
:1007B000353D8025DAD8D88569DAD8D8B49381A3B5
:1007C00028343CF3AB8BF8A391B609B4D9ABDEFA6D
:1007D000B0879CB9A3DDF1A3A3A3A395F1A3A3A321
:1007E0009DF1A3A3A3A3F2A3B49080F2A3A3A3A318
:1007F000A3A3A3A3A3A3B2A3A3A3A3A3A3B087B5B7
:1008000099F1A3A3A398F1A3A3A3A397A3A3A3A33D
:10081000F39BA3A3DCB9A7F1262626D8D8FF037B38
:10082000034CCD6C03AB0336567600680402CB470D
:10083000A202180400058BC1010C04000000000393
:100840007F060CC92C979797038903264666006C90
:1008500002200002400400000000024404000000E6
:100860000002480400000000024C040000000002E6
:10087000500400000000025404000000000258046C
:1008800000000000025C040000000002BC04000044
:10089000000001EC0400004000037F060CC92C9707
:1008A00097970402030D355D040904872D353D003B
:1008B000A3010000000001078601FE074105F120A9
:1008C000283038077E01300746019A074704F1288F
:1008D0003038076C04F1283038021602000101B2EA
:1008E00002FFFF0190040923A135016A02060001FD
:1008F00060080000000000000000006004400000EC
:1009000000016202000000600400400000000102DB
:1009100003040506070001020304050001020304A5
:100920000500000000240027002A00000000002528
:100930000028002B000000000023002600290004EE
:100940000404040404040402020202020203030376
:100950000303030102040810204080010204081070
:10096000200102040810200000000700020100001E
:1009700003040600000000000000000001057123D0
:10098000B72711241FBECFEFD8E0DEBFCDBF11E0E7
:10099000A0E0B1E0E6E3FEE502C005900D92A63FBF
:1009A000B107D9F714E0A6EFB1E001C01D92A53B55
:1009B000B107E1F719E0C2E8D9E004C02297FE01CF
:1009C0000E94152FCC37D107C9F70E948B290C94B0
:1009D000192F0C940000FB01DC0104C08D910190E3
:1009E000801921F441505040C8F7881B990B089595
:1009F000FB01DC0102C001900D9241505040D8F73C
:100A000008954F925F926F927F928F929F92AF92D2
:100A1000BF92CF92DF92EF92FF920F931F9386EFD8
:100A200091E00E94D3088DEF91E00E94D30884E00A
:100A300092E00E94D3088BE092E00E94D30800D09D
:100A400000D000D080E090E0A0E0B0E0EDB7FEB7CD
:100A500081839283A383B4831682158286E392E016
:100A600062E172E046E152E02AE132E00F2EFDEC55
:100A7000EF2EFCECFF2EFCEC0F2FFDE31F2FF02DD3
:100A8000570168010E94881A0F2EFBE76F2EF4E1D0
:100A90007F2EFEEA8F2EFDE39F2EF02DEDB7FEB7E1
:100AA000618272828382948281E0482E512C568228
:100AB00045828FE692E06EE172E042E252E026E289
:100AC00032E00F2EFDECEF2EFCECFF2EFCE40F2F9E
:100AD000FEE31F2FF02D0E94881AEDB7FEB761824A
:100AE0007282838294825682458288EA92E06AE228
:100AF00072E04EE252E022E332E00E94881A8DB7A3
:100B00009EB706960FB6F8949EBF0FBE8DBF1F917D
:100B10000F91FF90EF90DF90CF90BF90AF909F909C
:100B20008F907F906F905F904F900895CF92DF925B
:100B3000EF92FF920F931F93DF93CF93CDB7DEB762
:100B40006C970FB6F894DEBF0FBECDBF82E094E085
:100B500040E052EC61E070E00E94AA260E94591722
:100B600064E97FEF48E854E020EF38E00CE110E062
:100B7000F4EEEF2EFFEFFF2EE8E0CE2ED12C0E94F8
:100B80004A160E948E1E0E94691E8E010F5F1F4F23
:100B9000C80169E070E00E94E408A6EFB1E0F80146
:100BA00087E001900D928150E1F78E01085F1F4FA1
:100BB000C8016AE070E00E94E408ADEFB1E0F8011E
:100BC00087E001900D928150E1F78E01015F1F4F88
:100BD000C8016BE070E00E94E408A4E0B2E0F80114
:100BE00087E001900D928150E1F78E010A5E1F4F60
:100BF000C8016CE070E00E94E408ABE0B2E0F801EC
:100C000087E001900D928150E1F786E392E061E088
:100C100070E00E94121986E392E040E050E060E844
:100C20007FEB00E010E020E83FE30E94961886E3A7
:100C300092E062E370E00E9448188FE692E061E083
:100C400070E00E9412198FE692E040E050E060E808
:100C50007FEB00E010E020E83FE30E9496188FE66B
:100C600092E062E370E00E94481888EA92E061E056
:100C700070E00E94121988EA92E040E050E060E8DB
:100C80007FEB00E010E020E83FE30E94961888EA3E
:100C900092E062E370E00E9448186C960FB6F894F8
:100CA000DEBF0FBECDBFCF91DF911F910F91FF909F
:100CB000EF90DF90CF900895AF92BF92CF92DF92E6
:100CC000EF92FF920F931F9359016A01A8019701B8
:100CD0000E94102DA60195010E94F12C1F910F91E9
:100CE000FF90EF90DF90CF90BF90AF900895EF927C
:100CF000FF920F931F930E9459170E94CE0F8823D3
:100D000009F020C22AC20E948E1E0E94E51D0E9488
:100D10008E1E0E94E01DFC016081718182819381A1
:100D20002DEC3CEC4CEC5DE30E94C92D18160CF048
:100D3000A9C18FE692E00E946619892B61F48FE6C3
:100D400092E061E070E00E94121988EA92E061E0AE
:100D500070E00E9412190E9459170E94F00FFC01C6
:100D6000608171818281938120E030E044EB53E423
:100D70000E941B2C60931202709313028093140242
:100D8000909315020E9459170E94EB0FFC01608599
:100D900071858285938520E030E044E353EC0E9426
:100DA0001B2C7B018C010E948E1E0E94E01DFC0109
:100DB000648575858685978520E030E040E05FE3B7
:100DC0000E94502B9B01AC010E94512B2DEC3CEC5E
:100DD0004CEC5DEB0E94D42D9B01AC01C801B70126
:100DE0000E94512B60931E0270931F028093200279
:100DF000909321020E9459170E94EB0FFC0164811D
:100E000075818681978120E030E044E353EC0E94B5
:100E10001B2C7B018C010E948E1E0E94E01DFC0198
:100E2000608571858285938520E030E040E05FE356
:100E30000E94502B9B01AC010E94512B2DEC3CECED
:100E40004CEC5DEB0E94D42D9B01AC01C801B701B5
:100E50000E94512B60932A0270932B0280932C02E4
:100E600090932D0286E392E00E946A198FE692E049
:100E70000E946A1988EA92E00E946A1960912E0223
:100E800070912F02809130029091310220912202C4
:100E90003091230240912402509125020E94502B50
:100EA00020911602309117024091180250911902B8
:100EB0000E94512B7B018C010E948E1E0E94E01D1E
:100EC000FC01C801B70120813181428153810E9418
:100ED000512B20E030E040E050E00F2EF0E0EF2E0C
:100EE000F0E0FF2EF0E80F2FFFE31F2FF02D0E9400
:100EF0005C06AB01BC0186EF91E00E94B2086091F4
:100F00002202709123028091240290912502209167
:100F10002E0230912F0240913002509131020E94F6
:100F2000512B2091160230911702409118025091D6
:100F300019020E94502B7B018C010E948E1E0E9480
:100F4000E01DFC01C801B70120813181428153813C
:100F50000E94512B20E030E040E050E00F2EF0E006
:100F6000EF2EF0E0FF2EF0E80F2FFFE31F2FF02D04
:100F70000E945C06AB01BC018DEF91E00E94B208BB
:100F800060912202709123028091240290912502A7
:100F9000905820912E0230912F02409130025091B2
:100FA00031020E94502B209116023091170240917D
:100FB0001802509119020E94502B7B018C010E9453
:100FC0008E1E0E94E01DFC01C801B7012081318105
:100FD000428153810E94512B20E030E040E050E0FC
:100FE0000F2EF0E0EF2EF0E0FF2EF0E80F2FFFE3E2
:100FF0001F2FF02D0E945C06AB01BC0184E092E043
:101000000E94B20860912202709123028091240212
:101010009091250220912E0230912F0240913002B2
:10102000509131020E94502B2091160230911702EC
:1010300040911802509119020E94512B7B018C01A2
:101040000E948E1E0E94E01DFC01C801B701208194
:101050003181428153810E94512B20E030E040E0F9
:1010600050E00F2EF0E0EF2EF0E0FF2EF0E80F2F13
:10107000FFE31F2FF02D0E945C06AB01BC018BE04B
:1010800092E05EC08FE692E00E946619019771F5CA
:1010900086E392E060E070E00E9412198FE692E031
:1010A00060E070E00E94121988EA92E060E070E06F
:1010B0000E94121980E090E0A0E0B0E08093160258
:1010C00090931702A0931802B09319028093220202
:1010D00090932302A0932402B093250280932E02C2
:1010E00090932F02A0933002B093310286E392E0F6
:1010F0000E946A198FE692E00E946A1988EA92E0DB
:101100000E946A1986EF91E040E050E060E070E0F4
:101110000E94B2088DEF91E040E050E060E070E0A6
:101120000E94B20884E092E040E050E060E070E0AD
:101130000E94B2088BE092E040E050E060E070E096
:101140000E94B2080E9459170E94D30F882309F405
:10115000DACD0E9459170E94F50F1F910F91FF9051
:10116000EF9008950F931F938C01FC0143835483E8
:1011700065837683CB01BA0120E030E04AE754E48E
:101180000E94D42D20E030E04AE754E40E94512B25
:101190000E94832C9B01AC01C801B9010E944F1F22
:1011A0001F910F9108950F931F938C010E94351F7B
:1011B00080E090E0A0E0B0E0F80183839483A58311
:1011C000B6831F910F910895EF92FF920F931F9393
:1011D0008C017B010E94351F80E090E0A0E0B0E030
:1011E000F80183839483A583B683C801B7010E9465
:1011F0000A201F910F91FF90EF900895CF92DF92F8
:10120000FF920F931F93CF93DF93582F162F042F26
:10121000690186EF93E0652F0E94372386EF93E004
:10122000612F0E94B923C02FD0E0CC0FDD1FFF2417
:1012300012C0000F111F0C0D1D1DF801618186EFFA
:1012400093E00E94B92386EF93E0F80160810E9449
:10125000B923F2E0FF0E0F2D10E00C171D074CF321
:1012600086EF93E00E94FC2390E0882309F491E04C
:10127000892FDF91CF911F910F91FF90DF90CF9039
:101280000895DF93CF9300D0CDB7DEB75A8349835B
:1012900041E09E012F5F3F4F0E94FE080F900F908C
:1012A000CF91DF910895EF92FF920F931F93CF9309
:1012B000DF93582F162FE42E022FF32E86EF93E0A4
:1012C000652F0E94372386EF93E0612F0E94B92398
:1012D000202F3F2DC901EC0110E006C086EF93E0FE
:1012E00069910E94B9231F5F1E15C0F386EF93E03A
:1012F0000E94FC2390E0882309F491E0892FDF917C
:10130000CF911F910F91FF90EF900895DF93CF93AE
:101310000F92CDB7DEB7498341E09E012F5F3F4F6B
:101320000E9453090F90CF91DF9108952F923F9221
:101330004F925F926F927F928F929F92AF92BF92E5
:10134000CF92DF92EF92FF920F931F93DF93CF9391
:1013500000D000D00F92CDB7DEB7882E6983942ECF
:101360003B832A830E94E5295B016C01FF24EE2464
:10137000292C33242801662477244BC086EF93E080
:10138000682D0E94372386EF93E069810E94B9237C
:1013900086EF93E00E94FC2386EF93E0682D0E9485
:1013A0003723A1014E1951094132510514F040E291
:1013B00050E086EF93E0682D0E940D242F2D3327F7
:1013C00027FD30958A819B81280F391F3D832C830F
:1013D00086EF93E00E944123892B09F452C0011546
:1013E000110561F00E94E5296A197B098C099D09A4
:1013F000641575058605970508F043C086EF93E0F0
:101400000E944A23EC81FD818193FD83EC83F39458
:10141000DFCFE91408F4B2CF01151105C9F00E941D
:10142000E5296A197B098C099D09980140E050E083
:10143000621773078407950758F02F2D332727FD70
:101440003095892D90E02817390714F4FF24FA9479
:101450008F2D0F900F900F900F900F90CF91DF91E5
:101460001F910F91FF90EF90DF90CF90BF90AF90C2
:101470009F908F907F906F905F904F903F902F90B4
:101480000895892DF0E2F91508F480E2E80EC1CF45
:101490000F931F93FA01890141E09F010E94960971
:1014A0001F910F910895DF92EF92FF920F931F9378
:1014B000DF93CF930F92CDB7DEB7E82ED62EF42E62
:1014C000122F2091CD013091CE01AE014F5F5F4FC1
:1014D0000E94480A882341F1212F30E04F2D50E02F
:1014E0004F5F5F4F421B530B81E090E002C0880FBB
:1014F000991F1A95E2F70197042E02C0880F991FD1
:101500000A94E2F7202F30E002C0220F331F4A95E1
:10151000E2F7482F4095598145238223482B498380
:101520008E2D6D2D0E9486090F90CF91DF911F9116
:101530000F91FF90EF90DF900895EF92FF920F933D
:101540001F93DF93CF930F92CDB7DEB7F82EE62E21
:10155000042F122F2091CD013091CE01AE014F5FAB
:101560005F4F0E94480A2981112351F081E090E0E9
:1015700002C0880F991F0A95E2F7422F482B0AC034
:1015800081E090E002C0880F991F0A95E2F7482F8A
:101590004095422349838F2D6E2D0E9486090F901E
:1015A000CF91DF911F910F91FF90EF900895CF920F
:1015B000DF92EF92FF920F931F93DF93CF930F92DF
:1015C000CDB7DEB7C42ED22E9701AE014F5F5F4F6D
:1015D0000E94480A682F882309F18D2D90E04C2D38
:1015E00050E04F5F5F4F481B590B21E030E002C0D5
:1015F000220F331FDA94E2F721503040042E02C04C
:10160000220F331F0A94E2F78981822390E002C0FF
:10161000959587954A95E2F7F8018083862F0F907C
:10162000CF91DF911F910F91FF90EF90DF90CF90BE
:101630000895DF92EF92FF920F931F93DF93CF9362
:101640000F92CDB7DEB7D42E79019801AE014F5F6E
:101650005F4F0E94480A21E030E002C0220F331F92
:10166000DA94E2F799819223F70190830F90CF915A
:10167000DF911F910F91FF90EF90DF900895FC0193
:1016800088E680830895FC01462F808161E70E94EF
:1016900086090895FC01462F808160E70E94860933
:1016A0000895FC01462F80816EE60E948609089508
:1016B000FC01962F9F7121119062411190648081ED
:1016C0006DE6492F0E9486090895FC01462F80810E
:1016D00068E30E9486090895FC01862F643040F477
:1016E00063E0869FB00111246B5D80810E948609B2
:1016F0000895FC01462F808162E20E9486090895C8
:10170000FC01462F808161E20E9486090895FC0158
:10171000462F808160E20E9486090895FC01462FD1
:1017200080816FE10E9486090895FC01462F808127
:1017300069E10E94860908950F931F938C01AC0103
:101740004F5F5F4F2091CD013091CE01FC01808130
:101750006FE60E94480AF80181811F910F91089558
:101760000F931F938C01AC014F5F5F4F2091CD0110
:101770003091CE01FC0180816AE30E94480AF801A1
:1017800081811F910F9108954F925F926F927F9286
:101790009F92AF92BF92CF92DF92EF92FF920F9300
:1017A0001F93CF93DF936C013B015A01922EE02EE1
:1017B000622F40E020E00E94580BC601602F0E947B
:1017C000510BC0E0D0E0412C91E0592E34C0CE0145
:1017D0004096A816B90618F080E1F82E02C0FA2C3F
:1017E000FC1A2F2D30E0C2018E1991098217930740
:1017F00014F4FE2CF19493012C0F3D1F0091CD01A8
:101800001091CE01F60180816FE64F2D0E9496095E
:10181000CF0DD11DEF0CCA15DB0568F4EE2009F4DD
:101820009394C601692D40E020E00E94580BC60148
:101830006E2D0E94510BCA15DB0548F2DF91CF9146
:101840001F910F91FF90EF90DF90CF90BF90AF90DE
:101850009F907F906F905F904F9008950F931F938C
:10186000FC019B010091CD011091CE01808164E7C4
:101870000E9496091F910F910895EF92FF920F9386
:101880001F937C019C012F5F3F4F0091CD01109170
:10189000CE01FC01808162E742E00E949609F701D7
:1018A000918180E0228130E0282B392BC9011F91E2
:1018B0000F91FF90EF900895EF92FF920F931F9377
:1018C0007C019C012F5F3F4F0091CD011091CE0113
:1018D000FC01808167E442E00E949609F701918152
:1018E00080E0228130E0282B392BC9011F910F9114
:1018F000FF90EF900895EF92FF920F931F937C015A
:101900009C012F5F3F4F0091CD011091CE01FC0152
:10191000808165E442E00E949609F701918180E0B0
:10192000228130E0282B392BC9011F910F91FF90A4
:10193000EF900895EF92FF920F931F937C019C010B
:101940002F5F3F4F0091CD011091CE01FC018081AE
:1019500063E442E00E949609F701918180E02281D0
:1019600030E0282B392BC9011F910F91FF90EF9088
:1019700008953F924F925F926F927F928F929F92C3
:10198000AF92BF92CF92DF92EF92FF920F931F938D
:10199000DF93CF9300D000D0CDB7DEB75C017A8360
:1019A00069832A01622E702E3E2CEC2C622F40E0BF
:1019B00020E00E94580BC501602F0E94510B33207C
:1019C00029F080E190E00E941C244C01EE2029F0D7
:1019D00080E190E00E941C246C011C821B827BC071
:1019E0008B819C8140964816590618F0E0E1FE2E46
:1019F00003C0F42C8B81F81A2F2D30E080E091E0A9
:101A0000871991098217930714F4F72CF194E9814F
:101A1000FA81AB81BC81EA0FFB1FEE2089F0AF0198
:101A200020E030E00AC0FA018491F601E20FF31FD2
:101A300080832F5F3F4F4F5F5F4F2F15A0F301C093
:101A40006F01D5018C916FE64F2D96010E945309CD
:101A5000332051F18114910439F1C501662D40E024
:101A600020E00E94580BC501672D0E94510B009188
:101A7000CD011091CE01F50180816FE64F2D9401CB
:101A80000E949609C601B4014F2D50E00E94EB045C
:101A9000009751F0C4010E94B924EE2019F0C6014C
:101AA0000E94B92480E028C08B819C818F0D911DFC
:101AB0009C838B837F0C8415950568F4772009F44B
:101AC0006394C501662D40E020E00E94580BC501DB
:101AD000672D0E94510BAB81BC81A415B50508F49C
:101AE0007FCF332019F0C4010E94B924EE2019F0F1
:101AF000C6010E94B92481E00F900F900F900F90C3
:101B0000CF91DF911F910F91FF90EF90DF90CF90D9
:101B1000BF90AF909F908F907F906F905F904F900D
:101B20003F9008952F923F924F925F926F927F92D3
:101B30008F929F92AF92BF92CF92EF92FF920F93AC
:101B40001F93CF93DF932C014B011A01F22E222316
:101B500009F47CC088E090E00E941C245C0176C0FF
:101B6000AE014F5F5F4FF401EC0FFD1FFF2091F0BE
:101B70008491BA016F5F7F4F480D591DFA0194910E
:101B8000EB012196680D791DFB016491E82E092F68
:101B9000162F0DC0E080F401E40FF51F0081CA018B
:101BA0000196F401E80FF91F1081EC012196112331
:101BB00089F1FF20F1F0133030F0C501612F70E0A2
:101BC0000E9451255C01A4014C0F5D1F20E030E014
:101BD000612F70E00AC0FA018491F501E20FF31F52
:101BE00080832F5F3F4F4F5F5F4F2617370798F374
:101BF00003C05401AC0EBD1E612E7724C201B50195
:101C0000A3012E2DEE24E394CC240E94B90C88234A
:101C100001F515C0F401EC0FFD1FCE010196FF2068
:101C200019F0EC01249102C02081EC01213039F43B
:101C3000F201808168E342E30E9486090CC0FF2024
:101C400019F0C5010E94B92480E00FC0C0E0D0E0C7
:101C500002C0C60DD71DC215D30508F481CFFF20E1
:101C600019F0C5010E94B92481E0DF91CF911F9145
:101C70000F91FF90EF90CF90BF90AF909F908F907B
:101C80007F906F905F904F903F902F90089521E04C
:101C90000E94920D0895CF92EF920F93CC24C3949B
:101CA0000E94B90C0F91EF90CF900895FC018081B4
:101CB0006AE643E021E00E949D0A0895FC01262F78
:101CC00080816AE647E00E949D0A0895FC01262F64
:101CD000808160E040E00E949D0A0895FC01262F6B
:101CE00080816BE646E00E949D0A0895FC01808198
:101CF0006BE647E021E00E949D0A0895FC01808187
:101D00006AE641E021E00E949D0A0895FC0180817D
:101D10006AE642E021E00E949D0A0895FC01262F18
:101D200080816AE645E00E949D0A0895FC01262F05
:101D300080816AE646E00E949D0A0895EF92FF9234
:101D40000F931F937C019C012F5F3F4F0091CD01AA
:101D50001091CE01FC01808160E040E00E94190BEF
:101D6000F70181811F910F91FF90EF900895FC0181
:101D7000AB01808167E10E9441090895FC01AB013C
:101D8000808165E10E9441090895FC01AB018081D9
:101D900063E10E9441090895FC01AB0180816AE082
:101DA0000E9441090895FC01AB01808168E00E9416
:101DB00041090895FC01AB01808166E00E94410960
:101DC00008950F93FC01062F808162E046E026E033
:101DD0000E94530A0F9108950F93FC01062F8081F2
:101DE00061E046E026E00E94530A0F9108950F93A8
:101DF000FC01062F808160E046E026E00E94530A45
:101E00000F9108950F93FC01062F80816BE642E04D
:101E100023E00E94530A0F9108950F93FC01062FAF
:101E200080816CE144E022E00E94530A0F91089502
:101E30000F93FC01062F80816BE144E022E00E94B9
:101E4000530A0F9108950F931F938C0161E00E9434
:101E5000020FC80160E00E94180FC80160E00E94F4
:101E60000D0FC80160E00E946E0E1F910F91089542
:101E70000F93FC01062F80816AE142E023E00E947B
:101E8000530A0F9108950F93FC01062F80816AE198
:101E900045E023E00E94530A0F910895CF92DF920C
:101EA000EF92FF920F931F936C018C010F5F1F4FF6
:101EB000E090CD01F090CE01FC01808162E046E02F
:101EC00026E00E94D70AF60181811F910F91FF90B1
:101ED000EF90DF90CF900895CF92DF92EF92FF9234
:101EE0000F931F936C018C010F5F1F4FE090CD018A
:101EF000F090CE01FC01808161E046E026E00E9486
:101F0000D70AF60181811F910F91FF90EF90DF902A
:101F1000CF900895CF92DF92EF92FF920F931F938D
:101F20006C018C010F5F1F4FE090CD01F090CE014E
:101F3000FC01808160E046E026E00E94D70AF601BD
:101F400081811F910F91FF90EF90DF90CF900895C6
:101F5000CF92DF92EF92FF920F931F936C018C014F
:101F60000F5F1F4FE090CD01F090CE01FC0180810A
:101F700065E746E026E00E94D70AF60181811F91BD
:101F80000F91FF90EF90DF90CF9008950E94A80FDF
:101F900090E0843309F491E0892F0895FC01E7561D
:101FA000FF4F80810895DC01A656BF4F8C91AA593E
:101FB000B040882369F440E0FD01EF59FF4FAD596F
:101FC000BF4F2D913C91808191812817390708F0EE
:101FD00041E0842F08959C0123573F4FC901089584
:101FE0009C012B593F4FC90108952F923F924F9268
:101FF0005F926F927F928F929F92AF92BF92CF9299
:10200000DF92EF92FF920F931F93DF93CF93CDB7A1
:10201000DEB764970FB6F894DEBF0FBECDBF86560D
:102020009F4FDC011C92AA59B040BC8BAB8BBB8884
:10203000AC888B2D9A2D0E94B00BEB89FC89808B8C
:102040008B899C890E943D0C9C010B891C890D5930
:102050001F4FD8018D939C93EB89FC89808984FD67
:1020600003C02050344059F48B2D9A2D0E94860EC7
:1020700082E094E060E071E00E94FB28A2C381FD51
:1020800009C09FC38B2D9A2D0E943D0CD7018D93C3
:102090009C9308C0E1E6CE2ED12CEB89FC89CE0EB4
:1020A000DF1E7801D6014D915C91F701808191810D
:1020B0008417950738F32B893C892F5E3F4F3C8B63
:1020C0002B8B8B2D9A2DB9010E942E0CD8018D914E
:1020D0009C911197F60120813181821B930B8D9386
:1020E0009C938B2D9A2D0E945C0C2B893C892C5A39
:1020F0003F4F3C8B2B8BAA2797FDA095BA2FBC0195
:10210000CD010E94B62C20E03EEF4FEF56E40E9436
:102110001B2C20E030E04AEF54E40E94D42DAB8920
:10212000BC896D937D938D939D93BC8BAB8B8B2DD5
:102130009A2D0E949A0CAA2797FDA095BA2FBC0150
:10214000CD010E94B62C20E03EEF4FEF56E40E94F6
:102150001B2C20E030E04AEF54E40E94D42DEB89A0
:10216000FC896193719381939193FC8BEB8B8B2D05
:102170009A2D0E947B0CAA2797FDA095BA2FBC012F
:10218000CD010E94B62C20E03EEF4FEF56E40E94B6
:102190001B2C20E030E04AEF54E40E94D42DAB89A0
:1021A000BC896D937D938D939C931397AD56B040EE
:1021B00071E7E72EF12CEA0EFB1EAF5ABF4FED91EF
:1021C000FD91708160E0ED91FC911197A355B040B5
:1021D000BC8BAB8B208130E0622B732B882777FD83
:1021E0008095982F0E94B62C20E030E040E858E31C
:1021F0000E94D42DF70160837183828393830B89BE
:102200001C890B581F4F2B893C892B5A3F4FD901F2
:10221000ED91FD91708160E0ED91FC911197A755D2
:10222000B040BC8BAB8B208130E0622B732B8827B6
:1022300077FD8095982F0E94B62C20E030E040E892
:1022400058E30E94D42DF8016083718382839383C5
:102250000B891C8907581F4F2B893C89275A3F4FF0
:10226000D901ED91FD91708160E0ED91FC911197A4
:10227000AB55B040BC8BAB8B208130E0622B732B15
:10228000882777FD8095982F0E94B62C20E030E0BB
:1022900040E858E30E94D42DF80160837183828363
:1022A00093830B891C8903581F4F2B893C89235A20
:1022B0003F4FD901ED91FD91708160E0ED91FC916E
:1022C0001197AF55B040BC8BAB8B208130E0622BB7
:1022D000732B882777FD8095982F0E94B62C20E0DD
:1022E00030E040E858E30E94D42DF8016083718308
:1022F000828393836701AA24BB24D601ED90FD90CD
:102300000D911C91C801B70120E030E040E050E49D
:102310000E94C92D88236CF0C801B70120E030E08D
:1023200040E850E40E94502BF60160837183828361
:1023300093830894A11CB11C24E030E0C20ED31E8C
:1023400034E0A316B104C9F68B899C898F579F4F3F
:102350009E838D8365E7662E712CAB89BC896A0EDE
:102360007B1EA358BF4FB887AF83F3016081718193
:10237000828193812D913D914D915C910E94D42D4C
:102380007B018C0151E7C52ED12C2B893C89C20ED3
:10239000D31E49E7842E912C820E931ED6016D9197
:1023A0007D918D919C91F4012081318142815381F5
:1023B0000E94D42D9B01AC01C801B7010E94502B93
:1023C0009B01AC010E94512BAD81BE816D937D9329
:1023D0008D939C931397EB89FC89EB57FF4FFA87FA
:1023E000E987D6016D917D918D919C91F3012081BA
:1023F0003181428153810E94D42D7B018C01D40113
:102400006D917D918D919C91EF81F8852081318135
:10241000428153810E94D42D9B01AC01C801B701B8
:102420000E94512B9B01AC010E94512BA985BA85BA
:102430006D937D938D939C931397F601A080B1804B
:10244000C280D380D3012D903D904D905C90F401DB
:102450006080718082809380AF81B8858D919D91DD
:102460000D90BC91A02D89839A83AB83BC83EB89AB
:10247000FC89E757FF4FFC8BEB8BC601B501A6012A
:1024800095010E94D42D7B018C01C201B101A201F2
:1024900091010E94D42D9B01AC01C801B7010E949B
:1024A000502B7B018C01C401B301A40193010E9454
:1024B000D42D9B01AC01C801B7010E94502B7B01B8
:1024C0008C0169817A818B819C819B01AC010E9486
:1024D000D42D9B01AC01C801B7010E94512B6B8721
:1024E0007C878D879E87AB89BC896D937D938D9307
:1024F0009D93BC8BAB8BC201B101A20191010E94E3
:10250000512B6F87788B898B9A8BA40193010E9442
:10251000D42D7B018C01C601B50120E030E040E004
:1025200050EC0E94D42D29813A814B815C810E941C
:10253000D42D9B01AC01C801B7010E94512B3B0176
:102540004C01C601B501A60195010E94512BA601BF
:1025500095010E94D42D7B018C016F857889898932
:102560009A89A20191010E94D42D9B01AC01C8015E
:10257000B7010E94512B20E030E040E85FE30E9469
:10258000502B9B01AC01C401B3010E94C42B20E07D
:1025900030E044E353E40E94D42D2BED3FE049E4C6
:1025A00050E40E941B2CEB89FC8960837183828339
:1025B0009383ED58F040FC8BEB8BAD81BE81AD90E9
:1025C000BD90CD90DC90C601B501A60195010E9499
:1025D000D42D7B018C016B857C858D859E859B012F
:1025E000AC010E94D42D3B014C01C801B701A401EC
:1025F00093010E94512B0E943B2E9B01AC01E98567
:10260000FA8560817181828193810E941B2C0E94D6
:10261000EF2B21E9422E512C2B893C89420E531E6F
:1026200020E030E044E353E40E94D42D2BED3FE062
:1026300049E450E40E941B2CD2016D937D938D934D
:102640009C931397E985FA852081318142815381DA
:10265000CA01B9010E94D42DA40193010E94512BFB
:102660000E943B2E9B01AC01C601B5010E941B2CB0
:102670000E94EF2B2B893C892B563F4F3C8B2B8B99
:1026800020E030E044E353E40E94D42D2BED3FE002
:1026900049E450E40E941B2CAB89BC896D937D9367
:1026A0008D939C931397A559B040BC8BAB8B6B85D6
:1026B0007C858D859E8520E030E040E050E00E94E2
:1026C000172C8823ACF5F201E080F18002811381A0
:1026D000C801B70120E030E040E050E00E94C92D81
:1026E00018167CF460E070E084E393E4A80197019D
:1026F0000E94502BD2016D937D938D939C931397E1
:1027000017C0C801B70120E030E040E050E00E946F
:10271000172C88236CF460E070E084E393ECA8014C
:1027200097010E94502BF20160837183828393830F
:10273000EB89FC89E757FF4F60817181828193812A
:1027400020E030E040E050E00E94172C8823CCF5D8
:1027500085E9C82ED12C2B893C89C20ED31ED60107
:10276000ED90FD900D911C91C801B70120E030E083
:1027700040E050E00E94C92D18162CF460E070E093
:1027800084E393E415C02B893C892F563F4FD90130
:102790006D917D918D919C9120E030E040E050E082
:1027A0000E94172C88236CF460E070E084E393ECC3
:1027B000A80197010E94502BF601608371838283E8
:1027C000938364960FB6F894DEBF0FBECDBFCF9152
:1027D000DF911F910F91FF90EF90DF90CF90BF900E
:1027E000AF909F908F907F906F905F904F903F90B1
:1027F0002F900895AF92BF92CF92EF92FF920F93D6
:102800001F93DF93CF93CDB7DEB7C059D0400FB63B
:10281000F894DEBF0FBECDBF182FF92E0E94760EA2
:102820006EE170E080E090E00E94542A812F9F2D9D
:1028300060E00E946E0E812F9F2D60E141E021E05B
:102840000E94580B812F9F2D66E00E94510B812F13
:102850009F2D0E949C0B812F9F2D60E040E020E087
:102860000E94580B812F9F2D0E949E0E812F9F2D1D
:102870000E948A0FA82E812F9F2D0E946C0FB82EC8
:10288000812F9F2D0E944E0FC82E812F9F2D60E01B
:102890004FE70E946C0B812F9F2D60E00E948E0EEF
:1028A000812F9F2D60E048E60E946C0B812F9F2DA9
:1028B0000E947E0E64E170E080E090E00E94542A65
:1028C000812F9F2D65E970E049E857E020E000E0A6
:1028D000EE24E3940E944B0E882311F481E0C9C1D9
:1028E000812F9F2D6EE178E040EC50E00E94470E72
:1028F000882311F482E0BDC1812F9F2D63E00E94E7
:10290000020F812F9F2D62E10E94650B812F9F2D69
:1029100064E00E94950B812F9F2D61E00E94430F80
:10292000812F9F2D63E00E94380F812F9F2D63E040
:102930000E94180F812F9F2D63E00E944A0B812F68
:102940009F2D60E00E94430B812F9F2D60E00E942D
:10295000660E812F9F2D6A2D0E94F70E812F9F2DCD
:102960006B2D0E94EC0E812F9F2D6C2D0E94E10E8D
:10297000AA24BB24BE016F5F7F4FF501E252F74FDF
:10298000E491DB01AA0DB11DEC932A2D2F5F089471
:10299000A11CB11C83E08A1580F74B81842F90E045
:1029A000029630E08217930744F7812F9F2DBE01D6
:1029B0006C5F7F4F50E029810A81EE24E394CC24A0
:1029C0000E94B90C50E0BE016F5F7F4FF501E252EB
:1029D000F74FE491DB01A50FB11DEC935F5F089405
:1029E000A11CB11C543090F34B81842F90E00296CF
:1029F000252F30E0821793074CF7812F9F2DBE01C2
:102A00006C5F7F4F50E029810A81EE24E394CC244F
:102A10000E94B90C812F9F2D0E94860E812F9F2D21
:102A20000E943D0C482F812F9F2DBE016F5E7F4F6E
:102A30000E942E0C812F9F2D62E00E948E0B812F11
:102A40009F2D6CE90E94800B812F9F2D60E50E94D5
:102A5000870B812F9F2D60E00E94790B812F9F2D86
:102A60000E94860E812F9F2D61E00E94960E812F7D
:102A70009F2D61E00E945E0E812F9F2D0E94560EB9
:102A800050E0BE016F5F7F4FF501E252F74FE491D6
:102A9000DB01A50FB11DEC935F5F0894A11CB11C75
:102AA000543090F34B81842F90E00296252F30E034
:102AB000821793074CF7812F9F2DBE016C5F7F4FCC
:102AC00050E029810A81EE24E394CC240E94B90CC1
:102AD00050E0BE016F5F7F4FF501E252F74FE49186
:102AE000DB01A50FB11DEC935F5F0894A11CB11C25
:102AF000543090F34B81842F90E00296252F30E0E4
:102B0000821793074CF7812F9F2DBE016C5F7F4F7B
:102B100050E029810A81EE24E394CC240E94B90C70
:102B200050E0BE016F5F7F4FF501E252F74FE49135
:102B3000DB01A50FB11DEC935F5F0894A11CB11CD4
:102B4000543090F34B81842F90E00296252F30E093
:102B5000821793074CF7812F9F2DBE016C5F7F4F2B
:102B600050E029810A81EE24E394CC240E94B90C20
:102B7000812F9F2D0E943D0CAC0183309105C0F345
:102B8000812F9F2DBE016F5E7F4F0E942E0C812FE3
:102B90009F2D0E94B00B50E0BE016F5F7F4FF5018B
:102BA000E252F74FE491DB01A50FB11DEC935F5F9B
:102BB0000894A11CB11C543090F34B81842F90E0F9
:102BC0000296252F30E0821793074CF7812F9F2D17
:102BD000BE016C5F7F4F50E029810A810E94C40BC7
:102BE000812F9F2D0E943D0CAC0183309105C0F3D5
:102BF000812F9F2DBE016F5E7F4F0E942E0C812F73
:102C00009F2D0E94B00B50E0BE016F5F7F4FF5011A
:102C1000E252F74FE491DB01A50FB11DEC935F5F2A
:102C20000894A11CB11C543090F34B81842F90E088
:102C30000296252F30E0821793074CF7812F9F2DA6
:102C4000BE016C5F7F4F50E029810A81EE24E3943E
:102C5000CC240E94B90C812F9F2D60E00E945E0E53
:102C6000812F9F2D0E94860E812F9F2D0E94B00BD9
:102C700080E0C057DF4F0FB6F894DEBF0FBECDBF68
:102C8000CF91DF911F910F91FF90EF90CF90BF9068
:102C9000AF9008954F925F926F927F928F929F9222
:102CA000AF92BF92CF92DF92EF92FF920F931F935A
:102CB000CF93DF93EC015B014A013901280186EFD4
:102CC00093E00E94112488E18093B8001C2F0D2FFF
:102CD000CE010E94230FCE010E94C60F882319F453
:102CE0006FE071E002C069E271E082E094E00E946E
:102CF000FB2882E094E067E471E00E94FB28CE01AB
:102D00000E94FA138F87812F902FB5010E94DA0E4F
:102D1000812F902FB4010E94D30E812F902FB301E9
:102D20000E94CC0E812F902FB2010E94C50E812FE0
:102D3000902FB7010E94BE0E812F902FB6010E94E6
:102D4000B70E8F85882379F582E094E06BE571E01A
:102D50000E94FB28812F902F61E00E945E0E82E08E
:102D600094E06BE671E00E94FB2880E064E777E185
:102D700043E050E00E940E29812F902F0E94B00B5B
:102D8000888B82E094E06BE871E00E94FB28C756D4
:102D9000DF4F81E08883E8978AE290E09983888317
:102DA000C156D04013C082E094E06AEA71E00E940C
:102DB000F82882E094E06F854AE050E00E94E6281F
:102DC00082E094E06BEC71E00E94FB288F85DF913C
:102DD000CF911F910F91FF90EF90DF90CF90BF9018
:102DE000AF909F908F907F906F905F904F900895DD
:102DF0000F931F938C010E943F0BF8011786108AD6
:102E00000F591F4FF801119211928F0111821082F8
:102E10000A5C1F4FF80111928F0110820A5910406D
:102E2000F801EF5AFF4F0F5E1F4F118300830151CE
:102E30001040F801ED5AFF4F0E5E1F4F11830083C3
:102E400002511040F801EB5AFF4F0B5E1F4F1183E8
:102E5000008305511040F801E95AFF4F0A5E1F4FE9
:102E60001183008306511040F801E75AFF4F075EB7
:102E70001F4F1183008309511040F801E55AFF4F9D
:102E8000065E1F4F118300830A511040F801E35A78
:102E9000FF4F035E1F4F118300830D511040C80187
:102EA0004E96015A1F4FF801918380831F910F9115
:102EB00008950F931F938091E1029091E202892B74
:102EC00061F48BE990E00E949A29182F092F0E9443
:102ED000F8161093E1020093E2028091E1029091D2
:102EE000E2021F910F9108950E945917FC01E656C6
:102EF000FF4F81E0808308952F923F924F925F921F
:102F00006F927F928F929F92AF92BF92CF92DF92F9
:102F1000EF92FF920F931F93DF93CF9300D000D0D7
:102F2000CDB7DEB71C0149835A836B837C8348018C
:102F3000590126013701CB01BA0120E030E040E021
:102F400050E00E94172C87FD8CC0C501B40120E021
:102F500030E040E050E00E94172C87FD82C0C7019E
:102F6000B60120E030E040E050E00E94172C87FDE1
:102F700078C089819A81AB81BC81F1018083918382
:102F8000A283B383D10114968D929D92AD92BC928F
:102F90001797C086D186E286F38664A575A586A5B7
:102FA00097A50E94B42C20E030E04AE754E40E9448
:102FB0001B2C7B018C0189819A81AB81BC81F10141
:102FC00084879587A687B787C501B401A8019701B3
:102FD0000E94D42D5B016C01D10150966D937D93BD
:102FE0008D939C935397C301B201A80197010E944E
:102FF0001B2C7B018C01F101648B758B868B978B6D
:10300000808D918D019769F560E070E080E090E03F
:1030100029813A814B815C810E94502BD1011C9601
:103020006D937D938D939C931F9760E070E080E09B
:1030300090E0A60195010E94502BF101608B718BED
:10304000828B938B60E070E080E090E0A8019701B4
:103050000E94502BD10154966D937D938D939C9338
:1030600057970F900F900F900F90CF91DF911F9176
:103070000F91FF90EF90DF90CF90BF90AF909F9017
:103080008F907F906F905F904F903F902F9008951A
:10309000AF92BF92CF92DF92EF92FF920F931F9366
:1030A000CF93DF93EC0116161706ACF55B01CC2429
:1030B000B7FCC094DC2CC601B5010E94B62C7B0184
:1030C0008C016CA57DA58EA59FA50E94B42C9B01AB
:1030D000AC01C801B7010E941B2C7B018C016889DF
:1030E00079898A899B89A80197010E94D42D688BD0
:1030F000798B8A8B9B8B6C897D898E899F89A801AE
:1031000097010E941B2C6C8B7D8B8E8B9F8BACA6AA
:10311000BDA6CEA6DFA6DF91CF911F910F91FF90A4
:10312000EF90DF90CF90BF90AF9008954F925F9255
:103130006F927F928F929F92AF92BF92CF92DF92C7
:10314000EF92FF920F931F93CF93DF93EC013A011D
:103150004B0178018901CB01BA01A80197010E94B6
:10316000C92D87FF4EC068AA79AA8AAA9BAAECAA91
:10317000FDAA0EAB1FAB88AD882309F442C04C8C6E
:103180005D8CF201A080B180C280D380C601B50100
:10319000A80197010E94C92D181634F4F201E082AB
:1031A000F182028313830DC0C601B501A40193010E
:1031B0000E94172C88232CF4F20160827182828293
:1031C0009382ACA0BDA0CEA0DFA0ECA8FDA80EA964
:1031D0001FA9C601B501A80197010E94C92D1816A3
:1031E00064F0E8A8F9A80AA91BA9C601B501A801BD
:1031F00097010E94172C882324F4ECA2FDA20EA3B1
:103200001FA3DF91CF911F910F91FF90EF90DF905F
:10321000CF90BF90AF909F908F907F906F905F9076
:103220004F9008959F92AF92BF92CF92DF92EF920C
:10323000FF920F931F93CF93DF93EC01992461309A
:10324000710511F49924939488AD91E0892798161B
:1032500081F5EC8DFD8DE080F18002811381ECA27F
:10326000FDA20EA31FA3EA8DFB8D80819181A28117
:10327000B38188A799A7AAA7BBA7ACA8BDA8CEA8C9
:10328000DFA8C801B701A60195010E94C92D181633
:1032900064F0A8A8B9A8CAA8DBA8C801B701A6010C
:1032A00095010E94172C882324F4ACA2BDA2CEA2C3
:1032B000DFA298AEDF91CF911F910F91FF90EF9019
:1032C000DF90CF90BF90AF909F900895FC0180ADAC
:1032D00090E008952F923F924F925F926F927F926B
:1032E0008F929F92AF92BF92CF92DF92EF92FF9216
:1032F0000F931F93DF93CF9300D000D000D0CDB7B2
:10330000DEB79E838D83DC01D8968C91882309F4E7
:10331000E5C00E94E52969837A838B839C83ED81D4
:10332000FE8180A191A1A2A1B3A129813A814B8103
:103330005C81281B390B4A0B5B0B84A595A5A6A5C0
:10334000B7A5281739074A075B0708F4C7C0028CDE
:10335000F38DE02D2080318042805380AD81BE818D
:103360005E96ED91FC915F9760817181828193817E
:10337000A20191010E94502B3B014C01ED81FE8185
:1033800020893189428953890E94D42DAD81BE8123
:1033900094962D913D914D915C9197970E94512B60
:1033A0007B018C01ED81FE8164A375A386A397A3A5
:1033B000A4A8B5A8C6A8D7A8A60195010E94C92DA2
:1033C000181674F0ED81FE81A0A8B1A8C2A8D3A8F8
:1033D000C801B701A60195010E94172C882344F467
:1033E000AD81BE819496AD92BD92CD92DC929797BD
:1033F000C401B301ED81FE8124853585468557855D
:103400000E94D42DAD81BE8194962D913D914D9118
:103410005C9197970E94512B7B018C01C201B101F5
:10342000ED81FE8120A531A542A553A50E94502B18
:10343000AD81BE8154962D913D914D915C915797F0
:103440000E94D42D9B01AC01C801B7010E94502BF2
:103450007B018C01ED81FE81D4A8C5A8B6A8A7A8E0
:103460002D2D3C2D4B2D5A2D0E94C92D1816BCF028
:10347000AD81BE81D096DC90D097D196CC90D1977B
:10348000D296BC90D297D396AC90C801B7012D2D9F
:103490003C2D4B2D5A2D0E94172C882334F48D2D52
:1034A0009C2DAB2DBA2D7C018D01AD81BE815C962A
:1034B000ED91FC915D97E082F18202831383FD011F
:1034C00020A631A642A653A689819A81AB81BC81F0
:1034D00080A391A3A2A3B3A381E001C080E02696BC
:1034E0000FB6F894DEBF0FBECDBFCF91DF911F9115
:1034F0000F91FF90EF90DF90CF90BF90AF909F9093
:103500008F907F906F905F904F903F902F90089595
:103510004F925F926F927F928F929F92AF92BF92E3
:10352000CF92DF92EF92FF920F931F93DF93CF938F
:10353000CDB7DEB74C0127013801EF88F88CFC01CC
:10354000558F448F738F628F378F268F10AE40E078
:1035500050E060E070E000E010E02FE733E40E940C
:10356000961884E690E0A0E0B0E0F40184A795A767
:10357000A6A7B7A780AD882391F1808D918DE8161D
:10358000F90669F160E070E080E090E0248535851F
:10359000468557850E94502BF4016487758786877E
:1035A000978760E070E080E090E02089318942896F
:1035B00053890E94502BF401608B718B828B938B0B
:1035C00060E070E080E090E0248935894689578981
:1035D0000E94502BF401648B758B868B978BF401C2
:1035E000F18EE08EC401B301A20196018501CB8862
:1035F000DC88ED88FE880E947C170E94E529F40192
:1036000024A535A546A557A5621B730B840B950B06
:1036100060A371A382A393A3CF91DF911F910F9118
:10362000FF90EF90DF90CF90BF90AF909F908F90E2
:103630007F906F905F904F900895E82FEF7787FD10
:1036400005C08E2F8250823008F4A0C02E2F30E0AB
:10365000F901ED5AF64F5491F901E15CF64F94915E
:10366000433011F04130B9F4923031F480911103BC
:10367000852B809311030FC0933031F48091130395
:10368000852B8093130307C0943029F48091150390
:10369000852B8093150341504230B8F4923031F4B9
:1036A00080911203852B809312030FC0933031F465
:1036B00080911403852B8093140307C0943029F460
:1036C00080911603852B80931603235F364FF901F3
:1036D00084919330D1F4E82FF0E0EE0FFF1FEB5010
:1036E000FD4F718360838BE399E0FC01A591B49158
:1036F0008C9180931A038CE690E09093E40280937F
:10370000E30280916800826037C09430D1F4E82FE2
:10371000F0E0EE0FFF1FEF5FFC4F718360838DE3DE
:1037200099E0FC01A591B4918C91809319038DE6E9
:1037300090E09093E4028093E302809168008460BB
:103740001BC09230D9F4E82FF0E0EE0FFF1FE751D5
:10375000FD4F7183608389E399E0FC01A591B491E9
:103760008C9180931B038BE690E09093E40280930E
:10377000E30280916800816080936800E091E30239
:10378000F091E4028081582B50832AC09FB7F894AF
:10379000E330A1F47093E8026093E702E998809126
:1037A0006900837F8093690080916900440F440F12
:1037B000842B80936900E19AE99A11C07093E60224
:1037C0006093E502E898809169008C7F809369009E
:1037D00080916900842B80936900E09AE89A9FBFEA
:1037E0008FB780688FBF08952FB7F894E82FEF77D1
:1037F00087FD05C08E2F8250823008F45FC04E2FA7
:1038000050E0CA018D5A964FFC019491415C564F8D
:10381000FA0184918230D1F480916B0090958923D4
:1038200080936B0080916B00882329F4809168005D
:103830008E7F809368008091110389238093110308
:103840008091120398239093120349C08330D1F4DE
:1038500080916C009095892380936C0080916C001E
:10386000882329F4809168008D7F8093680080917F
:103870001303892380931303809114039823909357
:1038800014032DC0843059F580916D0090958923E3
:1038900080936D0080916D00882329F480916800E9
:1038A0008B7F809368008091150389238093150393
:1038B0008091160398239093160311C0E33041F4CE
:1038C000E99880916900837F80936900E19A07C03D
:1038D000E898809169008C7F80936900E09A2FBFFF
:1038E00008951F920F920FB60F9211241F932F93DA
:1038F0003F934F935F936F937F938F939F93AF9378
:10390000BF93EF93FF9333B140911B039091110349
:1039100020911203832F809582239323892B9091EA
:103920006B0043274923482330931B03442359F159
:10393000142F40FF05C0E091E902F091EA020995D9
:1039400011FF05C0E091EB02F091EC02099512FF26
:1039500005C0E091ED02F091EE02099513FF05C05C
:10396000E091EF02F091F002099514FF05C0E0919B
:10397000F102F091F202099515FF05C0E091F30202
:10398000F091F4020995FF91EF91BF91AF919F9152
:103990008F917F916F915F914F913F912F911F91E7
:1039A0000F900FBE0F901F9018951F920F920FB699
:1039B0000F9211241F932F933F934F935F936F9315
:1039C0007F938F939F93AF93BF93EF93FF9336B102
:1039D00040911A039091130320911403832F809533
:1039E00082239323892B90916C00432749234823FA
:1039F00030931A03442359F1142F40FF05C0E0917E
:103A0000F502F091F602099511FF05C0E091F70269
:103A1000F091F802099512FF05C0E091F902F091CA
:103A2000FA02099513FF05C0E091FB02F091FC0238
:103A3000099514FF05C0E091FD02F091FE02099581
:103A400015FF05C0E091FF02F09100030995FF9179
:103A5000EF91BF91AF919F918F917F916F915F9106
:103A60004F913F912F911F910F900FBE0F901F907C
:103A700018951F920F920FB60F9211240F931F9358
:103A80002F933F934F935F936F937F938F939F9366
:103A9000AF93BF93EF93FF9339B1009119039091C6
:103AA000150320911603832F809582239323892B5E
:103AB00090916D00032709230823309319030023F5
:103AC000C9F1102F00FF05C0E0910103F09102033E
:103AD000099511FF05C0E0910303F09104030995D6
:103AE00012FF05C0E0910503F0910603099513FF4D
:103AF00005C0E0910703F0910803099514FF05C084
:103B0000E0910903F0910A03099515FF05C0E091C2
:103B10000B03F0910C03099516FF05C0E0910D030E
:103B2000F0910E03099507FF05C0E0910F03F09196
:103B300010030995FF91EF91BF91AF919F918F91E4
:103B40007F916F915F914F913F912F911F910F91B5
:103B50000F900FBE0F901F901895FC01148E158EBC
:103B6000168E178E10A211A212A213A214A286E022
:103B7000808387E0818385E0828384E0838380E0A3
:103B800090E0A0E0B0E084839583A683B78380E0D3
:103B900090E0A0E0BFE380879187A287B387848706
:103BA0009587A687B787808B918BA28BB38B158A5D
:103BB000148A178A168A118E108E138E128E08950B
:103BC0009C012C5F3F4FC9010895AF92BF92CF92E5
:103BD000DF92EF92FF920F931F93CF93DF93EC014D
:103BE0000E94F32929A13AA14BA15CA1621B730B8E
:103BF000840B950B615A764881409040C8F080E074
:103C000090E0A0E0B0E08C839D83AE83BF8380E032
:103C100090E0A0E0BFE388879987AA87BB878C875D
:103C20009D87AE87BF87888B998BAA8BBB8B46C03D
:103C30005E01CC24DD24F50164897589685E7340DA
:103C4000882777FD8095982F0E94B62C20E030E0E1
:103C50004AE754E40E941B2C7B018C016C837D831A
:103C60008E839F8320E030E040E050E00E94172CDC
:103C700088232CF480E090E0A0E0B0E00EC0C80102
:103C8000B70120E030E040E85FE30E94C92D18163C
:103C900044F480E090E0A0E8BFE38C839D83AE8392
:103CA000BF830894C11CD11C82E090E0A80EB91E0D
:103CB000249694E0C916D10409F0BDCFDF91CF91CD
:103CC0001F910F91FF90EF90DF90CF90BF90AF903A
:103CD00008950F931F938C01FC01808162E00E9484
:103CE000BC2AF801818162E00E94BC2AF80182812D
:103CF00062E00E94BC2AF801838162E00E94BC2A33
:103D0000F801848D080F111DF801808169E07FE1C1
:103D100043E00E941D1B1F910F9108950F931F9365
:103D20008091170390911803892B61F485E290E04C
:103D30000E949A29182F092F0E94AD1D1093170376
:103D40000093180380911703909118031F910F910E
:103D50000895EF92FF920F931F93CF93DF930E94EA
:103D60008E1E8C010E94F329F80161A372A383A324
:103D700094A30E948E1E7C010E948E1EFC01848DE5
:103D8000C82FD0E00E948E1EFC0101A112A10E944A
:103D90008E1E2A96CC0FDD1FCE0DDF1DFC01858DFA
:103DA000968D081B190B198308830E948E1E8C01A7
:103DB0000E948E1EFC01848D080F111DF801808168
:103DC0000E94F41B0E948E1EFC01848D8F5F848FE5
:103DD0000E948E1E8C010E948E1EFC01848D8370B9
:103DE000F801848F0E948E1E8C010E948E1EFC01A1
:103DF000848D080F111DF801808169E07FE143E0A7
:103E00000E941D1BDF91CF911F910F91FF90EF90AA
:103E100008950F931F930E948E1E8C010E94F32918
:103E2000F801658F768F878F90A30E948E1E8C017C
:103E30000E948E1EFC01848D080F111DF8018081E7
:103E40000E94F41B0E948E1E8C010E948E1EFC019B
:103E5000848D080F111DF801808169EA7EE142E03E
:103E60000E941D1B1F910F910895FC0180911C035E
:103E70008C3090F480838F5F80931C03815090E09E
:103E8000FC01EE0FFF1FE80FF91FE35EFC4F88EB0C
:103E90009BE09283818308958FEF80830895FC01D6
:103EA00020812C30B8F58181992787FD909548E8CD
:103EB00050E0481B590B440F551F440F551F641702
:103EC000750784F08281992787FD909548E552E037
:103ED000481B590B440F551F440F551F6417750796
:103EE0000CF4AB0142505040CA01AA2797FDA0959F
:103EF000BA2F880F991FAA1FBB1F4FB7F89430E045
:103F0000F901EE0FFF1FE20FF31FE35EFC4F9283F8
:103F100081834FBF0895CF92DF92EF92FF921F935C
:103F2000CF93DF93EC01162F7A01690188818C30E1
:103F300008F064C0862F61E00E94BC2A888190E06E
:103F4000FC01EE0FFF1FE80FF91FE35EFC4F1F732C
:103F50008081807C812B808380E292E08E199F0992
:103F600064E070E00E94CA2E698380E699E08C19B3
:103F70009D0964E070E00E94CA2E6A83A8818A2F9E
:103F80006CE00E94BE2E682F70E0AB01440F551FFD
:103F9000460F571F440F551F440F551F20E030E0B8
:103FA000C901840F951FFC01EE0FFF1FE80FF91FD9
:103FB000E35EFC4F808186FD15C02F5F3F4F2C30A4
:103FC000310571F724C01092800082E08093810057
:103FD0001092850010928400B19A80916F008260E7
:103FE00080936F008A2F90E0FC01EE0FFF1FE80F17
:103FF000F91FE35EFC4F8081806480838881DF91BC
:10400000CF911F91FF90EF90DF90CF900895672B95
:10401000D1F2E8CF40E252E020E639E00E948B1F67
:1040200008951F920F920FB60F9211242F933F9372
:104030004F935F936F937F938F939F93AF93BF93B0
:10404000EF93FF938091410387FF05C01092850095
:10405000109284002BC020914103332727FD309517
:1040600080911C0390E02817390704F580914103E3
:10407000992787FD9095FC01EE0FFF1FE80FF91FB0
:10408000E35EFC4F808186FF11C080914103992738
:1040900087FD9095FC01EE0FFF1FE80FF91FE35E0F
:1040A000FC4F80818F7360E00E94FB2A8091410366
:1040B0008F5F8093410320914103332727FD309583
:1040C00080911C0390E0281739070CF04EC08091B6
:1040D00041038C300CF049C0209184003091850060
:1040E00080914103992787FD9095FC01EE0FFF1FFA
:1040F000E80FF91FE35EFC4F81819281820F931FCD
:10410000909389008093880080914103992787FDCF
:104110009095FC01EE0FFF1FE80FF91FE35EFC4FC7
:10412000808186FF2BC080914103992787FD909560
:10413000FC01EE0FFF1FE80FF91FE35EFC4F8081CB
:104140008F7361E00E94FB2A19C080E49CE905C0DE
:1041500080918400909185000496909389008093CB
:1041600088008FEF8093410309C080918400909173
:104170008500049680549C4940F3EACFFF91EF916B
:10418000BF91AF919F918F917F916F915F914F916F
:104190003F912F910F900FBE0F901F901895382FC1
:1041A000413210F040E042C0809142038823E1F7A1
:1041B00091E090934203209344038FEF8093AF03E9
:1041C00010926A03415040936B034F5F90934303F7
:1041D00080914303330F832B8093430380914503E6
:1041E000813041F410924503809143038093BB00DA
:1041F00085EC01C085EE8093BC0080914203813044
:10420000E1F380916A03841710F440916A0320E07F
:1042100030E00AC0FB01E20FF31FD901A65BBC4FDF
:104220008C9180832F5F3F4F2417A0F3842F089534
:104230000F931F93582F122F413210F081E04AC084
:10424000809142038823E1F782E080934203009348
:1042500044038FEF8093AF0310926A0340936B0384
:10426000AAE4B3E0FB0102C081918D938E2F861BDF
:104270008417D0F31092430380914303550F852B8D
:104280008093430380914503813041F410924503AC
:10429000809143038093BB0085EC01C085EE809341
:1042A000BC00112321F0809142038230E1F3809120
:1042B000AF038F3F11F480E00DC08091AF038032D7
:1042C00011F482E007C08091AF03803311F084E0E5
:1042D00001C083E01F910F910895482F613210F0C3
:1042E00081E0089580914203843011F082E00895C6
:1042F00060938D03ACE6B3E0842F9C01F90102C00A
:1043000081918D938E2F841B8617D0F380E00895C2
:104310001F920F920FB60F9211242F933F934F933A
:104320005F936F937F938F939F93AF93BF93EF931D
:10433000FF938091B90090E0887F9070803691055E
:1043400009F4F2C081369105CCF58832910509F463
:104350007BC089329105B4F48031910509F46FC0B6
:10436000813191053CF4009709F447C1089709F0A1
:104370004FC165C08831910509F466C0809709F086
:1043800047C182C08034910509F4A4C081349105ED
:1043900044F48033910509F482C0C89709F038C10C
:1043A00089C08035910509F489C08835910509F4E3
:1043B00096C08834910509F02BC1AEC088399105AB
:1043C00009F413C189399105ECF48837910509F492
:1043D000ABC0893791054CF48836910509F4A4C027
:1043E0008037910509F014C19FC08838910509F400
:1043F000FCC08039910509F49DC08038910509F011
:1044000007C198C0803B910509F4C6C0813B910566
:104410004CF4803A910509F49FC0883A910509F05F
:10442000F7C0BAC0803C910509F4E3C0883C91050F
:1044300009F4DFC0883B910509F0EAC0C2C0809151
:1044400043038093BB00CFC090916A0380916B03BC
:10445000981768F490916A03E92FF0E0E65BFC4F4F
:1044600080818093BB009F5F90936A03BCC0809162
:104470004403882309F44BC085ED8093BC008091F0
:10448000BC0084FDFCCFC2C080E28093AF0385ED09
:104490008093BC008091BC0084FDFCCFB7C080E35A
:1044A0008093AF0385ED8093BC008091BC0084FDB8
:1044B000FCCFACC088E38093AF039BC080916A03BC
:1044C0009091BB00E82FF0E0E65BFC4F90838F5F9C
:1044D00080936A0390916A0380916B0382C08091FC
:1044E0006A039091BB00E82FF0E0E65BFC4F9083FD
:1044F0008F5F80936A0380914403882341F085EDA8
:104500008093BC008091BC0084FDFCCF7FC081E023
:104510008093450384EA6EC085ED8093BC00809152
:10452000BC0084FDFCCF72C083E0809342031092F4
:10453000AE0359C08091AE03803208F056C080911E
:10454000AE039091BB00E82FF0E0E257FC4F908360
:104550008F5F8093AE0347C08091AE03803230F40A
:10456000E091AE03F0E0E257FC4F108285ED8093BE
:10457000BC008091BC0084FDFCCF1092420360918E
:10458000AE03E0914803F09149038EE893E070E0B8
:1045900009951092AE032DC084E0809342031092DF
:1045A0008C0310928D03E0914603F0914703099527
:1045B00080918D03882329F481E080938D031092EC
:1045C0006C0390918C03E92FF0E0E459FC4F80815B
:1045D0008093BB009F5F90938C0390918C0380919C
:1045E0008D03981710F485EC01C085E88093BC001A
:1045F0000FC085EC8093BC0009C01092AF0385ED1D
:104600008093BC008091BC0084FDFCCF10924203DB
:10461000FF91EF91BF91AF919F918F917F916F919A
:104620005F914F913F912F910F900FBE0F901F9070
:1046300018951092420381E0809344031092450341
:1046400082E161E00E94FB2A83E161E00E94FB2A93
:10465000E9EBF0E080818E7F808380818D7F808395
:1046600088E48093B80085E48093BC00089581E0DD
:104670008093F5036093D2031092F3031092F40336
:1046800008952091D10330E08091D003281B310997
:10469000C90108954091D0038091D103481718F0C3
:1046A0002FEF3FEF0AC0E42FF0E0E055FC4F808190
:1046B000282F30E04F5F4093D003C9010895E09167
:1046C000D0038091D103E81718F0EFEFFFEF06C099
:1046D000F0E0E055FC4F8081E82FF0E0CF01089535
:1046E00008951092F9031092F80388EE93E0A0E089
:1046F000B0E08093FA039093FB03A093FC03B09384
:10470000FD0389ED91E09093F7038093F6030895FC
:10471000CF92DF92EF92FF920F931F93CF93DF938D
:104720007C016B018A018091F5038823A1F0C0E030
:10473000D0E00DC0D701ED91FC91D601AC0FBD1FAB
:104740000190F081E02DC7016C9109952196C01769
:10475000D10780F304C0CB01642F0E946D21C801F2
:10476000DF91CF911F910F91FF90EF90DF90CF904D
:104770000895DF93CF930F92CDB7DEB7FC01698325
:104780008091F5038823C9F08091F403803238F0DA
:1047900081E090E09383828320E030E015C0809137
:1047A000F303E82FF0E0ED52FC4F998190838F5F87
:1047B0008093F3038093F40305C0CE01019661E07A
:1047C0000E946D2121E030E0C9010F90CF91DF916F
:1047D00008950F93062F8091D20363ED73E040910B
:1047E000F40321E00E9418211092F3031092F403C5
:1047F0001092F5030F91089561E00E94E923089556
:10480000413208F040E2862F60EB73E00E94CF2037
:104810001092D0038093D103089521E00E940024D8
:1048200008951092D0031092D1031092F3031092C6
:10483000F4030E94192308950F931F93CF93DF93DE
:10484000BC018230910510F462E070E0E091B304A5
:10485000F091B40440E050E0A0E0B0E024C08081DA
:10486000918186179707D0F08617970771F4828198
:104870009381109729F013969C938E9312972CC0D6
:104880009093B4048093B30427C04115510519F0E7
:104890008417950718F48D01AC01EF01DF018281C7
:1048A00093819C01F9013097D1F641155105F9F03A
:1048B000CA01861B970B8430910580F48A819B8105
:1048C0000115110521F0F8019383828304C09093B0
:1048D000B4048093B304FE01329645C0FE01E80F94
:1048E000F91F619371930297998388833CC08091EB
:1048F000B1049091B204892B41F48091D10190913F
:10490000D2019093B2048093B1044091D3015091AD
:10491000D4014115510541F44DB75EB78091CF01E7
:104920009091D001481B590B2091B1043091B204F1
:1049300024173507B0F4CA01821B930B861797071B
:1049400080F0AB014E5F5F4F8417950750F0420F28
:10495000531F5093B2044093B104F90161937193D2
:1049600002C0E0E0F0E0CF01DF91CF911F910F9105
:104970000895CF93DF939C01009709F48FC0EC0159
:1049800022971B821A826091B3047091B40461155E
:10499000710581F488819981820F931F2091B10460
:1049A0003091B2042817390739F5D093B204C09377
:1049B000B10474C0DB0140E050E0AC17BD0708F162
:1049C000BB83AA83FE0121913191E20FF31FAE1741
:1049D000BF0779F48D919C911197280F391F2E5F95
:1049E0003F4F3983288312968D919C9113979B8317
:1049F0008A834115510571F4D093B404C093B30474
:104A00004DC012968D919C911397AD01009711F0B6
:104A1000DC01D3CFDA011396DC93CE931297FA011F
:104A200021913191E20FF31FCE17DF0769F48881DE
:104A30009981280F391F2E5F3F4FFA013183208360
:104A40008A819B8193838283E0E0F0E0DB01129610
:104A50008D919C911397009719F0BC01FD01F6CF41
:104A6000AB014E5F5F4FDB018D919C91840F951FD1
:104A70002091B1043091B2042817390779F43097A6
:104A800029F41092B4041092B30402C0138212826B
:104A9000425050405093B2044093B104DF91CF9103
:104AA00008956F927F928F929F92AF92BF92CF9212
:104AB000DF92EF92FF920F931F93CF93DF938C01BE
:104AC000009729F4CB010E941C248C01BBC08EEFFF
:104AD000E82E8FEFF82EE00EF11E4801860E971E8D
:104AE0008E149F0408F4ACC0D7014D915C911197CE
:104AF00046175707B8F04530510508F4A3C0CA015E
:104B000004978617970708F49DC042505040461BF3
:104B1000570BF401419351936D937C93CF010E9405
:104B2000B92490C05B01A41AB50A3801640E751E41
:104B3000A091B304B091B404E0E0F0E0CC24DD2413
:104B400047C0A615B705A9F5CD91DC911197CE0107
:104B500002968A159B0568F1CE018A199B09029677
:104B600012962C91129713963C91059758F0F401E8
:104B700022833383CA19DB09D183C083D7016D93A4
:104B80007C9309C04E5F5F4F4C0F5D1FF70151834F
:104B90004083C901FC01C114D10431F0D601139640
:104BA000FC93EE9312974EC0F093B404E093B304D9
:104BB00049C08D919C911197E817F90708F4FC0101
:104BC0006D0112968C91129713969C919C01D901BC
:104BD000109709F0B6CF8091B1049091B204861578
:104BE0009705E9F4E617F707D0F42091D301309147
:104BF000D4012115310541F42DB73EB78091CF0185
:104C00009091D001281B390B82169306C8F490921C
:104C1000B2048092B104F7017183608313C0CB01A9
:104C20000E941C24EC01009759F0D7014D915C9132
:104C3000B8010E94F804C8010E94B9248E0102C084
:104C400000E010E0C801DF91CF911F910F91FF901C
:104C5000EF90DF90CF90BF90AF909F908F907F901C
:104C60006F90089508951F920F920FB60F9211241E
:104C70002F933F934F938F939F93EF93FF93809145
:104C8000C00082FD19C04091C60080912004282FE9
:104C900030E02F5F3F4F2F7330708091210490E000
:104CA0002817390759F0E0912004F0E0EE5FFB4F40
:104CB00042A32093200402C08091C600FF91EF918F
:104CC0009F918F914F913F912F910F900FBE0F9019
:104CD0001F901895809120042091210490E0805C21
:104CE0009F4F821B91098F739070892B11F00E9446
:104CF000322608951F920F920FB60F9211242F9310
:104D00008F939F93EF93FF939091220480912304BC
:104D1000981731F48091C1008F7D8093C10010C03D
:104D2000E0912304F0E0EC59FB4F208180912304B3
:104D300090E001968F739070809323042093C600B7
:104D4000FF91EF919F918F912F910F900FBE0F9038
:104D50001F901895AF92BF92DF92EF92FF920F9340
:104D60001F93CF93DF93EC017A018B01DD24403058
:104D700081EE580780E0680780E0780711F0DD24B5
:104D8000D39491E0A92EB12CE889F989DD2069F04E
:104D9000C5010C8C02C0880F991F0A94E2F780832A
:104DA00060E079E08DE390E005C0108260E874E88F
:104DB0008EE190E0A80197010E94DD2E2150304045
:104DC00040405040569547953795279580E12030D3
:104DD000380720F0DD2011F0DD24D6CFEC85FD85ED
:104DE0003083EE85FF8520831D8EEA89FB89408113
:104DF00021E030E0C901088C02C0880F991F0A9495
:104E0000E2F7482B4083EA89FB894081C901098C7C
:104E100002C0880F991F0A94E2F7482B4083EA8961
:104E2000FB894081C9010A8C02C0880F991F0A942E
:104E3000E2F7482B4083EA89FB8980810B8C02C012
:104E4000220F331F0A94E2F7209528232083DF9155
:104E5000CF911F910F91FF90EF90DF90BF90AF9097
:104E60000895FC01268D878D30E0205C3F4F281B84
:104E700031092F733070C9010895FC01968D878D1B
:104E8000981719F42FEF3FEF06C0878DE80FF11D3B
:104E900082A1282F30E0C9010895DC015E969C9123
:104EA0005E975F968C915F97981719F42FEF3FEFFD
:104EB00010C05F968C915F97FD01E80FF11D92A1E4
:104EC0005F968C915F978F5F8F735F968C93292F7E
:104ED00030E0C9010895DC015D968C915D978823CF
:104EE00039F05096ED91FC915197808186FFF9CF72
:104EF0005D961C920895DC0190968C919097282FD6
:104F000030E02F5F3F4F2F73307091968C919197C7
:104F100090E028173907C9F390968C919097FD017E
:104F2000E80FF11DEE59FF4F608390962C939097F8
:104F30005296ED91FC915397208181E090E05B9631
:104F40000C905B9702C0880F991F0A94E2F7282BF8
:104F5000208381E05D968C935D975096ED91FC9156
:104F6000519780818064808381E090E00895109261
:104F700005041092040488EE93E0A0E0B0E0809372
:104F8000060490930704A0930804B093090489EEE3
:104F900091E0909303048093020410922304809183
:104FA0002304809322041092210480912104809391
:104FB000200485EC90E090930F0480930E0484EC21
:104FC00090E0909311048093100480EC90E0909313
:104FD00013048093120481EC90E090931504809365
:104FE000140482EC90E0909317048093160486ECEE
:104FF00090E0909319048093180484E080931A043D
:1050000083E080931B0487E080931C0485E08093F9
:105010001D0481E080931E040895CF92DF92EF92E9
:10502000FF920F931F93CF93DF937C016B018A0153
:10503000C0E0D0E00FC0D6016D916D01D701ED91B8
:10504000FC910190F081E02DC7010995C80FD91F8F
:10505000015010400115110571F7CE01DF91CF917C
:105060001F910F91FF90EF90DF90CF900895EF92F6
:10507000FF920F931F938C01DC01ED91FC91019045
:10508000F081E02D6DE009957C01D801ED91FC9156
:105090000190F081E02DC8016AE009959C012E0D78
:1050A0003F1DC9011F910F91FF90EF900895CF937D
:1050B000DF93EC016115710519F420E030E00FC0B9
:1050C000DB010D900020E9F71197A61BB70BE881D3
:1050D000F9810280F381E02DAD0109959C01C901A0
:1050E000DF91CF9108954F925F927F928F929F921E
:1050F000AF92BF92CF92DF92EF92FF920F931F93E6
:10510000DF93CF93CDB7DEB7A1970FB6F894DEBF8C
:105110000FBECDBF2C01742ECB01223008F42AE043
:1051200019A231E2C32ED12CCC0EDD1E822E992481
:10513000AA24BB24672D752FA50194010E94DD2EA2
:1051400079018A01C801B701A50194010E949F2E2F
:10515000472D461B0894C108D1084A3014F4405D1D
:1051600001C0495CF6014083E114F1040105110519
:1051700021F07E2C5F2DC801DDCFC201B6010E9457
:105180005728A1960FB6F894DEBF0FBECDBFCF91C2
:10519000DF911F910F91FF90EF90DF90CF90BF9024
:1051A000AF909F908F907F905F904F900895DC011B
:1051B0002115310541F4ED91FC910190F081E02D34
:1051C000642F099508950E9473280895EF92FF9225
:1051D0000F931F939A01E62EFF2400E010E0B80120
:1051E000A7010E94D7281F910F91FF90EF9008957B
:1051F0000E9457280895EF92FF920F931F937C010E
:105200000E9457288C01C7010E943728080F191FD8
:10521000C8011F910F91FF90EF900895823000F523
:10522000E82FF0E0EE0FFF1FEC55FB4F718360831A
:10523000882319F08130A1F408C0809169008C7F27
:10524000842B80936900E89A089580916900440F47
:10525000551F440F551F837F842B80936900E99A63
:1052600008951F920F920FB60F9211242F933F9320
:105270004F935F936F937F938F939F93AF93BF935E
:10528000EF93FF938091A4049091A504892B29F0BA
:10529000E091A404F091A5040995FF91EF91BF91CD
:1052A000AF919F918F917F916F915F914F913F91BE
:1052B0002F910F900FBE0F901F9018951F920F9275
:1052C0000FB60F9211242F933F934F935F936F93D9
:1052D0007F938F939F93AF93BF93EF93FF938091AF
:1052E000A6049091A704892B29F0E091A604F091DF
:1052F000A7040995FF91EF91BF91AF919F918F9175
:105300007F916F915F914F913F912F910F900FBEC1
:105310000F901F901895CF93DF930E94192A0E9437
:105320009605CAE6D6E20E9477062097E1F30E942E
:105330006A26F9CF0E941C2408951F920F920FB67F
:105340000F9211242F933F938F939F93AF93BF930B
:105350008091AC049091AD04A091AE04B091AF04E3
:105360003091B0040196A11DB11D232F2D5F2D3763
:1053700020F02D570196A11DB11D2093B0048093FC
:10538000AC049093AD04A093AE04B093AF048091AD
:10539000A8049091A904A091AA04B091AB0401962D
:1053A000A11DB11D8093A8049093A904A093AA0401
:1053B000B093AB04BF91AF919F918F913F912F918B
:1053C0000F900FBE0F901F9018958FB7F8942091F3
:1053D000AC043091AD044091AE045091AF048FBF46
:1053E000B901CA0108959FB7F8942091A80430919B
:1053F000A9044091AA045091AB0486B5A89B06C0AD
:105400008F3F21F02F5F3F4F4F4F5F4F9FBF542F74
:10541000432F322F2227280F311D411D511D82E0BD
:10542000220F331F441F551F8A95D1F7B901CA01B6
:105430000895789484B5826084BD84B5816084BD0C
:1054400085B5826085BD85B5816085BDEEE6F0E0FD
:10545000808181608083E1E8F0E010828081826059
:105460008083808181608083E0E8F0E080818160DA
:105470008083E1EBF0E0808184608083E0EBF0E00A
:10548000808181608083EAE7F0E0808184608083AE
:105490008081826080838081816080838081806858
:1054A00080831092C1000895EF92FF920F931F9393
:1054B000CF93DF937B018C013FB7F8948091A804D0
:1054C0009091A904A091AA04B091AB0426B5A89B21
:1054D00005C02F3F19F00196A11DB11D3FBFBA2F86
:1054E000A92F982F8827820F911DA11DB11D52E071
:1054F000880F991FAA1FBB1F5A95D1F7EC0130C026
:105500000E944F2B3FB7F8948091A8049091A90472
:10551000A091AA04B091AB0426B5A89B05C02F3F6B
:1055200019F00196A11DB11D3FBFBA2FA92F982FC9
:105530008827820F911DA11DB11D32E0880F991F90
:10554000AA1FBB1F3A95D1F78C1B9D0B885E934019
:10555000B8F20894E108F10801091109C851DC4FBB
:10556000E114F1040105110559F6DF91CF911F9166
:105570000F91FF90EF900895CF93DF93482F50E065
:10558000CA018D5A964FFC013491415C564FFA0185
:105590008491882369F190E0880F991FFC01EF5DE9
:1055A000F64FA591B491FC01E55DF64FC591D491FC
:1055B000662351F42FB7F8948C91932F90958923FB
:1055C0008C93888189230BC0623061F42FB7F894E3
:1055D0008C91932F909589238C938881832B88833A
:1055E0002FBF06C09FB7F8948C91832B8C939FBFDD
:1055F000DF91CF910895482F50E0CA018959964F05
:10560000FC012491CA018D5A964FFC019491415C92
:10561000564FFA013491332309F440C0222351F14B
:10562000233071F0243028F42130A1F0223011F51C
:1056300014C02630B1F02730C1F02430D9F404C0B2
:10564000809180008F7703C0809180008F7D809350
:10565000800010C084B58F7702C084B58F7D84BD73
:1056600009C08091B0008F7703C08091B0008F7D1A
:105670008093B000E32FF0E0EE0FFF1FE55DF64FE3
:10568000A591B4912FB7F894662321F48C9190954D
:10569000892302C08C91892B8C932FBF0895089584
:1056A0005058BB27AA270ED03AC22BD230F030D2A6
:1056B00020F031F49F3F11F41EF4FBC10EF4E0958D
:1056C000E7FBF1C1E92F3CD280F3BA1762077307F9
:1056D0008407950718F071F49EF554C20EF4E09516
:1056E0000B2EBA2FA02D0B01B90190010C01CA019C
:1056F000A0011124FF27591B99F0593F50F4503E47
:1057000068F11A16F040A22F232F342F4427585F38
:10571000F3CF469537952795A795F0405395C9F750
:105720007EF41F16BA0B620B730B840BBAF0915008
:10573000A1F0FF0FBB1F661F771F881FC2F70EC0A7
:10574000BA0F621F731F841F48F48795779567957A
:10575000B795F7959E3F08F0B3CF9395880F08F063
:105760009927EE0F979587950895CBD158F080E84B
:1057700091E009F49EEFCCD128F040E851E059F4D3
:105780005EEF09C096C1FEC1E92FE078D9D168F378
:10579000092E052AC1F3261737074807590738F09D
:1057A0000E2E07F8E02569F0E025E0640AC0EF63FB
:1057B00007F8009407FADB01B9019D01DC01CA0179
:1057C000AD01EF9347D0ABD10AD05F91552331F0B3
:1057D0002BED3FE049E450FD49EC63CF0895DF93A2
:1057E000DD27B92FBF7740E85FE316161706480795
:1057F0005B0710F4D92FD1D19F938F937F936F9331
:1058000084D2E8E6F0E058D18AD12F913F914F91B0
:105810005F91D6D1DD2349F09058A2EA2AED3FE00E
:1058200049EC5FE3D0785D274DDFDF9178C117D178
:1058300008F481E008950CD072C16AD140F061D1C2
:1058400030F021F45F3F19F02EC151119CC131C1DC
:1058500077D198F39923C9F35523B1F3951B550BD1
:10586000BB27AA2762177307840738F09F5F5F4F33
:10587000220F331F441FAA1FA9F333D00E2E3AF074
:10588000E0E830D091505040E695001CCAF729D08E
:10589000FE2F27D0660F771F881FBB1F26173707DD
:1058A0004807AB07B0E809F0BB0B802DBF01FF270D
:1058B00093585F4F2AF09E3F510568F0F4C063C1D2
:1058C0005F3FECF3983EDCF3869577956795B79547
:1058D000F7959F5FC9F7880F911D9695879597F962
:1058E0000895E1E0660F771F881FBB1F62177307DB
:1058F0008407BA0720F0621B730B840BBA0BEE1FF0
:1059000088F7E095089504D06894B1113CC10895DA
:105910001FD188F09F5790F0B92F9927B751A0F069
:10592000D1F0660F771F881F991F1AF0BA95C9F733
:1059300012C0B13081F026D1B1E0089523C1672FA4
:10594000782F8827B85F39F0B93FCCF386957795E3
:105950006795B395D9F73EF49095809570956195CC
:105960007F4F8F4F9F4F0895E89409C097FB3EF4F7
:1059700090958095709561957F4F8F4F9F4F99239C
:10598000A9F0F92F96E9BB279395F695879577951A
:105990006795B795F111F8CFFAF4BB0F11F460FFDA
:1059A0001BC06F5F7F4F8F4F9F4F16C0882311F032
:1059B00096E911C0772321F09EE8872F762F05C046
:1059C000662371F096E8862F70E060E02AF09A95E1
:1059D000660F771F881FDAF7880F9695879597F9D6
:1059E0000895990FBB0B550FAA0BE0E8FEEF1616B2
:1059F0001706E807F90770F012161306E407F50713
:105A000060F0BA173CF049F46217730784079507F2
:105A1000A7951BF4B901CA01BA2FB69597950895B9
:105A2000990FBB0B550FAA0BE0E8FEEF16161706F1
:105A3000E807F90770F012161306E407F50760F09F
:105A4000BA1754F031F42617370748075907A795B6
:105A50001BF4B901CA01BA2FB69597950895990F0D
:105A60000008550FAA0BE0E8FEEF16161706E80728
:105A7000F907C0F012161306E407F50798F0621B49
:105A8000730B840B950B39F40A2661F0232B242B1E
:105A9000252B21F408950A2609F4A140A6958FEF3D
:105AA000811D811D089597F99F6780E870E060E08F
:105AB00008959FEF80EC0895DF93CF931F930F938A
:105AC000FF92EF92DF927B018C01689405C0DA2E81
:105AD000EF0176D0FE01E894A5912591359145918D
