:100000000C9463000C948B000C948B000C948B006C
:100010000C948B000C948B000C948B000C948B0034
:100020000C948B000C948B000C948B000C948B0024
:100030000C948B000C948B000C948B000C948B0014
:100040000C94580F0C948B000C94560B0C949D0B35
:100050000C948B000C948B000C948B000C948B00F4
:100060000C948C070C948B000000000024002700E7
:100070002A0000000000250028002B0000000000DE
:1000800023002600290004040404040404040202DA
:100090000202020203030303030301020408102007
:1000A0004080010204081020010204081020000012
:1000B0000007000201000003040600000000000029
:1000C00000007509DA0C11241FBECFEFD8E0DEBFA7
:1000D000CDBF11E0A0E0B1E0ECE1F6E202C0059096
:1000E0000D92AA39B107D9F713E0AAE9B1E001C02E
:1000F0001D92AB30B107E1F710E0C6ECD0E004C0D0
:100100002297FE010E940813C23CD107C9F70E9442
:10011000460F0C940C130C9400000E94B8060E9429
:1001200050058CE592E060E071E00E94490E0E946B
:10013000B8060E94200520E030E040E050E00E9438
:100140005A1218163CF40E94B8060E942005AB0112
:10015000BC0107C00E94B8060E942005AB01BC018B
:1001600070588CE592E022E030E00E94300F8CE580
:1001700092E065E071E00E94490E0E94B8060E947C
:10018000280520E030E040E050E00E945A121816A6
:100190003CF40E94B8060E942805AB01BC0107C0D0
:1001A0000E94B8060E942805AB01BC0170588CE57E
:1001B00092E022E030E00E94300F8CE592E06BE0AC
:1001C00071E00E94490E0E94B8060E94300520E0AE
:1001D00030E040E050E00E945A1218163CF40E94B1
:1001E000B8060E943005AB01BC0107C00E94B806EA
:1001F0000E943005AB01BC0170588CE592E022E012
:1002000030E00E94300F8CE592E061E171E00E94E5
:10021000490E0E94B8060E94380520E030E040E018
:1002200050E00E945A1218163CF40E94B8060E9430
:100230003805AB01BC0107C00E94B8060E94380512
:10024000AB01BC0170588CE592E022E030E00E94E6
:10025000300F8CE592E067E171E00E94490E0E9448
:10026000B8060E94400520E030E040E050E00E94E7
:100270005A1218163CF40E94B8060E944005AB01C1
:10028000BC0107C00E94B8060E944005AB01BC013A
:1002900070588CE592E022E030E00E94300F8CE54F
:1002A00092E06DE171E00E94490E0E94B8060E9442
:1002B000480520E030E040E050E00E945A12181655
:1002C0003CF40E94B8060E944805AB01BC0107C07F
:1002D0000E94B8060E944805AB01BC0170588CE52D
:1002E00092E022E030E00E94300F8CE592E00E9424
:1002F0005A0D64E670E080E090E00E94E90F0895F6
:10030000CF92DF92EF92FF920F931F938CE592E0D2
:1003100040E056E960E070E00E94CD0B0E94B80614
:1003200064E97FEF48E854E020EF38E00CE110E0AA
:10033000F4EEEF2EFFEFFF2EE8E0CE2ED12C0E9440
:1003400042060E94B8060E941D05882319F463E244
:1003500071E002C061E471E08CE592E00E94330F2D
:100360001F910F91FF90EF90DF90CF900895CF9263
:10037000DF92FF920F931F93CF93DF93582F162F87
:10038000042F690180E592E0652F0E943B0980E51A
:1003900092E0612F0E94BD09C02FD0E0CC0FDD1F7D
:1003A000FF2412C0000F111F0C0D1D1DF8016181EB
:1003B00080E592E00E94BD0980E592E0F80160814D
:1003C0000E94BD09F2E0FF0E0F2D10E00C171D0773
:1003D0004CF380E592E00E94000A90E0882309F443
:1003E00091E0892FDF91CF911F910F91FF90DF90C6
:1003F000CF900895DF93CF9300D0CDB7DEB75A8367
:10040000498341E09E012F5F3F4F0E94B7010F904B
:100410000F90CF91DF910895EF92FF920F931F936A
:10042000CF93DF93582F162FE42E022FF32E80E563
:1004300092E0652F0E943B0980E592E0612F0E94C7
:10044000BD09202F3F2DC901EC0110E006C080E559
:1004500092E069910E94BD091F5F1E15C0F380E5FF
:1004600092E00E94000A90E0882309F491E0892F2D
:10047000DF91CF911F910F91FF90EF900895DF933F
:10048000CF930F92CDB7DEB7498341E09E012F5F36
:100490003F4F0E940C020F90CF91DF9108952F9251
:1004A0003F924F925F926F927F928F929F92AF9204
:1004B000BF92CF92DF92EF92FF920F931F93DF9341
:1004C000CF9300D000D00F92CDB7DEB7882E6983CE
:1004D000942E3B832A830E94A00F5B016C01FF24B2
:1004E000EE24292C33242801662477244BC080E590
:1004F00092E0682D0E943B0980E592E069810E94AC
:10050000BD0980E592E00E94000A80E592E0682D36
:100510000E943B09A1014E1951094132510514F0C5
:1005200040E250E080E592E0682D0E94110A2F2DF4
:10053000332727FD30958A819B81280F391F3D8302
:100540002C8380E592E00E944509892B09F452C072
:100550000115110561F00E94A00F6A197B098C0931
:100560009D09641575058605970508F043C080E56B
:1005700092E00E944E09EC81FD818193FD83EC8322
:10058000F394DFCFE91408F4B2CF01151105C9F0D7
:100590000E94A00F6A197B098C099D09980140E00F
:1005A00050E0621773078407950758F02F2D332703
:1005B00027FD3095892D90E02817390714F4FF2482
:1005C000FA948F2D0F900F900F900F900F90CF9166
:1005D000DF911F910F91FF90EF90DF90CF90BF9030
:1005E000AF909F908F907F906F905F904F903F90D3
:1005F0002F900895892DF0E2F91508F480E2E80EB5
:10060000C1CF0F931F93FA01890141E09F010E941E
:100610004F021F910F910895DF92EF92FF920F9377
:100620001F93DF93CF930F92CDB7DEB7E82ED62E70
:10063000F42E122F2091710130917201AE014F5FA3
:100640005F4F0E940103882341F1212F30E04F2D9D
:1006500050E04F5F5F4F421B530B81E090E002C0C0
:10066000880F991F1A95E2F70197042E02C0880F90
:10067000991F0A94E2F7202F30E002C0220F331FA7
:100680004A95E2F7482F4095598145238223482B0C
:1006900049838E2D6D2D0E943F020F90CF91DF91E7
:1006A0001F910F91FF90EF90DF900895EF92FF92CE
:1006B0000F931F93DF93CF930F92CDB7DEB7F82E32
:1006C000E62E042F122F2091710130917201AE019C
:1006D0004F5F5F4F0E9401032981112351F081E098
:1006E00090E002C0880F991F0A95E2F7422F482B2D
:1006F0000AC081E090E002C0880F991F0A95E2F7D6
:10070000482F4095422349838F2D6E2D0E943F0232
:100710000F90CF91DF911F910F91FF90EF9008956F
:10072000CF92DF92EF92FF920F931F93DF93CF93BD
:100730000F92CDB7DEB7C42ED22E9701AE014F5F18
:100740005F4F0E940103682F882309F18D2D90E0EF
:100750004C2D50E04F5F5F4F481B590B21E030E0BC
:1007600002C0220F331FDA94E2F721503040042EEA
:1007700002C0220F331F0A94E2F78981822390E09E
:1007800002C0959587954A95E2F7F8018083862FF8
:100790000F90CF91DF911F910F91FF90EF90DF901D
:1007A000CF900895FC0160830895EF92FF920F931C
:1007B0001F937C019C012F5F3F4F009171011091AD
:1007C0007201FC01808167E442E00E944F02F70160
:1007D000918180E0228130E0282B392BC9011F91C3
:1007E0000F91FF90EF900895EF92FF920F931F9358
:1007F0007C019C012F5F3F4F0091710110917201AC
:10080000FC01808165E442E00E944F02F701918182
:1008100080E0228130E0282B392BC9011F910F91F4
:10082000FF90EF900895EF92FF920F931F937C013A
:100830009C012F5F3F4F0091710110917201FC01EB
:10084000808163E442E00E944F02F701918180E0E1
:10085000228130E0282B392BC9011F910F91FF9085
:10086000EF900895EF92FF920F931F937C019C01EC
:100870002F5F3F4F0091710110917201FC01808147
:100880006FE342E00E944F02F701918180E02281F4
:1008900030E0282B392BC9011F910F91FF90EF9069
:1008A0000895EF92FF920F931F937C019C012F5F9D
:1008B0003F4F0091710110917201FC0180816DE345
:1008C00042E00E944F02F701918180E0228130E0F6
:1008D000282B392BC9011F910F91FF90EF9008959C
:1008E000EF92FF920F931F937C019C012F5F3F4F6C
:1008F0000091710110917201FC0180816BE342E073
:100900000E944F02F701918180E0228130E0282B84
:10091000392BC9011F910F91FF90EF900895FC01B1
:10092000262F80816BE646E00E9456030895FC0165
:10093000AB01808167E10E94FA010895FC01AB01DF
:10094000808165E10E94FA010895FC01AB0180817C
:1009500063E10E94FA010895FC01AB0180816AE025
:100960000E94FA010895FC01AB01808168E00E94B9
:10097000FA010895FC01AB01808166E00E94FA0152
:1009800008950F93FC01062F80816BE642E023E07F
:100990000E940C030F9108950F93FC01062F808194
:1009A0006CE144E022E00E940C030F9108950F9344
:1009B000FC01062F80816BE144E022E00E940C03E1
:1009C0000F9108950F931F938C0161E00E94C10461
:1009D000C80160E00E94D704C80160E00E94CC0416
:1009E000C80160E00E948F041F910F910895CF927B
:1009F000DF92EF92FF920F931F936C018C010F5FB8
:100A00001F4FE0907101F0907201FC01808165E759
:100A100046E026E00E949003F60181811F910F912C
:100A2000FF90EF90DF90CF9008950E94F70490E040
:100A3000843309F491E0892F0895FC0180810895A1
:100A4000FC012089318942895389B901CA0108957D
:100A5000FC012489358946895789B901CA0108955D
:100A6000FC01208D318D428D538DB901CA0108954D
:100A7000FC01248D358D468D578DB901CA0108952D
:100A8000FC0120A131A142A153A1B901CA010895DD
:100A9000FC0124A135A146A157A1B901CA010895BD
:100AA000EF92FF920F931F938C017C010894E11C3D
:100AB000F11CC7010E947004AA2797FDA095BA2FC8
:100AC000BC01CD010E94AA1120E030E040E057E4D3
:100AD0000E94A7109B01AC010E94A71020E03FEFED
:100AE0004FE757E40E940F1120E030E040E85FE359
:100AF0000E94A610F801608B718B828B938BC701CB
:100B00000E945104AA2797FDA095BA2FBC01CD01E0
:100B10000E94AA1120E030E040E057E40E94A710B4
:100B20009B01AC010E94A71020E03FEF4FE757E484
:100B30000E940F1120E030E040E85FE30E94A61021
:100B4000F801648B758B868B978BC7010E943204EA
:100B5000AA2797FDA095BA2FBC01CD010E94AA112A
:100B600020E030E040E057E40E94A7109B01AC0178
:100B70000E94A71020E03FEF4FE757E40E940F11BB
:100B800020E030E040E85FE30E94A610F801608FAB
:100B9000718F828F938FC7010E941304AA2797FD3C
:100BA000A095BA2FBC01CD010E94AA1120E030E02F
:100BB00040E057E40E94A7109B01AC010E94A710DF
:100BC00020E03FEF4FE757E40E940F1120E030E0B4
:100BD00040E85FE30E94A610F801648F758F868F4E
:100BE000978FC7010E94F403AA2797FDA095BA2FFB
:100BF000BC01CD010E94AA1120E030E040E057E4A2
:100C00000E94A7109B01AC010E94A71020E03FEFBB
:100C10004FE757E40E940F1120E030E040E85FE327
:100C20000E94A610F80160A371A382A393A3C70139
:100C30000E94D503AA2797FDA095BA2FBC01CD012C
:100C40000E94AA1120E030E040E057E40E94A71083
:100C50009B01AC010E94A71020E03FEF4FE757E453
:100C60000E940F1120E030E040E85FE30E94A610F0
:100C7000F80164A375A386A397A31F910F91FF901A
:100C8000EF9008954F925F926F927F928F929F9212
:100C9000AF92BF92CF92DF92EF92FF920F931F938A
:100CA000CF93DF935C014B013A01290180E592E08B
:100CB0000E94150AE5012196CE010E94E204CE01B0
:100CC0000E941505F50180838823C1F0CE01B4018F
:100CD0000E94BA04CE01B3010E94B304CE01B20156
:100CE0000E94AC04CE01B8010E94A504CE01B70158
:100CF0000E949E04CE01B6010E949704DF91CF911D
:100D00001F910F91FF90EF90DF90CF90BF90AF9029
:100D10009F908F907F906F905F904F9008950F936A
:100D20001F938C01FC011192CF0168E60E94D2034F
:100D300080E090E0A0E0B0E0F801808B918BA28B86
:100D4000B38B848B958BA68BB78B808F918FA28F63
:100D5000B38F848F958FA68FB78F80A391A3A2A303
:100D6000B3A384A395A3A6A3B7A31F910F9108953E
:100D70000F931F9380919A0190919B01892B61F4AD
:100D800088E290E00E94550F182F092F0E948F06CD
:100D900010939A0100939B0180919A0190919B017D
:100DA0001F910F910895382F413210F040E042C05A
:100DB00080919C018823E1F791E090939C0120931E
:100DC0009E018FEF809309021092C401415040931D
:100DD000C5014F5F90939D0180919D01330F832B3F
:100DE00080939D0180919F01813041F410929F0179
:100DF00080919D018093BB0085EC01C085EE8093BE
:100E0000BC0080919C018130E1F38091C401841782
:100E100010F44091C40120E030E00AC0FB01E20F71
:100E2000F31FD901AC55BE4F8C9180832F5F3F4F8C
:100E30002417A0F3842F08950F931F93582F122F78
:100E4000413210F081E04AC080919C018823E1F793
:100E500082E080939C0100939E018FEF80930902B2
:100E60001092C4014093C501A4EAB1E0FB0102C0A5
:100E700081918D938E2F861B8417D0F310929D0144
:100E800080919D01550F852B80939D0180919F013D
:100E9000813041F410929F0180919D018093BB00AD
:100EA00085EC01C085EE8093BC00112321F0809178
:100EB0009C018230E1F3809109028F3F11F480E0C0
:100EC0000DC080910902803211F482E007C0809148
:100ED0000902803311F084E001C083E01F910F917B
:100EE0000895482F613210F081E0089580919C01AF
:100EF000843011F082E008956093E701A6ECB1E040
:100F0000842F9C01F90102C081918D938E2F841B47
:100F10008617D0F380E008951F920F920FB60F92BC
:100F200011242F933F934F935F936F937F938F93EE
:100F30009F93AF93BF93EF93FF938091B90090E09D
:100F4000887F90708036910509F4F2C08136910552
:100F5000CCF58832910509F47BC089329105B4F44F
:100F60008031910509F46FC0813191053CF40097FF
:100F700009F447C1089709F04FC165C08831910550
:100F800009F466C0809709F047C182C0803491059A
:100F900009F4A4C08134910544F48033910509F427
:100FA00082C0C89709F038C189C08035910509F41D
:100FB00089C08835910509F496C08834910509F0F7
:100FC0002BC1AEC08839910509F413C18939910547
:100FD000ECF48837910509F4ABC0893791054CF4DE
:100FE0008836910509F4A4C08037910509F014C131
:100FF0009FC08838910509F4FCC08039910509F437
:101000009DC08038910509F007C198C0803B9105CB
:1010100009F4C6C0813B91054CF4803A910509F46E
:101020009FC0883A910509F0F7C0BAC0803C91058D
:1010300009F4E3C0883C910509F4DFC0883B9105C1
:1010400009F0EAC0C2C080919D018093BB00CFC06F
:101050009091C4018091C501981768F49091C401E2
:10106000E92FF0E0EC55FE4F80818093BB009F5F3D
:101070009093C401BCC080919E01882309F44BC0A9
:1010800085ED8093BC008091BC0084FDFCCFC2C084
:1010900080E28093090285ED8093BC008091BC00C2
:1010A00084FDFCCFB7C080E38093090285ED809377
:1010B000BC008091BC0084FDFCCFACC088E3809371
:1010C00009029BC08091C4019091BB00E82FF0E021
:1010D000EC55FE4F90838F5F8093C4019091C401C3
:1010E0008091C50182C08091C4019091BB00E82F1E
:1010F000F0E0EC55FE4F90838F5F8093C4018091A8
:101100009E01882341F085ED8093BC008091BC0056
:1011100084FDFCCF7FC081E080939F0184EA6EC094
:1011200085ED8093BC008091BC0084FDFCCF72C033
:1011300083E080939C011092080259C080910802BC
:10114000803208F056C0809108029091BB00E82FD1
:10115000F0E0E851FE4F90838F5F8093080247C014
:1011600080910802803230F4E0910802F0E0E8510A
:10117000FE4F108285ED8093BC008091BC0084FD01
:10118000FCCF10929C0160910802E091A201F091C5
:10119000A30188EE91E070E00995109208022DC03D
:1011A00084E080939C011092E6011092E701E091A7
:1011B000A001F091A10109958091E701882329F40C
:1011C00081E08093E7011092C6019091E601E92F3A
:1011D000F0E0EA53FE4F80818093BB009F5F9093C5
:1011E000E6019091E6018091E701981710F485ECF3
:1011F00001C085E88093BC000FC085EC8093BC00E3
:1012000009C01092090285ED8093BC008091BC005A
:1012100084FDFCCF10929C01FF91EF91BF91AF91A3
:101220009F918F917F916F915F914F913F912F91FE
:101230000F900FBE0F901F90189510929C0181E0A7
:1012400080939E0110929F0182E161E00E94511003
:1012500083E161E00E945110E9EBF0E080818E7F34
:10126000808380818D7F808388E48093B80085E4CB
:101270008093BC00089581E080934F0260932C021C
:1012800010924D0210924E02089520912B0230E0F0
:1012900080912A02281B3109C901089540912A0230
:1012A00080912B02481718F02FEF3FEF0AC0E42F70
:1012B000F0E0E65FFD4F8081282F30E04F5F4093E4
:1012C0002A02C9010895E0912A0280912B02E817B1
:1012D00018F0EFEFFFEF06C0F0E0E65FFD4F808112
:1012E000E82FF0E0CF010895089510925302109274
:1012F000520288EE93E0A0E0B0E080935402909315
:101300005502A0935602B09357028DE791E0909357
:101310005102809350020895CF92DF92EF92FF9294
:101320000F931F93CF93DF937C016B018A01809110
:101330004F028823A1F0C0E0D0E00DC0D701ED91AD
:10134000FC91D601AC0FBD1F0190F081E02DC701CB
:101350006C9109952196C017D10780F304C0CB0189
:10136000642F0E947107C801DF91CF911F910F91E7
:10137000FF90EF90DF90CF900895DF93CF930F927F
:10138000CDB7DEB7FC01698380914F028823C9F095
:1013900080914E02803238F081E090E09383828326
:1013A00020E030E015C080914D02E82FF0E0E35DD1
:1013B000FD4F998190838F5F80934D0280934E0201
:1013C00005C0CE01019661E00E94710721E030E086
:1013D000C9010F90CF91DF9108950F93062F80914F
:1013E0002C026DE272E040914E0221E00E941C0747
:1013F00010924D0210924E0210924F020F910895DA
:1014000061E00E94ED090895413208F040E2862F24
:101410006AE072E00E94D30610922A0280932B02A7
:10142000089521E00E94040A089510922A02109261
:101430002B0210924D0210924E020E941D09089537
:101440000F931F93CF93DF93BC018230910510F46B
:1014500062E070E0E0910903F0910A0340E050E09F
:10146000A0E0B0E024C08081918186179707D0F07A
:101470008617970771F482819381109729F013964C
:101480009C938E9312972CC090930A038093090328
:1014900027C04115510519F08417950718F48D01DF
:1014A000AC01EF01DF01828193819C01F90130974A
:1014B000D1F641155105F9F0CA01861B970B84300E
:1014C000910580F48A819B810115110521F0F801B5
:1014D0009383828304C090930A0380930903FE01DF
:1014E000329645C0FE01E80FF91F61937193029790
:1014F000998388833CC08091070390910803892BCE
:1015000041F4809175019091760190930803809346
:10151000070340917701509178014115510541F43D
:101520004DB75EB78091730190917401481B590BC0
:10153000209107033091080324173507B0F4CA013E
:10154000821B930B8617970780F0AB014E5F5F4FAE
:101550008417950750F0420F531F50930803409390
:101560000703F9016193719302C0E0E0F0E0CF015D
:10157000DF91CF911F910F910895CF93DF939C013D
:10158000009709F48FC0EC0122971B821A826091A8
:10159000090370910A036115710581F488819981AD
:1015A000820F931F209107033091080328173907F2
:1015B00039F5D0930803C093070374C0DB0140E002
:1015C00050E0AC17BD0708F1BB83AA83FE0121914F
:1015D0003191E20FF31FAE17BF0779F48D919C9103
:1015E0001197280F391F2E5F3F4F3983288312969A
:1015F0008D919C9113979B838A834115510571F4BA
:10160000D0930A03C09309034DC012968D919C910B
:101610001397AD01009711F0DC01D3CFDA011396D7
:10162000DC93CE931297FA0121913191E20FF31FCF
:10163000CE17DF0769F488819981280F391F2E5F43
:101640003F4FFA01318320838A819B819383828378
:10165000E0E0F0E0DB0112968D919C9113970097EA
:1016600019F0BC01FD01F6CFAB014E5F5F4FDB010E
:101670008D919C91840F951F209107033091080351
:101680002817390779F4309729F410920A03109239
:10169000090302C013821282425050405093080343
:1016A00040930703DF91CF91089508951F920F9201
:1016B0000FB60F9211242F933F934F938F939F93C5
:1016C000EF93FF938091C00082FD19C04091C60046
:1016D00080917A02282F30E02F5F3F4F2F733070B8
:1016E00080917B0290E02817390759F0E0917A0247
:1016F000F0E0E45AFD4F42A320937A0202C08091A9
:10170000C600FF91EF919F918F914F913F912F9143
:101710000F900FBE0F901F90189580917A02209124
:101720007B0290E0805C9F4F821B91098F739070C9
:10173000892B11F00E94550B08951F920F920FB63E
:101740000F9211242F938F939F93EF93FF93909178
:101750007C0280917D02981731F48091C1008F7DC9
:101760008093C10010C0E0917D02F0E0E254FD4F93
:10177000208180917D0290E001968F73907080931C
:101780007D022093C600FF91EF919F918F912F9141
:101790000F900FBE0F901F901895AF92BF92DF92DF
:1017A000EF92FF920F931F93CF93DF93EC017A0197
:1017B0008B01DD24403081EE580780E0680780E02F
:1017C000780711F0DD24D39491E0A92EB12CE8899B
:1017D000F989DD2069F0C5010C8C02C0880F991FC2
:1017E0000A94E2F7808360E079E08DE390E005C041
:1017F000108260E874E88EE190E0A80197010E94F1
:10180000E41221503040404050405695479537955E
:10181000279580E12030380720F0DD2011F0DD240D
:10182000D6CFEC85FD853083EE85FF8520831D8E28
:10183000EA89FB89408121E030E0C901088C02C0BF
:10184000880F991F0A94E2F7482B4083EA89FB89A5
:101850004081C901098C02C0880F991F0A94E2F7E0
:10186000482B4083EA89FB894081C9010A8C02C068
:10187000880F991F0A94E2F7482B4083EA89FB8975
:1018800080810B8C02C0220F331F0A94E2F720954F
:1018900028232083DF91CF911F910F91FF90EF902C
:1018A000DF90BF90AF900895FC01268D878D30E0CA
:1018B000205C3F4F281B31092F733070C9010895F8
:1018C000FC01968D878D981719F42FEF3FEF06C016
:1018D000878DE80FF11D82A1282F30E0C9010895FE
:1018E000DC015E969C915E975F968C915F9798174E
:1018F00019F42FEF3FEF10C05F968C915F97FD01B9
:10190000E80FF11D92A15F968C915F978F5F8F73A7
:101910005F968C93292F30E0C9010895DC015D9614
:101920008C915D97882339F05096ED91FC915197F9
:10193000808186FFF9CF5D961C920895DC01909618
:101940008C919097282F30E02F5F3F4F2F7330708E
:1019500091968C91919790E028173907C9F390964A
:101960008C919097FD01E80FF11DEE59FF4F6083B8
:1019700090962C9390975296ED91FC9153972081DD
:1019800081E090E05B960C905B9702C0880F991FF6
:101990000A94E2F7282B208381E05D968C935D9773
:1019A0005096ED91FC91519780818064808381E015
:1019B00090E0089510925F0210925E0288EE93E02C
:1019C000A0E0B0E08093600290936102A093620275
:1019D000B09363028DE891E090935D0280935C0286
:1019E00010927D0280917D0280937C0210927B0296
:1019F00080917B0280937A0285EC90E0909369025B
:101A00008093680284EC90E090936B0280936A026A
:101A100080EC90E090936D0280936C0281EC90E0FA
:101A200090936F0280936E0282EC90E0909371022B
:101A30008093700286EC90E0909373028093720220
:101A400084E08093740283E08093750287E0809342
:101A5000760285E08093770281E080937802089592
:101A6000CF92DF92EF92FF920F931F93CF93DF936A
:101A70007C016B018A01C0E0D0E00FC0D6016D91FE
:101A80006D01D701ED91FC910190F081E02DC7012E
:101A90000995C80FD91F015010400115110571F7A4
:101AA000CE01DF91CF911F910F91FF90EF90DF90CA
:101AB000CF900895EF92FF920F931F938C01DC015A
:101AC000ED91FC910190F081E02D6DE009957C0194
:101AD000D801ED91FC910190F081E02DC8016AE000
:101AE00009959C012E0D3F1DC9011F910F91FF907B
:101AF000EF900895CF93DF93EC016115710519F410
:101B000020E030E00FC0DB010D900020E9F71197D5
:101B1000A61BB70BE881F9810280F381E02DAD01AE
:101B200009959C01C901DF91CF9108954F925F9271
:101B30007F928F929F92AF92BF92CF92DF92EF925D
:101B4000FF920F931F93DF93CF93CDB7DEB7A1978B
:101B50000FB6F894DEBF0FBECDBF2C01742ECB01A3
:101B6000223008F42AE019A231E2C32ED12CCC0E87
:101B7000DD1E822E9924AA24BB24672D752FA50172
:101B800094010E94E41279018A01C801B701A501FC
:101B900094010E94C512472D461B0894C108D10824
:101BA0004A3014F4405D01C0495CF6014083E11401
:101BB000F1040105110521F07E2C5F2DC801DDCF58
:101BC000C201B6010E947A0DA1960FB6F894DEBF4D
:101BD0000FBECDBFCF91DF911F910F91FF90EF907E
:101BE000DF90CF90BF90AF909F908F907F905F904D
:101BF0004F900895DC012115310541F4ED91FC91E0
:101C00000190F081E02D642F099508950E94960DB2
:101C10000895CF92DF92EF92FF920F931F93CF938D
:101C2000DF93EC016A017B012115310541F4E88164
:101C3000F9810190F081E02D642F09951FC02A30B1
:101C40003105D1F477FF17C0E881F9810190F08167
:101C5000E02D6DE209958C0144275527BA014C19F6
:101C60005D096E097F09CE012AE00E94960D980158
:101C7000280F391F04C02AE00E94960D9C01C9015B
:101C8000DF91CF911F910F91FF90EF90DF90CF9058
:101C900008950E947A0D08957F928F929F92AF923D
:101CA000BF92CF92DF92EF92FF920F931F93CF9349
:101CB000DF934C017A018B01722ECB01BA01A8018E
:101CC00097010E94C112882321F0C40163E671E0EC
:101CD00021C0C0E0D0E057016801E894D7F8C60100
:101CE000B5012FEF3FEF4FE75FE70E94C112882356
:101CF00051F4C601B5012FEF3FEF4FE75FE70E94B8
:101D00000B11181614F0C1E0D0E0219739F0C4018E
:101D100067E671E00E947A0DEC0193C0C801B7013B
:101D20002FEF3FEF4FE75FE40E945A12181654F06E
:101D3000C801B7012FEF3FEF4FE75FEC0E940B1197
:101D4000882324F4C4016BE671E0E4CFC801B70135
:101D500020E030E040E050E00E940B1187FD03C01E
:101D6000C0E0D0E00EC0D401ED91FC910190F08173
:101D7000E02DC4016DE20995EC0117FB109517F9F0
:101D8000109520E030E040E05FE3DD240BC0CA01A5
:101D9000B90120E030E040E251E40E940F119B01C4
:101DA000AC01D394D71498F3C801B7010E94A710CF
:101DB0005B016C010E947C117B018C01C401B801A4
:101DC000A7012AE030E00E94FA0DC80FD91F772042
:101DD00039F0C4016FE671E00E947A0DC80FD91F77
:101DE000C801B7010E94A8119B01AC01C601B50151
:101DF0000E94A61024C020E030E040E251E40E949E
:101E00005E127B018C010E9477115B016C01CC2476
:101E1000B7FCC094DC2CC401B601A5012AE030E077
:101E20000E94090EC80FD91FC601B5010E94AA1150
:101E30009B01AC01C801B7010E94A6107A947720DB
:101E4000D1F6CE01DF91CF911F910F91FF90EF90CE
:101E5000DF90CF90BF90AF909F908F907F9008952C
:101E60000E944C0E0895EF92FF920F931F937C01F6
:101E70000E947A0D8C01C7010E945A0D080F191F8C
:101E8000C8011F910F91FF90EF900895CF93DF93BA
:101E90000E94AE0F0E948001CDE8DBE00E948D0021
:101EA0002097E1F30E948D0BF9CF0E94200A08953C
:101EB0001F920F920FB60F9211242F933F938F937F
:101EC0009F93AF93BF938091020390910303A091DE
:101ED0000403B0910503309106030196A11DB11DC5
:101EE000232F2D5F2D3720F02D570196A11DB11DF9
:101EF000209306038093020390930303A0930403AB
:101F0000B09305038091FE029091FF02A09100031F
:101F1000B09101030196A11DB11D8093FE02909323
:101F2000FF02A0930003B0930103BF91AF919F9173
:101F30008F913F912F910F900FBE0F901F9018958A
:101F40008FB7F8942091020330910303409104036A
:101F5000509105038FBFB901CA010895789484B5E3
:101F6000826084BD84B5816084BD85B5826085BD95
:101F700085B5816085BDEEE6F0E08081816080837B
:101F8000E1E8F0E01082808182608083808181605E
:101F90008083E0E8F0E0808181608083E1EBF0E025
:101FA000808184608083E0EBF0E0808181608083C9
:101FB000EAE7F0E0808184608083808182608083B2
:101FC0008081816080838081806880831092C100DD
:101FD0000895EF92FF920F931F93CF93DF937B01AE
:101FE0008C013FB7F8948091FE029091FF02A0917E
:101FF0000003B091010326B5A89B05C02F3F19F03F
:102000000196A11DB11D3FBFBA2FA92F982F882778
:10201000820F911DA11DB11D52E0880F991FAA1FAB
:10202000BB1F5A95D1F7EC0130C00E94A5103FB7F5
:10203000F8948091FE029091FF02A0910003B0916C
:10204000010326B5A89B05C02F3F19F00196A11DDD
:10205000B11D3FBFBA2FA92F982F8827820F911D3E
:10206000A11DB11D32E0880F991FAA1FBB1F3A9511
:10207000D1F78C1B9D0B885E9340B8F20894E10861
:10208000F10801091109C851DC4FE114F1040105FF
:10209000110559F6DF91CF911F910F91FF90EF90AD
:1020A0000895482F50E0CA0182559F4FFC012491AA
:1020B000CA0186569F4FFC0194914A575F4FFA011F
:1020C0003491332309F440C0222351F1233071F0BD
:1020D000243028F42130A1F0223011F514C026302C
:1020E000B1F02730C1F02430D9F404C080918000D1
:1020F0008F7703C0809180008F7D8093800010C017
:1021000084B58F7702C084B58F7D84BD09C080916E
:10211000B0008F7703C08091B0008F7D8093B000B6
:10212000E32FF0E0EE0FFF1FEE58FF4FA591B491A3
:102130002FB7F894662321F48C919095892302C0DF
:102140008C91892B8C932FBF089508955058BB27ED
:10215000AA270ED075C166D130F06BD120F031F4D2
:102160009F3F11F41EF45BC10EF4E095E7FB51C1F3
:10217000E92F77D180F3BA176207730784079507B1
:1021800018F071F49EF58FC10EF4E0950B2EBA2F66
:10219000A02D0B01B90190010C01CA01A00111246D
:1021A000FF27591B99F0593F50F4503E68F11A1619
:1021B000F040A22F232F342F4427585FF3CF4695AA
:1021C00037952795A795F0405395C9F77EF41F16CC
:1021D000BA0B620B730B840BBAF09150A1F0FF0F96
:1021E000BB1F661F771F881FC2F70EC0BA0F621F82
:1021F000731F841F48F4879577956795B795F79572
:102200009E3F08F0B3CF9395880F08F09927EE0F03
:10221000979587950895D9D008F481E008950CD05A
:102220000FC107D140F0FED030F021F45F3F19F02C
:10223000F0C0511139C1F3C014D198F39923C9F3F7
:102240005523B1F3951B550BBB27AA2762177307BC
:10225000840738F09F5F5F4F220F331F441FAA1F70
:10226000A9F333D00E2E3AF0E0E830D09150504030
:10227000E695001CCAF729D0FE2F27D0660F771FDE
:10228000881FBB1F261737074807AB07B0E809F0C0
:10229000BB0B802DBF01FF2793585F4F2AF09E3F55
:1022A000510568F0B6C000C15F3FECF3983EDCF327
:1022B000869577956795B795F7959F5FC9F7880FCE
:1022C000911D9695879597F90895E1E0660F771F20
:1022D000881FBB1F621773078407BA0720F0621BB1
:1022E000730B840BBA0BEE1F88F7E095089504D0AA
:1022F0006894B111D9C00895BCD088F09F5790F070
:10230000B92F9927B751A0F0D1F0660F771F881F1A
:10231000991F1AF0BA95C9F712C0B13081F0C3D035
:10232000B1E00895C0C0672F782F8827B85F39F0D3
:10233000B93FCCF3869577956795B395D9F73EF479
:1023400090958095709561957F4F8F4F9F4F089521
:10235000E89409C097FB3EF490958095709561953F
:102360007F4F8F4F9F4F9923A9F0F92F96E9BB27F5
:102370009395F695879577956795B795F111F8CF71
:10238000FAF4BB0F11F460FF1BC06F5F7F4F8F4FDC
:102390009F4F16C0882311F096E911C0772321F0D2
:1023A0009EE8872F762F05C0662371F096E8862F6A
:1023B00070E060E02AF09A95660F771F881FDAF7C1
:1023C000880F9695879597F90895990F0008550FEE
:1023D000AA0BE0E8FEEF16161706E807F907C0F0AB
:1023E00012161306E407F50798F0621B730B840BB3
:1023F000950B39F40A2661F0232B242B252B21F48D
:1024000008950A2609F4A140A6958FEF811D811D2C
:10241000089597F99F6780E870E060E008959FEF66
:1024200080EC089500240A9416161706180609066B
:10243000089500240A94121613061406050608953A
:10244000092E0394000C11F4882352F0BB0F40F4C2
:10245000BF2B11F460FF04C06F5F7F4F8F4F9F4F02
:10246000089557FD9058440F551F59F05F3F71F084
:102470004795880F97FB991F61F09F3F79F08795EB
:102480000895121613061406551FF2CF4695F1DF74
:1024900008C0161617061806991FF1CF8695710504
:1024A000610508940895E894BB2766277727CB0138
:1024B00097F908958ADF08F48FEF08950BD0C0CF05
:1024C000B1DF28F0B6DF18F0952309F0A2CFA7CF2F
:1024D0001124EACFC6DFA0F3959FD1F3950F50E00A
:1024E000551F629FF001729FBB27F00DB11D639FC6
:1024F000AA27F00DB11DAA1F649F6627B00DA11D6C
:10250000661F829F2227B00DA11D621F739FB00D11
:10251000A11D621F839FA00D611D221F749F332781
:10252000A00D611D231F849F600D211D822F762F1A
:102530006A2F11249F5750408AF0E1F088234AF017
:10254000EE0FFF1FBB1F661F771F881F9150504063
:10255000A9F79E3F510570F05CCFA6CF5F3FECF32B
:10256000983EDCF3869577956795B795F795E7954F
:102570009F5FC1F7FE2B880F911D9695879597F960
:10258000089523DF880B990B0895629FD001739FF4
:10259000F001829FE00DF11D649FE00DF11D929FFF
:1025A000F00D839FF00D749FF00D659FF00D99273E
:1025B000729FB00DE11DF91F639FB00DE11DF91F62
:1025C000BD01CF0111240895A1E21A2EAA1BBB1B45
:1025D000FD010DC0AA1FBB1FEE1FFF1FA217B307EF
:1025E000E407F50720F0A21BB30BE40BF50B661F05
:1025F000771F881F991F1A9469F7609570958095C9
:1026000090959B01AC01BD01CF010895EE0FFF1F16
:0C2610000590F491E02D0994F894FFCFA0
:10261C0061783A09000961793A090009617A3A0945
:10262C00000967783A09000967793A090009677A5D
:10263C003A09004D50553630353020696E69746951
:10264C00616C697A6174696F6E206661696C65642E
:10265C00004D50553630353020696E697469616CA7
:10266C00697A6174696F6E207375636365737366E1
:10267C00756C006E616E00696E66006F7666002E7A
:10268C0000E80380000B03000000000000BD098C73
:10269C000945094E0963097409000000009E0C30BD
:0A26AC000D540C700C600C8E0C0035
:00000001FF
