:100000000C949F040C949A190C94C7190C94C7046F
:100010000C94C7040C94C7040C94C7040C94C70434
:100020000C94C7040C94C7040C94C7040C94C70424
:100030000C94C7040C94C7040C94C7040C94C70414
:100040000C94061A0C94C7040C9462150C94A91510
:100050000C94C7040C94C7040C94C7040C94C704F4
:100060000C94B7100C94C704FB00003E000B003644
:10007000000100020003000000650054FFEF0000D3
:10008000FA80000B12820001000200000000000054
:10009000000000000000000000280000FFFF458174
:1000A000FFFFFA7200000000000003E800000001FA
:1000B00000017FFFFFFE8001001B00000000000028
:1000C0000000000000000000003E0330400000007F
:1000D00002CAE3093E80000020000000000000008A
:1000E000400000006000000041FF000000000B2AFB
:1000F0000000165500002182FD872650FD8000007B
:10010000001F00000005800000000000000100004A
:100110000002000000030000400000000000046F27
:100120000002653200005EC04000000000000000D8
:100130000000000000000000FB8C6F5DFD5D08D931
:10014000007C733B006C12CC3200139D3200D0D681
:1001500032000800400001F4FFE680790200000050
:100160000000D0D600002710FB0000004000000077
:10017000000000000000000000000001000000007E
:1001800000000100010000000000FA36FFBC308EC4
:100190000005FBF0FFD95BC8FFD09ABE000010A994
:1001A000FFF41EB200CEBBF7000000010000000407
:1001B000000200020200000CFFC28000000180006B
:1001C00000CF80004000000000000001000000009F
:1001D0000000060000000014000000000000000005
:1001E000000000000000000000000000000000000F
:1001F00000000000000000000000000000000000FF
:10020000000000000000000000000000033F68B68E
:10021000793528BCC67ED16C80000000400000000B
:100220000000B26A000000000000000000000000B2
:1002300000003FF00000003000000000000000005F
:1002400000000000000000000000000000000000AE
:1002500000000000000000000000254D002F706D20
:10026000000005AE000C02D0000000000065005444
:10027000FFEF00000000000000000100004400004B
:1002800000000C00000001000000000000650000FC
:1002900000540000FFEF000000000000000000001C
:1002A000000000000000000040000000000000000E
:1002B00000000000000000004000000000000000FE
:1002C000000000000000000000000001000000022B
:1002D000000000000000000000000000000000001E
:1002E000000000000000000000000000000000000E
:1002F0000000000000000000001B000000000000E3
:1003000000000000000000000000000000000000ED
:1003100000000000000000000000000000000000DD
:100320000000000040000000001B00000000000072
:1003300000000000000000000000000000000000BD
:1003400000000000000000000000000000000000AD
:10035000000000000000000000000000000000009D
:100360000000000000000000D8DCBAA2F1DEB2B844
:10037000B4A88191F74A907F916AF3F9DBA8F9B0AC
:10038000BAA080F2CE81F3C2F1C1F2C3F3CCA2B223
:1003900080F1C6D880BAA7DFDFDFF2A7C3CBC5B62E
:1003A000F087A2942448703C95406834589B78A20A
:1003B000F183922D557DD8B1B4B8A1D09180F2705F
:1003C000F370F27C80A8F101B09887D943D886C930
:1003D00088BAA1F20EB89780F1A9DFDFDFAADFDFCC
:1003E000DFF2AAC5CDC7A90CC92C97979797F1A999
:1003F00089264666B0B4BA80ACDEF2CAF1B28C028D
:10040000A9B69800890E161EB8A9B4992C547CB0D0
:100410008AA896365676F1B9AFB4B083C0B8A8971B
:1004200011B18F98B9AFF0240844106418F1A329D2
:10043000557DAF83B593AFF0002850F1A3869F613F
:10044000A6DADEDFD9FAA38696DB31A6D9F8DFBAC1
:10045000A68FC2C5C7B28CC1B8A2DFDFDFA3DFDFC2
:10046000DFD8D8F1B8A8B286B4980D355DB8AA988F
:10047000B0872D353DB2B6BAAF8C96198F9FA70EB7
:10048000161EB49AB8AA872C547CB9A3DEDFDFA36A
:10049000B180F2C4CDC9F1B8A9B499830D355D8995
:1004A000B9A32D557DB593A30E161EA92C547CB867
:1004B000B4B0F19783A81184A50998A383F0DA2436
:1004C0000844106418D8F1A529557DA58595021A10
:1004D0002E3A565A4048F9F3A3D9F8F098832408E5
:1004E000441064189782A8F111F098A224084410CF
:1004F0006418DAF3DED883A59401D9A302F1A2C36C
:10050000C5C7D8F18492A24DDA2AD84869D92AD829
:100510006855DA32D85071D932D8705DDA3AD85885
:1005200079D93AD87893A34DDA2AD84869D92AD804
:100530006855DA32D85071D932D8705DDA3AD85865
:1005400079D93AD878A88A9AF02850789EF38818F2
:10055000F19F1D98A8D908D8C89F129EF315A8DA54
:100560001210D8F1AFC8978734B5B994A421F3D944
:1005700022D8F22DF3D92AD8F235F3D932D881A472
:10058000606061D961D86C6869D969D8747071D9B3
:1005900071D8B1A384193D5DA3831A3E5E931030D8
:1005A000811011B8B0AF8F94F2DA3ED8B49AA88710
:1005B00029DAF8D8879A35DAF8D8879A3DDAF8D860
:1005C000B1B9A49885022E56A581000C14A397B04A
:1005D0008AF12DD928D84DD948D86DD968D8B18499
:1005E0000DDA0ED8A32983DA2C0ED8A3844983DA36
:1005F0002C4C0ED8B8B0A88A9AF520AADADFD8A871
:1006000040AAD0DADED8A860AADAD0DFD8F197867F
:10061000A8319B069907AB9728889BF00C201440C3
:10062000B8B0B4A88C9CF0042851791D301438B2AD
:1006300082ABD0982C505078789BF11AB0F08A9CFD
:10064000A82951798B2951798A2470598B205871A6
:100650008A4469388B3940688A6448318B304960F4
:10066000A588200971584468113964493019F1ACE2
:10067000002C547CF08CA804285078F1889726A888
:100680005998AC8C02264666F0899CA82951792499
:100690007059446938644831A98809205970AB11F0
:1006A000384069A8193148608CA83C415C207C0026
:1006B000F187981986A86E767EA999882D557D9E1A
:1006C000B9A38A228A6E8A568A5E9FB1830626461D
:1006D000660E2E4E6E9DB8AD002C547CF2B18CB4DB
:1006E00099B9A32D557D8191AC38AD3AB58391ACC4
:1006F0002DD928D84DD948D86DD968D88C9DAE2928
:10070000D904AED851D904AED879D904D881F39D93
:10071000AD008DAE1981ADD901D8F2AEDA26D88EF2
:10072000912983A7D9ADADADADF32AD8D8F1B0AC3E
:1007300089913E5E76F3AC2E2EF1B18C5A9CAC2C96
:100740002828289CAC3018A8988128343C9724A7E6
:1007500028343C9C24F2B089AC912C4C6C8A9B2DA3
:10076000D9D8D851D9D8D879D9D8D8F19E88A33139
:10077000DAD8D8912DD928D84DD948D86DD968D88C
:10078000B18393353D8025DAD8D88569DAD8D8B4D5
:100790009381A328343CF3AB8BF8A391B609B4D969
:1007A000ABDEFAB0879CB9A3DDF1A3A3A3A395F1B7
:1007B000A3A3A39DF1A3A3A3A3F2A3B49080F2A348
:1007C000A3A3A3A3A3A3A3A3A3B2A3A3A3A3A3A3EA
:1007D000B087B599F1A3A3A398F1A3A3A3A397A36B
:1007E000A3A3A3F39BA3A3DCB9A7F1262626D8D8FD
:1007F000FF037B034CCD6C03AB03365676006804D5
:1008000002CB47A202180400058BC1010C040000B2
:100810000000037F060CC92C97979703890326468F
:1008200066006C0220000240040000000002440444
:100830000000000002480400000000024C04000018
:1008400000000250040000000002540400000000F8
:1008500002580400000000025C040000000002BC1A
:10086000040000000001EC0400004000037F060CBF
:10087000C92C9797970402030D355D040904872D51
:10088000353D00A3010000000001078601FE07417D
:1008900005F120283038077E01300746019A0747C6
:1008A00004F1283038076C04F128303802160200B1
:1008B0000101B202FFFF0190040923A135016A0280
:1008C0000600016008000000000000000000600455
:1008D00040000000016202000000600400400000CF
:1008E00000000000240027002A000000000025006E
:1008F00028002B000000000023002600290004042B
:1009000004040404040402020202020203030303B7
:100910000303010204081020408001020408102093
:10092000010204081020000000070002010000037B
:1009300004060000000000000000A012E6161124CA
:100940001FBECFEFD8E0DEBFCDBF12E0A0E0B1E028
:10095000E8E7FBE302C005900D92AC30B107D9F790
:1009600013E0ACE0B2E001C01D92A138B107E1F79D
:1009700019E0CEE3D9E004C02297FE010E94B61D23
:10098000CA33D107C9F70E94F4190C94BA1D0C940C
:100990000000FB01DC0104C08D910190801921F45D
:1009A00041505040C8F7881B990B0895FB01DC01AA
:1009B00002C001900D9241505040D8F708950E9416
:1009C000190D0E94090C882351F00E94190D0E94F4
:1009D0000E0C8823D1F30E94190D0E94260C089555
:1009E0000E94190D0E945A0F0895CF92DF92FF9234
:1009F0000F931F93CF93DF93582F162F042F690166
:100A000082EC92E0652F0E94661282EC92E0612FE8
:100A10000E94E812C02FD0E0CC0FDD1FFF2412C0CF
:100A2000000F111F0C0D1D1DF801618182EC92E079
:100A30000E94E81282EC92E0F80160810E94E812C4
:100A4000F2E0FF0E0F2D10E00C171D074CF382ECA7
:100A500092E00E942B1390E0882309F491E0892F03
:100A6000DF91CF911F910F91FF90DF90CF9008956C
:100A7000DF93CF9300D0CDB7DEB75A83498341E0EF
:100A80009E012F5F3F4F0E94F5040F900F90CF9172
:100A9000DF910895EF92FF920F931F93CF93DF930F
:100AA000582F162FE42E022FF32E82EC92E0652FA2
:100AB0000E94661282EC92E0612F0E94E812202FC1
:100AC0003F2DC901EC0110E006C082EC92E0699173
:100AD0000E94E8121F5F1E15C0F382EC92E00E9494
:100AE0002B1390E0882309F491E0892FDF91CF91B7
:100AF0001F910F91FF90EF900895DF93CF930F9286
:100B0000CDB7DEB7498341E09E012F5F3F4F0E9482
:100B10004A050F90CF91DF9108952F923F924F9207
:100B20005F926F927F928F929F92AF92BF92CF927D
:100B3000DF92EF92FF920F931F93DF93CF9300D03A
:100B400000D00F92CDB7DEB7882E6983942E3B83F9
:100B50002A830E944E1A5B016C01FF24EE24292C8B
:100B600033242801662477244BC082EC92E0682D60
:100B70000E94661282EC92E069810E94E81282EC87
:100B800092E00E942B1382EC92E0682D0E94661284
:100B9000A1014E1951094132510514F040E250E0D3
:100BA00082EC92E0682D0E943C132F2D332727FD05
:100BB00030958A819B81280F391F3D832C8382ECDD
:100BC00092E00E947012892B09F452C001151105A0
:100BD00061F00E944E1A6A197B098C099D096415FF
:100BE00075058605970508F043C082EC92E00E94E7
:100BF0007912EC81FD818193FD83EC83F394DFCF47
:100C0000E91408F4B2CF01151105C9F00E944E1A7B
:100C10006A197B098C099D09980140E050E0621730
:100C200073078407950758F02F2D332727FD30953C
:100C3000892D90E02817390714F4FF24FA948F2D9A
:100C40000F900F900F900F900F90CF91DF911F9109
:100C50000F91FF90EF90DF90CF90BF90AF909F905B
:100C60008F907F906F905F904F903F902F9008955E
:100C7000892DF0E2F91508F480E2E80EC1CF0F9358
:100C80001F93FA01890141E09F010E948D051F9188
:100C90000F910895DF92EF92FF920F931F93DF93CE
:100CA000CF930F92CDB7DEB7E82ED62EF42E122FAB
:100CB0002091E3013091E401AE014F5F5F4F0E944C
:100CC0003F06882341F1212F30E04F2D50E04F5F48
:100CD0005F4F421B530B81E090E002C0880F991FC9
:100CE0001A95E2F70197042E02C0880F991F0A9403
:100CF000E2F7202F30E002C0220F331F4A95E2F7BF
:100D0000482F4095598145238223482B49838E2DB6
:100D10006D2D0E947D050F90CF91DF911F910F9156
:100D2000FF90EF90DF900895EF92FF920F931F9343
:100D3000DF93CF930F92CDB7DEB7F82EE62E042FB8
:100D4000122F2091E3013091E401AE014F5F5F4F1C
:100D50000E943F062981112351F081E090E002C0FA
:100D6000880F991F0A95E2F7422F482B0AC081E0AD
:100D700090E002C0880F991F0A95E2F7482F40952E
:100D8000422349838F2D6E2D0E947D050F90CF91B8
:100D9000DF911F910F91FF90EF900895CF92DF9216
:100DA000EF92FF920F931F93DF93CF930F92CDB7E4
:100DB000DEB7C42ED22E9701AE014F5F5F4F0E9467
:100DC0003F06682F882309F18D2D90E04C2D50E0CF
:100DD0004F5F5F4F481B590B21E030E002C0220FEC
:100DE000331FDA94E2F721503040042E02C0220F64
:100DF000331F0A94E2F78981822390E002C095951F
:100E000087954A95E2F7F8018083862F0F90CF915E
:100E1000DF911F910F91FF90EF90DF90CF90089599
:100E2000DF92EF92FF920F931F93DF93CF930F9276
:100E3000CDB7DEB7D42E79019801AE014F5F5F4F79
:100E40000E943F0621E030E002C0220F331FDA94F7
:100E5000E2F799819223F70190830F90CF91DF9170
:100E60001F910F91FF90EF90DF900895FC0188E6AD
:100E700080830895FC01462F808161E70E947D05F3
:100E80000895FC01462F808160E70E947D0508954A
:100E9000FC01462F80816EE60E947D050895FC01CD
:100EA000962F9F71211190624111906480816DE6AF
:100EB000492F0E947D050895FC01462F808168E33B
:100EC0000E947D050895FC01862F643040F463E0A4
:100ED000869FB00111246B5D80810E947D0508957D
:100EE000FC01462F808162E20E947D050895FC018D
:100EF000462F808161E20E947D050895FC01462F06
:100F0000808160E20E947D050895FC01462F80816A
:100F10006FE10E947D050895FC01462F808169E103
:100F20000E947D0508950F931F938C01AC014F5FC4
:100F30005F4F2091E3013091E401FC0180816FE675
:100F40000E943F06F80181811F910F9108950F9330
:100F50001F938C01AC014F5F5F4F2091E3013091F3
:100F6000E401FC0180816AE30E943F06F80181816F
:100F70001F910F9108954F925F926F927F929F926F
:100F8000AF92BF92CF92DF92EF92FF920F931F9397
:100F9000CF93DF936C013B015A01922EE02E622F1A
:100FA00040E020E00E944F07C601602F0E944807E2
:100FB000C0E0D0E0412C91E0592E34C0CE014096E3
:100FC000A816B90618F080E1F82E02C0FA2CFC1A17
:100FD0002F2D30E0C2018E1991098217930714F466
:100FE000FE2CF19493012C0F3D1F0091E301109111
:100FF000E401F60180816FE64F2D0E948D05CF0D33
:10100000D11DEF0CCA15DB0568F4EE2009F49394AA
:10101000C601692D40E020E00E944F07C6016E2DF9
:101020000E944807CA15DB0548F2DF91CF911F9156
:101030000F91FF90EF90DF90CF90BF90AF909F9077
:101040007F906F905F904F9008950F931F93FC01D6
:101050009B010091E3011091E401808164E70E940B
:101060008D051F910F910895EF92FF920F931F939B
:101070007C019C012F5F3F4F0091E3011091E4013F
:10108000FC01808162E742E00E948D05F7019181B9
:1010900080E0228130E0282B392BC9011F910F916C
:1010A000FF90EF9008953F924F925F926F927F92E0
:1010B0008F929F92AF92BF92CF92DF92EF92FF9268
:1010C0000F931F93DF93CF9300D000D0CDB7DEB73F
:1010D0005C017A8369832A01622E702E3E2CEC2CEF
:1010E000622F40E020E00E944F07C501602F0E9460
:1010F0004807332029F080E190E00E944B134C0117
:10110000EE2029F080E190E00E944B136C011C82DC
:101110001B827BC08B819C8140964816590618F033
:10112000E0E1FE2E03C0F42C8B81F81A2F2D30E065
:1011300080E091E0871991098217930714F4F72C46
:10114000F194E981FA81AB81BC81EA0FFB1FEE20AB
:1011500089F0AF0120E030E00AC0FA018491F60185
:10116000E20FF31F80832F5F3F4F4F5F5F4F2F15BD
:10117000A0F301C06F01D5018C916FE64F2D960150
:101180000E944A05332051F18114910439F1C501BF
:10119000662D40E020E00E944F07C501672D0E94A8
:1011A00048070091E3011091E401F50180816FE6A9
:1011B0004F2D94010E948D05C601B4014F2D50E0C2
:1011C0000E94C904009751F0C4010E94E813EE2068
:1011D00019F0C6010E94E81380E028C08B819C8131
:1011E0008F0D911D9C838B837F0C8415950568F46E
:1011F000772009F46394C501662D40E020E00E9449
:101200004F07C501672D0E944807AB81BC81A4151B
:10121000B50508F47FCF332019F0C4010E94E8130C
:10122000EE2019F0C6010E94E81381E00F900F90A4
:101230000F900F90CF91DF911F910F91FF90EF9042
:10124000DF90CF90BF90AF909F908F907F906F90E6
:101250005F904F903F9008952F923F924F925F92F0
:101260006F927F928F929F92AF92BF92CF92EF92A6
:10127000FF920F931F93CF93DF932C014B011A0121
:10128000F22E222309F47CC088E090E00E944B13E8
:101290005C0176C0AE014F5F5F4FF401EC0FFD1FA4
:1012A000FF2091F08491BA016F5F7F4F480D591D67
:1012B000FA019491EB012196680D791DFB0164916F
:1012C000E82E092F162F0DC0E080F401E40FF51F62
:1012D0000081CA010196F401E80FF91F1081EC01A9
:1012E0002196112389F1FF20F1F0133030F0C50170
:1012F000612F70E00E9480145C01A4014C0F5D1FFF
:1013000020E030E0612F70E00AC0FA018491F5011D
:10131000E20FF31F80832F5F3F4F4F5F5F4F261712
:10132000370798F303C05401AC0EBD1E612E77241D
:10133000C201B501A3012E2DEE24E394CC240E941A
:101340005308882301F515C0F401EC0FFD1FCE01F1
:101350000196FF2019F0EC01249102C02081EC01DC
:10136000213039F4F201808168E342E30E947D0577
:101370000CC0FF2019F0C5010E94E81380E00FC0E7
:10138000C0E0D0E002C0C60DD71DC215D30508F4D9
:1013900081CFFF2019F0C5010E94E81381E0DF91A1
:1013A000CF911F910F91FF90EF90CF90BF90AF9092
:1013B0009F908F907F906F905F904F903F902F9075
:1013C000089521E00E942C090895CF92EF920F9387
:1013D000CC24C3940E9453080F91EF90CF900895AE
:1013E000FC0180816AE643E021E00E9494060895B2
:1013F000FC01262F80816AE647E00E94940608954A
:10140000FC01262F808160E040E00E949406089550
:10141000FC01262F80816BE646E00E949406089529
:10142000FC0180816BE647E021E00E94940608956C
:10143000FC0180816AE641E021E00E949406089563
:10144000FC0180816AE642E021E00E949406089552
:10145000FC01262F80816AE645E00E9494060895EB
:10146000FC01262F80816AE646E00E9494060895DA
:10147000EF92FF920F931F937C019C012F5F3F4FD0
:101480000091E3011091E401FC01808160E040E003
:101490000E941007F70181811F910F91FF90EF903B
:1014A0000895FC01AB01808167E10E943805089531
:1014B000FC01AB01808165E10E9438050895FC01C3
:1014C000AB01808163E10E9438050895FC01AB0106
:1014D00080816AE00E9438050895FC01AB0180819B
:1014E00068E00E9438050895FC01AB01808166E048
:1014F0000E94380508950F93FC01062F808162E059
:1015000046E026E00E944A060F9108950F93FC01E1
:10151000062F808161E046E026E00E944A060F9196
:1015200008950F93FC01062F808160E046E026E0DD
:101530000E944A060F9108950F93FC01062F8081A7
:101540006BE642E023E00E944A060F9108950F9354
:10155000FC01062F80816CE144E022E00E944A06F3
:101560000F9108950F93FC01062F80816BE144E0F9
:1015700022E00E944A060F9108950F931F938C0159
:1015800061E00E949C0AC80160E00E94B20AC801A2
:1015900060E00E94A70AC80160E00E94080A1F914B
:1015A0000F9108950F93FC01062F80816AE142E0BC
:1015B00023E00E944A060F9108950F93FC01062F25
:1015C00080816AE145E023E00E944A060F91089578
:1015D000CF92DF92EF92FF920F931F936C018C01D9
:1015E0000F5F1F4FE090E301F090E401FC01808168
:1015F00062E046E026E00E94CE06F60181811F915E
:101600000F91FF90EF90DF90CF900895CF92DF92EF
:10161000EF92FF920F931F936C018C010F5F1F4F8E
:10162000E090E301F090E401FC01808161E046E09C
:1016300026E00E94CE06F60181811F910F91FF9056
:10164000EF90DF90CF900895CF92DF92EF92FF92CC
:101650000F931F936C018C010F5F1F4FE090E3010C
:10166000F090E401FC01808160E046E026E00E9409
:10167000CE06F60181811F910F91FF90EF90DF90D0
:10168000CF900895CF92DF92EF92FF920F931F9326
:101690006C018C010F5F1F4FE090E301F090E401BB
:1016A000FC01808165E746E026E00E94CE06F60157
:1016B00081811F910F91FF90EF90DF90CF9008955F
:1016C0000E94420B90E0843309F491E0892F089541
:1016D000CF93DF93EC01DB01FA014115510511F4C1
:1016E000E881F9812181908180E0820F911D11961E
:1016F0009C938E93948180E02581820F911D139697
:101700009C938E931297908580E02185820F911D86
:1017100015969C938E931497948580E02585820F6F
:10172000911D17969C938E93169780E0DF91CF9131
:101730000895FF920F931F93DF93CF93CDB7DEB73A
:1017400028970FB6F894DEBF0FBECDBF8B01BE0148
:101750006F5F7F4F0E94680BF82E882309F04CC002
:1017600069817A81882777FD8095982F0E94581C7F
:1017700020E030E040E858E30E940C1DF80160834F
:101780007183828393836B817C81882777FD809529
:10179000982F0E94581C20E030E040E858E30E9457
:1017A0000C1DF80164837583868397836D817E8128
:1017B000882777FD8095982F0E94581C20E030E004
:1017C00040E858E30E940C1DF8016087718782870A
:1017D00093876F817885882777FD8095982F0E9461
:1017E000581C20E030E040E858E30E940C1DF8014E
:1017F00064877587868797878F2D28960FB6F8940C
:10180000DEBF0FBECDBFCF91DF911F910F91FF9033
:101810000895FC01E75AFF4F80810895DC01A65A24
:10182000BF4F8C91AA55B040882369F440E0FD0178
:10183000EB5AFF4FA95ABF4F2D913C918081918166
:101840002817390708F041E0842F08958F929F925E
:10185000AF92BF92CF92DF92EF92FF920F931F93BE
:10186000DF93CF93CDB7DEB760970FB6F894DEBFA6
:101870000FBECDBF8C01065A1F4FF80110820A55CA
:101880001040902E812EC8010E94A707F801848B7A
:10189000C8010E9434089C0197E5E92EF12CE00E66
:1018A000F11EF70131832083F801848984FD03C090
:1018B0002050344059F4892D982D0E94200A8EEC36
:1018C00092E060E071E00E9464198CC081FD09C063
:1018D00089C0892D982D0E943408F6019183808358
:1018E00006C085E5A82EB12CA00EB11E6701F5013A
:1018F00040815181F601808191818417950748F3D9
:101900000B5E1F4F892D982DB8010E942508F70105
:1019100080819181F50120813181821B930BF70138
:101920009183808380E090E0A0E8BFE389839A837D
:10193000AB83BC8380E090E0A0E0B0E08D839E8329
:10194000AF83B88789879A87AB87BC878D879E8747
:10195000AF87B88B892D982DBE016F5F7F4FA8018F
:101960000E94990B8EEC92E06FE071E00E94671884
:1019700049815A816B817C818EEC92E022E030E0DB
:101980000E944E198EEC92E065E171E00E946718AA
:101990004D815E816F8178858EEC92E022E030E0AF
:1019A0000E944E198EEC92E065E171E00E9467188A
:1019B00049855A856B857C858EEC92E022E030E08B
:1019C0000E944E198EEC92E065E171E00E9467186A
:1019D0004D855E856F8578898EEC92E022E030E05F
:1019E0000E94511960960FB6F894DEBF0FBECDBFAE
:1019F000CF91DF911F910F91FF90EF90DF90CF90EB
:101A0000BF90AF909F908F9008950F931F938C017C
:101A10000E943607F801138A148A0B5A1F4FF801E7
:101A20001192119211921192119210821F910F91A5
:101A300008950F931F9380910C0290910D02892BB2
:101A400061F48BE590E00E94031A182F092F0E9481
:101A5000050D10930C0200930D0280910C029091E1
:101A60000D021F910F9108950E94190DFC01E65A75
:101A7000FF4F81E0808308958F929F92AF92BF9233
:101A8000CF92EF920F93DF93CF93CDB7DEB7C059CC
:101A9000D0400FB6F894DEBF0FBECDBF5C010E94F0
:101AA000100A6EE170E080E090E00E94971AC50194
:101AB00060E00E94080AC50160E141E021E00E9467
:101AC0004F07C50166E00E944807C5010E949307C1
:101AD000C50160E040E020E00E944F07C5010E9480
:101AE000380AC5010E94240B882EC5010E94060BEE
:101AF000982EC5010E94E80AC82EC50160E04FE794
:101B00000E946307C50160E00E94280AC50160E0E9
:101B100048E60E946307C5010E94180A64E170E06C
:101B200080E090E00E94971AC50168E670E049E8FD
:101B300057E020E000E0EE24E3940E94E5098823CA
:101B400011F481E0A6C1C50161EF77E040EC50E0FF
:101B50000E94E109882311F482E09BC1C50163E082
:101B60000E949C0AC50162E10E945C07C50164E015
:101B70000E948C07C50161E00E94DD0AC50163E097
:101B80000E94D20AC50163E00E94B20AC50163E067
:101B90000E944107C50160E00E943A07C50160E06C
:101BA0000E94000AC501682D0E94910AC501692D95
:101BB0000E94860AC5016C2D0E947B0A8824992404
:101BC000BE016F5F7F4FF401EF54F74FE491DB01EB
:101BD000A80DB11DEC93282D2F5F0894811C911C3A
:101BE00083E0881580F74B81842F90E0029630E0E7
:101BF0008217930744F7C501BE016C5F7F4F50E029
:101C000029810A81EE24E394CC240E94530850E0F9
:101C1000BE016F5F7F4FF401EF54F74FE491DB019A
:101C2000A50FB11DEC935F5F0894811C911C54308B
:101C300090F34B81842F90E00296252F30E082179D
:101C400093074CF7C501BE016C5F7F4F50E02981BF
:101C50000A81EE24E394CC240E945308C5010E941B
:101C6000200AC5010E943408482FC501BE016F5EDD
:101C70007F4F0E942508C50162E00E948507C501CB
:101C80006CE90E947707C50160E50E947E07C501E7
:101C900060E00E947007C5010E94200AC50161E052
:101CA0000E94300AC50161E00E94F809C5010E9446
:101CB000F00950E0BE016F5F7F4FF401EF54F74F22
:101CC000E491DB01A50FB11DEC935F5F0894811CCB
:101CD000911C543090F34B81842F90E00296252F75
:101CE00030E0821793074CF7C501BE016C5F7F4F50
:101CF00050E029810A81EE24E394CC240E94530809
:101D000050E0BE016F5F7F4FF401EF54F74FE49155
:101D1000DB01A50FB11DEC935F5F0894811C911C42
:101D2000543090F34B81842F90E00296252F30E0C1
:101D3000821793074CF7C501BE016C5F7F4F50E0DF
:101D400029810A81EE24E394CC240E94530850E0B8
:101D5000BE016F5F7F4FF401EF54F74FE491DB0159
:101D6000A50FB11DEC935F5F0894811C911C54304A
:101D700090F34B81842F90E00296252F30E082175C
:101D800093074CF7C501BE016C5F7F4F50E029817E
:101D90000A81EE24E394CC240E945308C5010E94DA
:101DA0003408AC0183309105C8F3C501BE016F5EF4
:101DB0007F4F0E942508C5010E94A70750E0BE0181
:101DC0006F5F7F4FF401EF54F74FE491DB01A50FF4
:101DD000B11DEC935F5F0894811C911C543090F30B
:101DE0004B81842F90E00296252F30E082179307D5
:101DF0004CF7C501BE016C5F7F4F50E029810A811D
:101E00000E94BB07C5010E943408AC0183309105D4
:101E1000C8F3C501BE016F5E7F4F0E942508C50152
:101E20000E94A70750E0BE016F5F7F4FF401EF549F
:101E3000F74FE491DB01A50FB11DEC935F5F0894B0
:101E4000811C911C543090F34B81842F90E00296BA
:101E5000252F30E0821793074CF7C501BE016C5F58
:101E60007F4F50E029810A81EE24E394CC240E9424
:101E70005308C50160E00E94F8098AE290E0F5018C
:101E800093838283C5010E94200AC5010E94A7078F
:101E900080E0C057DF4F0FB6F894DEBF0FBECDBF56
:101EA000CF91DF910F91EF90CF90BF90AF909F9027
:101EB0008F9008950F931F93CF93DF93EC0182ECE3
:101EC00092E00E94401388E18093B8008EEC92E08B
:101ED00040E052EC61E070E00E94D9151C2F0D2FFC
:101EE000CE010E94BD0ACE010E94600B882319F426
:101EF00067E171E002C061E371E08EEC92E00E9464
:101F000064198EEC92E06FE471E00E946419812FF5
:101F1000902F0E943C0D8B8B812F902F64E97FEFD7
:101F20000E94740A812F902F68E874E00E946D0A65
:101F3000812F902F60EF78E00E94660A812F902F0A
:101F40006CE170E00E945F0A812F902F64EE7FEFBA
:101F50000E94580A812F902F68E070E00E94510A79
:101F60008B89882391F58EEC92E063E671E00E9404
:101F70006419812F902F61E00E94F8098EEC92E0A5
:101F800063E771E00E94641980E064E37DE043E070
:101F900050E00E947719812F902F0E94A7078C8B09
:101FA0008EEC92E063E971E00E946419C75ADF4F3A
:101FB00081E08883C955D0408A819B81CB5ADF4F0D
:101FC00099838883C555D04013C08EEC92E062EBB4
:101FD00071E00E9467188EEC92E06B894AE050E055
:101FE0000E9415188EEC92E063ED71E00E94641976
:101FF0008B89DF91CF911F910F910895382F413236
:1020000010F040E042C080910E028823E1F791E099
:1020100090930E02209310028FEF80937B02109218
:1020200036024150409337024F5F90930F028091E8
:102030000F02330F832B80930F02809111028130A6
:1020400041F41092110280910F028093BB0085EC45
:1020500001C085EE8093BC0080910E028130E1F3D7
:1020600080913602841710F44091360220E030E06F
:102070000AC0FB01E20FF31FD901AA5EBD4F8C918C
:1020800080832F5F3F4F2417A0F3842F08950F9371
:102090001F93582F122F413210F081E04AC08091D7
:1020A0000E028823E1F782E080930E020093100273
:1020B0008FEF80937B021092360240933702A6E1A5
:1020C000B2E0FB0102C081918D938E2F861B841795
:1020D000D0F310920F0280910F02550F852B809341
:1020E0000F0280911102813041F41092110280910F
:1020F0000F028093BB0085EC01C085EE8093BC008D
:10210000112321F080910E028230E1F380917B0255
:102110008F3F11F480E00DC080917B02803211F47A
:1021200082E007C080917B02803311F084E001C01F
:1021300083E01F910F910895482F613210F081E0E4
:10214000089580910E02843011F082E0089560932A
:102150005902A8E3B2E0842F9C01F90102C08191E9
:102160008D938E2F841B8617D0F380E008951F92E5
:102170000F920FB60F9211242F933F934F935F93BB
:102180006F937F938F939F93AF93BF93EF93FF933F
:102190008091B90090E0887F90708036910509F4B5
:1021A000F2C081369105CCF58832910509F47BC0E7
:1021B00089329105B4F48031910509F46FC0813101
:1021C00091053CF4009709F447C1089709F04FC105
:1021D00065C08831910509F466C0809709F047C150
:1021E00082C08034910509F4A4C08134910544F47F
:1021F0008033910509F482C0C89709F038C189C0BD
:102200008035910509F489C08835910509F496C097
:102210008834910509F02BC1AEC08839910509F4C5
:1022200013C189399105ECF48837910509F4ABC0E5
:10223000893791054CF48836910509F4A4C080379C
:10224000910509F014C19FC08838910509F4FCC0BC
:102250008039910509F49DC08038910509F007C1C6
:1022600098C0803B910509F4C6C0813B91054CF4B0
:10227000803A910509F49FC0883A910509F0F7C0AA
:10228000BAC0803C910509F4E3C0883C910509F48B
:10229000DFC0883B910509F0EAC0C2C080910F02FF
:1022A0008093BB00CFC0909136028091370298177F
:1022B00068F490913602E92FF0E0EA5EFD4F8081EC
:1022C0008093BB009F5F90933602BCC08091100248
:1022D000882309F44BC085ED8093BC008091BC003D
:1022E00084FDFCCFC2C080E280937B0285ED8093A9
:1022F000BC008091BC0084FDFCCFB7C080E380931C
:102300007B0285ED8093BC008091BC0084FDFCCFF6
:10231000ACC088E380937B029BC080913602909191
:10232000BB00E82FF0E0EA5EFD4F90838F5F809363
:102330003602909136028091370282C08091360237
:102340009091BB00E82FF0E0EA5EFD4F90838F5F35
:102350008093360280911002882341F085ED8093AE
:10236000BC008091BC0084FDFCCF7FC081E08093E5
:10237000110284EA6EC085ED8093BC008091BC00A0
:1023800084FDFCCF72C083E080930E0210927A022B
:1023900059C080917A02803208F056C080917A024A
:1023A0009091BB00E82FF0E0E65AFD4F90838F5FDD
:1023B00080937A0247C080917A02803230F4E091B3
:1023C0007A02F0E0E65AFD4F108285ED8093BC0062
:1023D0008091BC0084FDFCCF10920E0260917A02C5
:1023E000E0911402F09115028AE592E070E00995FF
:1023F00010927A022DC084E080930E02109258024F
:1024000010925902E0911202F09113020995809105
:102410005902882329F481E08093590210923802EE
:1024200090915802E92FF0E0E85CFD4F80818093A5
:10243000BB009F5F9093580290915802809159027F
:10244000981710F485EC01C085E88093BC000FC09C
:1024500085EC8093BC0009C010927B0285ED8093CF
:10246000BC008091BC0084FDFCCF10920E02FF9155
:10247000EF91BF91AF919F918F917F916F915F91FC
:102480004F913F912F910F900FBE0F901F90189575
:1024900010920E0281E0809310021092110282E1EC
:1024A00061E00E94FF1A83E161E00E94FF1AE9EBFC
:1024B000F0E080818E7F808380818D7F808388E4BF
:1024C0008093B80085E48093BC00089581E08093F8
:1024D000C10260939E021092BF021092C002089542
:1024E00020919D0230E080919C02281B3109C90196
:1024F000089540919C0280919D02481718F02FEF9B
:102500003FEF0AC0E42FF0E0E458FD4F8081282F10
:1025100030E04F5F40939C02C9010895E0919C0216
:1025200080919D02E81718F0EFEFFFEF06C0F0E092
:10253000E458FD4F8081E82FF0E0CF010895089521
:102540001092C5021092C40288EE93E0A0E0B0E0C1
:102550008093C6029093C702A093C802B093C902A9
:102560008FEE91E09093C3028093C2020895CF92C0
:10257000DF92EF92FF920F931F93CF93DF937C0133
:102580006B018A018091C1028823A1F0C0E0D0E0F4
:102590000DC0D701ED91FC91D601AC0FBD1F01908C
:1025A000F081E02DC7016C9109952196C017D107E4
:1025B00080F304C0CB01642F0E949C10C801DF91FE
:1025C000CF911F910F91FF90EF90DF90CF900895E2
:1025D000DF93CF930F92CDB7DEB7FC016983809173
:1025E000C1028823C9F08091C002803238F081E0B6
:1025F00090E09383828320E030E015C08091BF0299
:10260000E82FF0E0E156FD4F998190838F5F809332
:10261000BF028093C00205C0CE01019661E00E9416
:102620009C1021E030E0C9010F90CF91DF91089517
:102630000F93062F80919E026FE972E04091C002D5
:1026400021E00E9447101092BF021092C002109227
:10265000C1020F91089561E00E941813089541325C
:1026600008F040E2862F6CE772E00E94FE0F1092A5
:102670009C0280939D02089521E00E942F130895EB
:1026800010929C0210929D021092BF021092C00202
:102690000E94481208950F931F93CF93DF93BC01BC
:1026A0008230910510F462E070E0E0917F03F091D8
:1026B000800340E050E0A0E0B0E024C08081918140
:1026C00086179707D0F08617970771F48281938158
:1026D000109729F013969C938E9312972CC0909389
:1026E000800380937F0327C04115510519F084179B
:1026F000950718F48D01AC01EF01DF018281938110
:102700009C01F9013097D1F641155105F9F0CA0144
:10271000861B970B8430910580F48A819B8101157B
:10272000110521F0F8019383828304C09093800304
:1027300080937F03FE01329645C0FE01E80FF91F2A
:10274000619371930297998388833CC080917D0344
:1027500090917E03892B41F48091E7019091E801EB
:1027600090937E0380937D034091E9015091EA01AB
:102770004115510541F44DB75EB78091E501909147
:10278000E601481B590B20917D0330917E032417ED
:102790003507B0F4CA01821B930B8617970780F0A8
:1027A000AB014E5F5F4F8417950750F0420F531FE8
:1027B00050937E0340937D03F9016193719302C0AE
:1027C000E0E0F0E0CF01DF91CF911F910F910895EC
:1027D000CF93DF939C01009709F48FC0EC012297FF
:1027E0001B821A8260917F037091800361157105CD
:1027F00081F488819981820F931F20917D0330910C
:102800007E032817390739F5D0937E03C0937D03E3
:1028100074C0DB0140E050E0AC17BD0708F1BB839A
:10282000AA83FE0121913191E20FF31FAE17BF077A
:1028300079F48D919C911197280F391F2E5F3F4F8E
:102840003983288312968D919C9113979B838A8359
:102850004115510571F4D0938003C0937F034DC09F
:1028600012968D919C911397AD01009711F0DC01A8
:10287000D3CFDA011396DC93CE931297FA0121910C
:102880003191E20FF31FCE17DF0769F48881998138
:10289000280F391F2E5F3F4FFA01318320838A8131
:1028A0009B8193838283E0E0F0E0DB0112968D91BF
:1028B0009C911397009719F0BC01FD01F6CFAB0175
:1028C0004E5F5F4FDB018D919C91840F951F20918E
:1028D0007D0330917E032817390779F4309729F466
:1028E0001092800310927F0302C013821282425022
:1028F000504050937E0340937D03DF91CF91089524
:102900006F927F928F929F92AF92BF92CF92DF92FF
:10291000EF92FF920F931F93CF93DF938C01009759
:1029200029F4CB010E944B138C01BBC08EEFE82E23
:102930008FEFF82EE00EF11E4801860E971E8E14C2
:102940009F0408F4ACC0D7014D915C9111974617D4
:102950005707B8F04530510508F4A3C0CA010497E1
:102960008617970708F49DC042505040461B570BEE
:10297000F401419351936D937C93CF010E94E8132E
:1029800090C05B01A41AB50A3801640E751EA091AF
:102990007F03B0918003E0E0F0E0CC24DD2447C069
:1029A000A615B705A9F5CD91DC911197CE01029638
:1029B0008A159B0568F1CE018A199B090296129629
:1029C0002C91129713963C91059758F0F4012283AD
:1029D0003383CA19DB09D183C083D7016D937C93FC
:1029E00009C04E5F5F4F4C0F5D1FF701518340835D
:1029F000C901FC01C114D10431F0D6011396FC9336
:102A0000EE9312974EC0F0938003E0937F0349C08A
:102A10008D919C911197E817F90708F4FC016D015D
:102A200012968C91129713969C919C01D901109744
:102A300009F0B6CF80917D0390917E0386159705AE
:102A4000E9F4E617F707D0F42091E9013091EA01A3
:102A50002115310541F42DB73EB78091E5019091E4
:102A6000E601281B390B82169306C8F490927E0368
:102A700080927D03F7017183608313C0CB010E94B4
:102A80004B13EC01009759F0D7014D915C91B801BF
:102A90000E94D604C8010E94E8138E0102C000E023
:102AA00010E0C801DF91CF911F910F91FF90EF903F
:102AB000DF90CF90BF90AF909F908F907F906F905E
:102AC000089508951F920F920FB60F9211242F931D
:102AD0003F934F938F939F93EF93FF938091C00009
:102AE00082FD19C04091C6008091EC02282F30E091
:102AF0002F5F3F4F2F7330708091ED0290E02817C9
:102B0000390759F0E091EC02F0E0E253FD4F42A3A7
:102B10002093EC0202C08091C600FF91EF919F913B
:102B20008F914F913F912F910F900FBE0F901F905B
:102B300018958091EC022091ED0290E0805C9F4F0F
:102B4000821B91098F739070892B11F00E9461157F
:102B500008951F920F920FB60F9211242F938F9307
:102B60009F93EF93FF939091EE028091EF0298175D
:102B700031F48091C1008F7D8093C10010C0E0913D
:102B8000EF02F0E0E05DFC4F20818091EF0290E0E9
:102B900001968F7390708093EF022093C600FF918F
:102BA000EF919F918F912F910F900FBE0F901F90DB
:102BB0001895AF92BF92DF92EF92FF920F931F93FF
:102BC000CF93DF93EC017A018B01DD24403081EE5D
:102BD000580780E0680780E0780711F0DD24D3947F
:102BE00091E0A92EB12CE889F989DD2069F0C501B1
:102BF0000C8C02C0880F991F0A94E2F7808360E072
:102C000079E08DE390E005C0108260E874E88EE121
:102C100090E0A80197010E94921D21503040404051
:102C20005040569547953795279580E120303807D5
:102C300020F0DD2011F0DD24D6CFEC85FD8530833A
:102C4000EE85FF8520831D8EEA89FB89408121E086
:102C500030E0C901088C02C0880F991F0A94E2F77E
:102C6000482B4083EA89FB894081C901098C02C055
:102C7000880F991F0A94E2F7482B4083EA89FB8961
:102C80004081C9010A8C02C0880F991F0A94E2F79B
:102C9000482B4083EA89FB8980810B8C02C0220F7C
:102CA000331F0A94E2F7209528232083DF91CF91E8
:102CB0001F910F91FF90EF90DF90BF90AF9008951C
:102CC000FC01268D878D30E0205C3F4F281B3109A9
:102CD0002F733070C9010895FC01968D878D981768
:102CE00019F42FEF3FEF06C0878DE80FF11D82A189
:102CF000282F30E0C9010895DC015E969C915E9713
:102D00005F968C915F97981719F42FEF3FEF10C0E3
:102D10005F968C915F97FD01E80FF11D92A15F9680
:102D20008C915F978F5F8F735F968C93292F30E024
:102D3000C9010895DC015D968C915D97882339F077
:102D40005096ED91FC915197808186FFF9CF5D9669
:102D50001C920895DC0190968C919097282F30E07A
:102D60002F5F3F4F2F73307091968C91919790E029
:102D700028173907C9F390968C919097FD01E80FB9
:102D8000F11DEE59FF4F608390962C9390975296C9
:102D9000ED91FC915397208181E090E05B960C903F
:102DA0005B9702C0880F991F0A94E2F7282B2083B3
:102DB00081E05D968C935D975096ED91FC915197D3
:102DC00080818064808381E090E008951092D10238
:102DD0001092D00288EE93E0A0E0B0E08093D2029F
:102DE0009093D302A093D402B093D5028FEF91E0D9
:102DF0009093CF028093CE021092EF028091EF0267
:102E00008093EE021092ED028091ED028093EC022D
:102E100085EC90E09093DB028093DA0284EC90E002
:102E20009093DD028093DC0280EC90E09093DF02CF
:102E30008093DE0281EC90E09093E1028093E002C7
:102E400082EC90E09093E3028093E20286EC90E0C3
:102E50009093E5028093E40284E08093E60283E0AD
:102E60008093E70287E08093E80285E08093E9029F
:102E700081E08093EA020895CF92DF92EF92FF9271
:102E80000F931F93CF93DF937C016B018A01C0E006
:102E9000D0E00FC0D6016D916D01D701ED91FC918D
:102EA0000190F081E02DC7010995C80FD91F01508D
:102EB00010400115110571F7CE01DF91CF911F91DF
:102EC0000F91FF90EF90DF90CF900895EF92FF92D7
:102ED0000F931F938C01DC01ED91FC910190F08127
:102EE000E02D6DE009957C01D801ED91FC910190F8
:102EF000F081E02DC8016AE009959C012E0D3F1D6F
:102F0000C9011F910F91FF90EF900895CF93DF9328
:102F1000EC016115710519F420E030E00FC0DB0110
:102F20000D900020E9F71197A61BB70BE881F981F6
:102F30000280F381E02DAD0109959C01C901DF916B
:102F4000CF9108954F925F927F928F929F92AF920E
:102F5000BF92CF92DF92EF92FF920F931F93DF9376
:102F6000CF93CDB7DEB7A1970FB6F894DEBF0FBEF3
:102F7000CDBF2C01742ECB01223008F42AE019A217
:102F800031E2C32ED12CCC0EDD1E822E9924AA2430
:102F9000BB24672D752FA50194010E94921D790114
:102FA0008A01C801B701A50194010E94731D472D34
:102FB000461B0894C108D1084A3014F4405D01C092
:102FC000495CF6014083E114F1040105110521F08B
:102FD0007E2C5F2DC801DDCFC201B6010E9486178D
:102FE000A1960FB6F894DEBF0FBECDBFCF91DF9193
:102FF0001F910F91FF90EF90DF90CF90BF90AF9017
:103000009F908F907F905F904F900895DC012115E5
:10301000310541F4ED91FC910190F081E02D642F98
:10302000099508950E94A2170895EF92FF920F93B9
:103030001F939A01E62EFF2400E010E0B801A701DB
:103040000E9406181F910F91FF90EF900895CF9264
:10305000DF92EF92FF920F931F93CF93DF93EC01D8
:103060006A017B012115310541F4E881F981019064
:10307000F081E02D642F09951FC02A303105D1F46D
:1030800077FF17C0E881F9810190F081E02D6DE2B2
:1030900009958C0144275527BA014C195D096E0921
:1030A0007F09CE012AE00E94A2179801280F391F3C
:1030B00004C02AE00E94A2179C01C901DF91CF91B0
:1030C0001F910F91FF90EF90DF90CF9008950E9495
:1030D000861708957F928F929F92AF92BF92CF9260
:1030E000DF92EF92FF920F931F93CF93DF934C01E8
:1030F0007A018B01722ECB01BA01A80197010E94BF
:103100006F1D882321F0C40165ED71E021C0C0E08E
:10311000D0E057016801E894D7F8C601B5012FEF58
:103120003FEF4FE75FE70E946F1D882351F4C60110
:10313000B5012FEF3FEF4FE75FE70E94B91B18166D
:1031400014F0C1E0D0E0219739F0C40169ED71E0DD
:103150000E948617EC0193C0C801B7012FEF3FEF23
:103160004FE75FE40E94081D181654F0C801B7012C
:103170002FEF3FEF4FE75FEC0E94B91B882324F449
:10318000C4016DED71E0E4CFC801B70120E030E08B
:1031900040E050E00E94B91B87FD03C0C0E0D0E0D2
:1031A0000EC0D401ED91FC910190F081E02DC4019D
:1031B0006DE20995EC0117FB109517F9109520E0C9
:1031C00030E040E05FE3DD240BC0CA01B90120E03C
:1031D00030E040E251E40E94BD1B9B01AC01D3945E
:1031E000D71498F3C801B7010E94551B5B016C010D
:1031F0000E942A1C7B018C01C401B801A7012AE0AE
:1032000030E00E940618C80FD91F772039F0C4019A
:1032100061EE71E00E948617C80FD91FC801B7017F
:103220000E94561C9B01AC01C601B5010E94541BB3
:1032300024C020E030E040E251E40E940C1D7B01FC
:103240008C010E94251C5B016C01CC24B7FCC0944E
:10325000DC2CC401B601A5012AE030E00E94271849
:10326000C80FD91FC601B5010E94581C9B01AC01B3
:10327000C801B7010E94541B7A947720D1F6CE0181
:10328000DF91CF911F910F91FF90EF90DF90CF9042
:10329000BF90AF909F908F907F9008950E946A1882
:1032A0000895EF92FF920F931F937C010E946A187A
:1032B0008C01C7010E946617080F191FC8011F91D2
:1032C0000F91FF90EF900895EF92FF920F931F934D
:1032D0007C010E9486178C01C7010E946617080FA7
:1032E000191FC8011F910F91FF90EF900895823030
:1032F00000F5E82FF0E0EE0FFF1FE059FC4F71835F
:103300006083882319F08130A1F408C0809169009E
:103310008C7F842B80936900E89A089580916900DE
:10332000440F551F440F551F837F842B80936900E2
:10333000E99A08951F920F920FB60F9211242F93BE
:103340003F934F935F936F937F938F939F93AF932D
:10335000BF93EF93FF938091700390917103892B3A
:1033600029F0E0917003F09171030995FF91EF91BD
:10337000BF91AF919F918F917F916F915F914F918D
:103380003F912F910F900FBE0F901F9018951F9295
:103390000F920FB60F9211242F933F934F935F9389
:1033A0006F937F938F939F93AF93BF93EF93FF930D
:1033B0008091720390917303892B29F0E09172033D
:1033C000F09173030995FF91EF91BF91AF919F9198
:1033D0008F917F916F915F914F913F912F910F90BE
:1033E0000FBE0F901F901895CF93DF930E945C1A29
:1033F0000E94F004C9E9D5E10E94DF042097E1F3BF
:103400000E949915F9CF0E944B1308951F920F92B5
:103410000FB60F9211242F933F938F939F93AF93E7
:10342000BF938091780390917903A0917A03B09132
:103430007B0330917C030196A11DB11D232F2D5FCD
:103440002D3720F02D570196A11DB11D20937C032F
:103450008093780390937903A0937A03B0937B03CE
:103460008091740390917503A0917603B0917703D6
:103470000196A11DB11D8093740390937503A093D1
:103480007603B0937703BF91AF919F918F913F9156
:103490002F910F900FBE0F901F9018958FB7F89433
:1034A000209178033091790340917A0350917B0306
:1034B0008FBFB901CA010895789484B5826084BD34
:1034C00084B5816084BD85B5826085BD85B5816028
:1034D00085BDEEE6F0E0808181608083E1E8F0E088
:1034E0001082808182608083808181608083E0E8B7
:1034F000F0E0808181608083E1EBF0E08081846096
:103500008083E0EBF0E0808181608083EAE7F0E097
:1035100080818460808380818260808380818160FB
:1035200080838081806880831092C1000895EF922B
:10353000FF920F931F93CF93DF937B018C013FB7D3
:10354000F8948091740390917503A0917603B091E3
:10355000770326B5A89B05C02F3F19F00196A11D42
:10356000B11D3FBFBA2FA92F982F8827820F911D19
:10357000A11DB11D52E0880F991FAA1FBB1F5A95AC
:10358000D1F7EC0130C00E94531B3FB7F8948091F3
:10359000740390917503A0917603B091770326B5DB
:1035A000A89B05C02F3F19F00196A11DB11D3FBF7B
:1035B000BA2FA92F982F8827820F911DA11DB11D09
:1035C00032E0880F991FAA1FBB1F3A95D1F78C1BB9
:1035D0009D0B885E9340B8F20894E108F108010958
:1035E0001109C851DC4FE114F1040105110559F628
:1035F000DF91CF911F910F91FF90EF900895482F89
:1036000050E0CA018A5D964FFC012491CA018E5E8A
:10361000964FFC0194914250574FFA013491332355
:1036200009F440C0222351F1233071F0243028F4F2
:103630002130A1F0223011F514C02630B1F027302E
:10364000C1F02430D9F404C0809180008F7703C08A
:10365000809180008F7D8093800010C084B58F772B
:1036600002C084B58F7D84BD09C08091B0008F7782
:1036700003C08091B0008F7D8093B000E32FF0E015
:10368000EE0FFF1FE651F74FA591B4912FB7F894B5
:10369000662321F48C919095892302C08C91892B0B
:1036A0008C932FBF089508955058BB27AA270ED09A
:1036B00075C166D130F06BD120F031F49F3F11F429
:1036C0001EF45BC10EF4E095E7FB51C1E92F77D101
:1036D00080F3BA17620773078407950718F071F42F
:1036E0009EF58FC10EF4E0950B2EBA2FA02D0B0185
:1036F000B90190010C01CA01A0011124FF27591B37
:1037000099F0593F50F4503E68F11A16F040A22F3C
:10371000232F342F4427585FF3CF469537952795AD
:10372000A795F0405395C9F77EF41F16BA0B620BAC
:10373000730B840BBAF09150A1F0FF0FBB1F661FF3
:10374000771F881FC2F70EC0BA0F621F731F841F36
:1037500048F4879577956795B795F7959E3F08F05C
:10376000B3CF9395880F08F09927EE0F979587951B
:103770000895D9D008F481E008950CD00FC107D185
:1037800040F0FED030F021F45F3F19F0F0C051114D
:1037900039C1F3C014D198F39923C9F35523B1F378
:1037A000951B550BBB27AA2762177307840738F0B0
:1037B0009F5F5F4F220F331F441FAA1FA9F333D00F
:1037C0000E2E3AF0E0E830D091505040E695001CC3
:1037D000CAF729D0FE2F27D0660F771F881FBB1F7F
:1037E000261737074807AB07B0E809F0BB0B802D59
:1037F000BF01FF2793585F4F2AF09E3F510568F0A5
:10380000B6C000C15F3FECF3983EDCF38695779538
:103810006795B795F7959F5FC9F7880F911D9695A6
:10382000879597F90895E1E0660F771F881FBB1F02
:10383000621773078407BA0720F0621B730B840BAF
:10384000BA0BEE1F88F7E095089504D06894B11183
:10385000D9C00895BCD088F09F5790F0B92F992710
:10386000B751A0F0D1F0660F771F881F991F1AF08B
:10387000BA95C9F712C0B13081F0C3D0B1E0089554
:10388000C0C0672F782F8827B85F39F0B93FCCF3D5
:10389000869577956795B395D9F73EF49095809581
:1038A000709561957F4F8F4F9F4F0895E89409C0A1
:1038B00097FB3EF490958095709561957F4F8F4F63
:1038C0009F4F9923A9F0F92F96E9BB279395F69579
:1038D000879577956795B795F111F8CFFAF4BB0FF7
:1038E00011F460FF1BC06F5F7F4F8F4F9F4F16C05B
:1038F000882311F096E911C0772321F09EE8872FE5
:10390000762F05C0662371F096E8862F70E060E0A0
:103910002AF09A95660F771F881FDAF7880F969519
:10392000879597F90895990F0008550FAA0BE0E8BD
:10393000FEEF16161706E807F907C0F01216130671
:10394000E407F50798F0621B730B840B950B39F4B1
:103950000A2661F0232B242B252B21F408950A2617
:1039600009F4A140A6958FEF811D811D089597F957
:103970009F6780E870E060E008959FEF80EC089515
:1039800000240A941616170618060906089500243E
:103990000A9412161306140605060895092E0394B8
:1039A000000C11F4882352F0BB0F40F4BF2B11F42C
:1039B00060FF04C06F5F7F4F8F4F9F4F089557FD8B
:1039C0009058440F551F59F05F3F71F04795880F8D
:1039D00097FB991F61F09F3F79F087950895121624
:1039E00013061406551FF2CF4695F1DF08C01616D0
:1039F00017061806991FF1CF869571056105089481
:103A00000895E894BB2766277727CB0197F9089597
:103A10008ADF08F48FEF08950BD0C0CFB1DF28F014
:103A2000B6DF18F0952309F0A2CFA7CF1124EACF73
:103A3000C6DFA0F3959FD1F3950F50E0551F629F0D
:103A4000F001729FBB27F00DB11D639FAA27F00DF7
:103A5000B11DAA1F649F6627B00DA11D661F829F1E
:103A60002227B00DA11D621F739FB00DA11D621F03
:103A7000839FA00D611D221F749F3327A00D611D20
:103A8000231F849F600D211D822F762F6A2F112402
:103A90009F5750408AF0E1F088234AF0EE0FFF1F55
:103AA000BB1F661F771F881F91505040A9F79E3F8C
:103AB000510570F05CCFA6CF5F3FECF3983EDCF38E
:103AC000869577956795B795F795E7959F5FC1F7C9
:103AD000FE2B880F911D9695879597F9089523DF02
:103AE000880B990B0895629FD001739FF001829F0C
:103AF000E00DF11D649FE00DF11D929FF00D839F7D
:103B0000F00D749FF00D659FF00D9927729FB00D19
:103B1000E11DF91F639FB00DE11DF91FBD01CF012C
:103B200011240895A1E21A2EAA1BBB1BFD010DC092
:103B3000AA1FBB1FEE1FFF1FA217B307E407F5075D
:103B400020F0A21BB30BE40BF50B661F771F881F39
:103B5000991F1A9469F760957095809590959B01CF
:103B6000AC01BD01CF010895EE0FFF1F0590F49148
:083B7000E02D0994F894FFCF49
:103B78004649464F206F766572666C6F77210071F3
:103B8800756174090009004D505536303530206391
:103B98006F6E6E656374696F6E206661696C6564CB
:103BA800004D50553630353020636F6E6E65637446
:103BB800696F6E207375636365737366756C00490E
:103BC8006E697469616C697A696E6720444D502E1C
:103BD8002E2E00456E61626C696E6720444D502E32
:103BE8002E2E00456E61626C696E6720696E746581
:103BF800727275707420646574656374696F6E2E73
:103C08002E2E0057616974696E6720666F72206690
:103C18006972737420696E746572727570742E2E71
:103C28002E00444D5020696E697469616C697A612F
:103C380074696F6E206661696C65642028636F64BF
:103C480065200029006E616E00696E66006F7666F9
:103C5800002E00E80380008103000000000000E857
:103C680012B712701279128E129F1200000000AA69
:0C3C7800163C1760167C166C169A16009D
:00000001FF
